:020000040000FA
:100000000C947403189518951895189518951895CB
:1000100018951895189518950C94DE001895189554
:100020001895189518951895189518951895189568
:100030001895189518951895189518951895189558
:100040000C941A030C94B2011895189518951895EC
:100050000C9482010C940A0318951895189518951C
:100060001895189518951895189518951895189528
:100070001895189518951895189518951895189518
:100080001895189518951895189518951895189508
:100090000C946602189518950C948702189518957B
:1000A00018951895189518951895189518951895E8
:1000B00018951895189518951895189518951895D8
:1000C0001895189518951895189518951FB7F894C0
:1000D00000E80093610001E0009361001FBFA89554
:1000E00004B7077F04BF00916000086100936000BF
:1000F00000E0009360000E94CF020E94EC0201E049
:100100000E940801789408950E94660003E010E0C0
:100110001A930A931A931A9300E414E04DD024968C
:100120000AE614E049D000E019E02DE30A932A938F
:100130001A930A930FE814E03FD0249601D0FECF23
:100140008A930E94C202802FF0E0E02FE156F04037
:100150007A9710F48052082F015329F10A9531F152
:100160000151D9F00250E1F00A9521F5E6EEF4E0F4
:100170004181528160E070E000E412E42FE030E061
:100180000E94980336952795179507951A930A9319
:100190000FE914E011D022960DC00E9407030AC097
:1001A00004EF11E005C008EE13E002C000ED17E017
:1001B0000E94F402899108950C94FA039A938A9309
:1001C000FA93EA933A922A921A920A927A936A934B
:1001D0005A934A933A932A931A930A938FB79BB7E9
:1001E000E091B304F091B40409959BBF8FBF0991CE
:1001F0001991299139914991599169917991099070
:10020000199029903990E991F991899199911895CE
:100210008A9380E0013039F400E011EE20E030E014
:100220000E94C00101C085E8082F89910895422FDE
:10023000013029F4212F042F132F0C94EA0100E040
:100240000895422F013029F4212F042F132F0C94ED
:100250002B02F5CF0E94C6036FB7F89446D04489AD
:100260004F3FD1F13DD044D047D08101A1EBB4E064
:100270002D913C910217130751F4109289000092BE
:10028000880002E006BB00916F00026003C000918D
:100290006F000D7F00936F00A1EBB4E04D915C9176
:1002A0009A0180918400909185008C01A1EBB4E0CB
:1002B0008D919C914817590779F70F5F1F4F2F4F6A
:1002C0003F4F00191109220933090F3F1F4F2F4FCC
:1002D0003F4710F401E0038B6FBFE4E00C94D603BA
:1002E00050E009E010E00C948803E5EBF4E0089599
:1002F000DF01A00FB11F08950D901D902D903C902F
:100300000895A8CF9A938A93FA93EA933A922A92FD
:100310001A920A927A936A935A934A933A932A9337
:100320001A930A938FB79BB718D00F5F1F4F0083A4
:100330001183E7DF9BBF8FBF0991199129913991F3
:100340004991599169917991099019902990399021
:10035000E991F991899199911895E1EBF4E0008187
:10036000118108951A930A931FB70091C7040023BF
:1003700019F001E00093C8041FBF09911991189565
:100380000E94C6030801190142E00E949003005038
:10039000174F224C3F4FC801D90143E08001910122
:1003A0000E949003A801B9018C019D010E9498034D
:1003B000C80101979093CD008093CC0002E0009398
:1003C000C80008ED0093C90006E00093CA00E4E00D
:1003D0000C94D6030D013091C9003F7B3093C900C6
:1003E000ECECF4E044893589341720F059E0531BD4
:1003F000540F03C0542F5A95531B521710F4352F26
:1004000001C0322F232F70E005C05395558B3A95CC
:100410000F5F1F4F332361F0D8015C916589DF01C5
:10042000A60FB71F5C935589593079F7758BEFCFBD
:10043000008D002341F4DF01A40FB71F0C9100933E
:10044000CE0001E0008F0091C90000640093C90054
:10045000022FD0010895BD01ECECF4E0318D33237F
:1004600011F400E031C04091C9004F774093C900BA
:100470003A3040F03789368B3AE0318F2A3028F015
:100480002AE003C0321708F4232F322F50E014C0A3
:100490004689DF01A40FB51F1A964C91D8014D93E0
:1004A0008D0146894395468B418D4A95418F2A950A
:1004B00046894A3009F4568B222351F70091C9002E
:1004C00000680093C900032FDB010895FA93EA93B3
:1004D0003A932A931A930A933FB7E091E304109159
:1004E000E50413951093E5042091CE00F0E0E45369
:1004F000FB4F22870091E30427D00093E3043FBF22
:100500000991199129913991E991F9911895FA93E5
:10051000EA932A931A930A932FB7ECECF4E0048938
:1005200013D0048B04891589011739F010E0E00F0E
:10053000F11F00810093CE0002C000E0008F2FBFAA
:10054000099119912991E0CF093011F400E0089543
:10055000039508958A932197802F08830A3021F408
:100560000DE0088307D0888305D000E010E02196D5
:100570008991089511E09E0101E00E941701002376
:10058000C9F30895219706D00023E9F3088110E00C
:100590002196089511E09E0101E00C94210100E4F0
:1005A00000937B0000917A000F7700937A0003E0BC
:1005B00000937C0045E050E020E030E006EE14E0DF
:1005C0000E94F10304E000BF02EC0093810000E20E
:1005D00006BB00936F00089502E404BD279A02E071
:1005E00005BB00936E00089520E12093EB0423E007
:1005F00025BDA80160E070E000E019E02DE330E0E7
:100600000E949803000F012F001F07BD089500E00E
:1006100005BD08951A930A931FB70091EB040A953C
:100620000093EB04002311F400E005BD1FBF099106
:1006300019911895FA93EA930A927A936A935A93C6
:100640004A933A932A931A930A930FB60FB7F894E2
:10065000E6EEF4E01081139510832091860030912E
:100660008700438154812417350708F40000B9013D
:10067000641B750B61837283238334830FBF0FBEAA
:1006800009911991299139914991599169917991DA
:100690000990E991F99118950E94C403D901CA0102
:1006A00044245524232B19F400E010E018C0013035
:1006B000140549F00230104071F405C001E0400E0D
:1006C00000E0501E0197082F092B41F00D910E9468
:1006D000AA0211239AF70FEF1FEF01C08201E6E093
:1006E0000C94D4030C94B2070FE30DBF04E00EBFCB
:1006F000C0E0D4E00E94DF03002311F00E94340424
:100700000E9484000E9486030C9472030C9472036E
:10071000149F102D059F100D049F002D110D08959D
:100720004A952AF0000F111F221F331FF9CF089599
:10073000002411241001E0E2EA9592F0001F111F3D
:10074000221F331F001C111C221C331C041615060B
:100750002606370688F3041A150A260A370AECCF4C
:10076000001F111F221F331FA001B101009510951A
:10077000209530950895EA92DA92CA92BA92AA9296
:100780009A928A927A926A925A924A92BA93AA93C7
:100790009A938A930895EE84DD84CC84BB84AA84E2
:1007A000998488847F806E805D804C80BB81AA8123
:1007B00099818881F0E0EC0FFD1FEF01089501E0C1
:1007C0000895F80103C0319641505040042F052B85
:1007D00029F000810217B9F78F01089500E010E0B9
:1007E0000895F80103C0219341505040342F352B18
:1007F000D1F7089522979E012E5F3F4F28833983BA
:10080000BE01A80121E030E000EA17E00E94780470
:10081000229608959A938A932197C8010F3F0FEF6C
:10082000900761F0888341E050E09E018A010E94B8
:100830004C030130104011F48C0102C00FEF1FEF88
:10084000219689919991089520E008D0E9F70895BB
:100850003BBF27913BB702D0D9F708952D930150A4
:100860001040202F212B089506E6402E0FE0502E39
:1008700000E0602EF201362D6BBE07911691F20159
:10088000EE5FFF4F3F4F3BBFA791B691F201362D70
:10089000EC5FFF4F3F4F3BBF479157916691242F2D
:1008A000252B262B21F0FA01362FD2DF01C0CCDF19
:1008B00007E0400E00E0501E601EA201662D443786
:1008C0005F406040B8F20895F8013191321729F085
:1008D0008F013323C9F700E010E00895F80101C04B
:1008E000319620812223E1F7E01BF10B8F0108955F
:1008F00037D2E1973801CA01DB012C833D8300E048
:10090000088B098B96D1002319F4088919895EC1D7
:10091000053249F400E00A870B870C870D870E87A4
:100920000F87F8D109C04191CF019E018301D4D234
:10093000112342F749C121607BD10052E1F30350FA
:1009400059F0085029F0025029F0035039F008C03E
:100950002260F2CF2460F0CF2860EECF2061ECCF90
:1009600000810A3271F459D10C8B1D8B0C89112333
:1009700032F41195019510400C8B1D8B246001966B
:100980000FC03C8B3D8B0AC04C895D894F3F0FE700
:10099000500719F02ED16C8B7D8B01964DD1A0F3B1
:1009A00048D10E3221F00FEF0A8B0B8B17C040D1CC
:1009B0000A3229F432D10A8B1B8B01960FC03A8B75
:1009C0003B8B0AC04A895B894F3F0FE7500719F0FC
:1009D00010D16A8B7B8B01962FD1A0F32E8B3F8B8E
:1009E000FC0120810BEA14E00E946404012B21F039
:1009F000FC010191CF0101C000E0088F083631F4FD
:100A000018D1083619F402E6088F0196EED008874F
:100A10001987FC014080042D0552B1F00353C9F140
:100A20000B5009F497C00A9509F476C0055009F4F3
:100A300073C0065071F10A9529F1035041F002503C
:100A400041F1035031F18DC006D105E288C0E5D0F7
:100A50000E831F834A895B890E8155231AF40E94F5
:100A60006E040DC057D10E94E103202F212B29F0E5
:100A70002E813F81021B130B02C00A891B890C8740
:100A80001D8776C0CAD0E2D0B0D00E831F8328E77E
:100A90005EC0088C0CE6001619F4BBD00C5F0CC0CD
:100AA00001E7001611F4C1D004C00AE60016BDD05B
:100AB00031F411978F01085FA7D02FD102C0AED0BB
:100AC00029D18FD008E6001671F002E6001629F44D
:100AD000088180D01A831B8309C004E7001619F02F
:100AE0000AE7001619F408811981B0D00E8903FFB6
:100AF00027C0088119812A813B81012B022B032BFE
:100B0000F9F0042D00620837D9F4ACD000E366D0C8
:100B10002F5F3F4FAAD014C09D01088DB5D061D082
:100B200033231AF498D00DE20AC00E8901FF03C0E6
:100B300092D00BE204C000FF03C08DD000E24ED083
:100B400054D090D0020F131F0E831F83242D8E01CB
:100B500009D10EC080D05DD00E5F56D000813ED04E
:100B600007C079D005E23AD0442011F07BD07DD087
:100B700001964C885D880A851B85401A510A0E85AE
:100B80001F85401A510A0C851D85401A510A0E898D
:100B900002FD02C073D0C1F06A857B85AE01475E5D
:100BA0005F4F4FD089F460E34E855F8569D061F077
:100BB0006C857D854E815F8144D031F40E8902FFC2
:100BC000A1CE5CD009F09ECE0FEF1FEFE196E8E0DA
:100BD0000C94D20310E00883198308954AD000834F
:100BE0000895F9DF2A833B8308958E01075E1F4F26
:100BF0000895608170E00AE010E00E948803600FB1
:100C0000711F6053704008951F4F0D931C931197EF
:100C100008950BD011978F01089507D011978F0178
:100C20000E5FF2DF008111810895ED91FC9108952E
:100C30000196FC0100810895FC01008100530A30F7
:100C400008959E01830165D1012B089520E0C3DF43
:100C50002A832B83089506D089010F5F1F4F0A87CF
:100C60001B8708952A853B850895F6DF02D04082D0
:100C70000895FE017996E20FF31F089560E2A20144
:100C80009E0183014FD0E0CF0D01025601F10650C5
:100C900049F1045029F0085029F1065089F022C08A
:100CA000D901C3DF8F010C5F1F4FD9010D931C9336
:100CB00034D0432F440F440B542F642F742F1BC088
:100CC0001CD028D040E050E060E070E014C018D0A4
:100CD000102F110F110B212F312F412F512F612F69
:100CE000712F09C00AD0212F220F220B322F422F41
:100CF000522F622F722FD001089502D01C910895B7
:100D0000F901A081B1818D010E5F1F4F0083118316
:100D10000D91089520E030E0089500811181228135
:100D2000338108951DD021976883D801C9012A0114
:100D30006624772404C001E0600E00E0701E641495
:100D4000750454F461E070E0AE019C018D01E1D0C6
:100D5000012B89F300E001C001E010E0219637CFBC
:100D60000C94C2030E94BB0324972801E22EF801D1
:100D7000008511850A831B830FE6E01611F408E055
:100D800007C0022F0062083711F00AE001C000E13D
:100D900021DF08E1602E772480819181A281338157
:100DA000B32F44E6E41619F049E6E41649F4332378
:100DB0003AF49095A095B09581959F4FAF4FBF4F56
:100DC000082F092B0A2B0B2B91F402891389012B75
:100DD00071F40881083009F041C0068903FF3EC064
:100DE00007E1602E00E3EA81FB81078B37C00FEF3C
:100DF000600E701E88809980A92CAA0CAA0865D064
:100E0000405D4A3318F00E2D0155400F0A811B81B9
:100E1000060D171D6801F801408357D0C801D9019C
:100E2000012B022B032B31F0F201068117810C15E7
:100E30001D05E8F20881083089F4F201068903FFF4
:100E40000DC0F6010081003349F00FEF600E701EF7
:100E500000E3EA81FB81E60DF71D008308E110E065
:100E600006191709F201048715872A813B81260D8F
:100E7000371D26833783228933890217130744F4E9
:100E8000201B310B2687378706890F7E068B19C0FA
:100E90003323BAF426892471203199F46488758843
:100EA00022853385621A730A26853785621A730A8A
:100EB000601A710A01E0601600E0700614F06686A0
:100EC00077862496EFE00C94CB03A4016A2D7A2D4B
:100ED0008C019D010C949803BA93AA93F801D9014F
:100EE000242F14960D911C9115970995FD010483EB
:100EF0001583012B49F0008911890F5F1F4F008B6B
:100F0000118B00E010E002C00FEF1FEFA991B99123
:100F1000089526DFD801C9012A013B0100E010E055
:100F200003C02FEF620E721E262D272941F0F20119
:100F300041912F019C018D01CFDF112392F747CE04
:100F40000E94C603D801822F022F10E00E940A04DB
:100F50000817104011F48D0102C000E010E0E4E039
:100F60000C94D603FFCF71004004740F003B00B116
:100F7000040000000D0A2D2D2057656C636F6D6510
:100F800020746F2041546D6567612054657374202F
:100F90005625642E25303264202D2D0D0A002D2D6E
:100FA000204275696C64206F6E3A2031353A3037D3
:100FB0003A343020404E6F76203236203230313293
:100FC0000D0A002D2D20465F4350553A20256C75A3
:100FD0000D0A000D0A467265713A25640D0A006813
:050FE0006C747A4C0066
:020000040001F9
:04DFFC005A5AA5A523
:00000001FF
