:10000000800C00202D1F00002DE9F04FA1B080468C
:1000100017461D46029102AE0020706211AC6FF0CF
:1000200000490AE017F8011B0298C0470290002817
:1000300000F07C82706A401C7062387808B9706A7F
:1000400076E22528EED10020F06030617061B06169
:10005000F061306201E040F0010017F8011F202933
:10006000F9D023290ED02B2904D02D2906D03029F0
:100070000CD00FE040F0020080B2EEE740F0040048
:1000800080B2EAE740F0080080B2E6E740F01000F6
:1000900080B2E2E72A290DD129680A1D2A60096881
:1000A000F162002904D54942F16240F0040080B2B7
:1000B0007F1C11E00021F16209E0F16A494505D099
:1000C00001EB810302EB43013039F1627F1C3A7886
:1000D000A2F130010A29F0D339782E291CBF4FF044
:1000E000FF31B1621CD117F8011F2A2906D12968F6
:1000F0000A1D2A600968B1627F1C11E00021B1620B
:1001000009E0B16A494505D001EB810302EB4301E7
:100110003039B1627F1C3A78A2F130010A29F0D35C
:10012000308639780FF6E43000F014FE08B117F885
:10013000010B8DF83A009DF83A00682804D1387810
:1001400068280AD1622005E06C2804BF38786C2842
:1001500003D171208DF83A007F1C11A8B0603A7865
:100160001046253825D01C3875D0001F022872D9BA
:10017000133800F09C8009386DD0801E00F0378164
:10018000401E00F0DD80401E022864D9001F00F0F0
:10019000D780401F34D0401E00F08980401E24D0FC
:1001A000C01E0CD0801E00F08280C01E00F07F8038
:1001B00026E1F068411CF160252101552AE12868FB
:1001C000011D296000687060B26A002A03D500F042
:1001D000DDFD30611EE1002100F0F4FD00281ABFB2
:1001E0007168401AB06A306114E12868011D296005
:1001F00000680021CDE9000111A870607821F2E0CB
:100200009DF83A00622818D0682806D06A280BD0DA
:100210006C2819D0712807D016E02868011D2960C4
:10022000716A00680180F5E02A68101D2860706A14
:10023000C1171268C2E90001ECE02868011D2960BD
:10024000716A00680170E5E02868011D2960716A23
:1002500000680160DEE02868C01D20F0070028600B
:10026000034603F108002860D3E90001CDE900014D
:10027000002904D5F068411CF1602D210DE0308E7D
:10028000810704D5F068411CF1602B2105E0C0070F
:1002900004D5F068411CF16020210155F06811A9D6
:1002A00040187060114600A800F0D8F9B2E09DF83F
:1002B0003A306C2B08BF286811D0712B08BF286812
:1002C00002D06A2B28680AD1C01D20F007002860E0
:1002D00084460CF108002860DCE9000103E0011D00
:1002E000296000680021CDE90001682B04BFDDE929
:1002F000000180B20BD0622B04BFDDE90001C0B267
:1003000005D0742B18BF7A2B04D1DDE90001002140
:10031000CDE9000196F8300000075FD5DDE9000166
:10032000002908BF002859D042F02000782855D174
:10033000F06830210155401C411CF16002554DE030
:100340009DF83A0062280CD0682810D06A281AD08C
:100350006C2824D0712816D0742820D07A280CD08C
:100360001DE02868011D296090F900001BE0286845
:10037000011D2960B0F9000015E02868011D296001
:100380000068002110E02868C01D20F007002860E8
:10039000034603F108002860D3E9000104E028685F
:1003A000011D29600068C117CDE90001DDE90001E8
:1003B000002904DAF068411CF1602D210DE0308E37
:1003C000810704D5F068411CF1602B2105E0C007CE
:1003D00004D5F068411CF16020210155F06811A995
:1003E00040187060114600A800F0A5F812E0F0680F
:1003F000411CF16029680A1D2A600968015509E05D
:10040000F068411CF160252101551AB1F068411CCA
:10041000F16002557F1CF06AF168401AB169401A18
:100420003169401AF169401A7169401A316AA0EBCA
:10043000010A96F83000400711D420208DF84000C2
:10044000BAF1010F0BDBD346012310AA00A94046E5
:1004500000F044FC002869D1BBF1010BF4D1F36832
:1004600011AA00A9404600F039FC00285ED13020D6
:100470008DF84000D6F818B0BBF1010F0ADB01235C
:1004800010AA00A9404600F029FC00284ED1BBF17B
:10049000010BF4D13369726800A9404600F01EFCDC
:1004A000002843D130208DF84000D6F81CB0BBF1B5
:1004B000010F09DB012310AA00A9404600F00EFC41
:1004C000A0BBBBF1010BF5D17369306971684218AB
:1004D00000A9404600F002FC40BB30208DF84000EF
:1004E000D6F820B0BBF1010F09DB012310AA00A947
:1004F000404600F0F3FBC8B9BBF1010BF5D196F80B
:10050000300040077FF599AD20208DF84000BAF10A
:10051000010FFFF692AD012310AA00A9404600F09A
:10052000DDFB18B9BAF1010AF5D186E54FF0FF30CD
:1005300021B0BDE8F08F2DE9FA4B86B005462F6952
:100540006F2908BF082605D041F02000782814BF85
:100550000A2610263C24D5E9000181468B469DF8E9
:100560001820642A18BF692A05D1002903DAD9F1B5
:1005700000096BEB4B0BBBF1000F08BFB9F1000F8B
:100580000CD1286B50B9082E44D195F838000007DB
:1005900040D53B24302087F83B003BE0A4F1010824
:1005A0004446F017CDE9046048465946DDE9042386
:1005B00000F034FCCDE90201CDE9009BDDE9022326
:1005C000DDE90401A0FB029BDDE90001A0EB0900CD
:1005D0003030C0B23A2803D39DF8181051390818AA
:1005E00008F80700DDE9029BBBF1000F08BFB9F175
:1005F000000F03D0E868E1198842CFD3082E09D153
:1006000095F83800000705D5E05D302802D0641E5B
:100610003020E055C4F13C00A861E119E960296B84
:10062000884207DA081A2862288F4FF6EF710840CF
:10063000288710E000290ED595F8381001F0140134
:10064000102908D1696B6A69891A2A6A891A0C1AF1
:10065000012CA8BF2C6208B0BDE8F08B2DE9F24F49
:100660008EB0054604AFD5E90001CDE902019DF841
:10067000380040F020008DF8000061280BD0286B76
:10068000002848BF062005D404BF9DF80000672855
:1006900001D1012028636968C1F30A5040F2FF7359
:1006A00098421CD1080304BF2868002809D1032000
:1006B000A8619DF8380061381A2837D30FF26061BD
:1006C00008E00320A8619DF8380061381A282AD371
:1006D0000FF244610322E86800F018FCBBE101005E
:1006E00017D1284600F04DFC012812DB0024002021
:1006F0009DF80010612920D1E968302201F8012B12
:100700004A1CEA609DF83820612A0CBF78225822E2
:100710000FE040F2FE316A6861F31E526A60441ACB
:100720004FF0FF30E4E70FF2EC51D3E70FF2EC515A
:10073000D0E70A706969891C696110B90026B04662
:100740007FE19DF80000612840F09780286B002829
:100750004CBF2126461C36B2771CD5E900ABDDE93B
:1007600002010022002300F02FFC3ABF8BF0004072
:10077000CDE902A0CDE902ABA4F104088DF8102068
:100780000DF11109012F33DBDDE902010022002305
:1007900000F032FC2CD21C2102A800F045FCDDE95F
:1007A000020100F0CFFC0446FF1F012F09DB00F01F
:1007B000F5FC02460B46DDE9020100F007FDCDE93C
:1007C000020109F20700072104E004F00F0200F81B
:1007D000012D2411012C01DB491EF6D5491E5CBFF9
:1007E000002200F8012DF9D500F20709012FCBDA1C
:1007F0000DF11100A9EB00010DF11107B142B8BFD5
:100800000E4636B2002E31D43046884206DA04A9AC
:1008100041184978082928BF0F2100D2002104AAD5
:10082000821800E0761E401E12F801398B42F9D082
:100830000F2904D104A941184A78521C4A70002893
:1008400003D504AF761C08F1040836B2701E0DD42F
:10085000C1190A783032D2B23A2A03D39DF838301F
:100860003A3B9A1801F80129401EF2D5286B00285E
:1008700040F1E780701E2863E3E0DDE90201002219
:10088000002300F0A1FB05D2DDE9020181F0004167
:10089000CDE9020124B247F2975060436F4990FBC3
:1008A000F1F80FFA88F8C8F107040027DFF8B091D3
:1008B000012C19DBDDE902ABE00707D550465946AC
:1008C0003A464B4600F042FD82468B46641038465D
:1008D00049463A464B4600F039FD07468946002C0A
:1008E000EAD1CDE902AB21E064429246DFF874B16F
:1008F00014D0E00707D5504659463A464B4600F01B
:1009000025FD82468B466410384649463A464B469A
:1009100000F01CFD07468946002CEAD1DDE9020102
:1009200052465B4600F0E4FDCDE902019DF800006F
:1009300066280CBF08F10A000620296B4618142E01
:10094000A8BF132630208DF810000DF11104464F7A
:10095000012E33DBDDE9020100F00AFC04F108019D
:1009600004220A24B0FBF4F303EB830EA0EB4E0049
:10097000303001F8010DB3FBF4F000EB8004A3EB81
:100980004403303301F8013D521EEAD101F108045D
:10099000083E012EDCDBDDE9020100F0E9FB00F09E
:1009A00007FC02460B46DDE9020100F00FFC0022C5
:1009B0003B4600F0CBFCCDE90201CBE70DF1110085
:1009C000201A0DF111079DF81110302906D1401E93
:1009D000A8F1010817F8011F3029F8D09DF8001080
:1009E000662904BF0FFA88F808F1010103D06529D0
:1009F0000CBF012100212A6B8E1836B2B042B8BF5D
:100A0000064636B2002E1CD43146814204DAC85D57
:100A1000352828BF392000D23020CA19521E00E0E4
:100A2000761E491E12F801398342F9D0392802D1C5
:100A3000C85D401CC855002903D57F1E761C08F1EF
:100A400001080FFA88F0009033B23A469DF838104A
:100A5000284600F00BF80FB0BDE8F08FA08601002B
:100A6000000024400000F03F84D797412DE9F04377
:100A700085B00546894617461E46BDF93040D5F873
:100A80003080012E02DA01260FF2982749F020006B
:100A900066280AD0672840F086806FF003018C42F8
:100AA000C0F28780444580F28480641C66280CD0A4
:100AB00095F83800000702D44645B8BFB04624B2C6
:100AC000B8EB040848BF4FF00008E868A96924B2F1
:100AD000012C25DA4A1C30230B54B8F1010F03DA3C
:100AE00095F83810090702D52E211154521CAA611D
:100AF00018EB040FB8BFC8F1000424B26142696268
:100B0000A044B045B8BF464636B2EE6132463946DB
:100B1000AB69181800F0FAF9A8EB0600A862C6E065
:100B20000818A64218DA3246394600F0EFF9A969EA
:100B30007118A961A01B6862B8F1010F03DA95F87A
:100B40003800000705D5E8682E220A54E869401CE1
:100B5000E861C5F82880AAE02246394600F0D6F9B7
:100B6000A8692018A861361BB8F1010F03DA95F8BF
:100B70003810090704D5411CA961E9682E224254A6
:100B800036B2B045B8BF464636B23246E119A8691A
:100B9000EB68C01800F0BAF9A8693018A861A8EB92
:100BA0000600686283E0B9F1610F16D14FF0700959
:100BB00018E0464504DA95F83810090758BFB046E2
:100BC000B8F1010848BF4FF00008B9F1670F14BF32
:100BD0004FF045094FF0650904E0B9F1410F08BF36
:100BE0004FF05009A9694A1CE86817F8013B0B54FB
:100BF000B8F1010F03DA95F83810090702D52E2154
:100C00001154521CAA61B8F1010F11DB761E36B2E5
:100C1000B045B8BF464636B232463946AB691818B9
:100C200000F074F9A8693018A861A8EB06006862A2
:100C3000A869E968471807F8019B002C5CBF2B20C6
:100C400007F8010B03D52D2007F8010B644200269D
:100C50000DF1080824B2012C0EDB0A22214600A85F
:100C600000F069FD019808F8010B009C761C24B285
:100C7000012CF2DA022E06DA49F02000652804BFC2
:100C8000302007F8010B1EB9302007F8010B09E0EE
:100C9000012E07DB761E02A8305C303007F8010B0E
:100CA000012EF7DAA869E9684018381AE86195F862
:100CB000380000F0140010280DD16869A9690818DF
:100CC000696A0818E9690818A96A0818696B8842EE
:100CD000BCBF081A286205B0BDE8F083F8B5044629
:100CE0000D4616461F46002077B116F8011BA8686E
:100CF000A047A86030B1E86A401CE86200207F1E6F
:100D0000F3D1F2BD4FF0FF30F2BD0000686A6C74A1
:100D10007A4C00006E616E004E414E00696E6600B6
:100D2000494E4600300010B450F8041B81B10268EF
:100D30001218001D50F8043BDC0744BFA9F1010460
:100D4000E31852F8044B43F8044B091FF9D1EBE7C1
:100D500010BC70470278C9B28A421AB11CBF10F8A1
:100D6000012FF9E718BF0020704750F8041B61B14C
:100D700050F8042BD30744BFA9F101039A180023AC
:100D800042F8043B091FFAD1EFE7704700F1010375
:100D9000810704D010F8011B89B18107FAD10268DC
:100DA000B2F10131914311F0803F04BF50F8042F9C
:100DB000F6E710F8011B11B110F8011BFBE7C01A90
:100DC00070470000C9B2830706D0521E22D310F824
:100DD000013B9942F7D11FE0083A13D302F1040214
:100DE00041EA012141EA014150F8043B121F21BFB1
:100DF0004B40A3F1013C2CEA030C1CF0803FF3D0E4
:100E0000C9B2001F083210F8013B521E28BF91EAF8
:100E1000030FF8D818BF0120401E70471B4213D1A2
:100E2000094236D12AB18446B0FBF2F002FB10C26F
:100E3000704700F087BCFCD30022002370470B00F2
:100E40000200002100207047904271EB030CF6D3A2
:100E500070B5B1FA81F4B3FA83F52C1BA340C4F149
:100E6000200532FA05F63343A2405FF00046E64023
:100E700002E05B085FEA3202841A71EB030524BFCB
:100E8000204629467641F4D302000B0030000021B1
:100E900070BD012ACFD970B5140C20D0B1FA81F4FD
:100EA000B2FA82F5C4F120046419B4F12006D6D355
:100EB000B2405FF00044F440002502E052085FEACF
:100EC0003303C61A71EB020E24BF304671466441EB
:100ED0006D41F3D302000B002000290070BD0C46C9
:100EE000B1FBF2F102FB11452D0445EA1045B5FBBB
:100EF000F2F402FB145580B240EA0545B5FBF2F06E
:100F000002FB105240EA044070BD000062B38B0740
:100F100008D0521E11F8013B00F8013B00F024807C
:100F20008B07F6D1830740F0208000BF103A07D32B
:100F300030B4B1E83810103AA0E83810F9D230BC1B
:100F4000530724BFB1E80810A0E8081044BF51F8C7
:100F5000043B40F8043BD20724BF31F8022B20F8B1
:100F6000022B44BF0B7803707047083A07D3B1E8EF
:100F70000810083A40F8043B40F804CBF7D2530776
:100F8000E4E730B4416801F00042012143681B03EB
:100F90001B0B436004BF0368002B0ED0036844683A
:100FA000DD0F45EA440444605B000360491EE30230
:100FB000F4D543681B031B0B436043681A4342602C
:100FC000084630BC704700004FF4001C1CEB410F7A
:100FD00094BF1CEB430F09E041EA030C50EA4C0CB0
:100FE00052EA0C0C03D2994208BF9042704714BFDA
:100FF0008B428242704700004FF4001C1CEB410FF3
:1010000094BF1CEB430F09E041EA030C50EA4C0C7F
:1010100052EA0C0C03D28B4208BF8242704714BFC5
:10102000994290427047000070B504460D466068D2
:10103000C0F30A5040F2FF72904207D1606800038B
:1010400004BF2068002818D0022070BD010004D120
:101050002046FFF796FF012867DA012D0FDB40F2EB
:10106000FF71091A8D420AD36068002847BF00202B
:101070002F4900202F49C4E90001012070BD4142E1
:10108000A942616806DA2C4A1140401941EA005031
:10109000606053E001F0004162681203120B42F4F9
:1010A00080126260401E451905F13500352803D3D2
:1010B00061600020206070BD002215F11F0F05DA6D
:1010C000203522686068206000206060684213D08C
:1010D000521E9241D243C0F1200325689D4055EA3B
:1010E000D2722568C540666806FA03F32B43236075
:1010F000636823FA00F06060606808436060B2F1E2
:10110000004F03D80BD12078C00708D52068401CB9
:101110002060206818B96068401C60600EE060685C
:10112000884204BF20680028F8D1002070BD00006C
:101130000000F0FF0000F07FFFFF0F804FF0FF3056
:1011400070BD0000F446400D40EAC120490006D2BF
:1011500000F014F8004248BF6FF00040604700F014
:101160000DF84FF0004188428CBF0846404260476E
:10117000400D40EAC120490080F00D8040F0004061
:10118000490DA1F58061491C05D4D1F11F0154BF5F
:10119000C840C01770474FF000007047010040F191
:1011A0000980F446404200F005F851F000416047E4
:1011B000010000BF09D0B0FA80F18840C91CC1F518
:1011C0008461090501EBD0214005704770B44FF0F0
:1011D000004591EA030F44BF6B4000F0B5BA00BF71
:1011E000841A71EB030604D26E40001BB141121940
:1011F00073414FF4001C1CEB410F34BF7CEB4306E2
:1012000084E00C0DA4EB1356362E7DDC012E43DC5E
:1012100045EAC32343EA525312BFD20292025B084B
:10122000240545EAC12141EA5051D2EBC020994141
:1012300025D407D1B0FA80F610FA06F164D0002068
:10124000203608E0B1FA81F6B140C6F1200220FA5A
:1012500002F21143B0404FEAF474B4EB465434F058
:1012600001064FEA74040AD8D6F50016760D04F08C
:101270000044F04061FA06F25040F1404840C00A94
:1012800040EA415021F0004128BF5FEA500550F18B
:10129000000044EBD12137E045EAC323DB0A45EAED
:1012A000C121C90AB6F120050EDD42EA0242120C44
:1012B000C5F1200603FA06F6EB4042EA06056D4248
:1012C000984161F100010DE062FA06F5F2405540E7
:1012D00063FA06FC82EA0C02F3405A406D429041E8
:1012E00061EB030111F4801F05D1641E620502D079
:1012F0006D004041494121F48011430875F10043DC
:1013000050F1000041EB045170BC70471CEB410FE1
:1013100015D223F0004352EA43060BD04FEA4C0C9F
:10132000BCEB410F04D80C0D661E342EB7DDEBE785
:10133000801A994150EA410608BF0021E4E708BF3E
:101340001CEB430F28BF6FF00001DDE7B0B581EA69
:10135000030C0CF0004C40F2FF7515EA11541DBF50
:1013600015EA1357AC42AF4239E0E41923EA45537A
:1013700043F48013C90241F0004141EA505EC702C4
:101380001100A7FB020200284FF00000EEFB012035
:101390004FF00001E3FB072118BF42F001024018A3
:1013A00000214941E3FB0E01A4F580640F0302D242
:1013B00052004041494154F101046CDD470872F18B
:1013C000004250F1000051EB0451A1F580115CBFC7
:1013D00041EA0C01B0BD4CEA05510020B0BD05EA60
:1013E0001357AC4214BFAF4241E050EA410E1CBF5C
:1013F00052EA430E02E061460020B0BD24423C4464
:101400001BD15FEA070EF6D0090302BF0146002098
:10141000AEF1140EB1FA81F7AEEB070401FA07FE44
:101420000C37C7F1200100FA07F7C8404EEA000E5A
:1014300023EA455343F48013A2E733F00043B3FAA1
:1014400083F704BFB2FA82FE77440B3FE41BB7F187
:10145000200E2FBF02FA0EF3BB40C7F1200E22FA76
:101460000EFE38BF43EA0E03BA40641C82E750EA1E
:10147000410E14BF52EA430E6FF000014FF4001703
:1014800017EB430F8ABF194617EB410FB5E74CEA3C
:1014900005510020B0BDD4F10104B4F120070FDAEA
:1014A000C4F12007520828BF42F0010210FA07F5E4
:1014B00001FA07F7E1BF2A43E0403843E1400FE07B
:1014C000352C98DCC7F1200452EA400220FA07F2DA
:1014D00018BF42F0010231FA07F0A1400A4300218F
:1014E00072F1004250F1000051EB0C01B0BD000060
:1014F000F0B540F2FF7581EA030C0CF0004C15EAE0
:1015000011541DBF15EA1357AC42AF42E5E0BC4190
:10151000C1F31301C3F31303801A994143F48013F9
:1015200004D2641E4000494180185941C90241EA71
:101530005051B1FBF3F603FB1611A2FB0675D7EB76
:10154000C020A94102D2761E80185941C90241EA41
:101550005051B1FBF3FE03FB1E11A2FB0E75D7EB3E
:10156000C020A94103D2AEF1010E80185941890271
:1015700041EA9051760546EA8E2EB1FBF3F603FB65
:101580001611A2FB0675D7EB8020A94102D2761E68
:1015900080185941C90241EA50514EEA060EB1FB8A
:1015A000F3F603FB1611A2FB0675D7EBC020A94189
:1015B00002D2761E80185941C90241EA5051B1FB4E
:1015C000F3F703FB1711A2FB0735D3EBC020A941AA
:1015D00067F100070CBF004247F0010766F3D5270B
:1015E0004FEA1E31B80814F5806412DDBD0775F1AD
:1015F000004250EB0E5051EB045111F5801F5CBFBF
:1016000041EA0C01F0BD4CF07F6141F0E041002067
:10161000F0BDBD076D0840EA0E5041F48011D4F1D1
:101620000104B4F120060ADAC4F120060200E04009
:1016300001FA06F3E1401843B24015430EE0342CA2
:1016400013DCC6F1200445EA40056D0820FA06F2D5
:10165000154321FA06F0A1400D43002175F1004227
:1016600050F1000051EB0C01F0BD00205FEA0C01CD
:10167000F0BDCFB992185B41B3FA83F704BFB2FA59
:1016800082F6BF190B3FB7F120062FBF02FA06F30F
:10169000BB40C7F1200622FA06F638BF3343BA40F2
:1016A0001CB1E419641E33E77F4231F00041B1FA06
:1016B00081F404BFB0FA80F6A4190B3CB4F1200603
:1016C0002FBF00FA06F1A140C4F1200620FA06F669
:1016D00038BF3143A0403C1B1AE7AC421ABF05EAB1
:1016E0001357AF4212E050EA41061CBF52EA4306CC
:1016F000BFE750EA4107304661461CBF41EA055149
:10170000F0BD52EA430C08BFC143F0BD00204FF4C6
:10171000001616EB410F98BF16EB430F08BF16EBF0
:10172000410F24BFC14305E016EB430F0CBF6146D8
:101730004CEA0551F0BD91FBF2F303FB1211C0E935
:101740000031704770470000841A71EB030603D222
:10175000001BB141121973414FF4001C1CEB410FE7
:1017600034BF7CEB430443E00C0DA4EB1356352E41
:1017700050DC45EAC323DB0A45EAC121C912B6F1B0
:1017800020050DDD63FA05F6EB4086EA03051242FB
:1017900018BF45F00105C01851F100010CD213E04B
:1017A00062FA06F5F2405540F3415A40B340F34027
:1017B0005A408018594107D349085FEA30005FEA70
:1017C000350528BF45F0010501F58011420875F186
:1017D000004250F1000041EB045170BC4FF4001C7A
:1017E0001CEB410F38BF70470020090D09057047F9
:1017F0001CEB410F10D252EA43060BD0BCEB410F59
:1018000005D80C0DAB43661E342EB5DD02E0AB43AC
:101810008018594170BC704770BC7047DFF800F009
:10182000C5040020DFF800F047030020DFF800F0D7
:1018300031030020DFF800F0B1020020DFF800F0F3
:101840003B01002010B440B241096B4A012310F063
:101850001F04A34042F8213010BC704710B440B2BE
:101860004109664A012310F01F04A34042F82130C9
:1018700010BC704762484FF48061016061484FF4CA
:10188000A0510160704780B55F48072101605F4843
:101890000078002805D05E4800F0FAF85D485E49FF
:1018A000016001BD38B50F255748072101605B482D
:1018B0004FF4005101605A48022101601120FFF7E6
:1018C000C1FF58480721016057480068040014F020
:1018D000010425002100554800F0DAF8012C08D059
:1018E00000F0E8F8002804D0514800F0D1F8FFF7E4
:1018F00095FF012C0AD149485FF4702101604348EB
:10190000012101704B4800F0C3F807E04A48006825
:1019100050F004004849086030BFD5E731BD5FF0A2
:101920000050464981665FF000504549C0F8841078
:1019300044485FF000510160704770B5FFF7EFFF5A
:101940004FF440510020FFF76DFF3F4908803F49A9
:101950003F48FFF767FF06003B483B490988018085
:101960003C484FF4807101603B48642101603B4872
:10197000062101603A48402101603A480D2101608A
:1019800039480221016000F0B8F8384800F080F8CA
:10199000374A3849384800F07BF800F0F1F8FFF793
:1019A00081FFFFF767FF4FF4FA600500334800F04E
:1019B0006FF81120FFF752FF41F2496004003048F0
:1019C0002F4909680160200000F01CF92D48FFF73D
:1019D0002DFF2D480068FFF72DFF2C480068FFF70A
:1019E00029FF04A0FFF722FF00F0EAF8FFF726FF27
:1019F000002070BD0D0A000000E100E080E100E081
:101A00009C60004098600040180008407908002061
:101A1000101D00000CED00E00400FA05080008406D
:101A20001C00084000000840D0600040DC1E0000A0
:101A3000441E0000A81D000010ED00E0711C000015
:101A40008718000008ED00E0BC0000200082E00FD5
:101A5000B281E00F08800C4044800C4040800C4074
:101A600020800C4028800C4058800C40E81D00006D
:101A7000201F0000141F00005C1E0000741E0000E8
:101A800000C00040F01E0000F481E00FF081E00F84
:101A90000EB400B582B003A9009100AB024601214B
:101AA000034878440A30FEF7AFFA06BC5DF810FB35
:101AB0001504000010B543F2040000680400094852
:101AC0000078002806D1074801210170210006484E
:101AD000FFF7DEFFB4F5801F01D2012000E00020F7
:101AE00010BD00BF78080020601D000014480121CF
:101AF0000160144814210160704780B512480068E5
:101B000050F0080010490860104841F2C5510160CA
:101B10000F4840F203110160FFF7E8FF0D484FF452
:101B2000406101600B480521016001BD0A49096857
:101B30004906FBD50949C0B20860C0B27047000031
:101B4000786000407060004044800C4014C4004045
:101B500054C400400CC4004010C4004034C40040D1
:101B600070B504000D0000200600AE4205DA2078B2
:101B7000FFF7DCFF641C761CF7E7280070BD00004F
:101B800010B518480478E4B2472C02D0E4B2492CCE
:101B900004D115484FF4007101600BE0E4B2482C09
:101BA00004D111484FF48051016003E00E484FF416
:101BB000006101600C4801680C48FFF769FF10BD27
:101BC0000B4841F6713101600A48006850F001008D
:101BD0000849086008480121016008480849016077
:101BE00070470000FE81E00F74080020081E00000E
:101BF0003C000C4008000C4004200C4008200C4025
:101C00000001002006490860064903220A600649CF
:101C10004FF440620A60044905220A60704700BF21
:101C200014C0004054C000400CC000400D0A0D0A12
:101C3000202A2A2A2A205741524E494E473A204408
:101C4000454255472053455353494F4E2041435435
:101C50004956452E204E4F54204C4F434B494E473A
:101C60002120202A2A2A2A200D0A0D0A000000001D
:101C70000A4920220A600A49096805290CD2094943
:101C80000968080006490968074A42F82100044922
:101C90000968491C024A116070470000180401409D
:101CA00070080020440401405C080020F8B50400DE
:101CB0000D0016000027002D01D1002011E0012C9D
:101CC00004D0022C02D05FF0FF300AE0310028007F
:101CD000FFF746FFB04202D05FF0FF3001E037006F
:101CE0003800F2BD10B5084979441C31074C7C44DA
:101CF0001A34A14206D0081D0A68511888470146C7
:101D0000A142F8D110BD00BF7C0000009C00000083
:101D10004175746F626175642054696D656F757487
:101D20002E20526573657474696E672045464D3385
:101D3000322E0D0A0000000010B582B0044614F1E6
:101D4000010F0AD08DF80000012200A90120FFF741
:101D5000ADFF012801D1204616BD4FF0FF3016BD62
:101D60004170706C69636174696F6E205265736550
:101D70007420766563746F72203D2030782578205A
:101D80000D0A0000E7EFFFFF300100004C070020C4
:101D90000000000093EFFFFF3C060000A4010000DC
:101DA00010010020000000005374617274696E67B6
:101DB000206175746F626175642073657175656EFD
:101DC00063650D0A000000005374617274696E67E8
:101DD000206465627567206C6F636B207365717535
:101DE000656E63652E0D0A000D0A2D2D2044656277
:101DF0007567206F757470757420656E61626C65AF
:101E000064202D2D0D0A0000466C617368207061FE
:101E100067652073697A6520697320256C64206288
:101E2000797465732E0D0A004465627567206C6FC6
:101E3000636B20776F72643A2030782578200D0A22
:101E400000000000426F6F74696E67206170706CF3
:101E500069636174696F6E200D0A00002D2D2043A7
:101E60006F6D70696C65643A202573202573202D91
:101E70002D0D0A004175746F6261756420636F6D8A
:101E8000706C6574652E0D0A0000000000F009F802
:101E9000002801D0FFF726FF0020FFF74EFD00F0DD
:101EA00002F80120704700F001B8000007463846EC
:101EB00000F002F8FBE7000001491820ABBEFBE789
:101EC0002600020038B504460D462846FFF734FFC9
:101ED000A84218BF0024204632BD00004E6577207E
:101EE00070696E3A20307825303258200D0A000093
:101EF0000D0A0D0A312E3633204368697049443A81
:101F0000200000004465627567206163746976652E
:101F10002E0D0A0046656220313820323031330000
:101F200031323A35343A353000000000C046C04600
:101F3000C046C046FFF7AAFF4E6F6E652E0D0A0021
:101F4000DFF800F0911A000038B504000D00514888
:101F500000F006F92900200000F00DF980B200F031
:101F6000BFF84D4800F0FCF831BD70B54B48006833
:101F700080B28002040000F0D1F80500EDB2002D1F
:101F800003D02800C0B200F0D9F8EDB22800002834
:101F900077D0622838D063285ED0642819D06C28A6
:101FA00035D06D2864D06E285CD0702822D072287D
:101FB00063D0742815D0752802D0762847D064E005
:101FC000374800F0CDF821004FF4405000F0ECF815
:101FD000D1E7334800F0C4F82100002000F0E4F815
:101FE000C9E72F4800F0BCF82E495FF07E6000F092
:101FF000DBF8C0E700F046F9294800F0B1F82A49BB
:102000002A4800F0D1F8B6E700F074F9B3E72848A1
:102010000068C00706D52748FFF792FF264800F062
:102020009FF813E02548FFF78BFF00F046F90028E2
:1020300002D02348060001E022480600300000F0EC
:102040008FF8214801682148FFF77AFF93E72100C4
:102050000020FFF779FF8EE721004FF44050FFF793
:1020600073FF88E70F495FF07E60FFF76DFF82E73F
:102070000D490E48FFF768FF7DE7154815490160D7
:1020800079E7154800F06CF875E7144800F068F837
:1020900071E700003007002048070020F881E00FBA
:1020A000180700200002E00F0042E00F0040E00FA0
:1020B000F0ED00E02C1C0000041F0000C81D000013
:1020C0003807002024070020FC41E00F281E0000F4
:1020D0000CED00E00400FA05381F00004007002066
:1020E000F8B5040007200600002E16D43000C0B258
:1020F000800034FA00F010F00F0007000A2F03DA16
:1021000017F13000050002E017F137000500280044
:10211000C0B200F013F8761EE6E7F1BD0C490D4899
:102120000068000602D4491E0029F8D1002903D016
:1021300009480068C0B200E00020704705490968FE
:102140004906FBD50549C0B20860C0B2704700001F
:1021500040420F0010C000401CC0004034C000408E
:1021600010B504002078002804D02078FFF7E6FF9F
:10217000641CF7E710BD10B40200002013008B426E
:102180000FD280B2040254EA10201C786040C0F3E1
:102190000314604090EA0030C4B290EA44105B1C23
:1021A000EDE780B210BC70472DE9F04704000D0048
:1021B0005FF00109A246AA4507D2504600F02DF96A
:1021C0002B48006810EB0A0AF5E74320FFF7B6FF3B
:1021D0000020070027488742F7D2274800680006FA
:1021E00001D47F1CF6E719F001008821234A01FB86
:1021F00000200600FFF792FF70707078042803D16A
:102200000620FFF79BFF2BE07078012802D05FF0DB
:10221000FF302AE002208046B8F1860F06D2FFF791
:102220007DFF08F8060018F10108F5E7494630007F
:1022300000F022F9002803D01520FFF77FFFD2E736
:10224000331D8022B9F10100802101FB00F1200043
:1022500000F0B7F819F101090620FFF76FFFC2E798
:1022600007480068C007FBD40020BDE8F08700BF26
:10227000740800208096980010C000404C07002091
:1022800028200C4038B51448002101601348002173
:10229000016000200500152D0ED200200400082C3E
:1022A00008DA0F48285C204110F0010000F012F914
:1022B000641CF4E76D1CEEE731BD80B5FFF7E2FF6B
:1022C0000021084800F06AF806480068002801D19B
:1022D000012000E0002002BDB86000402061004005
:1022E00000070020FC41E00F80F3088880F3098894
:1022F0008F46704738B51C485FF0FF3101601B48BE
:102300005FF0FF3101601A48002101601948002187
:102310000160194800210160184800210160184837
:1023200000210160174805210160174880210160E4
:1023300016480021016016484FF48071016015486D
:102340000021016014484FF4405101604FF44050A7
:102350000068050043F20400006804002100280022
:10236000FFF7C2FF31BD000080E100E084E100E042
:1023700000000840080008401C000840B860004009
:1023800058800C4028800C4020800C4040800C403D
:1023900008800C4044800C4008ED00E02E4A126892
:1023A000D207FBD42D4A10602D4A012313602D4A19
:1023B00011602B4A082313602B4A1268D207FBD402
:1023C000704730B4244C2468E407FBD40C18234D28
:1023D0002C60234C01252560244C224D6560D418C7
:1023E000241F224D2C60B2F10804A400240924010A
:1023F00044F06A4454F001041C4DAC601C4C5FF482
:1024000040152560174C1D682560134C012525607B
:10241000134C1025256030BC704710B45FF0FF31BD
:102420000200144B1B681B189A4203D21368194010
:10243000121DF6E711F1010F0BD0084B1860084B85
:1024400001241C60064B02241C60074B1B68DB0741
:10245000FBD410BC7047000028200C4010000C403A
:102460000C000C4018000C401C000C400001002027
:1024700000310C4074080020F8B504000D00A0786D
:10248000E178081880B2FF2802D05FF0FF3020E02A
:10249000A0784FF4807195FBF1F202FB115290424B
:1024A00002D05FF0FF3014E014F18401201DFFF72B
:1024B00062FE070094F8840094F8851051EA002029
:1024C0000600BFB2B6B2B74202D05FF0FF3000E004
:1024D0000020F2BD002806D0134A126852F0020212
:1024E000114B1A6005E0104A126832F002020E4BDE
:1024F0001A600D4A126852F001020B4B1A600B4A27
:1025000001231360002211004FF47A72914201DA24
:10251000491CF9E7044A126852085200024B1A603B
:10252000024A00231360704720610040B8600040F9
:10253000FFFFFFFFFFFFFF0000A50000000000A954
:10254000000000000A0000000D0A52656164790D68
:102550000A0000000D0A4661696C0D0A00000000C7
:102560000D0A4352433A20000D0A4F4B0D0A00005A
:0C2570000D0A3F0D0A0000000D0A0000DB
:0400000500001F2DAB
:00000001FF
