:020000040000FA
:100000000C94370518951895189518951895189506
:100010001895189518951895189518951895189578
:100020001895189518951895189518951895189568
:100030001895189518951895189518951895189558
:100040001895189518951895189518951895189548
:100050000C94B7000C94C004189518951895189531
:100060001895189518951895189518951895189528
:100070000C9476001895189518951895189518955C
:100080001895189518951895189518951895189508
:100090000C943804189518950C94660418951895C6
:1000A00018951895189518951895189518951895E8
:1000B00018951895189518951895189518951895D8
:1000C0001895189518951895189518950000DD0243
:1000D0000D00380142015C0176019001AA01D001B6
:1000E000F6011C02420268028E02B402AA939A939D
:1000F0008A93FA93EA933A922A921A920A927A93FC
:100100006A935A934A933A932A931A930A939FB7FE
:10011000ABB712E001E00E9448030FB7802FF894BC
:1001200001E00093BF0400918400109185000093CA
:10013000BB041093BC040091BE040093BD0400B73F
:100140000093B9048FBFABBF9FBF0991199129914B
:100150003991499159916991799109901990299012
:100160003990E991F99189919991A99118952A93DA
:100170001A930A931FB72BB70091BE0403950093FF
:10018000BE042BBF1FBF099119912991189500E456
:1001900000937B0000917A000F7700937A0003E0D0
:1001A00000937C0045E050E020E030E00AED14E0F0
:1001B0000E94200646E050E020E030E005EB14E02D
:1001C0000E94200608E100BF03E00093810008952B
:1001D0009A938A930091BD041091B704011759F4C2
:1001E0000091BB041091BC042091B5043091B60479
:1001F000021B130B21C02091BD0430E00091B70415
:1002000010E0201B310BC901823000E0900720F084
:1002100016D000E011E010C00FEF1FEF2091B504E1
:100220003091B604021B130BC8010091BB0410915E
:10023000BC04800F911F8C018991999108950091C0
:10024000BB041091BC040093B5041093B604009154
:10025000BD040093B70408959A938A93B9DFC80147
:100260000091B804ECECF0E0FBBFF0E00C94A505C5
:10027000E5EBF4E0048105FF03C001E00093B8045E
:10028000DEDF9BC1E5EBF4E0048105FD10C08E319B
:1002900000E0900740F0813200E0900720F402E097
:1002A0000093B80407C000E00093B80403C000E066
:1002B0000093B804C4DF81C1E5EBF4E0048105FFDD
:1002C00010C08E3100E0900740F0813200E09007CE
:1002D00020F403E00093B80407C000E00093B804E2
:1002E00003C000E00093B804AADF67C1E5EBF4E0C7
:1002F000048105FD10C08E3100E0900740F081328E
:1003000000E0900720F404E00093B80407C000E088
:100310000093B80403C000E00093B80490DF4DC11F
:10032000E5EBF4E0048105FF10C08E3100E090079A
:1003300040F0813200E0900720F405E00093B8041B
:1003400007C000E00093B80403C000E00093B804C5
:1003500076DF33C18E3100E09007C8F0813200E0D3
:100360009007A8F46CDFE5EBF4E0048105FF06C01C
:10037000E5EBF4E005810068058305C0E5EBF4E0FA
:1003800005810F77058306E00093B80416C181321A
:1003900000E0900720F000E00093B80450DF0DC1AA
:1003A0008E3100E09007C8F0813200E09007A8F499
:1003B00046DFE5EBF4E0048105FF06C0E5EBF4E081
:1003C00005810064058305C0E5EBF4E005810F7B42
:1003D000058307E00093B804F0C0813200E0900785
:1003E00020F000E00093B8042ADFE7C08E3100E07F
:1003F0009007C8F0813200E09007A8F420DFE5EB19
:10040000F4E0048105FF06C0E5EBF4E0058100623D
:10041000058305C0E5EBF4E005810F7D058308E069
:100420000093B804CAC0813200E0900720F000E0D9
:100430000093B80404DFC1C08E3100E09007C8F01B
:10044000813200E09007A8F4FADEE5EBF4E00481E5
:1004500005FF06C0E5EBF4E005810061058305C0FA
:10046000E5EBF4E005810F7E058309E00093B80415
:10047000A4C0813200E0900720F000E00093B804AF
:10048000DEDE9BC08E3100E09007C8F0813200E0D4
:100490009007A8F4D4DEE5EBF4E0048105FF06C084
:1004A000E5EBF4E005810860058305C0E5EBF4E0C9
:1004B0000581077F05830AE00093B8047EC081327E
:1004C00000E0900720F000E00093B804B8DE75C0AB
:1004D0008E3100E09007C8F0813200E09007A8F468
:1004E000AEDEE5EBF4E0048105FF06C0E5EBF4E0E9
:1004F00005810460058305C0E5EBF4E005810B7F11
:1005000005830BE00093B80458C0813200E09007E7
:1005100020F000E00093B80492DE4FC08E3100E07E
:100520009007C8F0813200E09007A8F488DEE5EB80
:10053000F4E0048105FF06C0E5EBF4E0058102600C
:10054000058305C0E5EBF4E005810D7F05830CE034
:100550000093B80432C0813200E0900770F100E0EF
:100560000093B8046CDE29C08E3100E09007E8F0FB
:10057000813200E09007C8F462DEE5EBF4E004812C
:1005800005FF06C0E5EBF4E005810160058305C0C9
:10059000E5EBF4E005810E7F05830091BA040E942B
:1005A000970400E00093B80408C0813200E090078F
:1005B00020F000E00093B80442DE899199910895FB
:1005C000789408951FB7F89400E80093610001E063
:1005D000009361001FBF0895A89504B7077F04BF6B
:1005E0000091600008610093600000E000936000EB
:1005F0000895E8DFF1DF0E94C7000E94B40401E023
:100600000E948D03DDDF0E94410308950E94F902DC
:1006100003E010E01A930A9300E010E01A930A93A3
:1006200000E514E00E94290624960AE714E00E94DF
:10063000290600E019E02DE330E03A932A931A935B
:100640000A930FE914E00E9429062496B09B07C084
:100650000FEF06BB0091BE0403950093BE0400910A
:10066000BF04002399F310E000E00E94480300E07B
:100670000093BF040E942C0111E000E00E94480397
:10068000E5CF2D982E982F98259A269A279A089587
:10069000302F512F032F005029F00A9529F00A9589
:1006A00029F006C025E005C026E003C027E001C010
:1006B00025E0052F005061F00A9599F4422F01E0E2
:1006C00010E00E945305009515B1102315B9089547
:1006D000422F01E010E00E94530515B1102B15B90F
:1006E000089565B1422F01E010E00E945305602398
:1006F000662349F4422F01E010E00E94530515B132
:10070000102B15B90895422F01E010E00E94530507
:10071000009515B1102315B908959A938A93902FD7
:1007200080E0913039F400E011EE20E030E00E94EA
:10073000B10301C085E8082F8991999108950E941D
:10074000F405B02FC901A12FB13031F42A2F8C014B
:100750000E94E703402E01C04424042DE5E00C94E0
:1007600004060E94F105C801D90144E050E060E0B0
:1007700070E08C019D010E9459050050174F224CDA
:100780003F4F2801390148E050E060E070E08C0103
:100790009D010E945905A801B901820193010E949F
:1007A0007905F80131978F01012F10E00093CD00FA
:1007B0000E2F0093CC0002E00093C80008ED0093D8
:1007C000C90006E00093CA00E8E00C940106192E67
:1007D000282EC801422F3091C9003F7B3093C900B9
:1007E0003091D404232F3091D504532F521728F081
:1007F00039E0351B320F032E04C0322F3A95351BDA
:10080000032E041610F4102D01C0142F012F1130E7
:10081000C8F0FC0130816091D50470E0FB01E05428
:10082000FB4F30833091D504393021F430E03093E0
:10083000D50405C03091D50433953093D5041A956D
:100840000196E5CF3091D804332351F430E0F9011B
:10085000E054FB4F30813093CE0031E03093D80428
:100860003091C90030643093C900822D912D0895D4
:10087000FA93EA934A933A932A931A930A933FB7C7
:100880004BB70091D7041091D90413951093D90454
:100890002091CE0010E0F801E054FB4F2287109128
:1008A000D704193021F410E01093D70405C010913B
:1008B000D70413951093D7044BBF3FBF09911991EB
:1008C000299139914991E991F9911895FA93EA930F
:1008D0003A932A931A930A932FB73BB70091D40403
:1008E000093021F400E00093D40405C00091D40441
:1008F00003950093D4040091D4041091D5040117FA
:1009000051F00091D40410E0F801E054FB4F008155
:100910000093CE0003C000E00093D8043BBF2FBF7C
:100920000991199129913991E991F99118958A9331
:100930002197802F888308810A3051F40DE00883C5
:1009400011E09E0101E00E949F030023C9F3888308
:1009500011E09E0101E00E949F030023C9F300E023
:1009600010E021968991089502E404BD279A02E0DF
:1009700005BB02E000936E00089500E005BD0895F8
:100980009A938A93FA93EA933A922A921A920A9243
:100990007A936A935A934A933A932A931A930A93AF
:1009A0008FB79BB70091DF040A950093DF04009195
:1009B000DF04002309F4E1DF9BBF8FBF0991199188
:1009C0002991399149915991699179910990199099
:1009D00029903990E991F9918991999118959A9373
:1009E0008A93C801082F0E949704899199910895CC
:1009F0000E94F1052801C901DA0166247724082F35
:100A0000092B19F400E010E021C001E0401600E0DD
:100A1000500641F002E0401600E0500619F00FEFDA
:100A20001FEF14C00A2F0B2B81F0FC01008110E096
:100A3000D6DF019611231AF40FEF1FEF07C001E074
:100A4000600E00E0701E1197EDCF8301E8E00C947A
:100A5000010608959A938A932297C80188839983FF
:100A60009E0101E00E942905F9CF0C942A050FE4AC
:100A70000DBF04E00EBFC0E0D4E00E940E060023CC
:100A800011F00E9463060E9406030E9449050C941F
:100A900035050C943505149F102D059F100D049FEE
:100AA000002D110D08954A951AF0000F111FFBCF6C
:100AB00008952224349F302D259F300D169F300D30
:100AC000079F300D249F202D310D159F200D311DC6
:100AD000069F200D311D149F102D210D321D059FE5
:100AE000100D211D321D049F002D110D221D321DE0
:100AF0000895002411241001E0E2EA9592F0001F0D
:100B0000111F221F331F001C111C221C331C041632
:100B100015062606370688F3041A150A260A370A28
:100B2000ECCF001F111F221F331FA001B101009540
:100B30001095209530950895779167915791479139
:100B4000179011FA279037900895F9DF041B10E0F1
:100B500003C0F4DF041B150B20E030E005C0ECDF20
:100B6000041B150B260B370BB8F010FC17C0479170
:100B70000790E00FF11F0417100540E02407340729
:100B800058F436F406910024F101E01BF0090994B1
:100B9000E00FF11F27903790F101099411F4D6F777
:100BA000F1CF31960EF0319650E060E070E0479161
:100BB0004B3F48F089F34F3F29F04E3F11F07791BA
:100BC000679157914791041B150B260B370B39F38F
:100BD00018F3E7CFEA92DA92CA92BA92AA929A925C
:100BE0008A927A926A925A924A92BA93AA939A9362
:100BF0008A930895EE84DD84CC84BB84AA8499848E
:100C000088847F806E805D804C80BB81AA819981C1
:100C10008881F0E0EC0FFD1FEF01089501E00895D9
:100C2000F80103C0319641505040042F052B29F0A4
:100C300000810217B9F78F01089500E010E00895D0
:100C4000F80103C0219341505040342F352BD1F788
:100C5000089522979E012E5F3F4F28833983BE015E
:100C6000A80121E030E00FEC19E00E94A7062296CF
:100C700008959A938A932197C8010F3F0FEF900729
:100C800061F0888341E050E09E018A010E94F804EF
:100C90000130104011F48C0102C00FEF1FEF2196BC
:100CA00089919991089520E008D0E9F708953BBF14
:100CB00027913BB702D0D9F708952D9301501040EA
:100CC000202F212B089502EC402E03E1502E00E04E
:100CD000602EF201362D6BBE07911691F201EE5F88
:100CE000FF4F3F4F3BBFA791B691F201362DEC5F0E
:100CF000FF4F3F4F3BBF479157916691242F252BC4
:100D0000262B21F0FA01362FD2DF01C0CCDF07E01D
:100D1000400E00E0501E601EA201662D403D534172
:100D20006040B8F20895F8013191321729F08F012F
:100D30003323C9F700E010E00895F80101C03196AF
:100D400020812223E1F7E01BF10B8F01089537D2B8
:100D5000E1973801CA01DB012C833D8300E0088B59
:100D6000098B96D1002319F4088919895EC10532CF
:100D700049F400E00A870B870C870D870E870F87E1
:100D8000F8D109C04191CF019E018301D4D2112332
:100D900042F749C121607BD10052E1F3035059F081
:100DA000085029F0025029F0035039F008C02260A1
:100DB000F2CF2460F0CF2860EECF2061ECCF00812D
:100DC0000A3271F459D10C8B1D8B0C89112332F42A
:100DD0001195019510400C8B1D8B246001960FC05E
:100DE0003C8B3D8B0AC04C895D894F3F0FE7500714
:100DF00019F02ED16C8B7D8B01964DD1A0F348D18B
:100E00000E3221F00FEF0A8B0B8B17C040D10A3244
:100E100029F432D10A8B1B8B01960FC03A8B3B8B86
:100E20000AC04A895B894F3F0FE7500719F010D17C
:100E30006A8B7B8B01962FD1A0F32E8B3F8BFC010D
:100E400020810FEA14E00E949306012B21F0FC019F
:100E50000191CF0101C000E0088F083631F418D1AC
:100E6000083619F402E6088F0196EED00887198734
:100E7000FC014080042D0552B1F00353C9F10B5021
:100E800009F497C00A9509F476C0055009F473C0B7
:100E9000065071F10A9529F1035041F0025041F1D9
:100EA000035031F18DC006D105E288C0E5D00E8334
:100EB0001F834A895B890E8155231AF40E949D067F
:100EC0000DC057D10E941006202F212B29F02E8112
:100ED0003F81021B130B02C00A891B890C871D87E7
:100EE00076C0CAD0E2D0B0D00E831F8328E75EC0A0
:100EF000088C0CE6001619F4BBD00C5F0CC001E79F
:100F0000001611F4C1D004C00AE60016BDD031F4B9
:100F100011978F01085FA7D02FD102C0AED029D181
:100F20008FD008E6001671F002E6001629F4088159
:100F300080D01A831B8309C004E7001619F00AE762
:100F4000001619F408811981B0D00E8903FF27C05B
:100F5000088119812A813B81012B022B032BF9F097
:100F6000042D00620837D9F4ACD000E366D02F5FBF
:100F70003F4FAAD014C09D01088DB5D061D0332356
:100F80001AF498D00DE20AC00E8901FF03C092D076
:100F90000BE204C000FF03C08DD000E24ED054D05D
:100FA00090D0020F131F0E831F83242D8E0109D1B1
:100FB0000EC080D05DD00E5F56D000813ED007C0FD
:100FC00079D005E23AD0442011F07BD07DD0019653
:100FD0004C885D880A851B85401A510A0E851F853D
:100FE000401A510A0C851D85401A510A0E8902FDCE
:100FF00002C073D0C1F06A857B85AE01475E5F4F4A
:101000004FD089F460E34E855F8569D061F06C85CF
:101010007D854E815F8144D031F40E8902FFA1CEDF
:101020005CD009F09ECE0FEF1FEFE196E8E00C9444
:10103000010610E00883198308954AD000830895BB
:10104000F9DF2A833B8308958E01075E1F4F0895C1
:10105000608170E00AE010E00E944B05600F711F94
:101060006053704008951F4F0D931C93119708957E
:101070000BD011978F01089507D011978F010E5F44
:10108000F2DF008111810895ED91FC9108950196A0
:10109000FC0100810895FC01008100530A3008958D
:1010A0009E01830165D1012B089520E0C3DF2A83CF
:1010B0002B83089506D089010F5F1F4F0A871B8776
:1010C00008952A853B850895F6DF02D04082089571
:1010D000FE017996E20FF31F089560E2A2019E01DE
:1010E00083014FD0E0CF0D01025601F1065049F1C6
:1010F000045029F0085029F1065089F022C0D90186
:10110000C3DF8F010C5F1F4FD9010D931C9334D0A7
:10111000432F440F440B542F642F742F1BC01CD03B
:1011200028D040E050E060E070E014C018D0102FEC
:10113000110F110B212F312F412F512F612F712FA3
:1011400009C00AD0212F220F220B322F422F522FFB
:10115000622F722FD001089502D01C910895F901D9
:10116000A081B1818D010E5F1F4F008311830D910E
:10117000089520E030E008950081118122813381BB
:1011800008951DD021976883D801C9012A016624DA
:10119000772404C001E0600E00E0701E6414750442
:1011A00054F461E070E0AE019C018D01E1D0012BAF
:1011B00089F300E001C001E010E0219637CF0C94E4
:1011C000F1050E94EA0524972801E22EF801008526
:1011D00011850A831B830FE6E01611F408E007C0AF
:1011E000022F0062083711F00AE001C000E121DFA0
:1011F00008E1602E772480819181A2813381B32F11
:1012000044E6E41619F049E6E41649F433233AF4C7
:101210009095A095B09581959F4FAF4FBF4F082FE8
:10122000092B0A2B0B2B91F402891389012B71F4E2
:101230000881083009F041C0068903FF3EC007E17C
:10124000602E00E3EA81FB81078B37C00FEF600E51
:10125000701E88809980A92CAA0CAA0865D0405DD0
:101260004A3318F00E2D0155400F0A811B81060DDF
:10127000171D6801F801408357D0C801D901012B1F
:10128000022B032B31F0F201068117810C151D058D
:10129000E8F20881083089F4F201068903FF0DC0E5
:1012A000F6010081003349F00FEF600E701E00E37D
:1012B000EA81FB81E60DF71D008308E110E00619C5
:1012C0001709F201048715872A813B81260D371DF6
:1012D00026833783228933890217130744F4201B9E
:1012E000310B2687378706890F7E068B19C033237B
:1012F000BAF426892471203199F46488758822858E
:101300003385621A730A26853785621A730A601A52
:10131000710A01E0601600E0700614F066867786B8
:101320002496EFE00C94FA05A4016A2D7A2D8C0125
:101330009D010C947905BA93AA93F801D901242F41
:1013400014960D911C9115970995FD010483158341
:10135000012B49F0008911890F5F1F4F008B118B02
:1013600000E010E002C00FEF1FEFA991B9910895BE
:1013700026DFD801C9012A013B0100E010E003C0CB
:101380002FEF620E721E262D272941F0F2014191A6
:101390002F019C018D01CFDF112392F747CE0E94D0
:1013A000F505D801822F022F10E00E943906081798
:1013B000104011F48D0102C000E010E0E4E00C9454
:1013C00005062C00B50400000065005004D0130091
:1013D0000D0A2D2D2057656C636F6D6520746F208D
:1013E00041546D6567612054657374205625642EE1
:1013F00025303264202D2D0D0A002D2D20427569D7
:101400006C64206F6E3A2031313A32343A333220F4
:101410004044656320313320323031320D0A002DD3
:101420002D20465F4350553A20256C750D0A006803
:051430006C747A4C0011
:020000040001F9
:04DFFC005A5AA5A523
:00000001FF
