S00900006465636F646592
S2140000000C94CB071895189518951895189518956B
S2140000101895189518951895189518951895189573
S2140000201895189518951895189518951895189563
S2140000301895189518951895189518951895189553
S2140000401895189518951895189518951895189543
S2140000500C94CB000C947003189518951895189569
S2140000601895189518951895189518951895189523
S2140000700C948A0018951895189518951895189543
S2140000801895189518951895189518951895189503
S2140000900C94EB06189518950C9419071895189556
S2140000A018951895189518951895189518951895E3
S2140000B018951895189518951895189518951895D3
S2140000C018951895189518951895189500006D03AD
S2140000D00F004C01560173018D01A701EE02C30209
S2140000E098026D0242021702EC01C10119034F0388
S2140000F00000A6040F00E2031004140426043804CB
S2140001005804540450044C044804440440043C047A
S21400011083049504AA939A938A93FA93EA933A925D
S2140001202A921A920A927A936A935A934A933A9325
S2140001302A931A930A939FB7ABB712E001E00E9486
S2140001409D050FB7802FF89401E00093BF0400913F
S2140001508400109185000093BB041093BC040091AA
S214000160BE040093BD0400B70093B9048FBFABBFB5
S2140001709FBF099119912991399149915991699196
S21400018079910990199029903990E991F99189917E
S2140001909991A99118952A931A930A931FB72BB78A
S2140001A00091BE0403950093BE042BBF1FBF0991A8
S2140001B019912991189500E400937B0000917A002C
S2140001C00F7700937A0003E000937C0045E050E050
S2140001D020E030E003EE14E00E94C20846E050E063
S2140001E020E030E005EB14E00E94C20808E100BF02
S2140001F003E00093810008959A938A930091BD04CA
S2140002001091B704011759F40091BB041091BC0477
S2140002102091B5043091B604021B130B21C0209127
S214000220BD0430E00091B70410E0201B310BC9017B
S214000230823000E0900720F016D000E011E010C0F9
S2140002400FEF1FEF2091B5043091B604021B130B7D
S214000250C8010091BB041091BC04800F911F8C0153
S2140002608991999108950091BB041091BC04009364
S214000270B5041093B6040091BD040093B704089526
S2140002809A938A93B9DFC8010091B804ECECF0E0C9
S214000290FBBFF0E00C944708E5EBF4E0048105FFB3
S2140002A003C001E00093B804DEDF17C2E5EBF4E01C
S2140002B0048105FD13C08E3100E0900758F08132AE
S2140002C000E0900738F40CE00093B80400E00093D8
S2140002D0C00407C000E00093B80403C000E0009329
S2140002E0B804C1DFFAC1E5EBF4E0048105FF10C0F5
S2140002F08E3100E0900740F0813200E0900720F455
S21400030003E00093B80407C000E00093B80403C0FD
S21400031000E00093B804A7DFE0C1E5EBF4E0048159
S21400032005FD10C08E3100E0900740F0813200E0FD
S214000330900720F404E00093B80407C000E00093A0
S214000340B80403C000E00093B8048DDFC6C1E5EB37
S214000350F4E0048105FF10C08E3100E0900740F005
S214000360813200E0900720F405E00093B80407C04F
S21400037000E00093B80403C000E00093B80473DF05
S214000380ACC18E3100E09007F0F0813200E09007BB
S214000390D0F469DFE5EBF4E0048105FF0BC0E5EB84
S2140003A0F4E00581016005830091C0040395009385
S2140003B0C00405C0E5EBF4E005810E7F05830BE085
S2140003C00093B8048AC1813200E0900720F000E074
S2140003D00093B80448DF81C18E3100E09007F0F04A
S2140003E0813200E09007D0F43EDFE5EBF4E00481D4
S2140003F005FF0BC0E5EBF4E0058102600583009184
S214000400C00403950093C00405C0E5EBF4E0058145
S2140004100D7F05830AE00093B8045FC1813200E0D7
S214000420900720F000E00093B8041DDF56C18E311F
S21400043000E09007F0F0813200E09007D0F413DF80
S214000440E5EBF4E0048105FF0BC0E5EBF4E0058185
S214000450046005830091C00403950093C00405C0A2
S214000460E5EBF4E005810B7F058309E00093B80413
S21400047034C1813200E0900720F000E00093B80419
S214000480F2DE2BC18E3100E09007F0F0813200E002
S2140004909007D0F4E8DEE5EBF4E0048105FF0BC03E
S2140004A0E5EBF4E00581086005830091C004039540
S2140004B00093C00405C0E5EBF4E00581077F0583E3
S2140004C008E00093B80409C1813200E0900720F0EC
S2140004D000E00093B804C7DE00C18E3100E090074C
S2140004E0F0F0813200E09007D0F4BDDEE5EBF4E0FA
S2140004F0048105FF0BC0E5EBF4E005810061058390
S2140005000091C00403950093C00405C0E5EBF4E039
S21400051005810F7E058307E00093B804DEC08132B4
S21400052000E0900720F000E00093B8049CDED5C001
S2140005308E3100E09007F0F0813200E09007D0F4B2
S21400054092DEE5EBF4E0048105FF0BC0E5EBF4E09A
S2140005500581006205830091C00403950093C004E2
S21400056005C0E5EBF4E005810F7D058306E000930A
S214000570B804B3C0813200E0900720F000E000939A
S214000580B80471DEAAC08E3100E09007F0F0813228
S21400059000E09007D0F467DEE5EBF4E0048105FFA9
S2140005A00BC0E5EBF4E00581006405830091C00410
S2140005B003950093C00405C0E5EBF4E005810F7BCE
S2140005C0058305E00093B80488C0813200E09007F8
S2140005D020F000E00093B80446DE7FC08E3100E0D5
S2140005E09007F0F0813200E09007D0F43CDEE5EBB7
S2140005F0F4E0048105FF0BC0E5EBF4E0058100683C
S21400060005830091C00403950093C00405C0E5EB84
S214000610F4E005810F7705830DE00093B8045DC014
S214000620813200E0900720F000E00093B8041BDE63
S21400063054C08E3100E0900748F1813200E0900708
S21400064028F511DE42E00091C0040E94DF07442333
S21400065049F4E5EBF4E0048105FF04C00EE00093E6
S214000660B8043BC042E00091C0040E94DF0741305E
S21400067049F4E5EBF4E0048105FD04C00EE00093C8
S214000680B8042BC000E00093B80427C0813200E015
S214000690900718F100E00093B804E5DD1EC08E3127
S2140006A000E0900790F0813200E0900770F4DBDD08
S2140006B0E5EBF4E0048105FF04C00091BA040E9453
S2140006C04A0700E00093B80408C0813200E09007B3
S2140006D020F000E00093B804C6DD89919991089552
S2140006E02A931A930A931FB72BB70091C3040038B6
S2140006F011F4899A01C089980091C7040395009364
S214000700C70401E00093C6042BBF1FBF09911991CF
S2140007102991189545E050E020E030E001EC14E027
S2140007200E94C20802E004BD02E005BD0DE707BD59
S214000730819A0FEF05BB02E000936E0008959A932E
S2140007408A93902F812F42E00091C7040E94DF0712
S2140007504423E9F42091C104492F01E010E00E94EF
S214000760F5072023222361F00FE00093C50400E084
S2140007700093C3040091C80403950093C80414C0F2
S21400078000EF0093C50400E80093C3040DC0009179
S214000790C5040F3021F400E80093C30403C000E052
S2140007A00093C3048093C2048991999108959A9303
S2140007B08A939091C204092FE0EFF0E0FBBFF0E0CF
S2140007C00C94470842E00091C7040E94DF074423C8
S2140007D0C1F40E946707802F8F3F39F400E0009332
S2140007E0C30400E00093C404B1C08093C10401E0D8
S2140007F00093C40400E80093C30400E00093C80418
S214000800A5C00091C404002339F000E00093C3049F
S21400081001E00093C2049AC000E80093C30496C0A7
S2140008201CE000E08CDF92C042E00091C7040E940A
S214000830DF07442321F400E80093C30487C000E0E8
S2140008400093C30403E00093C20480C042E000911A
S214000850C7040E94DF07442321F400E00093C3048A
S21400086075C000E80093C30404E00093C2046EC0A1
S21400087015E007E064DF6AC01BE001E060DF66C0E9
S2140008801AE002E05CDF62C019E003E058DF5EC0F9
S21400089018E004E054DF5AC017E005E050DF56C009
S2140008A016E006E04CDF52C015E007E048DF4EC019
S2140008B042E00091C7040E94DF074423A9F442E007
S2140008C00091C8040E94DF07442339F40FE0009328
S2140008D0C50400E00093C30439C000EF0093C504CC
S2140008E000E80093C30432C00091C5040F3021F421
S2140008F000E80093C30403C000E00093C3040DE0C7
S2140009000093C20423C042E00091C7040E94DF07A0
S214000910442321F400E00093C30418C000E80093C9
S214000920C3040EE00093C20411C042E00091C70465
S2140009300E94DF07442321F400E00093C30406C0AE
S21400094000E80093C30400E00093C20489919991E3
S2140009500895789408951FB7F89400E8009361000E
S21400096001E0009361001FBF0895A89504B7077FB4
S21400097004BF0091600008610093600000E00093EF
S21400098060000895E8DF0E941705EFDF0E94DB0095
S2140009900E947A0701E00E94E205DBDF0E949605CE
S2140009A008950E94C20406E010E01A930A9300E03D
S2140009B010E01A930A9300E514E00E94CB082496F0
S2140009C00AE714E00E94CB0800E019E02DE330E0CF
S2140009D03A932A931A930A930FE914E00E94CB08DD
S2140009E024960E948A030091C604002329F000E0A2
S2140009F00093C6040E94D703B09B07C00FEF06BB48
S214000A000091BE0403950093BE040091BF0400232A
S214000A1051F310E000E00E949D0500E00093BF0443
S214000A200E94400111E000E00E949D05DCCF9A93F1
S214000A308A9340E050E010E02FEF3FEF60E070E078
S214000A4001E02FB6F8948091B100382E8091810095
S214000A50082E80918000182E80E08093B10080E000
S214000A608093810080E080938000E0E0F0E0E43650
S214000A7080E0F80708F04EC08FEF86BB8FEF87BB8D
S214000A8080E08093B20080E090E0909385008093B1
S214000A90840081E08093810081E08093B10080E251
S214000AA08093B600B89BFECF80E08093810080E004
S214000AB08093B1008091840090918500AC01842FD2
S214000AC0852B11F400E026C043318AE7580730F43E
S214000AD082E19AE7841B950BBC0104C0CA018251CF
S214000AE09A47BC016217730720F49B018091660049
S214000AF0182F43318AE7580730F4809166008395B3
S214000B008093660005C0809166008A958093660093
S214000B103196ADCF3092B1000092810010928000E5
S214000B202FBE109366008991999108952D982E985E
S214000B302F98259A269A279A0895302F512F032FFB
S214000B40005029F00A9529F00A9529F006C025E0FC
S214000B5005C026E003C027E001C025E0052F0050B1
S214000B6061F00A9599F4422F01E010E00E94F50723
S214000B70009515B1102315B90895422F01E010E035
S214000B800E94F50715B1102B15B9089565B1422FCF
S214000B9001E010E00E94F5076023662349F4422F27
S214000BA001E010E00E94F50715B1102B15B9089565
S214000BB0422F01E010E00E94F507009515B11023C2
S214000BC015B908959A938A93902F80E0913039F45E
S214000BD000E016E920E030E00E94180601C085E833
S214000BE0082F8991999108950E949608B02FC901FF
S214000BF0A12FB13031F42A2F8C010E944E06402ED0
S214000C0001C04424042DE5E00C94A6080E94960832
S214000C10B02FC901A12FB13031F42A2F8C010E94C8
S214000C209F06402E01C04424042DE5E00C94A6083F
S214000C300E949308C801D90144E050E060E070E0EB
S214000C408C019D010E94FB070050174F224C3F4F1E
S214000C502801390148E050E060E070E08C019D0119
S214000C600E94FB07A801B901820193010E941B089C
S214000C70F80131978F01012F10E00093CD000E2F61
S214000C800093CC0002E00093C80008ED0093C90072
S214000C9006E00093CA00E8E00C94A308192E282E5C
S214000CA0C801422F3091C9003F7B3093C900309174
S214000CB0DD04232F3091DE04532F521728F039E03D
S214000CC0351B320F032E04C0322F3A95351B032EE8
S214000CD0041610F4102D01C0142F012F1130C8F087
S214000CE0FC0130816091DE0470E0FB01E753FB4FAE
S214000CF030833091DE04393021F430E03093DE0466
S214000D0005C03091DE0433953093DE041A950196C3
S214000D10E5CF3091E104332351F430E0F901E75395
S214000D20FB4F30813093CE0031E03093E1043091B8
S214000D30C90030643093C900822D912D0895AC010E
S214000D40C80130E00091E204002311F400E041C045
S214000D500091C9000F770093C9000091E2040A30A1
S214000D6058F00091E0040093DF040AE00093E204E8
S214000D702A3048F02AE007C00091E204021718F46F
S214000D800091E204202F322F2130E8F00091DF049A
S214000D9010E0F801E753FB4F0285FC010083009149
S214000DA0DF0403950093DF040091E2040A950093A4
S214000DB0E20401962A950091DF040A3029F700E044
S214000DC00093DF04E1CF0091C90000680093C900DA
S214000DD0032FCA010895FA93EA934A933A932A9303
S214000DE01A930A933FB74BB70091E0041091E204C0
S214000DF013951093E2042091CE0010E0F801E7531B
S214000E00FB4F22871091E004193021F410E0109374
S214000E10E00405C01091E00413951093E0044BBF66
S214000E203FBF09911991299139914991E991F99119
S214000E301895FA93EA933A932A931A930A932FB73C
S214000E403BB70091DD04093021F400E00093DD0497
S214000E5005C00091DD0403950093DD040091DD04D8
S214000E601091DE04011751F00091DD0410E0F80146
S214000E70E753FB4F00810093CE0003C000E00093D1
S214000E80E1043BBF2FBF0991199129913991E9914E
S214000E90F99118958A932197802F888308810A30C4
S214000EA051F40DE0088311E09E0101E00E94F40574
S214000EB00023C9F3888311E09E0101E00E94F40537
S214000EC00023C9F300E010E0219689910895219748
S214000ED011E09E0101E00E940606202F30E021303E
S214000EE000E0300719F4088110E002C00FEF1FEF92
S214000EF02196089502E404BD279A02E005BB02E0AD
S214000F0000936E0008959A938A93C801082F0E9452
S214000F104A078991999108950E9493082801C9016A
S214000F20DA0166247724082F092B19F400E010E074
S214000F3021C001E0401600E0500641F002E04016F5
S214000F4000E0500619F00FEF1FEF14C00A2F0B2B0E
S214000F5081F0FC01008110E0D6DF019611231AF41F
S214000F600FEF1FEF07C001E0600E00E0701E119744
S214000F70EDCF8301E8E00C94A30808959A938A9332
S214000F802297C801888399839E0101E00E94BD07CD
S214000F90F9CF0C94BE070FE40DBF04E00EBFC0E00F
S214000FA0D4E00E94B008002311F00E9405090E94B8
S214000FB0D1040E94DD070C94C9070C94C9070024CD
S214000FC0E8E0EA9532F0001F001C0416D0F3041A7D
S214000FD0F8CF001F402D00950895149F102D059FF3
S214000FE0100D049F002D110D08954A951AF0000F5C
S214000FF0111FFBCF08952224349F302D259F300DDE
S214001000169F300D079F300D249F202D310D159F04
S214001010200D311D069F200D311D149F102D210D12
S214001020321D059F100D211D321D049F002D110D30
S214001030221D321D0895002411241001E0E2EA95D5
S21400104092F0001F111F221F331F001C111C221CB0
S214001050331C041615062606370688F3041A150AE6
S214001060260A370AECCF001F111F221F331FA001CC
S214001070B101009510952095309508957791679168
S21400108057914791179011FA279037900895F9DFF6
S214001090041B10E003C0F4DF041B150B20E030E057
S2140010A005C0ECDF041B150B260B370BB8F010FC45
S2140010B017C047910790E00FF11F0417100540E096
S2140010C02407340758F436F406910024F101E01B97
S2140010D0F0090994E00FF11F27903790F101099469
S2140010E011F4D6F7F1CF31960EF0319650E060E06D
S2140010F070E047914B3F48F089F34F3F29F04E3F51
S21400110011F07791679157914791041B150B260BA9
S214001110370B39F318F3E7CFEA92DA92CA92BA920B
S214001120AA929A928A927A926A925A924A92BA9319
S214001130AA939A938A930895EE84DD84CC84BB8424
S214001140AA84998488847F806E805D804C80BB8171
S214001150AA8199818881F0E0EC0FFD1FEF010895C8
S21400116001E00895F80103C0319641505040042F25
S214001170052B29F000810217B9F78F01089500E0CA
S21400118010E00895F80103C0219341505040342FD9
S214001190352BD1F7089522979E012E5F3F4F288367
S2140011A03983BE01A80121E030E001E71CE00E947F
S2140011B04909229608959A938A932197C8010F3F6A
S2140011C00FEF900761F0888341E050E09E018A01AE
S2140011D00E948C070130104011F48C0102C00FEF02
S2140011E01FEF219689919991089520E008D0E9F79C
S2140011F008953BBF27913BB702D0D9F708952D93AA
S21400120001501040202F212B089506E0402E09E1C2
S214001210502E00E0602EF201362D6BBE079116911F
S214001220F201EE5FFF4F3F4F3BBFA791B691F20131
S214001230362DEC5FFF4F3F4F3BBF4791579166916E
S214001240242F252B262B21F0FA01362FD2DF01C0C2
S214001250CCDF07E0400E00E0501E601EA201662DA7
S214001260443159416040B8F20895F801319132177F
S21400127029F08F013323C9F700E010E00895F80144
S21400128001C0319620812223E1F7E01BF10B8F018C
S214001290089537D2E1973801CA01DB012C833D83DC
S2140012A000E0088B098B96D1002319F40889198968
S2140012B05EC1053249F400E00A870B870C870D876C
S2140012C00E870F87F8D109C04191CF019E01830197
S2140012D0D4D2112342F749C121607BD10052E1F3F9
S2140012E0035059F0085029F0025029F0035039F005
S2140012F008C02260F2CF2460F0CF2860EECF2061D5
S214001300ECCF00810A3271F459D10C8B1D8B0C89FD
S214001310112332F41195019510400C8B1D8B24601F
S21400132001960FC03C8B3D8B0AC04C895D894F3FB0
S2140013300FE7500719F02ED16C8B7D8B01964DD19F
S214001340A0F348D10E3221F00FEF0A8B0B8B17C09B
S21400135040D10A3229F432D10A8B1B8B01960FC07A
S2140013603A8B3B8B0AC04A895B894F3F0FE7500791
S21400137019F010D16A8B7B8B01962FD1A0F32E8BA0
S2140013803F8BFC0120810FEA14E00E943509012BF7
S21400139021F0FC010191CF0101C000E0088F083662
S2140013A031F418D1083619F402E6088F0196EED00B
S2140013B008871987FC014080042D0552B1F00353BD
S2140013C0C9F10B5009F497C00A9509F476C0055088
S2140013D009F473C0065071F10A9529F1035041F0E3
S2140013E0025041F1035031F18DC006D105E288C0AC
S2140013F0E5D00E831F834A895B890E8155231AF434
S2140014000E943F090DC057D10E94B208202F212B01
S21400141029F02E813F81021B130B02C00A891B890B
S2140014200C871D8776C0CAD0E2D0B0D00E831F834B
S21400143028E75EC0088C0CE6001619F4BBD00C5FDB
S2140014400CC001E7001611F4C1D004C00AE600166D
S214001450BDD031F411978F01085FA7D02FD102C0FD
S214001460AED029D18FD008E6001671F002E600163D
S21400147029F4088180D01A831B8309C004E700166C
S21400148019F00AE7001619F408811981B0D00E8900
S21400149003FF27C0088119812A813B81012B022B7B
S2140014A0032BF9F0042D00620837D9F4ACD000E322
S2140014B066D02F5F3F4FAAD014C09D01088DB5D0CF
S2140014C061D033231AF498D00DE20AC00E8901FFCA
S2140014D003C092D00BE204C000FF03C08DD000E230
S2140014E04ED054D090D0020F131F0E831F83242D8E
S2140014F08E0109D10EC080D05DD00E5F56D000811F
S2140015003ED007C079D005E23AD0442011F07BD017
S2140015107DD001964C885D880A851B85401A510A45
S2140015200E851F85401A510A0C851D85401A510AE2
S2140015300E8902FD02C073D0C1F06A857B85AE01BC
S214001540475E5F4F4FD089F460E34E855F8569D074
S21400155061F06C857D854E815F8144D031F40E89C3
S21400156002FFA1CE5CD009F09ECE0FEF1FEFE196F2
S214001570E8E00C94A30810E00883198308954AD085
S21400158000830895F9DF2A833B8308958E01075E62
S2140015901F4F0895608170E00AE010E00E94ED079A
S2140015A0600F711F6053704008951F4F0D931C937A
S2140015B0119708950BD011978F01089507D01197B2
S2140015C08F010E5FF2DF008111810895ED91FC918D
S2140015D008950196FC0100810895FC0100810053E6
S2140015E00A3008959E01830165D1012B089520E0FD
S2140015F0C3DF2A832B83089506D089010F5F1F4F10
S2140016000A871B8708952A853B850895F6DF02D052
S21400161040820895FE017996E20FF31F089560E276
S214001620A2019E0183014FD0E0CF0D01025601F1C9
S214001630065049F1045029F0085029F1065089F067
S21400164022C0D901C3DF8F010C5F1F4FD9010D9354
S2140016501C9334D0432F440F440B542F642F742F05
S2140016601BC01CD028D040E050E060E070E014C002
S21400167018D0102F110F110B212F312F412F512F62
S214001680612F712F09C00AD0212F220F220B322F73
S214001690422F522F622F722FD001089502D01C9134
S2140016A00895F901A081B1818D010E5F1F4F00835F
S2140016B011830D91089520E030E008950081118196
S2140016C02281338108951DD021976883D801C901EE
S2140016D02A016624772404C001E0600E00E0701E34
S2140016E06414750454F461E070E0AE019C018D0151
S2140016F0E1D0012B89F300E001C001E010E0219663
S21400170037CF0C9493080E948C0824972801E22E69
S214001710F801008511850A831B830FE6E01611F495
S21400172008E007C0022F0062083711F00AE001C087
S21400173000E121DF08E1602E772480819181A2817B
S2140017403381B32F44E6E41619F049E6E41649F46B
S21400175033233AF49095A095B09581959F4FAF4F5F
S214001760BF4F082F092B0A2B0B2B91F402891389E4
S214001770012B71F40881083009F041C0068903FF87
S2140017803EC007E1602E00E3EA81FB81078B37C08D
S2140017900FEF600E701E88809980A92CAA0CAA08EC
S2140017A065D0405D4A3318F00E2D0155400F0A8172
S2140017B01B81060D171D6801F801408357D0C8012C
S2140017C0D901012B022B032B31F0F2010681178180
S2140017D00C151D05E8F20881083089F4F201068927
S2140017E003FF0DC0F6010081003349F00FEF600ED5
S2140017F0701E00E3EA81FB81E60DF71D008308E119
S21400180010E006191709F201048715872A813B8123
S214001810260D371D2683378322893389021713073F
S21400182044F4201B310B2687378706890F7E068BEC
S21400183019C03323BAF426892471203199F46488B8
S214001840758822853385621A730A26853785621A5B
S214001850730A601A710A01E0601600E0700614F060
S214001860668677862496EFE00C949C08A4016A2D81
S2140018707A2D8C019D010C941B08BA93AA93F8014B
S214001880D901242F14960D911C9115970995FD01E9
S21400189004831583012B49F0008911890F5F1F4FC0
S2140018A0008B118B00E010E002C00FEF1FEFA99134
S2140018B0B991089526DFD801C9012A013B0100E04D
S2140018C010E003C02FEF620E721E262D272941F06E
S2140018D0F20141912F019C018D01CFDF112392F778
S2140018E047CE0E949708D801822F022F10E00E9450
S2140018F0DB080817104011F48D0102C000E010E06C
S214001900E4E00C94A7083300B5040000006500501E
S214001910041419000D0A2D2D2057656C636F6D6534
S21400192020746F2041546D65676120546573742080
S2140019305625642E25303264202D2D0D0A002D2DBF
S214001940204275696C64206F6E3A2030383A35391B
S2140019503A33392040446563203231203230313208
S2140019600D0A002D2D20465F4350553A20256C75F4
S20D0019700D0A00686C747A4C0044
S804000000FB
