:020000040040BA
:1000000050200020E92B4000B32A4000B52A4000D0
:10001000B72A4000B92A4000BB2A40000000000077
:10002000000000000000000000000000BD2A4000A9
:10003000BF2A400000000000C12A40003B244000CD
:10004000C32A4000C52A4000C72A4000C92A4000F0
:10005000CB2A4000CD2A4000CF2A4000B12A4000E0
:10006000D12A4000D32A4000D52A4000D72A400098
:10007000D92A4000DB2A4000DD2A4000FB23400053
:10008000DF2A4000B12A4000E12A4000E32A400074
:10009000E52A4000E72A4000E92A40005F194000B5
:1000A000D1214000EB2A4000ED2A4000EF2A400019
:1000B000F12A4000F32A4000B5234000F52A400011
:1000C000F72A4000F92A4000FB2A4000B12A4000EC
:1000D0002DE9F04FA1B0804617461D46029102AEB1
:1000E0000020706211AC6FF000490AE017F8011BA4
:1000F0000298C0470290002800F07C82706A401C81
:100100007062387808B9706A76E22528EED100204E
:10011000F06030617061B061F061306201E040F028
:10012000010017F8011F2029F9D023290ED02B290F
:1001300004D02D2906D030290CD00FE040F0020069
:1001400080B2EEE740F0040080B2EAE740F0080039
:1001500080B2E6E740F0100080B2E2E72A290DD134
:1001600029680A1D2A600968F162002904D54942FC
:10017000F16240F0040080B27F1C11E00021F162C6
:1001800009E0F16A494505D001EB810302EB430127
:100190003039F1627F1C3A78A2F130010A29F0D39C
:1001A00039782E291CBF4FF0FF31B1621CD117F8EE
:1001B000011F2A2906D129680A1D2A600968B1622F
:1001C0007F1C11E00021B16209E0B16A494505D008
:1001D00001EB810302EB43013039B1627F1C3A78B5
:1001E000A2F130010A29F0D3308639780FF6E430D5
:1001F00000F00EFE08B117F8010B8DF83A009DF8DB
:100200003A00682804D1387868280AD1622005E0CD
:100210006C2804BF38786C2803D171208DF83A001F
:100220007F1C11A8B0603A781046253825D01C38BC
:1002300075D0001F022872D9133800F09C8009384D
:100240006DD0801E00F03781401E00F0DD80401E22
:10025000022864D9001F00F0D780401F34D0401E10
:1002600000F08980401E24D0C01E0CD0801E00F0FB
:100270008280C01E00F07F8026E1F068411CF160A2
:10028000252101552AE12868011D29600068706058
:10029000B26A002A03D500F0C7FD30611EE10021DB
:1002A00000F0DEFD00281ABF7168401AB06A3061A4
:1002B00014E12868011D296000680021CDE90001D2
:1002C00011A870607821F2E09DF83A00622818D0F9
:1002D000682806D06A280BD06C2819D0712807D05E
:1002E00016E02868011D2960716A00680180F5E048
:1002F0002A68101D2860706AC1171268C2E90001DF
:10030000ECE02868011D2960716A00680170E5E071
:100310002868011D2960716A00680160DEE02868B4
:10032000C01D20F007002860034603F10800286084
:10033000D3E90001CDE90001002904D5F068411C92
:10034000F1602D210DE0308E810704D5F068411C4D
:10035000F1602B2105E0C00704D5F068411CF16075
:1003600020210155F06811A940187060114600A8BD
:1003700000F0D8F9B2E09DF83A306C2B08BF28683D
:1003800011D0712B08BF286802D06A2B28680AD1C7
:10039000C01D20F00700286084460CF1080028608A
:1003A000DCE9000103E0011D296000680021CDE9BE
:1003B0000001682B04BFDDE9000180B20BD0622B85
:1003C00004BFDDE90001C0B205D0742B18BF7A2B41
:1003D00004D1DDE900010021CDE9000196F83000EB
:1003E00000075FD5DDE90001002908BF002859D0CA
:1003F00042F02000782855D1F06830210155401C8A
:10040000411CF16002554DE09DF83A0062280CD085
:10041000682810D06A281AD06C2824D0712816D0E9
:10042000742820D07A280CD01DE02868011D29608E
:1004300090F900001BE02868011D2960B0F9000058
:1004400015E02868011D29600068002110E0286877
:10045000C01D20F007002860034603F10800286053
:10046000D3E9000104E02868011D29600068C11774
:10047000CDE90001DDE90001002904DAF068411C42
:10048000F1602D210DE0308E810704D5F068411C0C
:10049000F1602B2105E0C00704D5F068411CF16034
:1004A00020210155F06811A940187060114600A87C
:1004B00000F0A5F812E0F068411CF16029680A1DFF
:1004C0002A600968015509E0F068411CF1602521A6
:1004D00001551AB1F068411CF16002557F1CF06AA9
:1004E000F168401AB169401A3169401AF169401A3D
:1004F0007169401A316AA0EB010A96F83000400792
:1005000011D420208DF84000BAF1010F0BDBD34647
:10051000012310AA00A9404600F044FC002869D13C
:10052000BBF1010BF4D1F36811AA00A9404600F019
:1005300039FC00285ED130208DF84000D6F818B084
:10054000BBF1010F0ADB012310AA00A9404600F00D
:1005500029FC00284ED1BBF1010BF4D1336972683C
:1005600000A9404600F01EFC002843D130208DF841
:100570004000D6F81CB0BBF1010F09DB012310AA23
:1005800000A9404600F00EFCA0BBBBF1010BF5D169
:10059000736930697168421800A9404600F002FC96
:1005A00040BB30208DF84000D6F820B0BBF1010FE1
:1005B00009DB012310AA00A9404600F0F3FBC8B9EB
:1005C000BBF1010BF5D196F8300040077FF599ADEE
:1005D00020208DF84000BAF1010FFFF692AD012303
:1005E00010AA00A9404600F0DDFB18B9BAF1010AD3
:1005F000F5D186E54FF0FF3021B0BDE8F08F2DE951
:10060000FA4B86B005462F696F2908BF082605D02A
:1006100041F02000782814BF0A2610263C24D5E992
:10062000000181468B469DF81820642A18BF692A6C
:1006300005D1002903DAD9F100096BEB4B0BBBF1B3
:10064000000F08BFB9F1000F0CD1286B50B9082E6C
:1006500044D195F83800000740D53B24302087F876
:100660003B003BE0A4F101084446F017CDE90460EB
:1006700048465946DDE9042300F01EFCCDE902019D
:10068000CDE9009BDDE90223DDE90401A0FB029B2B
:10069000DDE90001A0EB09003030C0B23A2803D3F5
:1006A0009DF818105139081808F80700DDE9029B79
:1006B000BBF1000F08BFB9F1000F03D0E868E119E2
:1006C0008842CFD3082E09D195F83800000705D508
:1006D000E05D302802D0641E3020E055C4F13C00BB
:1006E000A861E119E960296B884207DA081A2862D3
:1006F000288F4FF6EF710840288710E000290ED5AB
:1007000095F8381001F01401102908D1696B6A6955
:10071000891A2A6A891A0C1A012CA8BF2C6208B0FF
:10072000BDE8F08B2DE9F24F8EB0054604AFD5E958
:100730000001CDE902019DF8380040F020008DF85D
:10074000000061280BD0286B002848BF062005D484
:1007500004BF9DF80000672801D101202863696863
:10076000C1F30A5040F2FF7398421CD1080304BF42
:100770002868002809D10320A8619DF83800613855
:100780001A2837D30FF2606108E00320A8619DF8B2
:10079000380061381A282AD30FF244610322E8682E
:1007A00000F002FCBBE1010017D1284600F037FC45
:1007B000012812DB002400209DF80010612920D1BF
:1007C000E968302201F8012B4A1CEA609DF83820C4
:1007D000612A0CBF782258220FE040F2FE316A688D
:1007E00061F31E526A60441A4FF0FF30E4E70FF2E3
:1007F000EC51D3E70FF2EC51D0E70A706969891C1C
:10080000696110B90026B0467FE19DF800006128BB
:1008100040F09780286B00284CBF2126461C36B23A
:10082000771CD5E900ABDDE902010022002300F0CE
:1008300019FC3ABF8BF00040CDE902A0CDE902AB34
:10084000A4F104088DF810200DF11109012F33DBFC
:10085000DDE902010022002300F01CFC2CD21C2147
:1008600002A800F02FFCDDE9020100F0B9FC04460B
:10087000FF1F012F09DB00F0DFFC02460B46DDE91C
:10088000020100F0F1FCCDE9020109F207000721A5
:1008900004E004F00F0200F8012D2411012C01DB0B
:1008A000491EF6D5491E5CBF002200F8012DF9D57E
:1008B00000F20709012FCBDA0DF11100A9EB0001BD
:1008C0000DF11107B142B8BF0E4636B2002E31D439
:1008D0003046884206DA04A941184978082928BF19
:1008E0000F2100D2002104AA821800E0761E401ECB
:1008F00012F801398B42F9D00F2904D104A941180B
:100900004A78521C4A70002803D504AF761C08F1BF
:10091000040836B2701E0DD4C1190A783032D2B232
:100920003A2A03D39DF838303A3B9A1801F8012946
:10093000401EF2D5286B002840F1E780701E286326
:10094000E3E0DDE902010022002300F08BFB05D289
:10095000DDE9020181F00041CDE9020124B247F254
:10096000975060436F4990FBF1F80FFA88F8C8F18F
:1009700007040027DFF8B091012C19DBDDE902AB99
:10098000E00707D5504659463A464B4600F02CFD45
:1009900082468B466410384649463A464B4600F03C
:1009A00023FD07468946002CEAD1CDE902AB21E0C0
:1009B00064429246DFF874B114D0E00707D5504680
:1009C00059463A464B4600F00FFD82468B4664106E
:1009D000384649463A464B4600F006FD07468946EA
:1009E000002CEAD1DDE9020152465B4600F0CEFD63
:1009F000CDE902019DF8000066280CBF08F10A004D
:100A00000620296B4618142EA8BF132630208DF817
:100A100010000DF11104464F012E33DBDDE9020118
:100A200000F0F4FB04F1080104220A24B0FBF4F303
:100A300003EB830EA0EB4E00303001F8010DB3FB49
:100A4000F4F000EB8004A3EB4403303301F8013DE4
:100A5000521EEAD101F10804083E012EDCDBDDE97B
:100A6000020100F0D3FB00F0F1FB02460B46DDE98A
:100A7000020100F0F9FB00223B4600F0B5FCCDE995
:100A80000201CBE70DF11100201A0DF111079DF8BD
:100A90001110302906D1401EA8F1010817F8011FD6
:100AA0003029F8D09DF80010662904BF0FFA88F8A5
:100AB00008F1010103D065290CBF012100212A6B37
:100AC0008E1836B2B042B8BF064636B2002E1CD4DD
:100AD0003146814204DAC85D352828BF392000D26A
:100AE0003020CA19521E00E0761E491E12F8013944
:100AF0008342F9D0392802D1C85D401CC85500296D
:100B000003D57F1E761C08F101080FFA88F00090CB
:100B100033B23A469DF83810284600F00BF80FB073
:100B2000BDE8F08FA0860100000024400000F03FE7
:100B300084D797412DE9F04385B00546894617468D
:100B40001E46BDF93040D5F83080012E02DA01266C
:100B50000FF2982749F0200066280AD0672840F055
:100B600086806FF003018C42C0F28780444580F29A
:100B70008480641C66280CD095F83800000702D4E5
:100B80004645B8BFB04624B2B8EB040848BF4FF0A2
:100B90000008E868A96924B2012C25DA4A1C302330
:100BA0000B54B8F1010F03DA95F83810090702D594
:100BB0002E211154521CAA6118EB040FB8BFC8F1C2
:100BC000000424B261426962A044B045B8BF464601
:100BD00036B2EE6132463946AB69181800F0E4F9D6
:100BE000A8EB0600A862C6E00818A64218DA32464A
:100BF000394600F0D9F9A9697118A961A01B68628A
:100C0000B8F1010F03DA95F83800000705D5E86858
:100C10002E220A54E869401CE861C5F82880AAE041
:100C20002246394600F0C0F9A8692018A861361B91
:100C3000B8F1010F03DA95F83810090704D5411C03
:100C4000A961E9682E22425436B2B045B8BF464683
:100C500036B23246E119A869EB68C01800F0A4F971
:100C6000A8693018A861A8EB0600686283E0B9F1B2
:100C7000610F16D14FF0700918E0464504DA95F877
:100C80003810090758BFB046B8F1010848BF4FF007
:100C90000008B9F1670F14BF4FF045094FF065091F
:100CA00004E0B9F1410F08BF4FF05009A9694A1C8F
:100CB000E86817F8013B0B54B8F1010F03DA95F817
:100CC0003810090702D52E211154521CAA61B8F11F
:100CD000010F11DB761E36B2B045B8BF464636B2BC
:100CE00032463946AB69181800F05EF9A869301829
:100CF000A861A8EB06006862A869E968471807F8C8
:100D0000019B002C5CBF2B2007F8010B03D52D2085
:100D100007F8010B644200260DF1080824B2012CEB
:100D20000EDB0A22214600A800F053FD019808F8C6
:100D3000010B009C761C24B2012CF2DA022E06DA9A
:100D400049F02000652804BF302007F8010B1EB9C8
:100D5000302007F8010B09E0012E07DB761E02A800
:100D6000305C303007F8010B012EF7DAA869E9682A
:100D70004018381AE86195F8380000F0140010287F
:100D80000DD16869A9690818696A0818E96908181D
:100D9000A96A0818696B8842BCBF081A286205B0A6
:100DA000BDE8F083F8B504460D4616461F46002000
:100DB00077B116F8011BA868A047A86030B1E86AAF
:100DC000401CE86200207F1EF3D1F2BD4FF0FF30DF
:100DD000F2BD0000686A6C747A4C00006E616E00AF
:100DE0004E414E00696E6600494E4600300050F894
:100DF000041B61B150F8042BD30744BFA9F10103D0
:100E00009A18002342F8043B091FFAD1EFE7704714
:100E10000278C9B28A421AB11CBF10F8012FF9E753
:100E200018BF00207047000000F10103810704D0C3
:100E300010F8011B89B18107FAD10268B2F10131C2
:100E4000914311F0803F04BF50F8042FF6E710F8EB
:100E5000011B11B110F8011BFBE7C01A704700001D
:100E6000C9B2830706D0521E22D310F8013B994223
:100E7000F7D11FE0083A13D302F1040241EA01213D
:100E800041EA014150F8043B121F21BF4B40A3F13E
:100E9000013C2CEA030C1CF0803FF3D0C9B2001FC8
:100EA000083210F8013B521E28BF91EA030FF8D810
:100EB00018BF0120401E70471B4213D1094236D192
:100EC0002AB18446B0FBF2F002FB10C2704700F07A
:100ED00087BCFCD30022002370470B0002000021D6
:100EE00000207047904271EB030CF6D370B5B1FA55
:100EF00081F4B3FA83F52C1BA340C4F1200532FA28
:100F000005F63343A2405FF00046E64002E05B088E
:100F10005FEA3202841A71EB030524BF204629469A
:100F20007641F4D302000B003000002170BD012A8D
:100F3000CFD970B5140C20D0B1FA81F4B2FA82F591
:100F4000C4F120046419B4F12006D6D3B2405FF096
:100F50000044F440002502E052085FEA3303C61A59
:100F600071EB020E24BF3046714664416D41F3D3EC
:100F700002000B002000290070BD0C46B1FBF2F10D
:100F800002FB11452D0445EA1045B5FBF2F402FBC6
:100F9000145580B240EA0545B5FBF2F002FB105251
:100FA00040EA044070BD000062B38B0708D0521EB7
:100FB00011F8013B00F8013B00F024808B07F6D1CB
:100FC000830740F0208000BF103A07D330B4B1E867
:100FD0003810103AA0E83810F9D230BC530724BFBB
:100FE000B1E80810A0E8081044BF51F8043B40F8ED
:100FF000043BD20724BF31F8022B20F8022B44BF58
:101000000B7803707047083A07D3B1E80810083A24
:1010100040F8043B40F804CBF7D25307E4E730B480
:10102000416801F00042012143681B031B0B436030
:1010300004BF0368002B0ED003684468DD0F45EA47
:10104000440444605B000360491EE302F4D5436836
:101050001B031B0B436043681A434260084630BCC5
:10106000704700004FF4001C1CEB410F94BF1CEBB9
:10107000430F09E041EA030C50EA4C0C52EA0C0C15
:1010800003D2994208BF9042704714BF8B428242FC
:10109000704700004FF4001C1CEB410F94BF1CEB89
:1010A000430F09E041EA030C50EA4C0C52EA0C0CE5
:1010B00003D28B4208BF8242704714BF99429042CC
:1010C0007047000070B504460D466068C0F30A50D2
:1010D00040F2FF72904207D16068000304BF2068AD
:1010E000002818D0022070BD010004D12046FFF76F
:1010F00096FF012867DA012D0FDB40F2FF71091A14
:101100008D420AD36068002847BF00202F49002085
:101110002F49C4E90001012070BD4142A942616824
:1011200006DA2C4A1140401941EA0050606053E051
:1011300001F0004162681203120B42F480126260F7
:10114000401E451905F13500352803D361600020A4
:10115000206070BD002215F11F0F05DA20352268CE
:101160006068206000206060684213D0521E924187
:10117000D243C0F1200325689D4055EAD27225680C
:10118000C540666806FA03F32B432360636823FABD
:1011900000F06060606808436060B2F1004F03D8FF
:1011A0000BD12078C00708D52068401C206020683B
:1011B00018B96068401C60600EE06068884204BF37
:1011C00020680028F8D1002070BD00000000F0FF6A
:1011D0000000F07FFFFF0F804FF0FF3070BD000078
:1011E000F446400D40EAC120490006D200F014F850
:1011F000004248BF6FF00040604700F00DF84FF02C
:10120000004188428CBF084640426047400D40EA9A
:10121000C120490080F00D8040F00040490DA1F54B
:101220008061491C05D4D1F11F0154BFC840C017CB
:1012300070474FF000007047010040F10980F4460C
:10124000404200F005F851F000416047010000BF46
:1012500009D0B0FA80F18840C91CC1F58461090544
:1012600001EBD0214005704770B44FF0004591EA82
:10127000030F44BF6B4000F0B5BA00BF841A71EB96
:10128000030604D26E40001BB141121973414FF4A2
:10129000001C1CEB410F34BF7CEB430684E00C0DBB
:1012A000A4EB1356362E7DDC012E43DC45EAC32326
:1012B00043EA525312BFD20292025B08240545EA68
:1012C000C12141EA5051D2EBC020994125D407D128
:1012D000B0FA80F610FA06F164D00020203608E05B
:1012E000B1FA81F6B140C6F1200220FA02F21143B0
:1012F000B0404FEAF474B4EB465434F001064FEAC0
:1013000074040AD8D6F50016760D04F00044F040B7
:1013100061FA06F25040F1404840C00A40EA4150AC
:1013200021F0004128BF5FEA500550F1000044EB76
:10133000D12137E045EAC323DB0A45EAC121C90AC6
:10134000B6F120050EDD42EA0242120CC5F120067C
:1013500003FA06F6EB4042EA06056D42984161F158
:1013600000010DE062FA06F5F240554063FA06FC12
:1013700082EA0C02F3405A406D42904161EB030156
:1013800011F4801F05D1641E620502D06D0040413A
:10139000494121F48011430875F1004350F10000E8
:1013A00041EB045170BC70471CEB410F15D223F088
:1013B000004352EA43060BD04FEA4C0CBCEB410F02
:1013C00004D80C0D661E342EB7DDEBE7801A994168
:1013D00050EA410608BF0021E4E708BF1CEB430FB9
:1013E00028BF6FF00001DDE7B0B581EA030C0CF017
:1013F000004C40F2FF7515EA11541DBF15EA135752
:10140000AC42AF4239E0E41923EA455343F4801378
:10141000C90241F0004141EA505EC7021100A7FB3A
:10142000020200284FF00000EEFB01204FF0000107
:10143000E3FB072118BF42F0010240180021494197
:10144000E3FB0E01A4F580640F0302D25200404179
:10145000494154F101046CDD470872F1004250F13A
:10146000000051EB0451A1F580115CBF41EA0C0171
:10147000B0BD4CEA05510020B0BD05EA1357AC429F
:1014800014BFAF4241E050EA410E1CBF52EA430E86
:1014900002E061460020B0BD24423C441BD15FEA1B
:1014A000070EF6D0090302BF01460020AEF1140E6C
:1014B000B1FA81F7AEEB070401FA07FE0C37C7F16A
:1014C000200100FA07F7C8404EEA000E23EA455310
:1014D00043F48013A2E733F00043B3FA83F704BF69
:1014E000B2FA82FE77440B3FE41BB7F1200E2FBF08
:1014F00002FA0EF3BB40C7F1200E22FA0EFE38BFEF
:1015000043EA0E03BA40641C82E750EA410E14BF5E
:1015100052EA430E6FF000014FF4001717EB430F30
:101520008ABF194617EB410FB5E74CEA0551002079
:10153000B0BDD4F10104B4F120070FDAC4F12007E3
:10154000520828BF42F0010210FA07F501FA07F726
:10155000E1BF2A43E0403843E1400FE0352C98DCFE
:10156000C7F1200452EA400220FA07F218BF42F005
:10157000010231FA07F0A1400A43002172F1004252
:1015800050F1000051EB0C01B0BD0000F0B540F28D
:10159000FF7581EA030C0CF0004C15EA11541DBFD5
:1015A00015EA1357AC42AF42E5E0BC41C1F3130169
:1015B000C3F31303801A994143F4801304D2641EC9
:1015C0004000494180185941C90241EA5051B1FBDC
:1015D000F3F603FB1611A2FB0675D7EBC020A94159
:1015E00002D2761E80185941C90241EA5051B1FB1E
:1015F000F3FE03FB1E11A2FB0E75D7EBC020A94121
:1016000003D2AEF1010E80185941890241EA90518E
:10161000760546EA8E2EB1FBF3F603FB1611A2FB0C
:101620000675D7EB8020A94102D2761E8018594159
:10163000C90241EA50514EEA060EB1FBF3F603FB34
:101640001611A2FB0675D7EBC020A94102D2761E67
:1016500080185941C90241EA5051B1FBF3F703FB2D
:101660001711A2FB0735D3EBC020A94167F1000792
:101670000CBF004247F0010766F3D5274FEA1E3141
:10168000B80814F5806412DDBD0775F1004250EB17
:101690000E5051EB045111F5801F5CBF41EA0C0163
:1016A000F0BD4CF07F6141F0E0410020F0BDBD078E
:1016B0006D0840EA0E5041F48011D4F10104B4F1F8
:1016C00020060ADAC4F120060200E04001FA06F31F
:1016D000E1401843B24015430EE0342C13DCC6F150
:1016E000200445EA40056D0820FA06F2154321FA68
:1016F00006F0A1400D43002175F1004250F10000B9
:1017000051EB0C01F0BD00205FEA0C01F0BDCFB938
:1017100092185B41B3FA83F704BFB2FA82F6BF199D
:101720000B3FB7F120062FBF02FA06F3BB40C7F10B
:10173000200622FA06F638BF3343BA401CB1E4193A
:10174000641E33E77F4231F00041B1FA81F404BFF7
:10175000B0FA80F6A4190B3CB4F120062FBF00FAB2
:1017600006F1A140C4F1200620FA06F638BF314345
:10177000A0403C1B1AE7AC421ABF05EA1357AF4220
:1017800012E050EA41061CBF52EA4306BFE750EAA6
:101790004107304661461CBF41EA0551F0BD52EA9F
:1017A000430C08BFC143F0BD00204FF4001616EBF8
:1017B000410F98BF16EB430F08BF16EB410F24BF34
:1017C000C14305E016EB430F0CBF61464CEA0551DF
:1017D000F0BD91FBF2F303FB1211C0E90031704739
:1017E00070470000841A71EB030603D2001BB1415D
:1017F000121973414FF4001C1CEB410F34BF7CEBFA
:10180000430443E00C0DA4EB1356352E50DC45EA9F
:10181000C323DB0A45EAC121C912B6F120050DDD5B
:1018200063FA05F6EB4086EA0305124218BF45F05D
:101830000105C01851F100010CD213E062FA06F55F
:10184000F2405540F3415A40B340F3405A408018AB
:10185000594107D349085FEA30005FEA350528BFE0
:1018600045F0010501F58011420875F1004250F183
:10187000000041EB045170BC4FF4001C1CEB410F05
:1018800038BF70470020090D090570471CEB410F58
:1018900010D252EA43060BD0BCEB410F05D80C0D19
:1018A000AB43661E342EB5DD02E0AB4380185941D0
:1018B00070BC704770BC70472DE9F043894683B017
:1018C0008046002100A80A4606C00027A3A400AE57
:1018D00000F0E4FA45B20A2D18BF0D2D03D1A0A0E7
:1018E00000F0FEFA0CE0A5F130000A28F0D22946FB
:1018F000204600F0F5FABD557F1C7FB2042FE7DBD0
:101900000020B85500218A57302A16D07B1A5B1E5A
:1019100005D0022B09D005D3032B09D00DE0303AB6
:1019200010180AE0303A0A2305E0303A642302E056
:10193000303A4FF47A7303FB0200491C0429E2DBBE
:1019400001B28945A8BF414506DA0FF25C2000F0DC
:10195000C7FA4FF0FF3000E000B2BDE8FE837047E9
:101960002DE9F04F89B07F4800F0CCFA06210FF244
:10197000744000F042FB002000F0A0FB2023062270
:1019800000210FF2483000F0ABFA0FF288320FF26C
:1019900078310FF25C3000F0A3FA0FF2843000F0DF
:1019A0009FFA714D4FF47A7040F2FF7AA8806F4E23
:1019B000A5F806A040F27F207060DFF8B4B100F017
:1019C000EBF810200690002005900490082003906A
:1019D000DFF8A081DFF8A09100200190009002467E
:1019E000CDF8088000231E21484600F0B5FB634C6B
:1019F0004FF080402060624F5020B87100F00DFC25
:101A000060494FF0807008605F49086000213970BC
:101A10002060695601208840C9F81000E8885B49B9
:101A2000484390FBFAF000F2FF71484600F0C8FB13
:101A30000220C9F82400564800210170417001219C
:101A40008170C17000210171A970697000F01AFDE8
:101A50000FF20C194F4C05E0EA88A9880FF22C30E0
:101A600000F03EFA206818B10020206000F01CFC55
:101A7000079830280ED0312830D0472860D0492828
:101A8000EAD04D283FD067285AD06928E4D06D2885
:101A900039D0E7E70FF2AC2000F022FA40F6B83177
:101AA000C820FFF709FF0746484600F019FA3946F3
:101AB0000FF29C2000F014FA012FD3DB642010FBFE
:101AC00007F098FBF0F0B0F1807F05D20002000A29
:101AD000401E706000F060F8AF80C3E70FF288200E
:101AE00000F0FEF951466420FFF7E6FE074648463F
:101AF00000F0F6F939460FF27C2000F0F1F9012FE1
:101B0000B0DBEF80AEE70FF2C00000F0E9F90FF2B2
:101B1000E00000F0E5F90FF2001000F0E1F90FF23B
:101B20001C1000F0DDF90FF2481000F0D9F90FF2A7
:101B3000601000F0D5F90FF2741000F0D1F991E7C0
:101B400000F0BBFC38B100F0BBFC01460FF2602096
:101B500000F0C6F986E70FF27420EEE72563000077
:101B60000D0A000050140E404200002010E000E07A
:101B700023ED00E00090D00300C0034000E100E04E
:101B800018E400E080E100E080E200E04DFBFFFFB0
:101B90003800002010000020F0208BF8000000200A
:101BA000B0600720306070470D0A2D462D20496E29
:101BB0007075742076616C756520697320696E7626
:101BC000616C6964210A00002D2D204D656E752021
:101BD00043686F6963657320666F72207468697308
:101BE000206578616D706C652D2D0D0A0000000078
:101BF0002D2D20303A20536574206672657175650D
:101C00006E637928323030487A2D336B487A292E2A
:101C10002D2D0D0A000000002D2D20313A20536596
:101C20007420616D706C6974756465283130302D75
:101C300032303437292E2D2D0D0A00002D2D20692C
:101C40003A20446973706C61792070726573656EB7
:101C500074206672657175656E637920616E6420AB
:101C6000616D706C69747564652E2D2D0D0A000010
:101C70002D2D206D3A20446973706C617920746851
:101C80006973206D656E752E2D2D0D0A0000000004
:101C90002D2D20733A206F75747075742073696EE2
:101CA0006520776176652E2D2D0D0A002D2D206380
:101CB0003A206F757470757420636F73696E652058
:101CC000776176652E2D2D0D0A0000002D2D2050F8
:101CD000686F6E652053696D756C61746F72205604
:101CE00025642E253032642563202D2D0D0A000039
:101CF0002D2D20436F6D70696C65643A202573202B
:101D00002573202D2D0D0A004465632033312032C8
:101D10003031320032313A34313A32310000000091
:101D20002D2D20506C6174666F726D3A2073616D59
:101D300034732D78706C61696E6564202D2D0D0AE9
:101D4000000000004672657175656E63793A0000A7
:101D5000536574206672657175656E637920746F62
:101D60003A2564487A0A0000416D706C69747564A4
:101D7000653A000053657420616D706C6974756418
:101D80006520746F202564200A0000002D492D2055
:101D90004672657175656E63793A256420487A20CC
:101DA000416D706C69747564653A25640D0A0000B4
:101DB0002D552D204275666665722069732061631A
:101DC000746976652C2025630D0A00002D552D20A1
:101DD00042756666657220697320656D7074792E30
:101DE0000D0A000000002000000E0E400B00000055
:101DF00000004000000E0E400B000000000000023A
:101E0000000E0E400B00000000000001000E0E400E
:101E10000B00000000008000000E0E400B050000CB
:101E200000000400000E0E400B01000070B584B0ED
:101E300004000D0000A821494CC94CC00C390C38D5
:101E40001F4E012100A800F0D8F81E484FF4807101
:101E50000160AC2030604FF400607060B5FBF4F0BE
:101E60000009306240F20220C6F8200150203060A4
:101E70001548012101707FBD38B50400104D12488E
:101E80000078002804D111495FF4E130FFF7CEFF5C
:101E900068698005FCD5E4B2EC6131BD10B5084C31
:101EA00009480078002804D108495FF4E130FFF7C1
:101EB000BDFF6069C007FCD5A06910BDDC2B4000E8
:101EC00000060E4010040E40410000200090D00398
:101ED00010B504002000C0B2FFF7CEFF200010BDF7
:101EE0000EB400B582B003A9009100AB02460121F7
:101EF000034878440A30FEF7EBF806BC5DF810FBA7
:101F0000BB0C00004FF40041416070474164D2B205
:101F1000002A01D0416600E00166026F036F8A4328
:101F20001A400267426F436F8A431A40426741601A
:101F300070474164D2B2002A01D0416600E00166D8
:101F4000026F0A430267426F436F8A431A40426737
:101F5000416070474164D2B2002A01D0416600E07E
:101F60000166026F036F8A431A400267426F0A4399
:101F70004267416070474164D2B2002A01D0416695
:101F800000E00166026F0A430267426F0A4342673C
:101F90004160704710B44164D30701D5416600E049
:101FA00001660A231A4201D0016200E041629307F0
:101FB00002D5C0F8801003E0120701D5C0F88410E4
:101FC0004161016010BC704710B4019C4164E4B2EF
:101FD000002C01D0416600E00166DBB2002B01D08D
:101FE000016500E04165D2B2002A01D0016300E042
:101FF00041630161016010BC704738B504000D00F9
:1020000009E0A07A10F0010221686068FFF77EFF06
:1020100004F20C046D1E002D46D0607A0028F0D02A
:1020200002280FD006D304281CD013D3062822D0B0
:1020300021D337E0A07A10F0010221686068FFF731
:1020400078FFE5E7A07A10F0010221686068FFF7E9
:1020500081FFDDE7A07A10F0010221686068FFF7D8
:102060008AFFD5E7207A00F00BFBA27A216860682E
:10207000FFF790FFCCE7A07A10F00100A17AC1F33E
:10208000800111F00103617A062901D1012200E0EB
:102090000022C0B20090DBB2D2B221686068FFF7C4
:1020A00093FFB5E7002000E0012032BD41680068E1
:1020B00008637047416800684863704780B52449E9
:1020C0000968884201D3002006E001210C22214B3F
:1020D00002FB0030FFF791FF02BD80B51C49096883
:1020E000884201D3002014E00C211A4A01FB002190
:1020F000497A052906D10C21164A01FB0020FFF779
:10210000D5FF05E00C21134A01FB0020FFF7D2FFA9
:10211000012002BD80B50E490968884201D3002024
:1021200014E00C210B4A01FB0021497A052906D154
:102130000C21084A01FB0020FFF7BCFF05E00C2141
:10214000044A01FB0020FFF7B1FF012002BD00009F
:10215000F42B4000602B40002DE9F043079C089DC4
:10216000DDF824800A9E0B9FDDF830C0DDF834E0F6
:102170005FF0010919FA01F1DFF84090C9F8001089
:1021800001210160D2B212F00101DBB25A0012F05B
:102190000E021143E4B214F010021143EDB215F037
:1021A00020021143F6B251EA06211CF480121143B9
:1021B0001EF07C5211434160BDE8F08310040E40D4
:1021C0004268D20601D5016201E089B2016270471E
:1021D00010B56D48C1688A061ED500686B4C0A228E
:1021E000B0FBF2F0606101202061880308D5002077
:1021F000FFF790FF0220207361690FF29C1007E047
:102200000020FFF76AFF0120207361690FF2901030
:10221000BDE81040FFF764BE10BD80B501210FF28C
:102220008810FFF7EAFE182000F02AFA5848022129
:1022300001604FF0FF318162016A009155494160B0
:10224000202141620521016001BD4000A0F57470AC
:102250004A288041C00F7047F8B54C4D0646EF69DB
:102260000C463846FFF7F1FFA97A70B12A7B0120AE
:10227000B040012A08BF814303D00143687A401C63
:1022800068720020E8612C720BE07800A0F5EE7017
:102290004A2803D2A86908B9FA2002E0002028726F
:1022A000E861A972A861F1BD70B5384CA569606993
:1022B00040194100A1F5EE76217AE0610F2951D84D
:1022C000DFE801F0080D50505034312E2B28252224
:1022D0001F515039207B022844D1012039E0FFF7FB
:1022E000B4FF48B1207B012806D10020A061E06145
:1022F000A07260720C2002E00020A061E0612072F8
:1023000070BD0B21002013E00A21012010E00921FB
:1023100002200DE0082103200AE00721042007E045
:102320000621052004E00521062001E00F210720F9
:10233000BDE8704090E7FFF788FF68B1207B022876
:1023400002D1607A401C6072607AC0074CBF0D20D9
:1023500000202072002003E04A2E10D300202072BB
:10236000A061E06170BDFFF770FF30B1207B0228F3
:10237000F4D1A07AFFF780FDF0E74A2EEED2002DCF
:10238000ECD1FA20A06170BD540001400000002093
:1023900040000140030703002575312000000000C4
:1023A000257530200000000000800000000E0E4067
:1023B0000B04000070B5A64CA06880071CD5A54E84
:1023C000A54D3078A549642806D3087908B900F0EE
:1023D000ADF8002030700CE032280BD1C87802280C
:1023E00004D00879012805D10020087100F09EF87A
:1023F000002028700220206070BD99484169C907FB
:1024000000D4704738B5974C217814290FD26578DD
:10241000691C617000F0A0F92919C8702078401C6F
:1024200020706078142807D30020607031BD00F060
:1024300093F961780919C87031BD38B5864C874960
:102440002078C97890FBF1F201FB1200B0B9814805
:1024500085490278854B31F912101B88521C844D36
:10246000594340F2FF7391FBF3F101F2FF710270E7
:1024700089B22846FFF7A4FE022068622078401C3B
:10248000207031BD38B57B484FF40044744D046072
:10249000794B4FF4E1324FF40C61284600F026F9F5
:1024A000764801210460284600F041F901212846C0
:1024B00000F046F90120A86031BD6A4800787047F5
:1024C00068490A785AB18B78521E5818C0785B1C3C
:1024D0008B70DBB20A70142B24BF00228A70C0B24A
:1024E000704730B55D4901250C7805FA00F00A7A8D
:1024F0008B7804420AD0501C012B08BF02460DD035
:1025000093B902460220C8708D700DE0012B04D1F2
:102510000220C8700020887006E02BB94D48CD70AD
:102520000078322808BF0D710A7230BD38B54B4DA6
:10253000484C68780F2818D8DFE800F008181E20EB
:102540002256514C47423D383383887245480078C3
:1025500000287BD0012068700220E8700020A8705D
:10256000FFF7AEFF28700020207031BD00202872D8
:10257000FFF7B7FF0C2062E0032060E004205EE07C
:102580002878000608D50120E870A8702078322845
:1025900028D10120287125E00220E8700020A870D1
:1025A00020E00120FFF79DFF0B2048E00220FFF70D
:1025B00098FF0A2043E00320FFF793FF09203EE045
:1025C0000420FFF78EFF082039E00520FFF789FF80
:1025D000072034E00620FFF784FF06202FE00720C5
:1025E000FFF77FFF05202AE0297AA878C90706D4DB
:1025F000012806D090B90220E87001200DE038B91A
:102600000120E8702078322808D10120287105E0E7
:10261000012803D10220E8700020A8700F200EE0EE
:10262000A878012806D1E8702078322806D1012048
:10263000287103E00220E8700020A8700D20687067
:1026400031BD002068700120E870A87031BD000025
:1026500028C0034043000020440000203800002030
:1026600000800240200000205C294000480000203B
:1026700000C0034010040E400090D00300E100E0D1
:1026800010B50400232C06D33B221249124800F057
:102690006AF800F067F8202C0DD21048006801217C
:1026A000A14008400121A140884212D00120A04051
:1026B0000B4908600DE0203C0A4800680121A14058
:1026C00008400121A140884203D00120A0400649D2
:1026D000086010BD242A4000D02B400018040E4092
:1026E00010040E4008050E4000050E4010B4AC2446
:1026F00004604160174C214203D1B3FBF2F424097A
:10270000046211F00E040E2C01D0CC050DD511F091
:102710003004002C03D1B3FBF2F1016205E0C906DD
:1027200003D5B3FBF2F1C908016210BC7047C9B20E
:10273000002902D04021016001E080210160704742
:10274000C9B2002902D01021016001E020210160FE
:1027500070470000000108004169C907FCD5806985
:10276000C0B270477047F0B583B00C460A21002311
:102770008DF80A3002AB0A25491EC9B292FBF5F664
:1027800006EB8607A2EB470230325A703246012A26
:102790000FDB491EC9B292FBF5F606EB8607A2EBEA
:1027A000470230321A703246012AA4BF9B1E01290B
:1027B000E2DA0346002200A80918204600F011F8CA
:1027C00008B900F053F803B0F0BD000010B504469E
:1027D00003E014F8010BFFF77BFB20780028F8D109
:1027E00010BDF8B504460D4616461F4656B10FF209
:1027F0004400FFF7EBFF3046FFF7E8FF0FF244001D
:10280000FFF7E4FF2046FFF7E1FF0FF24000FFF77C
:10281000DDFF2846FFF7DAFF0FF23400FFF7D6FF9F
:102820003846FFF7D3FF0FF22C00FFF7CFFF002051
:10283000F2BD0000496E2066756E6374696F6E208C
:1028400000000000202D2D20000000003A000000B4
:1028500020000000202D2D20617373657274696F54
:102860006E206661696C65640A000000012000F05A
:1028700001B8000001491820ABBEFBE726000200AA
:1028800000202E494FF440720A602D490968C901A1
:102890000CD42B482B49016000202B490968C9073B
:1028A00004D40100481C11F1010FF6D12448274936
:1028B0000160002024490968C90304D40100481CB0
:1028C00011F1010FF6D1224800688008800050F015
:1028D00001001F49086000201B490968090704D44A
:1028E0000100481C11F1010FF6D11A481A49016084
:1028F000002015490968490704D40100481C11F15A
:10290000010FF6D112480121016000200E4909682B
:10291000090704D40100481C11F1010FF6D10C483D
:1029200003210160002008490968090704D4010057
:10293000481C11F1010FF6D1704700BF000A0E408C
:1029400020040E400908370068040E4009083701CA
:1029500030040E402C040E4003010F0000008000E4
:1029600000017F01FD017802F1026703DA034904E7
:10297000B30419057905D40529067806C0060207AF
:102980003C076F079B07BF07DB07EF07FB07FF0746
:10299000FB07EF07DB07BF079B076F073C07020733
:1029A000C00678062906D40579051905B30449043B
:1029B000DA036703F1027802FD017F010001800064
:1029C000000080FF00FF81FE03FE88FD0FFD99FCE3
:1029D00026FCB7FB4DFBE7FA87FA2CFAD7F988F902
:1029E00040F9FEF8C4F891F865F841F825F811F8B7
:1029F00005F801F805F811F825F841F865F891F89F
:102A0000C4F8FEF840F988F9D7F92CFA87FAE7FA02
:102A10004DFBB7FB26FC99FC0FFD88FD03FE81FEF4
:102A200000FF80FF433A5C446F63756D656E74739D
:102A300020616E642053657474696E67735C6B7299
:102A4000656E5C4D7920446F63756D656E74735C63
:102A500049415220456D62656464656420576F7218
:102A60006B62656E63685C61726D5C6578616D70E8
:102A70006C65735C41746D656C5C73616D34735C23
:102A800073616D34732D656B5C6C69627261726920
:102A900065735C6C6962636869705F73616D3473E0
:102AA0005C736F757263655C706D632E630000000C
:102AB000FEE7FEE7FEE7FEE7FEE7FEE7FEE7FEE7EE
:102AC000FEE7FEE7FEE7FEE7FEE7FEE7FEE7FEE7DE
:102AD000FEE7FEE7FEE7FEE7FEE7FEE7FEE7FEE7CE
:102AE000FEE7FEE7FEE7FEE7FEE7FEE7FEE7FEE7BE
:102AF000FEE7FEE7FEE7FEE7FEE7FEE710B50A4C5D
:102B0000FFF7BEFE0948204009490860B4F10050B3
:102B1000B0F5003F05D20648006850F00050044967
:102B20000860012010BD00BF0000400080FFFF1FB3
:102B300008ED00E010B5084979441C31074C7C448D
:102B40001A34A14206D0081D0A6851188847014668
:102B5000A142F8D110BD00BF2C00000038000000D9
:102B600000000800000E0E400B06000000001000E0
:102B7000000E0E400B0600000000100000120E4078
:102B80000D0600006BE2FFFF4C000000000000207B
:102B900000000000FFF7B2FF002801D0FFF7CAFFD6
:102BA0000020FEF7DDFE00F000F800F001B80000A4
:102BB00007463846FFF75EFEFBE738B504460D468C
:102BC0002846FFF785F9A84218BF0024204632BDE9
:102BD00064774964203C2033350000000006000083
:102BE000000E0E400B000000C046C046C046C04666
:082BF000FFF7D0FF0300000015
:0400000500402BE9A3
:00000001FF
