:10000000A0060020D14100002D4200003142000036
:1000100035420000394200003D420000000000006F
:10002000000000000000000000000000414200004D
:100030004542000000000000494200004D4200001F
:1000400051420000713A0000112500005D4200009D
:100050006142000065420000694200006D420000FC
:1000600071420000653A00004B3000009D2C0000FA
:10007000032D000085420000894200008D420000EF
:100080009142000095420000994200009D4200000C
:10009000A1420000A5420000A94200002DE9F04F56
:1000A000A1B0804617461D46029102AE0020706244
:1000B00011AC6FF000490AE017F8011B0298C04725
:1000C0000290002800F07C82706A401C70623878D0
:1000D00008B9706A76E22528EED10020F060306120
:1000E0007061B061F061306201E040F0010017F82A
:1000F000011F2029F9D023290ED02B2904D02D2926
:1001000006D030290CD00FE040F0020080B2EEE7BC
:1001100040F0040080B2EAE740F0080080B2E6E771
:1001200040F0100080B2E2E72A290DD129680A1DAB
:100130002A600968F162002904D54942F16240F061
:10014000040080B27F1C11E00021F16209E0F16A35
:10015000494505D001EB810302EB43013039F162DF
:100160007F1C3A78A2F130010A29F0D339782E2980
:100170001CBF4FF0FF31B1621CD117F8011F2A29B3
:1001800006D129680A1D2A600968B1627F1C11E046
:100190000021B16209E0B16A494505D001EB810354
:1001A00002EB43013039B1627F1C3A78A2F1300191
:1001B0000A29F0D3308639780FF6E43000F014FEC7
:1001C00008B117F8010B8DF83A009DF83A0068283D
:1001D00004D1387868280AD1622005E06C2804BF71
:1001E00038786C2803D171208DF83A007F1C11A853
:1001F000B0603A781046253825D01C3875D0001FDD
:10020000022872D9133800F09C8009386DD0801E06
:1002100000F03781401E00F0DD80401E022864D9C6
:10022000001F00F0D780401F34D0401E00F08980AE
:10023000401E24D0C01E0CD0801E00F08280C01E44
:1002400000F07F8026E1F068411CF1602521015516
:100250002AE12868011D296000687060B26A002ADE
:1002600003D500F0DDFD30611EE1002100F0F8FD56
:1002700000281ABF7168401AB06A306114E128681A
:10028000011D296000680021CDE9000111A87060FE
:100290007821F2E09DF83A00622818D0682806D04C
:1002A0006A280BD06C2819D0712807D016E028686E
:1002B000011D2960716A00680180F5E02A68101D3F
:1002C0002860706AC1171268C2E90001ECE0286872
:1002D000011D2960716A00680170E5E02868011D50
:1002E0002960716A00680160DEE02868C01D20F0A6
:1002F00007002860034603F108002860D3E90001E5
:10030000CDE90001002904D5F068411CF1602D21E0
:100310000DE0308E810704D5F068411CF1602B217F
:1003200005E0C00704D5F068411CF16020210155AB
:10033000F06811A940187060114600A800F0D8F9C3
:10034000B2E09DF83A306C2B08BF286811D0712BB1
:1003500008BF286802D06A2B28680AD1C01D20F087
:100360000700286084460CF108002860DCE90001E1
:1003700003E0011D296000680021CDE90001682B20
:1003800004BFDDE9000180B20BD0622B04BFDDE9C0
:100390000001C0B205D0742B18BF7A2B04D1DDE95F
:1003A00000010021CDE9000196F8300000075FD57B
:1003B000DDE90001002908BF002859D042F02000E3
:1003C000782855D1F06830210155401C411CF1605E
:1003D00002554DE09DF83A0062280CD0682810D0F4
:1003E0006A281AD06C2824D0712816D0742820D0FE
:1003F0007A280CD01DE02868011D296090F90000C2
:100400001BE02868011D2960B0F9000015E028688C
:10041000011D29600068002110E02868C01D20F03F
:1004200007002860034603F108002860D3E90001B3
:1004300004E02868011D29600068C117CDE90001AA
:10044000DDE90001002904DAF068411CF1602D218A
:100450000DE0308E810704D5F068411CF1602B213E
:1004600005E0C00704D5F068411CF160202101556A
:10047000F06811A940187060114600A800F0A5F8B6
:1004800012E0F068411CF16029680A1D2A600968C1
:10049000015509E0F068411CF160252101551AB1B0
:1004A000F068411CF16002557F1CF06AF168401A47
:1004B000B169401A3169401AF169401A7169401AEC
:1004C000316AA0EB010A96F83000400711D42020D1
:1004D0008DF84000BAF1010F0BDBD346012310AABF
:1004E00000A9404600F044FC002869D1BBF1010B93
:1004F000F4D1F36811AA00A9404600F039FC0028A5
:100500005ED130208DF84000D6F818B0BBF1010F55
:100510000ADB012310AA00A9404600F029FC0028AC
:100520004ED1BBF1010BF4D13369726800A940468A
:1005300000F01EFC002843D130208DF84000D6F892
:100540001CB0BBF1010F09DB012310AA00A9404632
:1005500000F00EFCA0BBBBF1010BF5D17369306953
:100560007168421800A9404600F002FC40BB3020F0
:100570008DF84000D6F820B0BBF1010F09DB012354
:1005800010AA00A9404600F0F3FBC8B9BBF1010B6B
:10059000F5D196F8300040077FF599AD20208DF811
:1005A0004000BAF1010FFFF692AD012310AA00A995
:1005B000404600F0DDFB18B9BAF1010AF5D186E535
:1005C0004FF0FF3021B0BDE8F08F2DE9FA4B86B037
:1005D00005462F696F2908BF082605D041F0200085
:1005E000782814BF0A2610263C24D5E9000181464C
:1005F0008B469DF81820642A18BF692A05D1002966
:1006000003DAD9F100096BEB4B0BBBF1000F08BF0C
:10061000B9F1000F0CD1286B50B9082E44D195F8D0
:100620003800000740D53B24302087F83B003BE0F2
:10063000A4F101084446F017CDE904604846594644
:10064000DDE9042300F038FCCDE90201CDE9009B8F
:10065000DDE90223DDE90401A0FB029BDDE90001E5
:10066000A0EB09003030C0B23A2803D39DF818102F
:100670005139081808F80700DDE9029BBBF1000FAB
:1006800008BFB9F1000F03D0E868E1198842CFD361
:10069000082E09D195F83800000705D5E05D30280F
:1006A00002D0641E3020E055C4F13C00A861E1197D
:1006B000E960296B884207DA081A2862288F4FF60A
:1006C000EF710840288710E000290ED595F8381002
:1006D00001F01401102908D1696B6A69891A2A6A24
:1006E000891A0C1A012CA8BF2C6208B0BDE8F08B47
:1006F0002DE9F24F8EB0054604AFD5E90001CDE9F2
:1007000002019DF8380040F020008DF800006128BB
:100710000BD0286B002848BF062005D404BF9DF8E5
:100720000000672801D1012028636968C1F30A50DD
:1007300040F2FF7398421CD1080304BF28680028C8
:1007400009D10320A8619DF8380061381A2837D3F1
:100750000FF2606108E00320A8619DF8380061385D
:100760001A282AD30FF244610322E86800F01CFC27
:10077000BBE1010017D1284600F051FC012812DB33
:10078000002400209DF80010612920D1E968302262
:1007900001F8012B4A1CEA609DF83820612A0CBF41
:1007A000782258220FE040F2FE316A6861F31E524F
:1007B0006A60441A4FF0FF30E4E70FF2EC51D3E7E0
:1007C0000FF2EC51D0E70A706969891C696110B9B0
:1007D0000026B0467FE19DF80000612840F0978038
:1007E000286B00284CBF2126461C36B2771CD5E961
:1007F00000ABDDE902010022002300F033FC3ABF28
:100800008BF00040CDE902A0CDE902ABA4F10408D1
:100810008DF810200DF11109012F33DBDDE9020104
:100820000022002300F036FC2CD21C2102A800F08C
:1008300049FCDDE9020100F0D3FC0446FF1F012F53
:1008400009DB00F0F9FC02460B46DDE9020100F08D
:100850000BFDCDE9020109F20700072104E004F0D5
:100860000F0200F8012D2411012C01DB491EF6D5E1
:10087000491E5CBF002200F8012DF9D500F20709DE
:10088000012FCBDA0DF11100A9EB00010DF11107D9
:10089000B142B8BF0E4636B2002E31D4304688423F
:1008A00006DA04A941184978082928BF0F2100D287
:1008B000002104AA821800E0761E401E12F80139B9
:1008C0008B42F9D00F2904D104A941184A78521C4F
:1008D0004A70002803D504AF761C08F1040836B22C
:1008E000701E0DD4C1190A783032D2B23A2A03D31D
:1008F0009DF838303A3B9A1801F80129401EF2D58C
:10090000286B002840F1E780701E2863E3E0DDE9F2
:1009100002010022002300F0A5FB05D2DDE902015F
:1009200081F00041CDE9020124B247F297506043C3
:100930006F4990FBF1F80FFA88F8C8F10704002717
:10094000DFF8B091012C19DBDDE902ABE00707D538
:10095000504659463A464B4600F046FD82468B4685
:100960006410384649463A464B4600F03DFD07467E
:100970008946002CEAD1CDE902AB21E064429246DF
:10098000DFF874B114D0E00707D5504659463A460F
:100990004B4600F029FD82468B4664103846494696
:1009A0003A464B4600F020FD07468946002CEAD126
:1009B000DDE9020152465B4600F0E8FDCDE90201A7
:1009C0009DF8000066280CBF08F10A000620296B7C
:1009D0004618142EA8BF132630208DF810000DF1F4
:1009E0001104464F012E33DBDDE9020100F00EFC5D
:1009F00004F1080104220A24B0FBF4F303EB830E94
:100A0000A0EB4E00303001F8010DB3FBF4F000EB29
:100A10008004A3EB4403303301F8013D521EEAD1B8
:100A200001F10804083E012EDCDBDDE9020100F0E3
:100A3000EDFB00F00BFC02460B46DDE9020100F085
:100A400013FC00223B4600F0CFFCCDE90201CBE7CE
:100A50000DF11100201A0DF111079DF81110302928
:100A600006D1401EA8F1010817F8011F3029F8D05F
:100A70009DF80010662904BF0FFA88F808F10101FB
:100A800003D065290CBF012100212A6B8E1836B2D4
:100A9000B042B8BF064636B2002E1CD43146814261
:100AA00004DAC85D352828BF392000D23020CA19A1
:100AB000521E00E0761E491E12F801398342F9D019
:100AC000392802D1C85D401CC855002903D57F1EB6
:100AD000761C08F101080FFA88F0009033B23A460C
:100AE0009DF83810284600F00BF80FB0BDE8F08FE5
:100AF000A0860100000024400000F03F84D7974109
:100B00002DE9F04385B00546894617461E46BDF9D6
:100B10003040D5F83080012E02DA01260FF29827F6
:100B200049F0200066280AD0672840F086806FF0E0
:100B300003018C42C0F28780444580F28480641CAB
:100B400066280CD095F83800000702D44645B8BF97
:100B5000B04624B2B8EB040848BF4FF00008E8687C
:100B6000A96924B2012C25DA4A1C30230B54B8F1B0
:100B7000010F03DA95F83810090702D52E21115418
:100B8000521CAA6118EB040FB8BFC8F1000424B2CC
:100B900061426962A044B045B8BF464636B2EE61D4
:100BA00032463946AB69181800F0FEF9A8EB06008A
:100BB000A862C6E00818A64218DA3246394600F0A4
:100BC000F3F9A9697118A961A01B6862B8F1010F56
:100BD00003DA95F83800000705D5E8682E220A5494
:100BE000E869401CE861C5F82880AAE02246394639
:100BF00000F0DAF9A8692018A861361BB8F1010FD6
:100C000003DA95F83810090704D5411CA961E96891
:100C10002E22425436B2B045B8BF464636B23246AE
:100C2000E119A869EB68C01800F0BEF9A86930188E
:100C3000A861A8EB0600686283E0B9F1610F16D1E4
:100C40004FF0700918E0464504DA95F838100907A6
:100C500058BFB046B8F1010848BF4FF00008B9F1DD
:100C6000670F14BF4FF045094FF0650904E0B9F173
:100C7000410F08BF4FF05009A9694A1CE86817F8EE
:100C8000013B0B54B8F1010F03DA95F8381009074E
:100C900002D52E211154521CAA61B8F1010F11DBAB
:100CA000761E36B2B045B8BF464636B232463946F1
:100CB000AB69181800F078F9A8693018A861A8EB9A
:100CC00006006862A869E968471807F8019B002CCC
:100CD0005CBF2B2007F8010B03D52D2007F8010B73
:100CE000644200260DF1080824B2012C0EDB0A2212
:100CF000214600A800F06DFD019808F8010B009C4A
:100D0000761C24B2012CF2DA022E06DA49F0200019
:100D1000652804BF302007F8010B1EB9302007F802
:100D2000010B09E0012E07DB761E02A8305C303093
:100D300007F8010B012EF7DAA869E9684018381A9C
:100D4000E86195F8380000F0140010280DD16869AA
:100D5000A9690818696A0818E9690818A96A0818C9
:100D6000696B8842BCBF081A286205B0BDE8F083F1
:100D7000F8B504460D4616461F46002077B116F812
:100D8000011BA868A047A86030B1E86A401CE8626F
:100D900000207F1EF3D1F2BD4FF0FF30F2BD000006
:100DA000686A6C747A4C00006E616E004E414E00B1
:100DB000696E6600494E4600300010B450F8041BBE
:100DC00081B102681218001D50F8043BDC0744BFD3
:100DD000A9F10104E31852F8044B43F8044B091F2E
:100DE000F9D1EBE710BC70470278C9B28A421AB158
:100DF0001CBF10F8012FF9E718BF0020704750F80A
:100E0000041B61B150F8042BD30744BFA9F10103BF
:100E10009A18002342F8043B091FFAD1EFE7704704
:100E200000F10103810704D010F8011B89B181078B
:100E3000FAD10268B2F10131914311F0803F04BF51
:100E400050F8042FF6E710F8011B11B110F8011B40
:100E5000FBE7C01A70470268531C036011707047AB
:100E6000C9B2830706D0521E22D310F8013B994223
:100E7000F7D11FE0083A13D302F1040241EA01213D
:100E800041EA014150F8043B121F21BF4B40A3F13E
:100E9000013C2CEA030C1CF0803FF3D0C9B2001FC8
:100EA000083210F8013B521E28BF91EA030FF8D810
:100EB00018BF0120401E70471B4213D1094236D192
:100EC0002AB18446B0FBF2F002FB10C2704700F07A
:100ED00087BCFCD30022002370470B0002000021D6
:100EE00000207047904271EB030CF6D370B5B1FA55
:100EF00081F4B3FA83F52C1BA340C4F1200532FA28
:100F000005F63343A2405FF00046E64002E05B088E
:100F10005FEA3202841A71EB030524BF204629469A
:100F20007641F4D302000B003000002170BD012A8D
:100F3000CFD970B5140C20D0B1FA81F4B2FA82F591
:100F4000C4F120046419B4F12006D6D3B2405FF096
:100F50000044F440002502E052085FEA3303C61A59
:100F600071EB020E24BF3046714664416D41F3D3EC
:100F700002000B002000290070BD0C46B1FBF2F10D
:100F800002FB11452D0445EA1045B5FBF2F402FBC6
:100F9000145580B240EA0545B5FBF2F002FB105251
:100FA00040EA044070BD000062B38B0708D0521EB7
:100FB00011F8013B00F8013B00F024808B07F6D1CB
:100FC000830740F0208000BF103A07D330B4B1E867
:100FD0003810103AA0E83810F9D230BC530724BFBB
:100FE000B1E80810A0E8081044BF51F8043B40F8ED
:100FF000043BD20724BF31F8022B20F8022B44BF58
:101000000B7803707047083A07D3B1E80810083A24
:1010100040F8043B40F804CBF7D25307E4E730B480
:10102000416801F00042012143681B031B0B436030
:1010300004BF0368002B0ED003684468DD0F45EA47
:10104000440444605B000360491EE302F4D5436836
:101050001B031B0B436043681A434260084630BCC5
:10106000704700004FF4001C1CEB410F94BF1CEBB9
:10107000430F09E041EA030C50EA4C0C52EA0C0C15
:1010800003D2994208BF9042704714BF8B428242FC
:10109000704700004FF4001C1CEB410F94BF1CEB89
:1010A000430F09E041EA030C50EA4C0C52EA0C0CE5
:1010B00003D28B4208BF8242704714BF99429042CC
:1010C0007047000070B504460D466068C0F30A50D2
:1010D00040F2FF72904207D16068000304BF2068AD
:1010E000002818D0022070BD010004D12046FFF76F
:1010F00096FF012867DA012D0FDB40F2FF71091A14
:101100008D420AD36068002847BF00202F49002085
:101110002F49C4E90001012070BD4142A942616824
:1011200006DA2C4A1140401941EA0050606053E051
:1011300001F0004162681203120B42F480126260F7
:10114000401E451905F13500352803D361600020A4
:10115000206070BD002215F11F0F05DA20352268CE
:101160006068206000206060684213D0521E924187
:10117000D243C0F1200325689D4055EAD27225680C
:10118000C540666806FA03F32B432360636823FABD
:1011900000F06060606808436060B2F1004F03D8FF
:1011A0000BD12078C00708D52068401C206020683B
:1011B00018B96068401C60600EE06068884204BF37
:1011C00020680028F8D1002070BD00000000F0FF6A
:1011D0000000F07FFFFF0F804FF0FF3070BD000078
:1011E000F446400D40EAC120490006D200F014F850
:1011F000004248BF6FF00040604700F00DF84FF02C
:10120000004188428CBF084640426047400D40EA9A
:10121000C120490080F00D8040F00040490DA1F54B
:101220008061491C05D4D1F11F0154BFC840C017CB
:1012300070474FF000007047010040F10980F4460C
:10124000404200F005F851F000416047010000BF46
:1012500009D0B0FA80F18840C91CC1F58461090544
:1012600001EBD0214005704770B44FF0004591EA82
:10127000030F44BF6B4000F0B5BA00BF841A71EB96
:10128000030604D26E40001BB141121973414FF4A2
:10129000001C1CEB410F34BF7CEB430684E00C0DBB
:1012A000A4EB1356362E7DDC012E43DC45EAC32326
:1012B00043EA525312BFD20292025B08240545EA68
:1012C000C12141EA5051D2EBC020994125D407D128
:1012D000B0FA80F610FA06F164D00020203608E05B
:1012E000B1FA81F6B140C6F1200220FA02F21143B0
:1012F000B0404FEAF474B4EB465434F001064FEAC0
:1013000074040AD8D6F50016760D04F00044F040B7
:1013100061FA06F25040F1404840C00A40EA4150AC
:1013200021F0004128BF5FEA500550F1000044EB76
:10133000D12137E045EAC323DB0A45EAC121C90AC6
:10134000B6F120050EDD42EA0242120CC5F120067C
:1013500003FA06F6EB4042EA06056D42984161F158
:1013600000010DE062FA06F5F240554063FA06FC12
:1013700082EA0C02F3405A406D42904161EB030156
:1013800011F4801F05D1641E620502D06D0040413A
:10139000494121F48011430875F1004350F10000E8
:1013A00041EB045170BC70471CEB410F15D223F088
:1013B000004352EA43060BD04FEA4C0CBCEB410F02
:1013C00004D80C0D661E342EB7DDEBE7801A994168
:1013D00050EA410608BF0021E4E708BF1CEB430FB9
:1013E00028BF6FF00001DDE7B0B581EA030C0CF017
:1013F000004C40F2FF7515EA11541DBF15EA135752
:10140000AC42AF4239E0E41923EA455343F4801378
:10141000C90241F0004141EA505EC7021100A7FB3A
:10142000020200284FF00000EEFB01204FF0000107
:10143000E3FB072118BF42F0010240180021494197
:10144000E3FB0E01A4F580640F0302D25200404179
:10145000494154F101046CDD470872F1004250F13A
:10146000000051EB0451A1F580115CBF41EA0C0171
:10147000B0BD4CEA05510020B0BD05EA1357AC429F
:1014800014BFAF4241E050EA410E1CBF52EA430E86
:1014900002E061460020B0BD24423C441BD15FEA1B
:1014A000070EF6D0090302BF01460020AEF1140E6C
:1014B000B1FA81F7AEEB070401FA07FE0C37C7F16A
:1014C000200100FA07F7C8404EEA000E23EA455310
:1014D00043F48013A2E733F00043B3FA83F704BF69
:1014E000B2FA82FE77440B3FE41BB7F1200E2FBF08
:1014F00002FA0EF3BB40C7F1200E22FA0EFE38BFEF
:1015000043EA0E03BA40641C82E750EA410E14BF5E
:1015100052EA430E6FF000014FF4001717EB430F30
:101520008ABF194617EB410FB5E74CEA0551002079
:10153000B0BDD4F10104B4F120070FDAC4F12007E3
:10154000520828BF42F0010210FA07F501FA07F726
:10155000E1BF2A43E0403843E1400FE0352C98DCFE
:10156000C7F1200452EA400220FA07F218BF42F005
:10157000010231FA07F0A1400A43002172F1004252
:1015800050F1000051EB0C01B0BD0000F0B540F28D
:10159000FF7581EA030C0CF0004C15EA11541DBFD5
:1015A00015EA1357AC42AF42E5E0BC41C1F3130169
:1015B000C3F31303801A994143F4801304D2641EC9
:1015C0004000494180185941C90241EA5051B1FBDC
:1015D000F3F603FB1611A2FB0675D7EBC020A94159
:1015E00002D2761E80185941C90241EA5051B1FB1E
:1015F000F3FE03FB1E11A2FB0E75D7EBC020A94121
:1016000003D2AEF1010E80185941890241EA90518E
:10161000760546EA8E2EB1FBF3F603FB1611A2FB0C
:101620000675D7EB8020A94102D2761E8018594159
:10163000C90241EA50514EEA060EB1FBF3F603FB34
:101640001611A2FB0675D7EBC020A94102D2761E67
:1016500080185941C90241EA5051B1FBF3F703FB2D
:101660001711A2FB0735D3EBC020A94167F1000792
:101670000CBF004247F0010766F3D5274FEA1E3141
:10168000B80814F5806412DDBD0775F1004250EB17
:101690000E5051EB045111F5801F5CBF41EA0C0163
:1016A000F0BD4CF07F6141F0E0410020F0BDBD078E
:1016B0006D0840EA0E5041F48011D4F10104B4F1F8
:1016C00020060ADAC4F120060200E04001FA06F31F
:1016D000E1401843B24015430EE0342C13DCC6F150
:1016E000200445EA40056D0820FA06F2154321FA68
:1016F00006F0A1400D43002175F1004250F10000B9
:1017000051EB0C01F0BD00205FEA0C01F0BDCFB938
:1017100092185B41B3FA83F704BFB2FA82F6BF199D
:101720000B3FB7F120062FBF02FA06F3BB40C7F10B
:10173000200622FA06F638BF3343BA401CB1E4193A
:10174000641E33E77F4231F00041B1FA81F404BFF7
:10175000B0FA80F6A4190B3CB4F120062FBF00FAB2
:1017600006F1A140C4F1200620FA06F638BF314345
:10177000A0403C1B1AE7AC421ABF05EA1357AF4220
:1017800012E050EA41061CBF52EA4306BFE750EAA6
:101790004107304661461CBF41EA0551F0BD52EA9F
:1017A000430C08BFC143F0BD00204FF4001616EBF8
:1017B000410F98BF16EB430F08BF16EB410F24BF34
:1017C000C14305E016EB430F0CBF61464CEA0551DF
:1017D000F0BD91FBF2F303FB1211C0E90031704739
:1017E00070470000841A71EB030603D2001BB1415D
:1017F000121973414FF4001C1CEB410F34BF7CEBFA
:10180000430443E00C0DA4EB1356352E50DC45EA9F
:10181000C323DB0A45EAC121C912B6F120050DDD5B
:1018200063FA05F6EB4086EA0305124218BF45F05D
:101830000105C01851F100010CD213E062FA06F55F
:10184000F2405540F3415A40B340F3405A408018AB
:10185000594107D349085FEA30005FEA350528BFE0
:1018600045F0010501F58011420875F1004250F183
:10187000000041EB045170BC4FF4001C1CEB410F05
:1018800038BF70470020090D090570471CEB410F58
:1018900010D252EA43060BD0BCEB410F05D80C0D19
:1018A000AB43661E342EB5DD02E0AB4380185941D0
:1018B00070BC704770BC70478B0013EB401313F182
:1018C00084431A607047DFF838190968080010F07F
:1018D00007010029012903D9891E012905D908E03A
:1018E000C008C00050F0010003E0C008C00050F084
:1018F0000300DFF80C190860704738B50400002CAD
:1019000002D0B4F5004F04D97C21DFF8000900F0C3
:101910002DFDB4FA84F0D0F11F000500280032BD7F
:10192000DFF8DC2812681100DFF81828904211D384
:10193000DFF8142890420DD211F00702921E012AFE
:1019400004D8C908C90051F0030103E0C908C9005F
:1019500051F00101DFF8EC2790420BD211F00702A1
:10196000921E012A04D8C908C90051F0020101E001
:10197000C908C900DFF8882811607047DFF8CC1764
:10198000096811F4E06100291BD0B1F5807F14D003
:10199000B1F5007F0DD0B1F5407F06D0B1F5C06F35
:1019A00017D0B1F5E06F10D017E0DFF8A4170800EA
:1019B00015E0DFF85018080011E0DFF84C180800B7
:1019C0000DE0DFF84C18080009E0DFF848180800BF
:1019D00005E0DFF87818080001E0002108007047F2
:1019E00038B5DFF8340800F054FA0500EDB22800ED
:1019F000072805D0082807D100F0CCFC04000BE034
:101A0000FFF7BCFF040007E040F24911DFF840088F
:101A100000F0ACFC00200400200032BD38B504000A
:101A2000002C07D0012C05D04FF4B071DFF820084E
:101A300000F09CFCDFF8C80800682100C9B249002A
:101A4000C84010F00300002812D0022807D002D3AB
:101A5000032808D01BE000F0F1FC050019E000F0BD
:101A6000F3FC050015E000F088FC4008050010E0DC
:101A7000DFF88C080068A1001031C840002803D0AE
:101A800000F0DFFC050001E00020050001E000207F
:101A90000500280032BDDFF8BC170968C90704D467
:101AA000DFF8681809680142FAD170472DE9F04162
:101AB00004000D00C4F303100700012F08D0C0F08C
:101AC000EB80032F3CD01CD3042F00F0C180E3E057
:101AD000002D02D0B5F5007F05D940F20131DFF8C5
:101AE0004C0800F043FC2800FFF707FF0500DFF873
:101AF00020080068000900012843DFF81418086076
:101B0000D0E0B5F5007F05D940F20931DFF81C08B7
:101B100000F02CFCFFF7D7FE2800FFF7EEFE0500D3
:101B2000DFF8F0070068000900012843DFF8E41738
:101B3000086000F022FC06003000FFF7F1FEB1E083
:101B40002000DFF8D41788420CD0DFF8D017884285
:101B500023D0DFF8CC1788423AD0DFF8C817884284
:101B600056D06EE0B5F5004F05D94FF44E71DFF851
:101B7000BC0700F0FBFB0420FFF78DFF2800FFF7F8
:101B8000BCFE0500DFF8A007006830F0F00050EA66
:101B90000510DFF89417086059E0B5F5004F05D936
:101BA00040F24631DFF8840700F0E0FB0420FFF745
:101BB00072FF2800FFF7A1FE0500DFF86C07006840
:101BC00030F4706050EA0520DFF85C1708603EE0F2
:101BD000102D01D3812D05D340F25531DFF84C078C
:101BE00000F0C4FB0420FFF756FF2800FFF785FE36
:101BF0000500DFF83407006830F440581020FFF784
:101C00007CFE281A58EA0030DFF81C1708601EE036
:101C1000092D05D34FF45971DFF8100700F0A6FB2A
:101C20000420FFF738FF2800FFF767FE0500DFF804
:101C3000F8060068800880002843DFF8EC1608608A
:101C400005E040F27231DFF8E40600F08FFB29E096
:101C5000DFF8DC06844218D1092D05D34FF45F71FB
:101C6000DFF8C80600F082FB4020FFF714FF2800D1
:101C7000FFF743FE0500DFF8BC060068800880001F
:101C80002843DFF8B016086005E040F29931DFF82C
:101C90009C0600F06BFB05E040F29F31DFF88C06FC
:101CA00000F064FBBDE8F0812DE9F04104000D0077
:101CB0005FF00008C4F30320C0B2012809D024D388
:101CC00003280ED009D3052815D00ED3062818D026
:101CD0001BE0DFF83C0606001EE0DFF85C060600AD
:101CE0001AE0DFF85806060016E0DFF85406060092
:101CF0000120804610E0DFF84C06060010208046E8
:101D00000AE0DFF84406060006E04FF47D71DFF8D4
:101D10001C0600F02BFB0EE0C4F304300700B8F102
:101D2000000F02D04046FFF7B6FEEDB22A003900A0
:101D30003000FFF7C1FDBDE8F08170B5040014F478
:101D40007810002824D0B0F5003F25D0B0F5802FC2
:101D50002CD0B0F5C02F2DD0B0F5002F2FD0B0F57E
:101D6000202F37D0B0F5402F40D0B0F5602F4FD0A6
:101D7000B0F5801F60D0B0F5901F68D0B0F5A01FFF
:101D80006AD0B0F5C01F72D0B0F5D01F73D076E026
:101D900000F000FB05007AE000F0FCFA0500DFF837
:101DA0007005006810F00F00C54070E000F0E5FA23
:101DB00005006CE00020FFF731FE050067E0002021
:101DC000FFF72CFE0500DFF860050068C0F3031084
:101DD000C5405CE00020FFF721FE0500DFF8480564
:101DE0000068000A10F00F00C54050E00020FFF727
:101DF00015FE0500DFF830050068000B10F0030643
:101E00001020FFF77AFD801935FA00F005003EE05A
:101E10000020FFF703FE0500DFF80C050068000B4B
:101E200010F00300C540DFF82405006810F007003B
:101E3000401CB5FBF0F52AE00020FFF7EFFD0500A0
:101E4000DFF8E404006810F00300C5401FE0012043
:101E5000FFF7E4FD05001AE00120FFF7DFFD0500B4
:101E6000DFF8D004006810F00300C5400FE0FFF772
:101E7000B7FD05000BE0FFF781FD050007E040F22C
:101E80009D41DFF8CC0300F071FA00200500280026
:101E900070BD70B50400012514F00F000600012E7E
:101EA00006D06CD3032E3BD01CD3042E56D066E054
:101EB000DFF85404006810F47050B0F5006F0BD0D8
:101EC000B0F5805F05D0B0F5005F08D102200500B5
:101ED00007E00320050004E00420050001E00520E0
:101EE000050054E0DFF81804006810F00300012832
:101EF00004D00CD3032807D003D308E00320050047
:101F00000DE0022005000AE00620050007E0DFF8EA
:101F1000F0030068C00302D509200500FFE736E0A2
:101F2000DFF8DC03006810F00C00042804D0082857
:101F300005D00C2806D008E0032005000DE00220A3
:101F400005000AE00620050007E0DFF8B40300689A
:101F5000C00202D509200500FFE718E0DFF8F00312
:101F6000006810F08050002803D0B0F1805F03D0EB
:101F700004E00720050001E00820050007E040F22A
:101F80003B51DFF8CC0200F0F1F9002005002800F9
:101F9000C0B270BD2DE9F84F04000D0003260327E1
:101FA0005FF0000A14F00F008146B9F1010F0AD06A
:101FB000C0F0BF80B9F1030F48D047D3B9F1040F87
:101FC00000F09680B5E0EDB22800022808D0032882
:101FD0000BD004280ED0052811D0092814D01AE0FF
:101FE00004200600002007001CE00320060001205A
:101FF000070017E0022006000220070012E001207F
:102000000600032007000DE040F2A751DFF81C0393
:1020100000F0ACF906E040F2AC51DFF8100300F03C
:10202000A5F98CE0012201213800C0B200F014F9BA
:10203000FFF749FCDFF8CC02066000F027FA00F059
:102040009CF980464046FFF76BFC78E0EDB2280033
:10205000012808D0022809D003280FD0062815D05F
:1020600009281CD020E00020834624E00122012121
:10207000002000F0F1F8022083461CE0012201213B
:10208000012000F0E9F80120834614E0012202213A
:10209000DFF8A802FFF710FC032083460BE00020C6
:1020A00083460120824606E040F2F651DFF87C02CA
:1020B00000F05CF943E0B9F1020F0DD1DFF8400206
:1020C0000068DFF8901208405BEA000050EA0A401E
:1020D000DFF82C1208600AE089480068DFF87812FF
:1020E000084050EA8B0050EA0A508549086026E013
:1020F000EDB22800072802D0082809D011E0DFF847
:102100005002006830F08050DFF8441208600FE0A1
:10211000DFF83C02006850F08050DFF834120860AD
:1021200006E040F22161DFF8040200F01FF906E04A
:1021300005E04FF4CB61DFF8F40100F017F9BDE8DA
:10214000F18F00000124F4000148E80114800C40E4
:1021500040420F00F8B50400E4B2002C08D0022C75
:1021600013D00BD3042C1DD016D3052C1FD024E084
:10217000DFF8EC010068C0B2050024E0DFF8E00100
:102180000068C0F3072005001DE0DFF8D4010068F7
:10219000C0F30740050016E0DFF8C4010068000E38
:1021A000050010E06F480068C0B205000BE06D4804
:1021B0000068C0F30720050005E040F21A711348DB
:1021C00000F0D4F81BE00120FFF763FE0700FFB228
:1021D000052F01D1FFF777FB60480068C00AC002F5
:1021E000E4B255EA042108435C490860FFB2052FB8
:1021F00005D100F0C2F806003000FFF791FBF1BDF9
:1022000004000C40C0CF6A00C0D8A700643E0000A4
:10221000809FD500406F40010400180010B50400F5
:10222000812C04D340F28171094800F09FF84448A2
:102230000068000708D414F0070444480068C00888
:10224000C00020434149086010BD0000003FAB01C1
:10225000643E000054800C402DE9F84304000D005A
:102260001600E4B2002C24D0022C0DD01AD3042C7A
:1022700011D002D3052C26D026E001208046022072
:1022800081460220070025E0042080460820814680
:10229000082007001EE010208046202081462020D4
:1022A000070017E0402080468020814680200700FC
:1022B00010E04FF4807080464FF4007081464FF478
:1022C0000070070006E018E04FF4FB61174800F0CB
:1022D0004DF812E0EDB2002D0AD02348C0F800807E
:1022E000F6B2002E07D008480068384203D1FAE75A
:1022F0001D48C0F8009000F0C9F8BDE8F183000067
:1023000028800C4024800C402C800C4050800C40D5
:1023100008800C4004800C403014080030240A006F
:1023200030000C003004100068800C40643E000057
:102330004005140070800C4044800C4040800C40EC
:1023400058800C4060800C4078800C407C800C40B1
:1023500000800C40FCFFFEFFF3FFEFFF0C800C4001
:10236000DC81E00FE081E00F20800C40FEE7000000
:1023700037480068000EC0B2704710B500F00AF888
:1023800004003448006810F00F00C4403248046074
:10239000200010BD10B53148006810F47050B0F541
:1023A000006F0DD0B0F5805F06D0B0F5005F0BD1A7
:1023B0002B48006804003EE04FF4004004003AE07F
:1023C00028480068040036E02748006810F4E06000
:1023D000002824D0B0F5807F17D0B0F5007F11D051
:1023E000B0F5407F0BD0B0F5806F05D0B0F5A06F91
:1023F0001FD11E4804001EE01D4804001BE01D48BC
:10240000040018E01C48040015E0FFF7B1FF132892
:1024100002D31A48040001E0194804000BE0FFF75A
:10242000A7FF132802D31748040001E01648040050
:1024300001E000200400200010BD70474FF4004070
:1024400070474FF47A707047054800687047000085
:10245000FC81E00F04800C40940200202C800C4092
:10246000200000201C0000200C800C40003FAB012D
:10247000406F4001809FD500C0D8A70040B56400E0
:10248000C0CF6A00804F120040420F00024803494B
:102490000968018070470000980200202C800C40E1
:1024A00010B440B24109DFF86823012310F01F0483
:1024B000A34042F8213010BC704780B5FFF75DFFA4
:1024C00001BD38B504000D00E4B2062C01D2102D78
:1024D00005D34FF4DF71DFF83C03FFF747FFE4B2A9
:1024E0002420DFF8341300FB0410C069E84010F02A
:1024F000010032BD10EB0110406B70474162704724
:1025000081617047C2680A43C260704700697047C2
:1025100010B5DFF80803FFF7F9FF04002100BF48FA
:10252000FFF7EEFF2000800619D50121BB48FFF719
:10253000E1FFBB4908600021B848FFF7DFFFB94859
:102540000121017002210320FFF7BBFF002803D007
:10255000B5480221017002E0B3480121017010BDAD
:102560003EB5040000A8B1492CC92CC00C390C3868
:10257000E4B2002C03D100208DF8010010E0E4B299
:10258000012C03D101208DF8010009E0E4B2022CF6
:1025900003D102208DF8010002E003208DF8010034
:1025A00000AA01219D4800F0D1F937BD80B5FFF7A1
:1025B00084FF01219E48FFF777FB9E49974800F072
:1025C0005BF90220FFF7CCFF9B489C490160002388
:1025D00001220221032000F011FA0220FFF760FF20
:1025E00020218E48FFF78EFF01218C4800F02EF944
:1025F00001BD0100B1F5AF5F04D2914A1160002224
:10260000100015E042F2D10291420AD2B1F5AF5F5B
:1026100007D38B4A0023136000221100012210000F
:1026200006E0874A002313600022110002221000F6
:10263000C0B2704738B504000D0082480068FFF74B
:10264000D8FF01281AD178480078012807D17E48A0
:1026500080780121A14088437B4988700BE07A484B
:1026600080780121A14008437749887076484078F6
:10267000401C754948707448057008E0714800684E
:10268000FFF7B7FF022802D16F480021017031BD6A
:1026900080B56B4800686249096808186949086094
:1026A00069480078002817D0012823D0052862D077
:1026B00006285BD0072854D008284DD0092846D0DA
:1026C0000A283FD00B2838D00C2831D00D2800F034
:1026D00081800F2854D099E053480078022808D10F
:1026E00059480121017056480021016055480021D8
:1026F00001608BE053480068FFF77BFF01280DD194
:1027000049480078012809D14F48002181704E487E
:10271000002141704C480C21017008E049480068D4
:10272000FFF767FF022802D14748002101706DE0E2
:102730000B210020FFF77EFF68E00A210120FFF750
:1027400079FF63E009210220FFF774FF5EE00821B2
:102750000320FFF76FFF59E007210420FFF76AFF0E
:1027600054E006210520FFF765FF4FE00521062014
:10277000FFF760FF4AE00F210720FFF75BFF45E00E
:1027800030480068FFF735FF012819D12648007846
:10279000022804D12C484078401C2B4948702A4814
:1027A0004078022190FBF1F202FB1102012A03D1D1
:1027B00025480D2101700CE023480021017008E03C
:1027C00020480068FFF715FF022802D11E480021AB
:1027D00001701BE01B480068FFF70BFF01280BD1BD
:1027E00011480078022803D11748807800F023FAB6
:1027F00015480021017008E012480068FFF7F9FE53
:10280000022802D1104800210170FFE701BD00003D
:1028100000E100E0B43D0000006000400000014025
:10282000840200209A0200209B020020E041000068
:1028300000420200B04100002800014002000300F5
:10284000880200208C0200208002002038B504009D
:102850000D006748844206D06648844203D0642154
:102860006548FFF783FDEDB2002D02D001206060C6
:1028700001E00220606031BD2DE9F04104000D004F
:102880005B48844206D05B48844203D084215A4886
:10289000FFF76CFD2878002801D10220606000203D
:1028A00060626878002801D0402000E00020697A4A
:1028B000002901D0802100E00021AA7A002A01D05D
:1028C000202200E00022EB7A002B01D0102300E050
:1028D00000232E79002E02D04FF4005600E000268F
:1028E0006F79002F02D05FF0805700E0002795F845
:1028F0000CC0BCF1000F02D05FF0080C01E05FF0EB
:10290000000C95F802E095F803805FEA084858EA61
:102910000E6E95F806805EEA882E95F807805EEACE
:10292000082E95F8088058EA0E0E50EA0E0008436B
:1029300010431843304338435CEA00002060287895
:10294000002801D001206060BDE8F081F8B50400E6
:102950000D0016002648844206D02648844203D043
:10296000BD212548FFF702FD032D03D3BE212248D8
:10297000FFF7FCFCF079002802D05FF4001000E0C3
:102980000020317A002902D05FF4801100E000219C
:10299000727A002A01D0102200E00022B37A002BC4
:1029A00001D0042300E00023377896F801C05FEAE5
:1029B0000C6C5CEA876796F802C057EA0C4796F8F9
:1029C00003C057EA0C3796F804C057EA8C2796F8EC
:1029D00005C057EA0C2796F806C05CEA070738439B
:1029E00008431043184314EB05110863F1BD0000C0
:1029F0000000014000040140CC3F0000F8B5040095
:102A00000D0016001F00E4B2062C01D2102D03D3D6
:102A1000C8213448FFF7AAFCF6B2002E12D0002FCE
:102A200008D0E4B22420304900FB04100121A94061
:102A3000016107E0E4B224202B4900FB04100121CE
:102A4000A9404161082D19D2E4B22420264900FB97
:102A5000041040680F212A00D2B2920091408843AE
:102A6000F6B22900C9B2890016FA01F10843E4B2AE
:102A700024211D4A01FB042148601AE0E4B224200D
:102A8000194900FB041080680F212A00083AD2B2CD
:102A9000920091408843F6B229000839C9B28900F2
:102AA00016FA01F10843E4B224210F4A01FB042184
:102AB0008860F6B2002E12D1002F08D0E4B2242094
:102AC000094900FB04100121A940016107E0E4B2BB
:102AD0002420054900FB04100121A9404161F1BDFA
:102AE00000000000DC3E00000060004010B440B276
:102AF0004109DFF8DC22012310F01F04A34042F853
:102B0000213010BC704710B440B24109DFF8C42234
:102B1000012310F01F04A34042F8213010BC70477D
:102B200081647047C26C8A43C2647047C26C0A43B6
:102B3000C2647047006C704780B50121DFF89802CD
:102B4000FFF7B2F80121DFF89402FFF7ADF8012397
:102B5000042200210320FFF751FF0023012201215D
:102B60000320FFF74BFFDFF8780200210170DFF848
:102B7000700200214160DFF868024FF41641816065
:102B8000DFF85C0200210173DFF854020521417374
:102B900093480021C18192484FF4805101829048AE
:102BA000002181748E480021C1748D480021017577
:102BB0008B498C48006800F0B4F941F6FF718948F0
:102BC0000068FFF7ADFF042186480068FFF7AEFFFD
:102BD0000B20FFF798FF0C20FFF795FF0B20FFF766
:102BE00085FF0C20FFF782FF7E48006840F203114A
:102BF000416505217B48006800F07BF901BD7A49F9
:102C0000D1F80011784A895C08007749D1F80011A1
:102C1000491C4FF48072B1FBF2F303FB12137249AB
:102C2000C1F800317049D1F80811491E6E4AC2F846
:102C30000811C0B2704710B504006C48D0F8080104
:102C4000401CB0F5807F06D96848D0F80801401CC8
:102C5000B0F5807FF8D86548D0F804016349445442
:102C60006248D0F80401401C4FF48071B0FBF1F2CF
:102C700002FB11025D48C0F804215C48D0F808014D
:102C8000401C5A49C1F80801022156480068FFF764
:102C90004DFF10BD5448D0F80801704710B5514899
:102CA0000068006900062BD54E48006800F0A2F9C4
:102CB00004004D48D0F804014B4944544A48D0F828
:102CC0000401401C4FF48071B0FBF1F202FB1102D1
:102CD0004548C0F804214448D0F80801401C424946
:102CE000C1F808014048D0F80801B0F5807F03D949
:102CF0003D48012180F80C1104213D48FFF710FFE9
:102D000010BD80B53A48FFF715FF364800680069E6
:102D100040062BD53548D0F8080100281CD0334890
:102D2000D0F800013149415C2E48006800F068F994
:102D30002E48D0F80001401C4FF48071B0FBF1F236
:102D400002FB11022948C0F800212848D0F80801E8
:102D5000401E2649C1F808012448D0F8080100287F
:102D600004D102211F480068FFF7DCFE01BD0EB44C
:102D70002DE9F04183B004001E4D09A80190009593
:102D800001AB220000A91C48FDF788F90700009854
:102D900000210170002F01D53E0001E00098461B84
:102DA000F6B2012E10D35FF000085FFA88F8F6B291
:102DB000B04509D25FFA88F80E4818F80000FFF70E
:102DC0003AFF18F10108F0E7BDE8F7015DF810FBE4
:102DD00000E100E080E200E0003202000062020058
:102DE00000000020180000202400002034010020F2
:102DF00000C4004044020020570E00002DE9F843B3
:102E000004000D0016001F00002E04D18421DFF8FD
:102E1000CC01FFF7ABFA002D04D1DFF8C401FEF7B7
:102E20008CFF0500FFB23800002806D020280FD004
:102E3000402818D0602823D02DE02809B04204D2C1
:102E4000AA21DFF89801FFF791FA1020814628E0C7
:102E5000E808B04204D2AF21DFF88001FFF786FA1C
:102E6000082081461DE00620B5FBF0F0B04204D2F8
:102E7000B421DFF86801FFF779FA0620814610E0F7
:102E8000A808B04204D2B921DFF85001FFF76EFA6A
:102E90000420814605E0BF21DFF84001FFF766FA14
:102EA00025E006FB09F0400810EB8500804606FB94
:102EB00009F0B8FBF0F8B8F10408402000FB08F86E
:102EC000DFF82001804504D3CA21DFF81001FFF7A5
:102ED0004DFADFF8140110EA0808206830F06000AD
:102EE00020602068FFB238432060C4F81480BDE839
:102EF000F18370B504000D003C48844207D03C4883
:102F0000844204D04FF4FA713448FFF72FFAEDB23F
:102F1000E843060016F005067000E060EDB2E560DB
:102F200070BD38B504000D003048844207D03048E9
:102F3000844204D040F21A212848FFF717FA2000F3
:102F400000F01FF8A87C002803D0206850F08040D3
:102F50002060E87C002803D0287D50F01000A06598
:102F6000687BB5F910100843B5F90E10084360608E
:102F70002B7BAA6869682000FFF740FF2878E06093
:102F800031BD10B504001948844207D01848844266
:102F900004D040F21B311148FFF7E8F940F6AA606F
:102FA000E0600020206041F2050060600020A06029
:102FB000002060610020E06441F6F970A064002008
:102FC00060650A48844201D1002020650020A06588
:102FD0000748844201D10020E06510BD4440000054
:102FE00010810200C1FF1F00C0FF1F0000C0004091
:102FF00000C4004001690906FCD5C069C0B2704731
:1030000002695206FCD5C9B24163704710B440B2A0
:103010004109DFF87023012310F01F04A34042F898
:10302000213010BC704780B5FFF7A7F901BD10EB48
:1030300001135A6370474162704781617047C268EB
:103040000A43C26070470069704710B5DFF8380363
:10305000FFF7F9FF04002100DFF82C03FFF7EDFF75
:10306000DFF828030068401CDFF820130860002107
:10307000DFF81403FFF7DFFF40F6AC520021C2482F
:10308000FFF7D5FF00F088F810BD3EB5040000A89A
:10309000BF492CC92CC00C390C38E4B2002C03D128
:1030A00003208DF8050010E0E4B2012C03D10220CA
:1030B0008DF8050009E0E4B2022C03D101208DF85F
:1030C000050002E000208DF8050000AA0021AE48AE
:1030D000FFF73CFC37BD80B5FFF7A5FF0121AD48E8
:1030E000FEF7E2FD0121AC48FEF7DEFDAB49A64844
:1030F000FFF7C2FB0220FFF7C8FF40F6AC520021E9
:10310000A148FFF794FFA648A649016000230422C6
:1031100006210320FFF772FC0A20FFF777FF10213A
:103120009948FFF78CFF01219748FFF78FFB01BDFE
:1031300038B504000D0095480078C0071ED49A48A1
:1031400000780121A14008420ED097480221017168
:103150000120FFF79AFF95480078401C93490870BA
:1031600093480121017016E08F4801210171002070
:10317000FFF78BFF8E48002101700CE08A48007930
:10318000022803D10020FFF780FF02E00120FFF7B3
:103190007CFF8548457031BD10B583484478E4B262
:1031A0002000002821D001284ED0022851D0032829
:1031B0005ED004286BD0052800F09180062800F02E
:1031C0008980072800F08180082879D0092872D0EA
:1031D0000A286BD00B2864D00C285DD00D2800F095
:1031E000C0800F2800F0AB80CAE068480078C007B4
:1031F0001BD46F4800210170FFF74CFD00280DD053
:10320000FFF7FDFC6849087067480121C170002084
:10321000FFF73BFF65480021017014E00120FFF734
:1032200034FF61480021C1700DE05F48C07800287C
:1032300006D00120FFF729FF5B480121417002E021
:103240000020FFF722FF9BE00C210020FFF770FF1A
:1032500096E04E480078C00703D40020FFF715FF22
:1032600005E00120FFF711FF4F480321417087E07F
:1032700046480078C00703D40120FFF706FF05E0A9
:103280000020FFF702FF48480421417078E0052143
:103290000720FFF74DFF73E00B210120FFF748FFE8
:1032A0006EE00A210220FFF743FF69E009210320B5
:1032B000FFF73EFF64E008210420FFF739FF5FE0DD
:1032C00007210520FFF734FF5AE006210620FFF70B
:1032D0002FFF55E005210720FFF72AFF50E02B487C
:1032E0000078C0071CD431480078022190FBF1F22D
:1032F00002FB1102002A09D12B4802210171012091
:10330000FFF7C3FE2A480121017017E0264801217A
:1033100001710020FFF7B9FE2548002101700DE082
:1033200021480079022803D10020FFF7AEFE02E019
:103330000120FFF7AAFE1C480F21417020E013482E
:103340000078C00706D40120FFF79FFE184800212F
:10335000017005E00020FFF798FE13480D21417031
:103360000EE00A480078C00703D40120FFF78DFE65
:1033700005E00020FFF789FE0B4800214170FFE7C0
:1033800010BD000000E100E00004014090020020B8
:10339000EC4100001081020000520200C041000018
:1033A0002804014001000400780200209C02002053
:1033B0009D020020C0B2002804D0DFF80C130122C7
:1033C0000A6003E0DFF8001300220A607047DFF8AC
:1033D000FC1209680142FAD17047DFF8F41209685B
:1033E0008143DFF8EC221160704780B5002247F27C
:1033F000FE51072000F052FA002247F6FE71062027
:1034000000F04CFA002247F6FE71052000F046FA63
:10341000002247F6FE71042000F040FA002247F631
:10342000FE71032000F03AFA002247F6FE710220F6
:1034300000F034FA002247F6FE71012000F02EFA67
:1034400000224FF42061002000F028FA01BD2DE990
:10345000F84F04002000FDF7E3FC8346002006003F
:103460005FF0FF30FFF7B3FF0120FFF7A3FFFFF787
:10347000BCFF00200600072E34DA5E4502DA207811
:10348000050001E020200500203DDFF84C0230F867
:103490001500070000208246BAF10E0F1FDA1C202B
:1034A000DFF8301200FB06101AEB0000807B81462B
:1034B0001C20DFF8201200FB06101AF800008046DE
:1034C000012010FA0AF1380080B2084204D001222B
:1034D0004946404600F074F91AF1010ADCE7641C21
:1034E000761CC8E70020FFF765FFBDE8F18F80B5C7
:1034F00000225FF0FF31002000F0D0F900225FF0E1
:10350000FF31012000F0CAF900225FF0FF310220F4
:1035100000F0C4F900225FF0FF31032000F0BEF993
:1035200000225FF0FF31042000F0B8F900225FF0C4
:10353000FF31052000F0B2F900225FF0FF310620D4
:1035400000F0ACF900225FF0FF31072000F0A6F98F
:1035500001BDF8B504000D0000260027E4B2002CE0
:1035600018D0022C20D01AD3042C27D021D3062C1B
:103570002ED028D3082C35D02FD30A2C3CD036D3CC
:103580000C2C43D03DD30E2C4AD044D3102C51D018
:103590004BD353E001200600002007004EE000203E
:1035A00006000C20070049E0032006001320070056
:1035B00044E002200600002007003FE00020060053
:1035C000082007003AE0032006000020070035E04D
:1035D000042006000020070030E0002006000A203A
:1035E00007002BE0052006001320070026E000203E
:1035F00006000E20070021E0002006000F20070033
:103600001CE0072006000020070017E00520060048
:103610000020070012E006200600002007000DE051
:10362000072006000920070008E0072006000B20FD
:10363000070003E00420060013200700002D05D03A
:1036400001223900300000F0BBF804E0002239000C
:10365000300000F0B5F8F1BD10B5040001211F489D
:10366000FEF722FB03211E48FEF794FC40211D4873
:10367000FEF71CFA0120FEF7D1FD01211A48FEF7E2
:1036800013FB5FF0FF30FFF7A8FE184800F04EF87C
:1036900001213F2000F083F8E4B2002C0DD05FF44C
:1036A000402000F06AF95FF4803000F065F81048BF
:1036B000006850F008000E490860FFF718FF5FF03F
:1036C000FF30FFF784FE10BD60A0084064A00840F2
:1036D00028A00840DC3B0000FC3C00000023040064
:1036E0000200060030000C0000340E009C41000077
:1036F0007C800C40C0B2002808D0DFF89012096826
:1037000051F00101DFF88422116007E0DFF87C123C
:10371000096849084900DFF87422116070478B007E
:1037200013EB401313F184431A60704738B504005B
:10373000DFF85C020568002C04D14221DFF8540256
:10374000FEF714FE0020FFF7D5FFDFF84C0205401E
:1037500060680543207A0543607A0543E0680543C5
:10376000208A0543DFF8280205602078002802D06F
:103770000120FFF7BFFF31BDDFF81412096831F4F3
:1037800080310200002A05D0B2F5803F03D151F408
:10379000803100E0FFE7DFF8F82111607047C9B21F
:1037A000002906D07D4A1268C0B202437B4B1A60E2
:1037B00005E07A4A1268C0B28243784B1A607047BB
:1037C00070B504000D001600082C04DB4FF4847162
:1037D0007048FEF7CBFD202D04DB4FF489716D4856
:1037E000FEF7C4FD002C0BD0022C1BD011D3042CEF
:1037F0002AD020D3062C39D02FD3072C3FD047E036
:10380000202D05DAF6B2320029006548FFF787FF60
:1038100043E0202D05DAF6B2320029006148FFF7B7
:103820007EFF3AE0202D05DAF6B2320029005E482C
:10383000FFF775FF31E0202D05DAF6B232002900DE
:103840005A48FFF76CFF28E0202D05DAF6B2320067
:1038500029005748FFF763FF1FE0202D05DAF6B275
:10386000320029005348FFF75AFF16E0202D05DAF1
:10387000F6B2320029005048FFF751FF0DE0202D2D
:1038800005DAF6B2320029004C48FFF748FF04E0A1
:103890004FF4C5713F48FEF769FD70BDF8B50400EF
:1038A0000D001600082C04DB4FF4D2713948FEF7E6
:1038B0005DFD002C0BD0022C1DD012D3042C2ED079
:1038C00023D3062C3FD034D3072C46D04FE03448C6
:1038D00000680700AF4316EA050007433048076059
:1038E0004AE0304800680700AF4316EA0500074386
:1038F0002C48076040E02C4800680700AF4316EAF8
:10390000050007432848076036E02848006807009C
:10391000AF4316EA05000743244807602CE024481B
:1039200000680700AF4316EA050007432048076018
:1039300022E0204800680700AF4316EA050007436D
:103940001C48076018E01C4800680700AF4316EAEF
:1039500005000743184807600EE018480068070094
:10396000AF4316EA050007431448076004E040F23D
:10397000E5110848FEF7FAFCF1BD0549096831F484
:10398000E0110143024A11607047000000A00840A6
:1039900004A00840543F0000E07FBEFF08A008409C
:1039A00040A0084044A0084048A008404CA008405F
:1039B000CCA00840D0A00840D4A00840D8A008401F
:1039C00070475A49086070475948006830F0040051
:1039D0005749086030BF704710B456485649574A97
:1039E000574B1B6853F04003554C2360554B1B68E5
:1039F00053F00403534C2360524B1B6833F4407361
:103A00004FF4807423434F4C23604F4B1B681B01C2
:103A10001B094D4C23604C4B1B6853F080434A4CB0
:103A200023604A4B10241C60494B1B689B06FBD546
:103A3000484B1B6853F00103464C2360464B1B6800
:103A400053F08073444C2360444B03600F230B609E
:103A500002231360424B434C1C60434B434C1C609D
:103A600010BC704780B54FF40060FFF7AAFF01BD9E
:103A700080B54FF48070FFF7A4FF01BD80B500232F
:103A800004220C210220FEF7B9FF3948052101600C
:103A90003848006830F4E0003649086001BD80B560
:103AA000FFF78EFFFFF798FF0120FEF753FB05217C
:103AB0000120FEF76FFA01212F48FEF7F5F8FFF716
:103AC0003BF8FFF7DBFF00F067F80020FFF7C4FDCD
:103AD00001210020FFF73DFD01210120FFF739FD05
:103AE0002648FFF7B4FCFEF761FDFFF7F4FA202348
:103AF000022200212248FFF73AF9224A22492348AC
:103B0000FFF735F91C48FEF718F901002048FFF7C8
:103B10002EF920480078002804D01E4800210170AA
:103B2000FEF7B6FDFFF750FFF3E700001C61004011
:103B300010ED00E0001000E0100004E0F00004E0F0
:103B400044800C40206100405060004020800C40C8
:103B50002C800C40F0ED00E0FCED00E0FF13014094
:103B6000B00F00E055CEACC5800E00E009000100AA
:103B700080800C4000800C40108102002442000034
:103B80003041000004420000F84100004C410000B8
:103B9000E84000009A02002010B501210C48FEF711
:103BA00083F801210B48FEF77FF800200400012C68
:103BB0000CDA00230422084810EBC40041680648D0
:103BC00010F83400FEF71AFF641CF0E7002010BD67
:103BD00010810200006202001C4200000101050782
:103BE00007030402030204060506010202020101A2
:103BF000010102020202010101010507070304029B
:103C00000302040605060304040403030303040477
:103C10000404030301010507070304020302040669
:103C2000050605060606050505050606060605053C
:103C3000010105070703040203020406050607083D
:103C4000080807070707080808080707000105070D
:103C500006020301030204060405090A0A0A090907
:103C600009090A0A0A0A09090001050706020301EF
:103C70000302040604050B0C0C0C0B0B0B0B0C0CB9
:103C80000C0C0B0B010105070703040203020406D9
:103C900005060D0E0E0E0D0D0D0D0E0E0E0E0D0D5C
:103CA000070502010306040F0F0F0F0F0F0F070583
:103CB0000201030604101010101010100705020175
:103CC0000306041111111111111107050201030658
:103CD0000412121212121212000107020613131319
:103CE0001313000000000000000007060504030293
:103CF0000100000000000D11101200000000001172
:103D000080020000000002060000200039000F00C1
:103D10000000401500204004001000223F00060073
:103D20005B044F0466046D047D0407007F046F0488
:103D300000000000000A000080200000FFFF770460
:103D4000790A3900B020790071007D0476040600FC
:103D50000E00700A3800B602B6083F0073043F0830
:103D6000730C6D0401113E0030223628802A6E0447
:103D70000922390080080F000100080000015810D6
:103D80007C0458005E04582071040C0C7404040078
:103D90000E00700C3800541454045C04730467045F
:103DA0005004080C78001C0010201428802A0C08ED
:103DB00048200000443A5C4669726D776172655C28
:103DC0006D792D70726F6A6563742D6869686163BF
:103DD0006B5C7472756E6B5C206D792D70726F6A9E
:103DE0006563742D68696861636B202D2D7573653B
:103DF000726E616D65206B61697365722E72656E9E
:103E000040676D61696C2E636F6D5C656E6572678E
:103E1000796D6963726F5C6B6974735C45464D3391
:103E20003254475F53544B333330305C6578616DA7
:103E3000706C65735C53656E666F6E655C6961720C
:103E40005C2E2E5C2E2E5C2E2E5C2E2E5C2E2E5C7E
:103E5000656D6C69625C696E635C656D5F677069F6
:103E60006F2E6800443A5C4669726D776172655CDA
:103E70006D792D70726F6A6563742D68696861630E
:103E80006B5C7472756E6B5C206D792D70726F6AED
:103E90006563742D68696861636B202D2D7573658A
:103EA000726E616D65206B61697365722E72656EED
:103EB00040676D61696C2E636F6D5C656E657267DE
:103EC000796D6963726F5C656D6C69625C73726356
:103ED0005C656D5F636D752E63000000443A5C465F
:103EE00069726D776172655C6D792D70726F6A654C
:103EF00063742D68696861636B5C7472756E6B5C6A
:103F0000206D792D70726F6A6563742D68696861C0
:103F1000636B202D2D757365726E616D65206B610D
:103F2000697365722E72656E40676D61696C2E6390
:103F30006F6D5C656E657267796D6963726F5C65E4
:103F40006D6C69625C7372635C656D5F6770696FED
:103F50002E630000443A5C4669726D776172655C5D
:103F60006D792D70726F6A6563742D68696861631D
:103F70006B5C7472756E6B5C206D792D70726F6AFC
:103F80006563742D68696861636B202D2D75736599
:103F9000726E616D65206B61697365722E72656EFC
:103FA00040676D61696C2E636F6D5C656E657267ED
:103FB000796D6963726F5C656D6C69625C73726365
:103FC0005C656D5F6C63642E63000000443A5C4680
:103FD00069726D776172655C6D792D70726F6A655B
:103FE00063742D68696861636B5C7472756E6B5C79
:103FF000206D792D70726F6A6563742D68696861D0
:10400000636B202D2D757365726E616D65206B611C
:10401000697365722E72656E40676D61696C2E639F
:104020006F6D5C656E657267796D6963726F5C65F3
:104030006D6C69625C7372635C656D5F74696D65FC
:10404000722E6300443A5C4669726D776172655CFA
:104050006D792D70726F6A6563742D68696861632C
:104060006B5C7472756E6B5C206D792D70726F6A0B
:104070006563742D68696861636B202D2D757365A8
:10408000726E616D65206B61697365722E72656E0B
:1040900040676D61696C2E636F6D5C656E657267FC
:1040A000796D6963726F5C656D6C69625C73726374
:1040B0005C656D5F75736172742E630010B508499D
:1040C00079441C31074C7C441A34A14206D0081DA7
:1040D0000A68511888470146A142F8D110BD00BFB7
:1040E0002C0000004C0000002D2D20506C617466E7
:1040F0006F726D3A2045464D33322D544745434B40
:104100004F202575487A202D2D0D0A00F3CCFFFF96
:104110007C02000024000020000000009FCCFFFF74
:1041200024000000880100000000002000000000C2
:104130002D2D2073656E666F6E65205625642E25C5
:104140003032642563202D2D0D0A00002D2D2043D3
:104150006F6D70696C65643A202573202573202D7E
:104160002D0D0A0000F009F8002801D0FFF7A6FF86
:104170000020FFF794FC00F002F80120704700F0E7
:1041800001B800000746384600F002F8FBE70000DF
:1041900001491820ABBEFBE7260002000100000029
:1041A000030040000C0000000000000000000000C0
:1041B00000000000000000000000000000000000FF
:1041C00000000000000000000000000000000000EF
:1041D00001488047014800473B240000114200008D
:1041E00000000000000001000000000000000000CE
:1041F00000030200000100004A616E2032352032C7
:104200003031330030383A35323A31360000000070
:10421000C046C046C046C046FFF7A4FF03000000EA
:104220000700000073656E666F6E6500FFF7FEBFE6
:10423000FFF7FEBFFFF7FEBFFFF7FEBFFFF7FEBFB2
:10424000FFF7FEBFFFF7FEBFFFF7FEBFFFF7FEBFA2
:10425000FFF7FEBFFFF70CBCFEF75AB9FFF7FEBF32
:10426000FFF7FEBFFFF7FEBFFFF7FEBFFFF7FEBF82
:10427000FFF7FEBFFFF7F6BBFEF7E7BEFEF70EBD8A
:10428000FEF73FBDFFF7FEBFFFF7FEBFFFF7FEBF24
:10429000FFF7FEBFFFF7FEBFFFF7FEBFFFF7FEBF52
:1042A000FFF7FEBFFFF7FEBFFFF7FEBF05000000F0
:1042B0000000000000C20100000500000010000026
:1042C0000000000000C400400048E8010080000039
:0400000500004211A4
:00000001FF
