:10080000380C00204D1B000010B440B24109DFF845
:100810006024012310F01F04A34042F8213010BCD3
:10082000704780B500F045FA01BD10EB01135A6323
:1008300070474162704781617047C2680A43C26075
:1008400070470069704772B6DFF82804006810F13D
:10085000010F06D0DFF81C040068401CDFF81414F8
:100860000860DFF8100400687047DFF808040068CB
:1008700000280FD0DFF8FC030068401EDFF8F423E7
:100880001060DFF8F00300680100002900D162B6B3
:10089000080000E00020704710B5DFF8DC03FFF728
:1008A000D0FF04002100DFF8D003FFF7C4FFDFF81A
:1008B000CC030068401CDFF8C4130860DFF8C003F5
:1008C0000068401CDFF8B81308600021DFF8A803B7
:1008D000FFF7AFFFDA220021DFF89C03FFF7A5FF47
:1008E00000F0DDF810BD3EB5040000A8DFF8941359
:1008F0002CC92CC00C390C38E4B2002C03D10320D5
:100900008DF8050010E0E4B2012C03D102208DF82F
:10091000050009E0E4B2022C03D101208DF80500A6
:1009200002E000208DF8050000AA0021DFF848034E
:1009300000F0A5FA37BD80B5FFF773FF0121DFF89E
:10094000480300F035FB0121DFF8400300F030FBE5
:10095000DFF83C13DFF8200300F033FA0220FFF742
:10096000C2FFDA220021DFF81003FFF75EFFDFF895
:100970002403DFF82413016000230422072101204F
:1009800000F042FC0A20FFF73FFF1021DFF8E802E9
:10099000FFF753FF0121DFF8E00200F009FA01BD83
:1009A00038B504000D00DFF8D4020078C0071AD46F
:1009B000DFF8E80200780121A14008420CD0DFF8FE
:1009C000DC02022101710120FFF78DFFB44800789D
:1009D000401CB349087013E0B048012101710020A8
:1009E000FFF781FF0CE0AD480079022803D1002019
:1009F000FFF779FF02E00120FFF775FFA748457078
:100A000031BDA8488068704710B5FFF71CFFA548A6
:100A10000068A4494018407B0400A2480068401CBC
:100A2000C821B0FBF1F201FB12009E490860FFF7FC
:100A30001CFF9C488068401E9A4988602000C0B214
:100A400010BD70B504000D000026C92D26D29548B2
:100A500080682818C92804D3924880682818C928B3
:100A6000FAD2FFF7F0FEAE4211D28E4840688D49AF
:100A70004018315D41738B484068401CC821B0FB71
:100A8000F1F201FB120087494860761CEBE7FFF7A3
:100A9000ECFE8448806828188249886070BD10B5D3
:100AA0007E484478E4B22000002820D001284AD0B3
:100AB00002284DD003285AD0042867D0052800F01A
:100AC0008D80062800F0858007287DD0082876D004
:100AD00009286FD00A2868D00B2861D00C285AD07A
:100AE0000D2800F0B4800F2800F0A280BEE063481B
:100AF0000078C00718D4FFF784FF00280DD0FFF757
:100B000083FF6649087065480121C1700020FFF726
:100B1000EAFE63480021017014E00120FFF7E3FEC4
:100B20005E480021C1700DE05C48C078002806D006
:100B30000120FFF7D8FE59480121417002E0002052
:100B4000FFF7D1FE92E00C210020FFF729FF8DE096
:100B50004A480078C00703D40020FFF7C4FE05E030
:100B60000120FFF7C0FE4D48032141707EE043485D
:100B70000078C00703D40120FFF7B5FE05E0002090
:100B8000FFF7B1FE4548042141706FE005210720C1
:100B9000FFF706FF6AE00B210120FFF701FF65E088
:100BA0000A210220FFF7FCFE60E009210320FFF785
:100BB000F7FE5BE008210420FFF7F2FE56E0072174
:100BC0000520FFF7EDFE51E006210620FFF7E8FEC5
:100BD0004CE005210720FFF7E3FE47E027480078B7
:100BE000C00716D42E480078022190FBF1F202FBD8
:100BF0001102002A06D12948022101710120FFF7C4
:100C000072FE14E02548012101710020FFF76BFE00
:100C10000DE022480079022803D10020FFF763FE8F
:100C200002E00120FFF75FFE1C480F2141701DE02C
:100C300012480078C00703D40120FFF754FE05E0F6
:100C40000020FFF750FE15480D2141700EE00B48C3
:100C50000078C00703D40120FFF745FE05E000201F
:100C6000FFF741FE0D4800214170FFE710BD000075
:100C700000E100E0200800200004014024080020DA
:100C80000C080020401B00001081020000520200EE
:100C9000241B000028040140010003000408002078
:100CA000310800202C07002032480068000EC0B236
:100CB000704710B500F00AF804002F48006810F0E3
:100CC0000F00C4402D480460200010BD10B52C4812
:100CD000006810F47050B0F5006F0DD0B0F5805F73
:100CE00006D0B0F5005F0BD12648006804003EE056
:100CF0004FF4004004003AE023480068040036E066
:100D00002248006810F4E060002824D0B0F5807F0D
:100D100017D0B0F5007F11D0B0F5407F0BD0B0F503
:100D2000806F05D0B0F5A06F1FD1194804001EE0F8
:100D3000184804001BE01848040018E01748040095
:100D400015E0FFF7B1FF132802D31548040001E0B6
:100D5000144804000BE0FFF7A7FF132802D3124842
:100D6000040001E01148040001E00020040020001C
:100D700010BD0000FC81E00F04800C402C08002016
:100D80002C800C4018060020140600200C800C401B
:100D9000003FAB01406F4001809FD500C0D8A70045
:100DA00040B56400C0CF6A00804F120040420F007F
:100DB000C9B2002902D00122426001E00222426051
:100DC00070472DE9F0410A78002A01D102224260E1
:100DD000002242624A78002A01D0402200E000222C
:100DE0004B7A002B01D0802300E000238C7A002C6A
:100DF00001D0202400E00024CD7A002D01D0102560
:100E000000E000250E79002E02D04FF4005600E0DD
:100E100000264F79002F02D05FF0805700E00027B6
:100E200091F80CC0BCF1000F02D05FF0080C01E09B
:100E30005FF0000C91F802E091F803805FEA084847
:100E400058EA0E6E91F806805EEA882E91F80780C7
:100E50005EEA082E91F8088058EA0E0E52EA0E0259
:100E60001A4322432A4332433A435CEA02020260B5
:100E70000A78002A01D001224260BDE8F081F0B476
:100E8000D379002B02D05FF4001300E00023147A22
:100E9000002C02D05FF4801400E00024557A002D6D
:100EA00001D0102500E00025967A002E01D00426FE
:100EB00000E00026177892F801C05FEA0C6C5CEA4B
:100EC000876792F802C057EA0C4792F803C057EAC6
:100ED0000C3792F804C057EA8C2792F805C057EAFD
:100EE0000C2792F806C05CEA07073B4323432B43D9
:100EF000334310EB01142363F0BC70478B0013EBFA
:100F0000401313F184431A607047DFF8C012096878
:100F1000080010F007010029012903D9891E0129C1
:100F200005D908E0C008C00050F0010003E0C00887
:100F3000C00050F00300DFF8941208607047DFF83B
:100F40008C2212681100DFF87C22904211D3DFF866
:100F5000782290420DD211F00702921E012A04D885
:100F6000C908C90051F0030103E0C908C90051F0E4
:100F70000101DFF8502290420BD211F00702921EBD
:100F8000012A04D8C908C90051F0020101E0C908CA
:100F9000C900DFF8382211607047DFF8381209689D
:100FA000C90704D4DFF8301209680142FAD170474A
:100FB0002DE9F04104000D005FF00008C4F30320A8
:100FC000C0B2012809D024D303280ED009D30528A4
:100FD00015D00ED3062818D01BE0DFF80402060057
:100FE00018E0DFF80002060014E0DFF8FC0106005C
:100FF00010E0DFF8F8010600012080460AE0DFF883
:10100000F00106001020804604E0DFF8E801060049
:1010100000E00EE0C4F304300700B8F1000F02D086
:101020004046FFF7BAFFEDB22A0039003000FFF763
:1010300065FFBDE8F0810100012011F00F031A00E7
:10104000012A06D06CD3032A3BD01CD3042A56D0E5
:1010500066E0DFF888311B6813F47053B3F5006F56
:101060000BD0B3F5805F05D0B3F5005F08D1022344
:10107000180007E00323180004E00423180001E02F
:10108000052318004EE0DFF848311B6813F0030316
:10109000012B04D00CD3032B07D003D308E0032388
:1010A00018000DE0022318000AE00623180007E0EC
:1010B000DFF81C311B68DB0302D509231800FFE7AA
:1010C00030E0DFF80C311B6813F00C03042B04D064
:1010D000082B05D00C2B06D008E0032318000DE0E8
:1010E000022318000AE00623180007E0DFF8E030CA
:1010F0001B68DB0202D509231800FFE712E0DFF8C6
:10110000F8301B6813F08053002B03D0B3F1805FDD
:1011100003D004E00723180001E00823180001E0D1
:1011200000231800C0B27047F8B50400E4B2002CE8
:1011300008D0022C11D00AD3042C19D013D3052CBB
:101140001BD020E02E480068C0B205001CE02C48EF
:101150000068C0F30720050016E029480068C0F3C6
:101160000740050010E026480068000E05000BE06F
:1011700024480068C0B2050006E022480068C0F3B9
:101180000720050000E01BE00120FFF754FF0700E7
:10119000FFB2052F01D1FFF7B8FE18480068C00A5A
:1011A000C002E4B255EA0421084314490860FFB2C2
:1011B000052F05D1FFF77DFD06003000FFF7BFFECC
:1011C000F1BD00000124F4000148E80104000C40D6
:1011D00028800C4054800C4050800C402C800C40E7
:1011E00008800C4044800C4040800C4058800C40EB
:1011F00060800C4078800C4000800C400C800C40DB
:10120000DC81E00FE081E00F70B4D2B2002A12D08E
:10121000002B08D0C0B224242F4D04FB005401251C
:101220008D40256107E0C0B224242B4D04FB0054FF
:1012300001258D406561082919D2C0B22424264DAC
:1012400004FB005464680F250E00F6B2B600B540EA
:10125000AC43D2B20D00EDB2AD0012FA05F52C434D
:10126000C0B224251C4E05FB00656C601AE0C0B2BC
:101270002424194D04FB0054A4680F250E00083ED9
:10128000F6B2B600B540AC43D2B20D00083DEDB2A7
:10129000AD0012FA05F52C43C0B224250E4E05FB15
:1012A0000065AC60D2B2002A12D1002B08D0C0B2C7
:1012B0002424094D04FB005401258D40256107E0DD
:1012C000C0B22424044D04FB005401258D40656107
:1012D00070BC7047000000000060004010B440B2D5
:1012E0004109DFF82823012310F01F04A34042F82E
:1012F000213010BC704710EB0110406B70478161CA
:101300007047C2680A43C26070470069704710B5F1
:10131000BF48FFF7FAFF04002100BD48FFF7EFFFC9
:101320002000C00612D50021B948FFF7E4FFB949F3
:101330000860B9480068800703D5B84802210170E9
:1013400002E0B6480121017000F0A6F810BD80B59A
:1013500000F031F800F008F81021AD48FFF7D1FF98
:101360000220FFF7BBFF01BD10B588B00121AC48DA
:10137000FFF71EFE0121AB48FFF71AFE00A8AA499D
:101380001CC91CC00C390C3800AA0021A048FFF76A
:1013900076FD03A8A549102200F05AF903A99C483C
:1013A000FFF70FFD002300225FF40031052000F05D
:1013B00091F908B010BD00B587B001219C48FFF736
:1013C000F7FD01219B48FFF7F3FD002301220121D6
:1013D0000220FFF719FF00A89749182200F038F9FA
:1013E00000A9964800F09AF901220A21934800F0DA
:1013F0008BF9924800F083F907B000BD0100B1F508
:10140000C57F04D28E4A11600022100014E0B1F5AD
:10141000F07F0AD8B1F5C57F07D3894A002313604E
:10142000002211000122100006E0854A002313600B
:101430000022110002221000C0B2704738B504002B
:101440000D0080480068FFF7D9FF01281AD17348C2
:101450000078012807D17C4880780121A140884389
:10146000794988700BE0784880780121A1400843D1
:101470007549887074484078401C734948707248B8
:10148000057008E06F480068FFF7B8FF022802D136
:101490006D480021017031BD80B5694800685D4923
:1014A000096808186749086067480078002816D05E
:1014B000012822D005285BD0062854D007284DD01B
:1014C000082846D009283FD00A2838D00B2831D028
:1014D0000C282AD00D287AD00F284ED093E04F4800
:1014E0000078022808D15848012101705448002191
:1014F000016054480021016085E052480068FFF710
:101500007DFF01280DD145480078012809D14E48BA
:10151000002181704C48002141704B480C21017022
:1015200002E04948002101706DE00B210020FFF727
:1015300085FF68E00A210120FFF780FF63E00921B1
:101540000220FFF77BFF5EE008210320FFF776FF14
:1015500059E007210420FFF771FF54E00621052020
:10156000FFF76CFF4FE005210620FFF767FF4AE019
:101570000F210720FFF762FF45E032480068FFF7C0
:101580003DFF012819D125480078022804D12E48B2
:101590004078401C2C4948702B484078022190FB31
:1015A000F1F202FB1102012A03D127480D2101703B
:1015B0000CE025480021017008E022480068FFF790
:1015C0001DFF022802D12048002101701BE01D48A8
:1015D0000068FFF713FF01280BD11048007802289C
:1015E00003D101211948FFF72CFA17480021017097
:1015F00008E014480068FFF701FF022802D11248F2
:1016000000210170FFE701BD0000000000E100E0E3
:10161000000001401408002008100040300800209D
:101620000042020000820200341B0000141B000074
:101630000002020000620200B01A00000010004028
:10164000180800201C0800201008002012080020A4
:10165000103A07D330B4B1E83810103AA0E8381087
:10166000F9D230BC530724BFB1E80810A0E8081035
:1016700044BF51F8043B40F8043BD20724BF31F883
:10168000022B20F8022B44BF0B7803707047083AF6
:1016900007D3B1E80810083A40F8043B40F804CBFF
:1016A000F7D25307E4E710B450F8041B81B1026885
:1016B0001218001D50F8043BDC0744BFA9F10104D7
:1016C000E31852F8044B43F8044B091FF9D1EBE738
:1016D00010BC704730B411F47C1412F007052C4391
:1016E0001C43024D45F8204030BC704710C00C40F0
:1016F0008B0013EB401313F184431A6070470168A9
:1017000051F0010101607047436833F0F703C9B23B
:1017100053EA0113D2B213434360704738B5040053
:101720000D0028786978890751EAC070696850EA25
:101730000160297A50EA4140697A50EA0140A97A69
:1017400050EA0120E97A50EA0110297B50EA810031
:101750002060687B2969090251EA004060602A7DA7
:1017600000212000FFF7C4FF31BD50F8041B61B118
:1017700050F8042BD30744BFA9F101039A180023A2
:1017800042F8043B091FFAD1EFE77047DFF800F099
:10179000E5040020DFF800F097030020DFF800F0F8
:1017A00025030020DFF800F0A5020020DFF800F09C
:1017B000C903002010B440B24109524A012310F07D
:1017C0001F04A34042F8213010BC704740B20028EB
:1017D00008D540B210F00F024B4BD2184B0102F863
:1017E000043C03E040B2494A4B01835470474848E7
:1017F0004FF48061016047484FF4A0510160704789
:1018000010B545480068040014F00104012C05D00F
:1018100000F0A4F8002801D0FFF7B8FF012C07D092
:101820003E48006850F004003C49086030BFE8E7DB
:1018300010BD5FF000503A4981645FF000503949B3
:10184000816639485FF000510160704738B501206A
:10185000FFF76AFCFFF7EDFF4FF440510020FFF760
:1018600099FF3249088032493248FFF793FF05005B
:101870002E482E49098801802F484FF4807101605D
:101880002E48642101602E4802210160FFF75FFDB0
:10189000FFF751F805210220FFF798FF0A210A20DF
:1018A000FFF794FF40F664200400264825490968A4
:1018B0000160FFF79CFF200000F05CF82248FFF772
:1018C0006DFF2248FFF76AFF00F068F8FFF798FF06
:1018D0001120FFF76FFF1E48FFF760FF1D480068EB
:1018E000FFF760FF1C480068FFF75CFF04A0FFF7EC
:1018F00055FF00F06DF8FFF759FF002032BD0000E2
:101900000D0A000080E100E018ED00E000E400E0D6
:101910009C60004098600040D060004010ED00E006
:101920000F1300009908000008ED00E0BC00002043
:101930000082E00FB281E00F08800C4044800C4030
:1019400040800C4000C00040681A0000101A0000DF
:10195000001B0000F481E00FF081E00F43F204006F
:1019600000680100B1F5801F01D2012000E00020D5
:101970007047000006490860064903220A600649CC
:101980004FF440620A60044905220A60704700BFB4
:1019900014C0004054C000400CC0004015480078FE
:1019A000C0B2472802D0C0B2492804D112494FF42E
:1019B00000720A600BE0C0B2482804D10E494FF40F
:1019C00080520A6003E00C494FF400620A607047DD
:1019D0000A4841F6713101600948006850F0010081
:1019E000074908600748012101600748074901606D
:1019F00070470000FE81E00F280800203C000C40EA
:101A000008000C4004200C4008200C40000100207D
:101A10002D2D204275696C64206F6E3A4A756E20D8
:101A2000323420323031332031343A35383A32349E
:101A3000202D2D0D0A0D0A0D0A00000010B50849D1
:101A400079441C31074C7C441A34A14206D0081D4D
:101A50000A68511888470146A142F8D110BD00BF5D
:101A60002C0000004C0000000D0A0D0A0D0A2D2D5F
:101A70002077656C636F6D6520746F20626F6F7483
:101A80006C6F61646572202D2D0D0A00DFFCFFFF75
:101A9000180200001C060020000000000BFCFFFFE5
:101AA0000C050000BC000000100100200000000038
:101AB0000001000002000000000006070100000015
:101AC000200000000000000000F009F8002801D00C
:101AD000FFF7B4FF0020FFF7B9FE00F002F8012085
:101AE000704700F001B800000746384600F002F8E1
:101AF000FBE7000001491820ABBEFBE7260002000F
:101B00000D0A0D0A312E3633204368697049443A74
:101B1000200000000000040000000303000000009B
:101B200000000000000004000000000000000000B1
:101B3000000000000002050000000100010000009C
:101B4000000000000003020000010000C046C04683
:101B5000C046C046FFF7B8FF4E6F6E652E0D0A00F7
:101B60002DE9F04704000D005FF00109A246AA45E7
:101B700007D2504600F08EF82B48006810EB0A0A96
:101B8000F5E7432000F0E4F80020070027488742EB
:101B9000F7D227480068000601D47F1CF6E719F049
:101BA00001008821234A01FB0020060000F0C0F854
:101BB00070707078042803D1062000F0C9F82BE07B
:101BC0007078012802D05FF0FF302AE002208046C2
:101BD000B8F1860F06D200F0ABF808F8060018F14D
:101BE0000108F5E74946300000F0CFF8002803D09F
:101BF000152000F0ADF8D2E7331D8022B9F10100C5
:101C0000802101FB00F1200000F018F819F1010912
:101C1000062000F09DF8C2E707480068C007FBD423
:101C20000020BDE8F08700BF2808002080969800BB
:101C300010C000401C06002028200C4030B4254C69
:101C40002468E407FBD40C18234D2C60234C012599
:101C50002560254C224D6560D418241F224D2C6030
:101C6000B2F10804A4002409240144F06A4454F0A9
:101C700001041D4DAC601D4C5FF440152560184CEF
:101C80001D682560134C01252560144C1025256026
:101C900030BC704710B45FF0FF310200144B1B687A
:101CA0001B189A4203D213681940121DF6E711F16E
:101CB000010F0BD0084B1860084B01241C60074B28
:101CC00002241C60074B1B68DB07FBD410BC704769
:101CD0000000000028200C4010000C400C000C40BC
:101CE00018000C401C000C400001002000310C408A
:101CF00028080020F8B5040007200600002E16D49E
:101D00003000C0B2800034FA00F010F00F0007007D
:101D10000A2F03DA17F13000050002E017F137004F
:101D200005002800C0B200F013F8761EE6E7F1BD0A
:101D30000C490D480068000602D4491E0029F8D15C
:101D4000002903D009480068C0B200E000207047B5
:101D5000054909684906FBD50549C0B20860C0B20B
:101D60007047000040420F0010C000401CC00040FF
:101D700034C0004010B504002078002804D020783A
:101D8000FFF7E6FF641CF7E710BDF8B504000D008F
:101D9000A078E178081880B2FF2802D05FF0FF3009
:101DA00020E0A0784FF4807195FBF1F202FB115214
:101DB000904202D05FF0FF3014E014F18401201D46
:101DC00000F011F8070094F8840094F8851051EAA7
:101DD00000200600BFB2B6B2B74202D05FF0FF30BB
:101DE00000E00020F2BD10B40200002013008B427E
:101DF0000FD280B2040254EA10201C786040C0F375
:101E00000314604090EA0030C4B290EA44105B1CB6
:101E1000EDE780B210BC704738B52948006880B241
:101E200080020400FFF784FF0500EDB2002D03D00F
:101E30002800C0B2FFF78CFFEDB22800002836D092
:101E400062282DD0642810D070281FD072282AD084
:101E5000742812D075282ED11A48FFF78BFF210065
:101E60004FF44050FFF77CFEDCE71648FFF782FF97
:101E700021000020FFF774FED4E71248FFF77AFF35
:101E800011495FF07E60FFF76BFECBE700F02AF8A8
:101E90000C48FFF76FFF0D490D48FFF761FEC1E7E2
:101EA00000F048F8BEE70B480B490160BAE70B4861
:101EB000FFF760FFB6E70A48FFF75CFFB2E70000F4
:101EC000F881E00F000600200002E00F0042E00F62
:101ED0000040E00F0CED00E00400FA05581B000084
:101EE0000C06002038B50D48002101600C48002187
:101EF000016000200500152D0ED200200400082CE2
:101F000008DA0848285C204110F0010000F066F86B
:101F1000641CF4E76D1CEEE731BD0000B8600040C2
:101F200020610040E805002080F3088880F30988DC
:101F30008F46704738B51C485FF0FF3101601B4881
:101F40005FF0FF3101601A4800210160194800214B
:101F500001601948002101601848002101601848FB
:101F600000210160174805210160174880210160A8
:101F700016480021016016484FF480710160154831
:101F80000021016014484FF4405101604FF440506B
:101F90000068050043F204000068040021002800E6
:101FA000FFF7C2FF31BD000080E100E084E100E006
:101FB00000000840080008401C000840B8600040CD
:101FC00058800C4028800C4020800C4040800C4001
:101FD00008800C4044800C4008ED00E0002806D04A
:101FE000134A126852F00202114B1A6005E0104ABF
:101FF000126832F002020E4B1A600D4A126852F05B
:1020000001020B4B1A600B4A0123136000221100DE
:102010004FF47A72914201DA491CF9E7044A1268D6
:1020200052085200024B1A60024A002313607047A4
:1020300020610040B8600040FFFFFFFFFFFFFF008E
:1020400000A50000000000A9000000000A00000038
:102050000D0A52656164790D0A0000000D0A3F0DFA
:0C2060000A0000000048E80100800000B9
:0400000500001B4D8F
:00000001FF
