:10000000400D0020B10D0000DFF800F05702002085
:10001000DFF800F0BF030020DFF800F02D01002022
:10002000DFF800F073030020DFF800F07901002012
:10003000DFF800F0B3030020DFF800F01503002024
:1000400080B500F00AF8DFF82419096801F00F0103
:10005000C840DFF81C19086002BDDFF818194FF41A
:1000600000400A6A02F47052B2F5006F06D0B2F591
:10007000805F18BFB2F5005F39D002E0DFF8F80802
:100080007047DFF8F808096811F4E06124D0B1F591
:10009000807F17D0B1F5007F11D0B1F5407F0BD034
:1000A000B1F5806F05D0B1F5A06F1FD1DFF8D00892
:1000B0007047DFF8D0087047DFF8CC087047DFF8EA
:1000C000CC0870470068000E132802D3DFF8C00880
:1000D0007047DFF8C00870470068000E132802D38D
:1000E000DFF8B4087047DFF8B408704700207047A5
:1000F0002DE9F84FDFF8A8482068C0F30726012053
:1001000000F0BEFB0546052D08BF00F053FBDFF8ED
:1001100094787868C00A4FF48071314351EAC02066
:100120007860052D03D1FFF78BFF00F055FB4FF0F2
:1001300000500FF2852181640FF2A5418166DFF83E
:1001400068582860DFF864884FF400510020FFF7FA
:100150005BFFA8F800004FF4807038606420F863FB
:100160000220B86300F074F900F041F9FFF768FF6E
:100170000121DFF83C0800F051FB0121DFF83408D1
:1001800000F04CFBDFF830680FF67021304600F0CD
:100190005FFC022000F039FADA207063DFF81C08F7
:1001A000B062002304220721012000F0B6FB4FF4C7
:1001B0008067DFF80C080760F06840F01000F0601E
:1001C00001207060DFF8FC07A0210170402101725E
:1001D000DFF8F40701680160DFF8F0B7CBF80470CE
:1001E0004FF4A051CBF800104FF43371416103215B
:1001F00041654FF44061C1600521C1600FF6701088
:10020000FFF706FF0FF68C10FFF702FFDFF8C007BD
:1002100000784FF40076DFF8BC17472818BF49284C
:1002200007D048280CBF4FF480504FF4006088611D
:1002300006E08E6104E0A86840F00400A86030BFCA
:10024000DBF8380000F00109DFF88C07D8F840101F
:1002500081420BD042F2FC010968814201BF47F69E
:10026000FC71096881424FF0010A01D04FF0000A89
:10027000B9F1000F0BD14FF400504068B0F5801F6A
:100280008041514611EAD07F18BFFFF7C5FE8AF0C2
:10029000010050EA0900CED00020C8F84000DFF885
:1002A0003C074FF4003101600FF61410FFF7B0FE69
:1002B000A069FFF7B5FE6069FFF7B2FE92A4204681
:1002C000FFF7A6FEDFF818572868010648BF20F0A0
:1002D0006600C10748BF01202BD400F0830102292A
:1002E00008BF022025D000F01F01042908BF042008
:1002F0001FD010F0180118BF00F0180019D110F02D
:10030000600118BF00F0600013D1810548BF30467E
:100310000FD4410548BF38460BD44FF4C071084292
:1003200018BF084005D110F0880114BF00F0880004
:100330000020FFF775FE2046FFF76AFE0120686087
:10034000DFF8A0060168CA0744BF4AF6E852026017
:10035000DFF894260123136000231360C90748BF08
:100360000360DFF8880641F671314163016841F0AE
:1003700001010160DFF8780601210160DFF87416E1
:1003800041600121DFF8280600F048FA0121DFF87A
:10039000680600F043FA002304220721032000F03E
:1003A000BCFA002304220521032000F0B6FAFFF76F
:1003B0003BFE0020BDE8F28FDFF840060168816057
:1003C000C90613D5406ADFF838168860DFF83406AE
:1003D000DFF834261268920742BF0222202303600E
:1003E00002D40122202343600A718FE0704710B5C8
:1003F00088B00121DFF8140600F010FA0121DFF8BF
:10040000100600F00BFA04A80FF2C8711CC91CC03A
:10041000DFF8004604AA0021204600F060FB00A897
:100420000FF2BC71102200F0F1FB00A9204600F091
:100430000FFBDFF8E4054FF400310160E06840F0A5
:100440001000E060DFF878050421016008B010BDFD
:1004500080B50121DFF8C40500F0E0F90121DFF8E3
:10046000980500F0DBF9002301220121022000F0B1
:1004700054FADFF8AC05DFF8AC1501604FF4005119
:100480004160DFF8A41500220A60416821F0F701FD
:1004900041F0A1014160016841F00101016001BD2D
:1004A000DFF85C15B0F5C57F02D2C8600020704748
:1004B000A0F5C570572803D20020C86001207047FE
:1004C0000020C86002207047F8B507460C46DFF8E8
:1004D00030552869FFF7E4FFAE7801280BD1B8400A
:1004E0002979012908BF864303D006436878401C58
:1004F00068702C7006E02869FFF7D2FF022804BF5D
:1005000000202870AE70F1BD0D0A000038B5DFF88C
:10051000F044E068A16808182061257920780F2848
:100520005AD8DFE800F00810595959302D2A2724ED
:10053000211E1B435935022D4ED101202070002071
:10054000E060206131BD00F048F8012808BF012DAE
:1005500040D10020A07060700C203CE00B210020F6
:1005600013E00A21012010E0092102200DE00821FA
:1005700003200AE00721042007E00621052004E00B
:100580000521062001E00F210720BDE834409BE74C
:1005900000F023F8012819D1022D02D16078401C07
:1005A00060706078C00715D50D2014E000F015F8D4
:1005B00001280BD1022D0DD1A078FFF739FD0122C2
:1005C000DFF86814A01CFFF737FD03E000F005F822
:1005D000022801D10020207031BD206960E70000B1
:1005E000DFF84C0401688160DFF8E8130A690AB19A
:1005F000521E0A614A69521C4A61CA68521CCA608A
:1006000000214161DA2141623AE03EB500A90FF2D2
:10061000E05238CA38C108B9032007E0012808BFF2
:10062000022003D002280CBF012000208DF8050015
:1006300000AA0021DFF8800300F051FA37BD38B579
:100640000D46DFF89043217DC90710D4217801229F
:1006500002FA00F0014207D00220207100F0A5F854
:10066000607A401C607231BD227100209FE02079C9
:1006700002280CBF00200120FFF7C7FF657031BDC5
:1006800038B5DFF85043606961780F2932D8DFE868
:1006900001F0083E41496166615E5B5855524F81E9
:1006A000897BC0072CD4206928BBDFF888038168C8
:1006B00009B372B6E16911F1010F1CBF491CE16178
:1006C00001680A18527B491CC823B1FBF3F503FBF0
:1006D00015110160E16919B1491EE16100D162B6ED
:1006E0008168491E816022700120E07000F05BF893
:1006F0000020607231BD00F058F80020E07031BD7C
:10070000E078002849D000F050F8012049E00C21A1
:10071000002021E0C00758BF00203ED500F045F87A
:1007200003203EE0C00737D500F03DF8042038E054
:100730000B21012010E00A2102200DE009210320F5
:100740000AE00821042007E00721052004E0062133
:10075000062001E005210720BDE834406FE7C0070F
:1007600009D4607AC0075CBF0220207114D5012033
:100770002071002011E0207902280CBF0020012008
:10078000FFF743FF0F200CE0C00705D500F00BF882
:100790000D2006E0C00701D4012008E000F003F8B6
:1007A0000020607031BD00202FE701202DE7BDE85B
:1007B00032402AE7A0480168CA08D20001F00703C6
:1007C000012B05D99B1E012B98BF42F0030101E0CC
:1007D00042F001010160704710B597490A68974BD4
:1007E0001B18974CA3420AD2D308DB0002F0070281
:1007F000921E012A94BF43F0030243F00102914B81
:10080000984209D2D008C00002F00702921E012AC5
:1008100094BF40F0020202460A6010BD30B50023CA
:10082000604A041204F00F04641E052C27D8DFE888
:1008300004F00305080B0F1314460FE002F23C040A
:100840000CE002F2380409E002F25004012305E052
:1008500002F25804102301E002F27004C0F30430E5
:100860001D0006D0D56CED0703D4956CEDB21D428A
:10087000FBD1800000EB441000F18440016030BDEA
:100880000121714A00F00F00012806D042D303284D
:1008900020D013D3042832D03CE0D06A00F470504A
:1008A000B0F5006F06D0B0F5805F1DD0B0F5005FE9
:1008B0001CD001E004212EE005212CE0906A00F01C
:1008C0000300012810D002D3032811D00ED3906A60
:1008D000C00311E0906A00F00C00042804D008283E
:1008E00004D00C2804D005E0032114E0022112E01A
:1008F000062110E0906AC0020DD509210BE01068B6
:1009000010F0805004D0B0F1805F08BF082102E0F1
:10091000072100E0002108467047F0B524244B4D24
:1009200004FB005001248C401AB1002B14BF046159
:1009300044610F26082909D2890047688E4027EABA
:10094000060602FA01F13143416009E008398900E5
:1009500087688E4027EA060602FA01F1314381607A
:100960001AB90BB10461F0BD4461F0BD04800C40C4
:100970003C0900200C800C400048E801FC81E00F9D
:10098000003FAB01406F4001809FD500C0D8A70059
:1009900040B56400C0CF6A00804F120040420F0093
:1009A000DC81E00F08800C4008ED00E0BC00002076
:1009B0001081020000520200000401400100030007
:1009C00000E100E002E400E000C000409860004068
:1009D000FE81E00F1C0600205A5AA5A580E100E028
:1009E00004A00C4008600C4080048C4308000C40BC
:1009F00004200C40000100200062020010000140B1
:100A0000280900207C6000400810004000420200DD
:100A1000008202000000014024C00C4000020200DD
:100A200000100040740600420000024278070020D7
:100A3000100401405008002004000C40FFDB0BFFB5
:100A40000024F4000124F40000800C400060004009
:100A50002DE9F0430A780AB9022343600023436278
:100A60004B7803B140234C7A04B180248D7A05B1D0
:100A70002025CE7A06B1102691F80490B9F1000F26
:100A800018BF4FF4005991F805C0BCF1000F18BF12
:100A90004FF0805C91F80CE0BEF1000F18BF4FF0F2
:100AA000080E91F80280CF783F0447EA08688F79F2
:100AB00048EA8728CF7948EA0727097A3943194352
:100AC00021432943314349EA01014CEA01014EEA3D
:100AD000010101600AB101214160BDE8F083F0B578
:100AE000D3790BB14FF40013147A0CB14FF4801486
:100AF000557A05B11025967A06B10426177892F832
:100B000001C04FEA0C6C4CEA876792F802C047EAD2
:100B10000C4792F803C047EA0C3792F804C047EA42
:100B20008C2792F805C047EA0C2792793A431A437A
:100B300022432A43324300EB01100263F0BD02213D
:100B4000416000210160C16040F2737181614FF624
:100B5000FF71C161002101624162002300EB0112BB
:100B600013635363D363491C0329F7DB7047000009
:100B70000D0A0D0A0D0A2D2D2077656C636F6D65CA
:100B800020746F20626F6F746C6F61646572202DCA
:100B90002D0D0A002D2D204275696C64206F6E3A70
:100BA0004A756C20333120323031332031323A34BF
:100BB000393A3532202D2D0D0A0D0A0D0A0000009C
:100BC0000D0A0D0A302E3032204368697049443ACC
:100BD00020000000000205000000010001000000EC
:100BE00000000400000003030000000000000000FB
:100BF00000000000000302000001000000000400EB
:100C0000000000000000000000000000103A07D3C0
:100C100030B4B1E83810103AA0E83810F9D230BC3E
:100C2000530724BFB1E80810A0E8081044BF51F8EA
:100C3000043B40F8043BD20724BF31F8022B20F8D4
:100C4000022B44BF0B7803707047083A07D3B1E812
:100C50000810083A40F8043B40F804CBF7D2530799
:100C6000E4E72DE9F04100F10801026801EB82029E
:100C700043685808400002EB800000240025264607
:100C800001270EE0F44518BFAC4208D014F8018BE0
:100C90000CF8018B761E36B2002EF3D50127F445F1
:100CA00013D1824201D1BDE8F08152F804CB5FEA52
:100CB000C37E48BFCC4452F804EBE644EFE70C682F
:100CC0006418091D51F8045B2D19AC42F7D05FB1CF
:100CD00014F9016B002705E00C686418091D51F830
:100CE000045B2D19AC42F7D0002ED4D514F8018B3B
:100CF000F445D4D00CF8018B761C36B2002EF7D414
:100D0000CCE750F8041B61B150F8042BD30744BF63
:100D1000A9F101039A18002342F8043B091FFAD1F4
:100D2000EFE7704710B5084979441C31074C7C4403
:100D30001A34A14206D0081D0A6851188847014696
:100D4000A142F8D110BD00BF080000003000000033
:100D5000B3FFFFFFC801000078070020000000007B
:100D600003FFFFFF0200000002000000500000002F
:100D70003F05000010010020680600000120C04669
:100D8000002801D0FFF7CEFF0020FFF7B1F900F0F7
:100D900000F800F001B800000746384600F002F8FD
:100DA000FBE7000001491820ABBEFBE7260002006C
:100DB000C046C046C046C046FFF7E0FF7EDFF800F1
:100DC000F0EF030000DFF800F03F0B000080F308B5
:100DD0008880F309888F467047DFF874044FF0FF6E
:100DE0003101604160DFF86C04002101608160C165
:100DF00061DFF864040160DFF86404016505210126
:100E00006280218161002181634FF4807101600063
:100E100021C163DFF84C044FF400510160084641E2
:100E2000680068D3E72DE9F843DFF838040068006C
:100E3000044FEA90180FF28849DFF82C7E64DFF83F
:100E40002C74DFF82C4407E000F059F8227A414670
:100E50004FF4005000F015F9DFF81C04396809065A
:100E600007D4B16829B9401EF8D1484600F0FEF811
:100E7000F2E70028F9D0B06828B10220207200F013
:100E80007EF8054602E004202072FD68EDB2002DD8
:100E9000EBD0284600F0E4F8002DE6D0622D22D0F9
:100EA000642D08D0702D14D0722D1FD0742D08D051
:100EB000752DC9D020E000F022F8227A7E4146004C
:100EC00020C8E700F01CF8227ADFF8B0134FF07E5C
:100ED00060C0E700F02FF800F012F8227ADFF8A0E7
:100EE00013DFF8A003B6E7FFF778FFB5E7DFF89860
:100EF00003DFF898130160AFE704F12C00B6E704B4
:100F0000F12000B3E0002211E01346120242EA137E
:100F10002210F8013B5A4092B2131103F00F035A0A
:100F20004082EA023292B2D3B282EA43128842EBA2
:100F3000D31046704710B5C8480021017E60816615
:100F4000DFF84C2300238C5C1C41E407846E4CBF0B
:100F500044F0020424F002048466846E44F0010428
:100F6000846601240460846E64086400846600243E
:100F700004605B1C082BE6DB491C1529E2D310BD7D
:100F800038B572B6BB48C16911F1010F1CBF491CCD
:100F9000C161B6490A6853185C7B521CC823B2FB76
:100FA000F3F503FB15220A608A68521E8A60C16944
:100FB00019B1491EC16100D162B620467E00F051D0
:100FC000F8204632BD0023C92A00D37047F0B58C03
:100FD000681419C92C03D38C681419C92CFBD2725C
:100FE000B6A44CE56915F1010F0FD06D1CE5610C3D
:100FF000E04D686D181E5C6E734D686D1CC826B59B
:10100000FBF6F706FB17554D605B1C9342F0D38847
:101010006810188860E06918B1401EE06100D16274
:10102000B6F0BD38B504460725A80024FA00F00044
:10103000F00F000A2834BF30303730C07EB200F0E5
:1010400011F86D1EF1D531BD8C4889490A68120628
:1010500003D4401EFAD1002070470028FBD0C86896
:10106000C0B2704783490A685206FCD5486270478F
:1010700010B5044603E014F8010BFFF7F3FF2078E6
:101080000028F8D110BD2DE9F14F82B00F464FF086
:10109000010A8048FFF799FE02987F4D764E13E0D3
:1010A00052F8043B1940B3691B189A42F8D311F166
:1010B000010F07D06860C5F800A002217E296029D1
:1010C00069C907FCD4B1690818B8423CBF4FF0FFAA
:1010D000310246E8D3FFF775FEDFF894B1DFF8C0C0
:1010E00081432000F0E7F802D500F0E9F802E04380
:1010F00020FFF7B8FF6148317A890703D5DBF8088C
:101100001021B108E05B490968090604D4401EF2C9
:10111000D1E6E700F0D4F80AF00100882101FB00D5
:101120006000F23407307A8007DBF8080004D5004D
:1011300028FDD0FFF726FF01E0FFF7867EFF7870DD
:101140007878DFF86091042810D100F0B3F809D561
:1011500000F0B6F8D9F80000C007FBD400203072C8
:10116000BDE8FE8F0620FFF77EFFF3E7012807D0DA
:10117000152000F0A0F8CDD41520FFF774FFCBE7C1
:101180000224307A8007DBF8080004D50028FDD05F
:10119000FFF7F8FE01E0FFF758FFE055641C862CCE
:1011A000EFD3317A01F00204B978FA78521892B28A
:1011B000FF2A15D14FEAEA120AEB1262271212AA8D
:1011C000EB022081420CD107F18401381DFFF79D0D
:1011D000FE97F8841097F8852042EA01218842059D
:1011E000D015208DF8FD007E2C94D1C6E73CB12AA5
:1011F00048FFF7ECFD307A800744BFC820306138E3
:101200001DAAF10101029AD9F80030DB07FBD412C4
:10121000EBC111696001212960234905F20C024AE2
:101220006000F27C020A60214A8A6021494FF44042
:10123000120A600068E8600120C9F8000010202848
:1012400060307A800748BFFFF7BDFD0AF1010A0050
:10125000F031F890D4062090E780E100E00000082B
:1012600040B86000400880680C4008ED00E0F8815C
:10127000E00F7807002010C000401C06002040420C
:101280000F000002E00F0042E00F0040E00F0CED05
:1012900000E00400FA0560070020000001400C0097
:1012A0000C405008002028200C4000010020E101E3
:1012B00000EA00310C4006208DF80000307A8007EB
:1012C00070470122414600A87FE64E6F6E652E0DE5
:1012D0000ADF00080D0A52656164790D0AFD0004F9
:1012E0000D0A3F0D0A81008100EB00F9FF020000AA
:0C12F000A5FB0000A9FC00000AFD0000A6
:0420FC0000000000E0
:047FFC000000000081
:0400000500000DB139
:00000001FF
