S006000068616CC4
S2140000000C943E03189518951895189518951895FC
S2140000101895189518951895189518951895189573
S2140000201895189518951895189518951895189563
S2140000301895189518951895189518951895189553
S2140000400C94B80218951895189518951895189543
S2140000501895189518951895189518951895189533
S2140000601895189518951895189518951895189523
S2140000701895189518951895189518951895189513
S2140000801895189518951895189518951895189503
S2140000900C941202189518950C9440021895189511
S2140000A018951895189518951895189518951895E3
S2140000B018951895189518951895189518951895D3
S2140000C01895189518951895189518952501A0094E
S2140000D0CA08202A09012A09012A091145090B998B
S2140000E009017E09012A09012A09012A09027E0955
S2140000F005F10801450901E80803CD080245090392
S2140001004509FB00789408951FB7F89400E800931B
S214000110610001E0009361001FBF0895A89504B731
S214000120077F04BF0091600008610093600000E054
S214000130009360000895E8DFF1DF0E949A0201E074
S2140001400E940901DFDF0895013620E0120734F02F
S2140001500B3720E0120714F401E001C000E010E0C5
S21400016008959A938A93C8018C010E94A400012BDB
S21400017019F080978C0101C08C018991999108959E
S2140001809A938A93C8018C010E94B1008991999133
S21400019008950E949B0001E010E01A930A9300E085
S2140001A010E01A930A9300E514E00E94390724969B
S2140001B008E714E00E94390701D0FECF8A930E9418
S2140001C08E02802F082F10E00E94C000802F8634F9
S2140001D009F402D0899108959A938A934091E7048E
S2140001E05091E80460E070E000E412E42FE030E0B4
S2140001F00E94C0033695279517950795C8019A93D0
S2140002008A930DE914E00E94390722968991999104
S21400021008959A938A93902F80E0913039F400E005
S21400022011EE20E030E00E943F0101C085E8082F73
S2140002308991999108950E947006B02FC901A12F47
S214000240B13031F42A2F8C010E947501402E01C076
S2140002504424042DE5E00C9481060E947006B02F1D
S214000260C901A12FB13031F42A2F8C010E94C6019A
S214000270402E01C04424042DE5E00C9481060E9423
S2140002806D06C801D90144E050E060E070E08C01E2
S2140002909D010E9498030050174F224C3F4F2801A3
S2140002A0390148E050E060E070E08C019D010E945A
S2140002B09803A801B901820193010E94C003F801C6
S2140002C031978F01012F10E00093CD000E2F009381
S2140002D0CC0002E00093C80008ED0093C90006E0D9
S2140002E00093CA00E8E00C947E06192E282EC8015A
S2140002F0422F3091C9003F7B3093C9003091E00413
S214000300232F3091E104532F521728F039E0351B84
S214000310320F032E04C0322F3A95351B032E0416D7
S21400032010F4102D01C0142F012F1130C8F0FC015D
S21400033030816091E10470E0FB01E453FB4F3083B1
S2140003403091E104393021F430E03093E10405C007
S2140003503091E10433953093E1041A950196E5CF88
S2140003603091E404332351F430E0F901E453FB4FB9
S21400037030813093CE0031E03093E4043091C900F0
S21400038030643093C900822D912D0895AC01C801C8
S21400039030E00091E504002311F400E041C0009134
S2140003A0C9000F770093C9000091E5040A3058F0A1
S2140003B00091E3040093E2040AE00093E5042A3087
S2140003C048F02AE007C00091E504021718F40091EF
S2140003D0E504202F322F2130E8F00091E20410E0EF
S2140003E0F801E453FB4F0285FC0100830091E20410
S2140003F003950093E2040091E5040A950093E50452
S21400040001962A950091E2040A3029F700E000934D
S214000410E204E1CF0091C90000680093C900032FF1
S214000420CA010895FA93EA934A933A932A931A9341
S2140004300A933FB74BB70091E3041091E504139578
S2140004401093E5042091CE0010E0F801E453FB4F32
S21400045022871091E304193021F410E01093E3048E
S21400046005C01091E30413951093E3044BBF3FBF00
S21400047009911991299139914991E991F991189524
S214000480FA93EA933A932A931A930A932FB73BB7B1
S2140004900091E004093021F400E00093E00405C078
S2140004A00091E00403950093E0040091E0041091AD
S2140004B0E104011751F00091E00410E0F801E45364
S2140004C0FB4F00810093CE0003C000E00093E404DD
S2140004D03BBF2FBF0991199129913991E991F99163
S2140004E018958A932197802F888308810A3051F4C3
S2140004F00DE0088311E09E0101E00E941B0100232D
S214000500C9F3888311E09E0101E00E941B010023CD
S214000510C9F300E010E0219689910895219711E033
S2140005209E0101E00E942D010023C9F3088110E01E
S2140005302196089500E400937B0000917A000F77DF
S21400054000937A0003E000937C0045E050E020E052
S21400055030E006EE14E00E94300704E000BF02EC34
S2140005600093810000E206BB00E200936F0008954E
S2140005701A920A927A936A935A934A933A932A93D0
S2140005801A930A930FB61BB61FB7012FF894109153
S214000590E60413951093E604409186005091870078
S2140005A09A014091E9045091EA042417350708F4AB
S2140005B000004091E9045091EA04B901641B750BF0
S2140005C06093E7047093E8042093E9043093EA0408
S2140005D00FBF1BBE0FBE0991199129913991499100
S2140005E05991699179910990199018959A938A93DF
S2140005F0C801082F0E9471028991999108950E945E
S2140006006D062801C901DA0166247724082F092B14
S21400061019F400E010E021C001E0401600E05006AA
S21400062041F002E0401600E0500619F00FEF1FEF11
S21400063014C00A2F0B2B81F0FC01008110E0D6DFDE
S214000640019611231AF40FEF1FEF07C001E0600EAA
S21400065000E0701E1197EDCF8301E8E00C947E0653
S21400066008959A938A932297C801888399839E0156
S21400067001E00E943003F9CF0C9431030FE40DBF64
S21400068004E00EBFC0E0D4E00E941107002311F082
S2140006900E9473070E94C9000E9462030C943C03E8
S2140006A00E946D063801A9010E948403C801A801B2
S2140006B089010E946403601A710A8C019301E8E0C4
S2140006C00C947E060C943C03149F102D059F100D71
S2140006D0049F002D110D089500241124EFE0001F43
S2140006E0111F001C111C0416150610F0041A150A1A
S2140006F0EA95AAF7001F111FA0010095109508950E
S2140007005195419550400895FF27552312F4F16006
S214000710F7DF112312F4F09507D00E946C03F0FD6A
S21400072003D0F1FDEDCF0895119501951040089581
S2140007302224349F302D259F300D169F300D079FA5
S214000740300D249F202D310D159F200D311D069F45
S214000750200D311D149F102D210D321D059F100DEB
S214000760211D321D049F002D110D221D321D0895DE
S2140007704A952AF03695279517950795F9CF089547
S214000780002411241001E0E2EA9592F0001F111FE8
S214000790221F331F001C111C221C331C04161506B6
S2140007A02606370688F3041A150A260A370AECCFF7
S2140007B0001F111F221F331FA001B10100951095C5
S2140007C0209530950895FF27772312F4F16015D011
S2140007D0332312F4F09509D00E94C003F69508F46E
S2140007E004D0F69508F409C0089530952095109524
S2140007F001951F4F2F4F3F4F089570956095509568
S21400080041955F4F6F4F7F4F0895FF27112477FB69
S214000810660F771F089409F4771F679517F8EE2779
S214000820002437FB220F331F089409F4331F279543
S21400083007F8089527FD0EC0EE0F001F111F221F98
S2140008403A953230B8F7332319F427FD31E002C069
S21400085027FF30E0E03821F400FF08940EF4889477
S2140008600F4F1F4F2F4F3F4F323038F4332319F4BA
S21400087027FD31E002C027FF30E03F3F29F0220F7E
S214000880000C379527950895A8C0E02F012F122F4A
S214000890232F3EE9D6CF0024F8CF332362F0BFDF04
S2140008A0432F4F5740F0403240F03FEF00C02FEF4D
S2140008B01FEF0FEF089533278CC0322F212F102FF4
S2140008C00E2F4F5141950E94B80307FE08950C94D1
S2140008D0F503F901EE0FFF1F37FBFF3F31F0EF2B5B
S2140008E0E12BE02B8894B8940895E02BE12B21F0BF
S2140008F008949894B8940895989488943894089591
S214000900FB01EE0FFF1F77FBFF3F31F0EF2BE52BD0
S214000910E42B8894B8940895E42BE52B69F3E8CF8C
S214000920EFDF68F021F43723262F8A010895372F4A
S214000930FBCFE6DF20F00BF008957327EAF751C0EF
S214000940C8DFE8F3B3F361F3DBDFC8F383F3A1F3A7
S2140009505CDF401751076207730731F4011411F189
S2140009600024E89488942BC078F0332E372F732D0C
S214000970322E262F632D312E152F532D302E042F79
S214000980432D302C012C132C371739F066955795CC
S2140009904795F795E0407395F7CFE7FBEE0FE0E05D
S2140009A010246AF0EF0F041F151F261F60F427950A
S2140009B017950795E79508F46894339542CFEF0BA3
S2140009C0040B150B260B3DCFE0E87E27B9CF302D64
S2140009D0307822271127002708953FE7302920E89E
S2140009E0F9CF3FEF2FEFF6CF8BDFD8F3D1F3707848
S2140009F03727089585DFA8F3A3F3F9CF3078372794
S214000A0093CF67DF70F383F3A9F37ADF50F3B3F382
S214000A10A9F3FBDE0124E8943F57E040370FEF1FB1
S214000A2012F0D9F603C03A3E90F26894E0E00A92DB
S214000A30AA933A93AA27332422243327049FF0014B
S214000A40059FF00D712D731F149FF00D711D221C54
S214000A50069F700D211C331C159F700D211C331E24
S214000A60249F700D211C331E169F200C311CAA1FBC
S214000A70259F200C311CA31F269F300CA11D3991E9
S214000A805EF43395A695379427947795F795E79572
S214000A9033953130BCF316C0AA2322F0332351F429
S214000AA0339510C0339571F4A991099096CFA7FDA0
S214000AB009C03A95EE0FFF1F771F221C331CAA1F92
S214000AC03230A8F7E894FE2B09F068942A2F8101AB
S214000AD0E72FA9910990BECE13DF10F00BF087CF59
S214000AE080CF0EDFE9F3E0F3032E072670CF032E48
S214000AF0072673CFEEDEA0F37BF399F301DF80F3D6
S214000B009BF3A9F382DE012427FD06C0000F111F08
S214000B10221F3150E040F8CF67FD06C0440F551F36
S214000B20661F7150F040F8CFE894371BEF0B315832
S214000B30EF4F2AF0EE23E9F63F3FD9F203C03A3EE4
S214000B40A8F26894E0E0F0E01124139440175107EF
S214000B50620738F0315008F46894000F111F221F06
S214000B60EE1F041B150B260BEF0B000F111F221F89
S214000B70EE1F0A9279E17A95AAF004171507260760
S214000B80EF0730F0041B150B260BEF0B089401C083
S214000B908894111C221C331C001C000F111F221FDE
S214000BA0EE1FE9CFF0F9E894E22BE12BE02B09F0F9
S214000BB068940694379427941794E79508F46894F5
S214000BC07395B9F30990332311F0F0FF09C03694FA
S214000BD027941794E79508F4689433953130BCF35E
S214000BE0012D122D232D36CE8BDEA0F072DE90F076
S214000BF029F0E32FE7273AF47317089581DE51F0C2
S214000C004EF008940895041715072607370719F0BD
S214000C1016F4B8F78894089577916791579147919D
S214000C20179011FA279037900895F9DF041B10E00B
S214000C3003C0F4DF041B150B20E030E005C0ECDF3A
S214000C40041B150B260B370BB8F010FC17C047918A
S214000C500790E00FF11F0417100540E02407340743
S214000C6058F436F406910024F101E01BF0090994CB
S214000C70E00FF11F27903790F101099411F4D6F791
S214000C80F1CF31960EF0319650E060E070E047917B
S214000C904B3F48F089F34F3F29F04E3F11F07791D4
S214000CA0679157914791041B150B260B370B39F3A9
S214000CB018F3E7CFAF93BF93D80101900D92415040
S214000CC05040D9F7BF91AF910895FA92EA92DA921E
S214000CD0CA92BA92AA929A928A927A926A925A92EF
S214000CE04A92BA93AA939A938A930895FF84EE84BD
S214000CF0DD84CC84BB84AA84998488847F806E80BB
S214000D005D804C80BB81AA8199818881F0E0EC0FE0
S214000D10FD1FEF01089502D02DD00EC04A928A938F
S214000D209A93AA93BA938D914D90ED91FD910D9063
S214000D301D902D903C900895099119912991399113
S214000D404991599169917991001F111F221F331FF4
S214000D50441F551F661F771F0095109520953095E8
S214000D604095509560957095B991A9919991899102
S214000D70499008950F931F932F933F934F935F933C
S214000D806F937F93002711279801A801B801B7E059
S214000D90A8E09F91AA95DAF0991F001F111F221F45
S214000DA0331F441F551F661F771F081714052E078D
S214000DB03F07400551056205730560F3081B1409DB
S214000DC02E0B3F0B4009510962097309E3CF9A9332
S214000DD0A8E0BA95EAF60895A1DFCCDF2896C4CF3E
S214000DE01095209530954095509560957095019595
S214000DF01F4F2F4F3F4F4F4F5F4F6F4F7F4F0895FF
S214000E008081081781811807828128078381380727
S214000E108481480785815807868168078781780717
S214000E20089501E00895F80103C0319641505040FE
S214000E30042F052B29F000810217B9F78F010895BA
S214000E4000E010E00895BD01D801F90104C0219129
S214000E502D9341505040242F252BC9F7DB010895D0
S214000E60F80103C0219341505040342F352BD1F761
S214000E70089522979E012E5F3F4F28833983BE0137
S214000E80A80121E030E00AE31FE00E942208229633
S214000E9008959A938A932197C8010F3F0FEF900702
S214000EA061F0888341E050E09E018A010E94FF02C3
S214000EB00130104011F48C0102C00FEF1FEF219695
S214000EC089919991089520E008D0E9F708953BBFED
S214000ED027913BB702D0D9F708952D9301501040C3
S214000EE0202F212B089508E9402E0EE1502E00E019
S214000EF0602EF201362D6BBE07911691F201EE5F61
S214000F00FF4F3F4F3BBFA791B691F201362DEC5FE6
S214000F10FF4F3F4F3BBF479157916691242F252B9C
S214000F20262B21F0FA01362FD2DF01C0CCDF07E0F6
S214000F30400E00E0501E601EA201662D463A5E413D
S214000F406040B8F20895F8013191321729F08F0108
S214000F503323C9F700E010E00895F80101C0319688
S214000F6020812223E1F7E01BF10B8F010895BC01DD
S214000F70F8011381107881E090E022812F77228398
S214000F809383B9F420813181232B99F419C0422F21
S214000F905381440F551F2181220F20E0221F422B30
S214000FA04283538320813181220F331F2083318374
S214000FB00197228127FFEBCF2F7730E02283338300
S214000FC03381312B33838C01CB0108950E94710647
S214000FD0C801D901F90122813381220F232F221F54
S214000FE030E02F3F69F410E0E02FF92F3083318393
S214000FF0FD0102810F7711F002E021C001E01FC061
S214001000222341F48D010E94B7079801013040E089
S214001010104084F4FD01028113810F7710781F635E
S214001020028313832E573040FC01208331830FEF59
S2140010301FEF05C000E010E0FC0140834183E4E0C0
S2140010400C948206E7D2EF97A09738012A01DB01BD
S2140010502887398700E00A8F0B8F34D2002319F4D3
S2140010600A8D1B8DBCC1053279F400E00E870F8710
S214001070088B098B0A8B0B8B0C8B0D8B0E8B0F8BB7
S214001080088F098FA6D209C041912F019E018301C6
S214001090BED6112312F7A1C1216011D20052E1F38E
S2140010A0035059F0085029F0025029F0035039F047
S2140010B008C02260F2CF2460F0CF2860EECF206117
S2140010C0ECCF00810A3271F405D20E8F1F8F0E8D81
S2140010D0112332F41195019510400E8F1F8F246056
S2140010E0D7D10FC03E8F3F8F0AC04E8D5F8D4F3FCA
S2140010F00FE7500719F09CD18E8F9F8FC9D1E5D18D
S214001100A0F3E0D10E3221F00FEF0C8F0D8F17C039
S214001110D6D10A3229F4DED10C8F1D8FB9D10FC07B
S2140011203C8F3D8F0AC04C8D5D8D4F3F0FE75007BB
S21400113019F07ED18C8F9D8FABD1C7D1A0F328A399
S21400114039A3F20120810BEA14E00E94A307012BC9
S21400115021F0F20101912F0101C000E00AA3083638
S21400116029F4B0D1083651F402E606C00C3631F444
S214001170A9D10C3619F401E70AA385D174D10C87DE
S2140011801D87F2019081092FECECF0E0FBBFF0E048
S2140011900C9415063CD105E2D1C09CD10A871B876A
S2140011A04C8D5D8D0A8555231AF40E94AD070DC03F
S2140011B010D20E941307202F212B29F02A853B8569
S2140011C0021B130B02C00C8D1D8D088B198BBFC024
S2140011D081D120E001D314D146D10A871B8728E7A6
S2140011E0A5C00AA1025671F1065079F10250A9F085
S2140011F0025039F0055089F0035039F1065029F1B4
S21400120024C038D14A8D5B8D652F660F660B52D190
S21400121040835183628363839AC00D901C9011971C
S214001220800110D10A8D1B8DCAD2F0010080F18199
S214001230E02D008311832283238324832583268342
S214001240278385C014D133D182C011D13B8D2FD1D5
S21400125031837DC00AA10C3457D1BED22A833B838A
S2140012600B8107FF03C040D10DE20AC008A101FFB1
S21400127003C03AD10BE204C000FF03C035D100E240
S214001280BCD0E6D08E01E4D262C08AA18C3611F4BE
S2140012903BD111C0813711F499D103C08A3696D15B
S2140012A041F41FD1085F34D144815581668177812E
S2140012B003C012D18ED17BD1B0D020E0883649F061
S2140012C0823619F40883298305C0843711F08A37DB
S2140012D011F482D295D008A103FF27C0A6D084D0EF
S2140012E07F8176D211F1092F00620837F1F4B8D069
S2140012F000E383D02F5F3F4FFED017C09D010AA1A9
S2140013000DD18BD071D0E4ECF4E064D21CF4ECD0B8
S2140013100DE20AC008A101FF03C0E6D00BE204C03C
S21400132000FF03C0E1D000E268D092D08E0174D1F5
S2140013300EC06DD04BD1D5D085D000815ED007C011
S214001340D3D005E25AD0992311F08AD0D4D09BD0BE
S2140013508E8D9F8D0E851F854DD00C891D894AD098
S2140013600889198947D00E891F8944D00A891B89A4
S21400137041D0088D198D3ED008A102FD02C091D043
S21400138061F16E857F85AE014D5D5F4F85D029F595
S21400139060E34C895D8987D001F1688979894A853F
S2140013A05B857AD0D1F460E34E895F897CD0A9F062
S2140013B06A897B894A855B8508891989400F511F90
S2140013C06BD059F460E3488D598D6DD031F008A18B
S2140013D002FF43CE66D009F040CE0FEF1FEFEF9628
S2140013E0A096E8E00C947E062A813B814C815D81C4
S2140013F06E810895801B910B089581D00083089517
S2140014002A832B832C832D832E832F83089528D025
S214001410C90101968E879F870895088319832A83BA
S2140014203B834C835D836E837F8308811981089597
S214001430808190E00AE010E00E946403800F911F14
S214001440C09708950E5F1F4F0D931C931197089534
S2140014500AD006D0020F131F0A871B87292F08956C
S2140014602E853F8508958E010D5D1F4F089502D08D
S2140014702A8D08950D911C91119798012E5F3F4F6C
S2140014802D933C93E3CF01E0400E00E0501E0895FC
S21400149001E0400E531E08959E018301D4D4012B13
S2140014A0089560E2AC019E01830196D0F8CF02D089
S2140014B020830895F8010081F181E02F089501E06E
S2140014C0400E531EF20100810895F2010081005380
S2140014D00A300895ED91FC9104D0B4DF00811181AB
S2140014E0089511978F010895BBDF89010F5F1F4F85
S2140014F00E871F870895F9DF02D090830895FE01B6
S214001500B396E20FF31F0895ED91FC91EADF0C5FAE
S2140015109ADF008111812281338108950D010256E0
S21400152061F10650B9F10250C9F0025039F0055089
S214001530A9F0035079F10650E1F02CC0D90146D04D
S2140015408F010C5F1F4FD9010D931C93E2DF432FD1
S214001550440F440B542F642F742F22C023D0085FEF
S2140015602BD01D912D913D914D915D916D917C916A
S21400157017C027D02ED01BD013C014D00E5F1CD09F
S214001580102F110F110B212F312F412F512F612FAB
S214001590712F06C016D09BD2422F522F622F722F69
S2140015A0D0010895F901A081B1818D01089540E030
S2140015B050E060E070E008951F4F008311830D91A6
S2140015C00895F0DF0E5FF8DF1C910895ED91FC9111
S2140015D0089520E030E008951DD021976883D80153
S2140015E0C9012A016624772404C001E0600E00E0E9
S2140015F0701E6414750454F461E070E0AE019C0142
S2140016008D0121D4012B89F300E001C001E010E038
S2140016102196E7CE0C946D060E9465066897280111
S214001620922FF801048515850A831B832F3611F443
S21400163008E007C0022F0062083711F00AE001C078
S21400164000E110E0C9D00CE3602E77248E01085F1D
S2140016501F4FD6D088849984AA84BB84CC84DD842A
S214001660EE84FF84243611F02936C9F4FA92EA9201
S214001670DA92CA92BA92AA929A928A92E4ECF4E029
S21400168009911991299139914991599169917991C5
S214001690A1D02CF4192DB0D00E94F00694D0ABD077
S2140016A097D099F4F201048D158D012B71F4088101
S2140016B0083009F051C000A103FF4EC00BE3602EB6
S2140016C000E3EA81FB8103AF47C00FEF600E701E98
S2140016D06E827F826E80A9DE72D0088719872A877D
S2140016E02B872C872D872E872F8779D00E94EC0694
S2140016F0202F205D2A3318F0092F0155200F0E8168
S2140017001F814A815B81400F511F4C835D83EC81B2
S214001710F52F208364D00E948B0655D059D039F01F
S214001720F201CAD12C813D810217130770F208819D
S214001730083091F4F20100A103FF0EC0EC81FD8198
S2140017400081003349F00FEF600E701E00E3EA815F
S214001750FB81E60DF71D00830CE310E00619170960
S214001760F2012FD32A813B81260D371D228733872E
S214001770248D358D021713072CF41ED300A10F7E7F
S21400178000A319C03323BAF420A12471203199F4A0
S214001790668C778C26853785621A730A2489358984
S2140017A0621A730A601A710A01E0601600E0700699
S2140017B014F0648A758A6896E0E10C947606212F08
S2140017C0220F220B0895480159016A017B010895F2
S2140017D0E4ECF4E00C9400070883198308959E0156
S2140017E0285F3F4F8E01005F1F4FF90109D003D0DD
S2140017F0DE015096089584019501A601B70108956B
S21400180048E050E00C945A060E946B06C801D901C5
S2140018104A014424552400E2602E01E4702E10C0D4
S21400182080FA46F48C019D01A201B3010E940105D5
S214001830C801D90195948794A201B30139D12BD15F
S214001840082D092969F78C019D01EAE00C947C06B5
S2140018500E946506AF977801D22E4E0107E040D170
S214001860EE2DF12F4080518062807380048D158D9F
S214001870112312F406E007C0012B41F4022F006288
S214001880073621F401E010E0048F158F97018E01D2
S2140018900E94E6079801A8010D2D0156223010E09F
S2140018A0310741F4FDD018F422EB34E00DC026EBEE
S2140018B034E00AC04130504064F0F2D018F42AEB0D
S2140018C034E002C02EEB34E043E050E0F5D056D2D0
S2140018D0E0C0432B29F460E070E068836983D2C0DF
S2140018E066DEE6D00E94F40510F400E870269DDD62
S2140018F0EED047E955E70E94980340EA56E861E0D3
S2140019000E94E30369DF47E050E00881401B510B6B
S214001910413000E050071CF0CBD076DF0AC051956E
S2140019204195504010E020E83FE36EDFBFD00E94B4
S2140019307A05280139010D2D0062063621F48881CA
S21400194099810A9602C086E090E0F701A48CB58CD7
S214001950A80EB91E0BE0A01600E0B0061CF00AE0C8
S214001960A02EBB2400E30F834E01B9D0B3D094F170
S2140019709FD00E944D040B831C832D833E838B8156
S2140019809C81AD81B32FABD008E00A8398D0C42EDB
S21400199096D0C801D90100E3C00EF401C2924F01EF
S2140019A00A810A950A8391F79AD008EFA00E0FEFE6
S2140019B0B01E90D0DCF20B811C812D813E810E94EE
S2140019C04B0474D00E94E40440E25CEB6EEB7CE4D3
S2140019D062D0CECF8E01085F1F4F801A910A540145
S2140019E04E0108E008C00FEFA00EB01E1EDD01502D
S2140019F01040F2DE01E074D0F4010081003399F368
S214001A000D2D0062063621F488819981019608C062
S214001A100D2D0062053611F481E001C080E090E0F3
S214001A20F701648D758D680F791FA616B7060CF43E
S214001A30B50177233AF16A157B0544F4F401E60F05
S214001A40F71F0081053310F009E301C000E39B0196
S214001A5002C06150704021503040F401E20FF31F85
S214001A6010811017B1F3093319F4012F0395008381
S214001A70332342F40FEF800E901E6F5F7F4FD5DC4E
S214001A80C4D1AADED2DC1A930A93A4012D2D8701B5
S214001A902BD0AF9691CE0E940105280139010895FA
S214001AA023E0F701208B118B0A310895A801B901B4
S214001AB0820193010895FD010285138508954AE089
S214001AC050E060E070E08C019D010C94C00377DE6E
S214001AD0322F089501E0A01600E0B006089508E051
S214001AE0800E00E0901E08950E946A062A97D8018C
S214001AF0A22E3A014B014D885E88F801848D958DA3
S214001B0001E0801600E090063CF499248824839433
S214001B1002EC602E04E0702E022F0062063669F09A
S214001B20073609F0A4C01CEF41161FEF51060CF44F
S214001B308DC0481659060CF089C011E0410E10E021
S214001B40511E063661F000A103FD04C088169906F2
S214001B500CF4C4018419950912F480E090E034D1A5
S214001B60B801640F751F21E0421620E05206A4F566
S214001B703CD140E3FB014083813040E0940724F4ED
S214001B80FD0140A143FF0BC0A9012F5F3F4FFD01A0
S214001B90208B318B2EE2F801E40FF51F2083FCD05A
S214001BA0821793072CF42C015194419420E0520A9A
S214001BB0F3D0FD01268B378B840D951DE8D0828AE5
S214001BC0938AA401930160897189060F171FD6D0E6
S214001BD088199909FD011AC084149504D4F4A40147
S214001BE0E4D0080D191DEDD048185908468A578AC2
S214001BF0D8D01CF400A103FF09C02EE2E5D0C0D067
S214001C00FD010289138901D1028B138B808F918F7E
S214001C109BC0A201CAD0040D151DD3D08418950808
S214001C20C0D01CF400A103FF08C04089512F042F28
S214001C30ECD0C7D02EE240DFA3D0A6D0640C751C33
S214001C40930139DF60897189C4D07EC088169906F1
S214001C501CF400A103FFC401019712F480E090E099
S214001C6007E6A01611F405E601C005E4A02E40899B
S214001C705189BBD021DFF30161913F01F801E40FE8
S214001C80F51F6083813040E0940724F4FD0140A1F5
S214001C9043FF16C0422FB9016F5F7F4FFD01608B77
S214001CA0718B2EE2F801E40FF31F2083813020E0D1
S214001CB0920734F02FEF820E921E66D0930189D0E1
S214001CC0FD016284738400891189600E711EF30120
S214001CD0A19255201AF00BE290D006C00DE28DD0EE
S214001CE05194419400E0500A80E090E00BC02AE056
S214001CF030E082010E945003FE01E80FF91F2083A6
S214001D002801019601E0401600E0500684F7823074
S214001D10900734F400E2A02A05E6A01609F46BD07A
S214001D20082F092B49F467D009C00197FE01E80F78
S214001D30F91F0081005D60D034D0BCF7BCDE60D0F7
S214001D40601A710A628A738A00A10471003191F4E4
S214001D500685178555D02689378954D02289338938
S214001D6051D0208D318D4ED0268D378D021713071A
S214001D700CF422D02A96EDE00C947B060C942307F4
S214001D80040F151FF80194CB02D0A40108958815FE
S214001D9099050CF44C010895920131952195304037
S214001DA00895813000E09007089593018B01E6DFE7
S214001DB0FD01008911890895201B310B248B358B7A
S214001DC00895008B118B08950285138540895189EB
S214001DD00895060F171FEBDF080D191D008B118BDA
S214001DE088199909868B978B08959A012F5F3F4F24
S214001DF0208B318B089500E3F30101933F01089592
S214001E0020893189020F131F08950F5F2ECBBA93D6
S214001E10AA93F801D901242F18960D911C911997B1
S214001E200995FD0100871187012B41F0028D138D66
S214001E30ECDF028F138F00E010E002C00FEF1FEF01
S214001E40A991B9910895E6DBD801C9012A013B01A1
S214001E5000E010E003C02FEF620E721E262D272929
S214001E6041F0F20141912F019C018D01D0DF112339
S214001E7092F7B7CA0E947106D801822F022F10E08F
S214001E800E9449070817104011F48D0102C000E0B7
S214001E9010E0E4E00C9482067C005004A61E001FAE
S214001EA000CC040000002D2D2057656C636F6D6517
S214001EB020746F2041546D656761205465737420EB
S214001EC05625642E25303264202D2D0D0A002D2D2A
S214001ED0204275696C64206F6E3A2031323A323295
S214001EE03A353820404E6F76203234203230313248
S214001EF00D0A000D0A467265713A253032640D0AE5
S214001F0000686A6C747A4C006E616E004E414E003A
S214001F10696E6600494E4600300000000000000072
S206001F200000BA
S20801DFFC5A5AA5A51D
S804000000FB
