:1000000040040020BD310000F32D0000F52D00005C
:10001000F72D0000F92D0000FB2D0000000000006E
:10002000000000000000000000000000FD2D0000A6
:10003000FF2D000000000000012E00006F1A0000DC
:10004000032E0000052E0000072E0000092E0000E0
:100050000B2E00000D2E00000F2E0000F12D0000D1
:10006000051A0000112E0000132E0000152E0000AE
:10007000172E0000192E00001B2E00001D2E000060
:100080001F2E0000F12D0000212E0000232E000065
:10009000252E0000272E0000292E0000CD2500006F
:1000A0005D2800002B2E00002D2E00002F2E0000BA
:1000B000312E0000332E000079190000352E00008B
:1000C000372E0000392E00003B2E0000F12D0000DD
:1000D0002DE9F04FA1B017461C4601AD6860A9603C
:1000E0000020E86211AE4FF0FF396FF0004802E0E7
:1000F000E86A401CE862387818B9E86A21B0BDE8BF
:10010000F08F252807D100206861A861E861286286
:100110006862A8620BE017F8011BA8686A6890473C
:10012000A8600028E4D14846E8E740F0010017F84D
:10013000011F2029F9D023290DD02B2904D02D29E6
:1001400006D030290AD00CE040F0020080B2EEE781
:1001500040F00400FAE740F00800F7E740F0100034
:10016000F4E72A290DD12268111D21601168696305
:10017000002904D54942696340F0040080B27F1C25
:1001800012E00021696309E0696B414505D001EB8C
:10019000810302EB4301303969637F1C3A78A2F195
:1001A0003001C9B20A29EFD339782E2918BFC5F812
:1001B00030901DD117F8011F2A2906D12268111D80
:1001C0002160116829637F1C12E00021296309E086
:1001D000296B414505D001EB810302EB4301303926
:1001E00029637F1C3A78A2F13001C9B20A29EFD302
:1001F000288739780FF6DC3000F00AFE08B117F8CE
:10020000010B8DF83E009DF83E00682804D1387837
:1002100068280AD1622005E06C2806D138786C285D
:1002200003D171208DF83E007F1C11A828613A7817
:100230001046253825D01C3877D0001F022874D9E5
:10024000133800F09E8009386FD0801E00F0328194
:10025000401E00F0DB80401E022866D9001F00F01F
:10026000D580401F36D0401E00F08B80401E23D02A
:10027000C01E0CD0801E00F08480C01E00F0818063
:1002800020E16869411C69612521815524E12168CB
:10029000081D20600868E8602A6B002A02D500F07B
:1002A000C3FD07E0002100F0DBFD00281ABFE9686C
:1002B000401A286BA8610FE12168081D20600868BA
:1002C0000021CDE9000111A8E860782100A800F024
:1002D00093F901E19DF83E0062281FD068280DD0F7
:1002E0006A2812D06C2802D071280ED07428216898
:1002F000081D20600868E96A0160EDE0E86A22688C
:10030000111D216011680880E6E0E86AC1172368C2
:100310001A1D22601A68C2E90001DDE0E86A22685D
:10032000111D216011680870D6E02068C01D20F002
:1003300007002060034603F108002060D3E90001B4
:10034000CDE90001002904D56869411C69612D21AE
:100350000DE0288F810704D56869411C69612B2154
:1003600005E0C00704D56869411C696120218155F9
:10037000686911A94018E860114600A800F0CFF99B
:10038000AAE09DF83E306C2B0FD0712B0BD120686A
:10039000C01D20F00700206084460CF1080020609A
:1003A000DCE9000106E06A2BF1D02168081D20601D
:1003B00008680021CDE90001682B04BFDDE90001D8
:1003C00080B20BD0622B04BFDDE90001C0B205D0C2
:1003D000742B01D07A2B04D1DDE900010021CDE995
:1003E000000195F8380000075ED5DDE9000109B984
:1003F000002859D042F02000782855D16869302172
:100400008155401C411C696182554DE09DF83E00BC
:1004100062280CD0682810D06A281AD06C2824D002
:10042000712816D0742820D07A280CD01DE02168BD
:10043000081D206091F900001BE02168081D206064
:10044000B1F9000015E02168081D2060086800214E
:1004500010E02068C01D20F007002060034603F173
:1004600008002060D3E9000104E02168081D206035
:100470000868C117CDE90001DDE90001002904DAAF
:100480006869411C69612D210DE0288F810704D521
:100490006869411C69612B2105E0C00704D56869C2
:1004A000411C696120218155686911A94018E860E3
:1004B00011460BE76869411C69612268111D2160C2
:1004C0001168E2E66869411C6961252181551AB10C
:1004D0006869411C696182557F1C686B6969401AB3
:1004E000296A401AA969401A696A401AE969401ADA
:1004F000A96AA0EB010A95F83800400711D4202022
:100500008DF84000BAF1010F0BDBD346012210A990
:1005100000A800F045FC00287FF405AEBBF1010BFC
:10052000F4D16A6911A900A800F03AFC00287FF410
:10053000FAAD30208DF84000D5F820B0BBF1010FA6
:100540000ADB012210A900A800F02AFC00287FF491
:10055000EAADBBF1010BF4D1AA69E96800A800F08B
:100560001FFC00287FF4DFAD30208DF84000D5F867
:1005700024B0BBF1010F0ADB012210A900A800F092
:100580000FFC00287FF4CFADBBF1010BF4D1EA6979
:10059000A869E968411800A800F002FC00287FF46F
:1005A000C2AD30208DF84000D5F828B0BBF1010F66
:1005B0000ADB012210A900A800F0F2FB00287FF45A
:1005C000B2ADBBF1010BF4D195F8380040077FF5CF
:1005D00092AD20208DF84000BAF1010FFFF68BADEF
:1005E000012210A900A800F0DBFB00287FF49BADDE
:1005F000BAF1010AF4D17EE52DE9FA4B86B0054641
:100600006F696F2908BF082605D041F020007828BF
:1006100014BF0A2610263C24D5E9000181468B46EA
:100620009DF81820642A01D0692A05D1002903DA2F
:10063000D9F100096BEB4B0BBBF1000F0FD1B9F1F6
:10064000000F0CD1686B50B9082E44D195F83C00CE
:10065000000740D53B24302087F83B003BE0A4F165
:1006600001084446F017CDE9046048465946DDE9E3
:10067000042300F02BFCCDE90201CDE9009BDDE96C
:100680000223DDE90401A0FB029BDDE90001A0EBF0
:1006900009003030C0B23A2803D39DF81810513900
:1006A000081808F80700DDE9029BBBF1000F02D132
:1006B000B9F1000F03D02869E1198842CFD3082E81
:1006C00009D195F83C00000705D5E05D302802D03F
:1006D000641E3020E055C4F13C00E861E119296155
:1006E000696B884207DA081A6862A88F4FF6EF71C3
:1006F0000840A88710E000290ED595F83C1001F0BD
:100700001401102908D1A96BAA69891A6A6A891A81
:100710000C1A012CA8BF6C6208B0BDE8F08B2DE963
:10072000F24F8EB0054604AFD5E90001CDE90201D4
:100730009DF8380040F020008DF8000061280BD0B3
:10074000686B002848BF062005D405D19DF800003D
:10075000672801D1012068636968C1F30A5040F23B
:10076000FF7398421DD1080310D1286870B9032087
:10077000E8619DF838006138C0B21A2838D30FF20A
:1007800068610322286900F02FFCC6E10320E861BC
:100790009DF838006138C0B21A2826D30FF24061A4
:1007A000EFE7010017D1284600F056FC012812DBC4
:1007B000002400209DF80010612920D129693022F1
:1007C00001F8012B4A1C2A619DF83820612A0CBFD0
:1007D000782258220FE040F2FE316A6861F31E521F
:1007E0006A60441A4FF0FF30E4E70FF2F051C8E7B7
:1007F0000FF2F051C5E70A70A969891CA96110B907
:100800000026B0467FE19DF80000612840F0978007
:10081000686B00284CBF2126461C36B2771CD5E9F0
:1008200000ABDDE902010022002300F037FC3ABFF3
:100830008BF00040CDE902A0CDE902ABA4F10408A1
:100840008DF810200DF11109012F33DBDDE90201D4
:100850000022002300F03AFC2CD21C2102A800F058
:100860004DFCDDE9020100F0D5FC0446FF1F012F1D
:1008700009DB00F0FBFC02460B46DDE9020100F05B
:100880000DFDCDE9020109F20700072104E004F0A3
:100890000F0200F8012D2411012C01DB491EF6D5B1
:1008A000491E5CBF002200F8012DF9D500F20709AE
:1008B000012FCBDA0DF11100A9EB00010DF11107A9
:1008C000B142B8BF0E4636B2002E31D4304688420F
:1008D00006DA04A941184978082928BF0F2100D257
:1008E000002104AA821800E0761E401E12F8013989
:1008F0008B42F9D00F2904D104A941184A78521C1F
:100900004A70002803D504AF761C08F1040836B2FB
:10091000701E0DD4C1190A783032D2B23A2A03D3EC
:100920009DF838303A3B9A1801F80129401EF2D55B
:10093000686B002840F1E780701E6863E3E0DDE942
:1009400002010022002300F0A9FB05D2DDE902012B
:1009500081F00041CDE9020124B247F29750604393
:100960006F4990FBF1F80FFA88F8C8F107040027E7
:10097000DFF8B091012C19DBDDE902ABE00707D508
:10098000504659463A464B4600F048FD82468B4653
:100990006410384649463A464B4600F03FFD07464C
:1009A0008946002CEAD1CDE902AB21E064429246AF
:1009B000DFF874B114D0E00707D5504659463A46DF
:1009C0004B4600F02BFD82468B4664103846494664
:1009D0003A464B4600F022FD07468946002CEAD1F4
:1009E000DDE9020152465B4600F0EAFDCDE9020175
:1009F0009DF8000066280CBF08F10A000620696B0C
:100A00004618142EA8BF132630208DF810000DF1C3
:100A10001104464F012E33DBDDE9020100F010FC2A
:100A200004F1080104220A24B0FBF4F303EB830E63
:100A3000A0EB4E00303001F8010DB3FBF4F000EBF9
:100A40008004A3EB4403303301F8013D521EEAD188
:100A500001F10804083E012EDCDBDDE9020100F0B3
:100A6000EFFB00F00DFC02460B46DDE9020100F051
:100A700015FC00223B4600F0D1FCCDE90201CBE79A
:100A80000DF11100201A0DF111079DF811103029F8
:100A900006D1401EA8F1010817F8011F3029F8D02F
:100AA0009DF80010662904BF0FFA88F808F10101CB
:100AB00003D065290CBF012100216A6B8E1836B264
:100AC000B042B8BF064636B2002E1CD43146814231
:100AD00004DAC85D352828BF392000D23020CA1971
:100AE000521E00E0761E491E12F801398342F9D0E9
:100AF000392802D1C85D401CC855002903D57F1E86
:100B0000761C08F101080FFA88F0009033B23A46DB
:100B10009DF83810284600F00BF80FB0BDE8F08FB4
:100B2000A0860100000024400000F03F84D79741D8
:100B30002DE9F04385B00546894617461E46BDF9A6
:100B40003040D5F83480012E02DA01260FF29C27BE
:100B500049F0200066280AD0672840F086806FF0B0
:100B600003018C42C0F28780444580F28480641C7B
:100B700066280CD095F83C00000702D44645B8BF63
:100B8000B04624B2B8EB040848BF4FF0000828690B
:100B9000E96924B2012C25DA4A1C30230B54B8F140
:100BA000010F03DA95F83C10090702D52E211154E4
:100BB000521CEA6118EB040FB8BFC8F1000424B25C
:100BC0006142A962A044B045B8BF464636B22E6223
:100BD00032463946EB69181800F006FAA8EB060011
:100BE000E862C6E00818A64218DA3246394600F034
:100BF000FBF9E9697118E961A01BA862B8F1010F5E
:100C000003DA95F83C00000705D528692E220A541E
:100C1000286A401C2862C5F82C80AAE02246394682
:100C200000F0E2F9E8692018E861361BB8F1010F1D
:100C300003DA95F83C10090704D5411CE9612969DC
:100C40002E22425436B2B045B8BF464636B232467E
:100C5000E119E8692B69C01800F0C6F9E869301895
:100C6000E861A8EB0600A86283E0B9F1610F16D134
:100C70004FF0700918E0464504DA95F83C10090772
:100C800058BFB046B8F1010848BF4FF00008B9F1AD
:100C9000670F14BF4FF045094FF0650904E0B9F143
:100CA000410F08BF4FF05009E9694A1C286917F83D
:100CB000013B0B54B8F1010F03DA95F83C1009071A
:100CC00002D52E211154521CEA61B8F1010F11DB3B
:100CD000761E36B2B045B8BF464636B232463946C1
:100CE000EB69181800F080F9E8693018E861A8EBA2
:100CF0000600A862E8692969471807F8019B002CDB
:100D00005CBF2B2007F8010B03D52D2007F8010B42
:100D1000644200260DF1080824B2012C0EDB0A22E1
:100D2000214600A800F06FFD019808F8010B009C17
:100D3000761C24B2012CF2DA022E06DA49F02000E9
:100D4000652804BF302007F8010B1EB9302007F8D2
:100D5000010B09E0012E07DB761E02A8305C303063
:100D600007F8010B012EF7DAE86929694018381AEB
:100D7000286295F83C0000F0140010280DD1A869F5
:100D8000E9690818A96A0818296A0818E96A081898
:100D9000A96B8842BCBF081A686205B0BDE8F08341
:100DA00070B504460D4616460020002E10D015F8EA
:100DB000011BE068A2689047E060002806D0206B25
:100DC000401C20630020761EF1D170BD4FF0FF3033
:100DD00070BD0000686A6C747A4C00006E616E0031
:100DE0004E414E00696E6600494E4600300050F894
:100DF000041B61B150F8042BD30744BFA9F10103D0
:100E00009A18002342F8043B091FFAD1EFE7704714
:100E10000278C9B28A421AB11CBF10F8012FF9E753
:100E200018BF00207047000000F10103810704D0C3
:100E300010F8011B89B18107FAD10268B2F10131C2
:100E4000914311F0803F04BF50F8042FF6E710F8EB
:100E5000011B11B110F8011BFBE7C01A704700001D
:100E6000C9B2830706D0521E22D310F8013B994223
:100E7000F7D11FE0083A13D302F1040241EA01213D
:100E800041EA014150F8043B121F21BF4B40A3F13E
:100E9000013C2CEA030C1CF0803FF3D0C9B2001FC8
:100EA000083210F8013B521E28BF91EA030FF8D810
:100EB00018BF0120401E704713F0004C03D55B4261
:100EC000524263F100039CEA210C15D11B4229D147
:100ED00009424CD12AB18446B0FBF2F002FB10C2A9
:100EE000704700F097BCFCD30022002370470B0032
:100EF000020000210020704710B5644603D3494228
:100F0000404261F10001FFF7E1FF640004D3494270
:100F1000404261F10001244203D55B42524263F139
:100F2000000310BD904271EB030CE0D370B5B1FA31
:100F300081F4B3FA83F52C1BA340C4F1200532FAE7
:100F400005F63343A2405FF00046E64002E05B084E
:100F50005FEA3202841A71EB030524BF204629465A
:100F60007641F4D302000B003000002170BD012A4D
:100F7000B9D970B5140C20D0B1FA81F4B2FA82F567
:100F8000C4F120046419B4F12006D6D3B2405FF056
:100F90000044F440002502E052085FEA3303C61A19
:100FA00071EB020E24BF3046714664416D41F3D3AC
:100FB00002000B002000290070BD0C46B1FBF2F1CD
:100FC00002FB11452D0445EA1045B5FBF2F402FB86
:100FD000145580B240EA0545B5FBF2F002FB105211
:100FE00040EA044070BD00004AB38B0707D0521E90
:100FF00011F8013B00F8013B21D08B07F7D18307A3
:101000001ED1103A07D330B4B1E83810103AA0E836
:101010003810F9D230BC530724BFB1E80810A0E85B
:10102000081044BF51F8043B40F8043BD20724BFEA
:1010300031F8022B20F8022B44BF0B780370704765
:10104000083A07D3B1E80810083A40F8043B40F8E2
:1010500004CBF7D25307E4E770B4416801F00042D3
:1010600001210D4B44681C40446001D104686CB1FF
:1010700004684568E60F46EA45054560640004607B
:10108000491EEC02F4D544682340436043681A4388
:101090004260084670BC7047FFFF0F004FF4001C11
:1010A0001CEB410F94BF1CEB430F09E041EA030C1A
:1010B00050EA4C0C52EA0C0C03D2994208BF904201
:1010C000704714BF8B428242704700004FF4001CEF
:1010D0001CEB410F94BF1CEB430F09E041EA030CEA
:1010E00050EA4C0C52EA0C0C03D28B4208BF8242ED
:1010F000704714BF994290427047000070B5044693
:101100000D466068C0F30A5040F2FF72904209D168
:101110006068000302D12068002801D0022070BD61
:10112000012070BD010006D12046FFF795FF012880
:1011300001DB002070BD012D0EDB40F2FF71091AAA
:101140008D4209D36068002847BF00202E49002047
:101150002E49C4E90001E3E74142A942616806DA89
:101160002B4A1140401941EA0050606049E001F00B
:10117000004162681203120B42F480126260401E4A
:10118000451905F13500352803D361600020206042
:1011900070BD002215F11F0F05DA20352268606846
:1011A000206000206060684213D0521E9241D243FA
:1011B000C0F1200325689D4055EAD2722568C540DC
:1011C000666806FA03F32B432360636823FA00F092
:1011D0006060606808436060B2F1004F03D80AD1D4
:1011E0002078C00707D52068401C2060206810B90F
:1011F0006068401CB9E76068884202D12068002816
:1012000097D04FF0FF3070BD0000F0FF0000F07F7E
:10121000FFFF0F80F446400D40EAC120490006D28E
:1012200000F013F8004248BF6FF00040604700F044
:101230000CF84FF0004188428CBF0846404260479E
:10124000400D40EAC12049000CD240F00040490D59
:10125000A1F58061491C05D4D1F11F0154BFC840DC
:10126000C01770474FF0000070470000010040F1C8
:101270000880F446404200F004F851F00041604715
:10128000010009D0B0FA80F18840C91CC1F5846121
:10129000090501EBD02140057047000070B44FF004
:1012A000004591EA030F44BF6B4000F0BEBA841AB8
:1012B00071EB030604D26E40001BB1411219734159
:1012C0004FF4001C1CEB410F34BF7CEB430684E061
:1012D0000C0DA4EB1356362E7DDC012E43DC45EAC3
:1012E000C32343EA525312BFD20292025B08240581
:1012F00045EAC12141EA5051D2EBC020994125D4A1
:1013000007D1B0FA80F610FA06F164D0002020363A
:1013100008E0B1FA81F6B140C6F1200220FA02F2EB
:101320001143B0404FEAF474B4EB465434F0010674
:101330004FEA74040AD8D6F50016760D04F000447E
:10134000F04061FA06F25040F1404840C00A40EADD
:10135000415021F0004128BF5FEA500550F10000E4
:1013600044EBD12137E045EAC323DB0A45EAC1213A
:10137000C90AB6F120050EDD42EA0242120CC5F19F
:10138000200603FA06F6EB4042EA06056D42984154
:1013900061F100010DE062FA06F5F240554063FA92
:1013A00006FC82EA0C02F3405A406D42904161EB28
:1013B000030111F4801F05D1641E620502D06D0087
:1013C0004041494121F48011430875F1004350F137
:1013D000000041EB045170BC70471CEB410F15D26B
:1013E00023F0004352EA43060BD04FEA4C0CBCEB0F
:1013F000410F04D80C0D661E342EB7DDEBE7801AC2
:10140000994150EA410608BF0021E4E708BF1CEB00
:10141000430F28BF6FF00001DDE70000B0B581EA9F
:10142000030C0CF0004C40F2FF7515EA11541DBF7F
:1014300015EA1357AC42AF4239E0E41923EA4553A9
:1014400043F48013C90241F0004141EA505EC702F3
:101450001100A7FB020200284FF00000EEFB012064
:101460004FF00001E3FB072118BF42F001024018D2
:1014700000214941E3FB0E01A4F580640F0302D271
:1014800052004041494154F101046CDD470872F1BA
:10149000004250F1000051EB0451A1F580115CBFF6
:1014A00041EA0C01B0BD4CEA05510020B0BD05EA8F
:1014B0001357AC4214BFAF4241E050EA410E1CBF8B
:1014C00052EA430E02E061460020B0BD24423C4493
:1014D0001BD15FEA070EF6D0090302BF01460020C8
:1014E000AEF1140EB1FA81F7AEEB070401FA07FE74
:1014F0000C37C7F1200100FA07F7C8404EEA000E8A
:1015000023EA455343F48013A2E733F00043B3FAD0
:1015100083F704BFB2FA82FE77440B3FE41BB7F1B6
:10152000200E2FBF02FA0EF3BB40C7F1200E22FAA5
:101530000EFE38BF43EA0E03BA40641C82E750EA4D
:10154000410E14BF52EA430E6FF000014FF4001732
:1015500017EB430F8ABF194617EB410FB5E74CEA6B
:1015600005510020B0BDD4F10104B4F120070FDA19
:10157000C4F12007520828BF42F0010210FA07F513
:1015800001FA07F7E1BF2A43E0403843E1400FE0AA
:10159000352C98DCC7F1200452EA400220FA07F209
:1015A00018BF42F0010231FA07F0A1400A430021BE
:1015B00072F1004250F1000051EB0C01B0BD00008F
:1015C000F0B540F2FF7581EA030C0CF0004C15EA0F
:1015D00011541DBF15EA1357AC42AF42E5E0BC41C0
:1015E000C1F31301C3F31303801A994143F4801329
:1015F00004D2641E4000494180185941C90241EAA1
:101600005051B1FBF3F603FB1611A2FB0675D7EBA5
:10161000C020A94102D2761E80185941C90241EA70
:101620005051B1FBF3FE03FB1E11A2FB0E75D7EB6D
:10163000C020A94103D2AEF1010E801859418902A0
:1016400041EA9051760546EA8E2EB1FBF3F603FB94
:101650001611A2FB0675D7EB8020A94102D2761E97
:1016600080185941C90241EA50514EEA060EB1FBB9
:10167000F3F603FB1611A2FB0675D7EBC020A941B8
:1016800002D2761E80185941C90241EA5051B1FB7D
:10169000F3F703FB1711A2FB0735D3EBC020A941D9
:1016A00067F100070CBF004247F0010766F3D5273A
:1016B0004FEA1E31B80814F5806412DDBD0775F1DC
:1016C000004250EB0E5051EB045111F5801F5CBFEE
:1016D00041EA0C01F0BD4CF07F6141F0E041002097
:1016E000F0BDBD076D0840EA0E5041F48011D4F101
:1016F0000104B4F120060ADAC4F120060200E04039
:1017000001FA06F3E1401843B24015430EE0342CD1
:1017100013DCC6F1200445EA40056D0820FA06F204
:10172000154321FA06F0A1400D43002175F1004256
:1017300050F1000051EB0C01F0BD00205FEA0C01FC
:10174000F0BDCFB992185B41B3FA83F704BFB2FA88
:1017500082F6BF190B3FB7F120062FBF02FA06F33E
:10176000BB40C7F1200622FA06F638BF3343BA4021
:101770001CB1E419641E33E77F4231F00041B1FA35
:1017800081F404BFB0FA80F6A4190B3CB4F1200632
:101790002FBF00FA06F1A140C4F1200620FA06F698
:1017A00038BF3143A0403C1B1AE7AC421ABF05EAE0
:1017B0001357AF4212E050EA41061CBF52EA4306FB
:1017C000BFE750EA4107304661461CBF41EA055178
:1017D000F0BD52EA430C08BFC143F0BD00204FF4F6
:1017E000001616EB410F98BF16EB430F08BF16EB20
:1017F000410F24BFC14305E016EB430F0CBF614608
:101800004CEA0551F0BD91FBF2F303FB1211C0E964
:10181000003170477047000070B44FF0004591EA06
:10182000030C44BF6B40FFF742BD841A71EB030603
:1018300003D2001BB141121973414FF4001C1CEB81
:10184000410F34BF7CEB430443E00C0DA4EB135673
:10185000352E50DC45EAC323DB0A45EAC121C91213
:10186000B6F120050DDD63FA05F6EB4086EA0305C7
:10187000124218BF45F00105C01851F100010CD209
:1018800013E062FA06F5F2405540F3415A40B34086
:10189000F3405A408018594107D349085FEA3000A5
:1018A0005FEA350528BF45F0010501F580114208C2
:1018B00075F1004250F1000041EB045170BC4FF44F
:1018C000001C1CEB410F38BF70470020090D0905B3
:1018D00070471CEB410F10D252EA43060BD0BCEB11
:1018E000410F05D80C0DAB43661E342EB5DD02E06A
:1018F000AB438018594170BC704770BC7047000002
:1019000010B440B24109DFF82426012310F01F046F
:10191000A34042F8213010BC704740B2002809D5DE
:1019200040B210F00F02DFF80836D2180B0102F8AF
:10193000043C04E040B2DFF8FC250B0183547047FF
:1019400010B50400B4F1807F01D3012013E0200220
:10195000000A401EDFF8E01508600F215FF0FF303D
:10196000FFF7DBFFDFF8D40500210160DFF8D005C9
:1019700007210160002010BD10B5DFF8C805006820
:101980000400A0073DD5DFF8C005007864280FD318
:10199000DFF8B8050079002801D100F0A3F9DFF8DD
:1019A000A80500210170DFF8A8050021017024E0DE
:1019B000DFF89405007832280BD1DFF89005C07865
:1019C000022806D100F08EF9DFF8840500210170AD
:1019D00013E0DFF87405007832280ED1DFF86C05CB
:1019E0000079012809D1DFF864050021017100F0B8
:1019F00079F9DFF85C0500210170DFF85805022154
:101A0000016010BD38B5DFF8500500680400E0073C
:101A10002CD5DFF84805007814281ED2DFF83C05E5
:101A20004578DFF83805691C417000F0E5FAEDB241
:101A3000DFF828156918C870DFF820050078401C09
:101A4000DFF818150870DFF81405407814280DD356
:101A5000DFF808050021417008E000F0CDFADFF85A
:101A6000FC144978DFF8F4248918C87031BD10B52A
:101A7000DFF8DC040078DFF8D414C97890FBF1F2C9
:101A800001FB1200002822D1DFF8BC040078DFF847
:101A9000D01431F91000DFF8CC140988484340F223
:101AA000FF7190FBF1F000F2FF700400DFF8980482
:101AB0000078401CDFF890140870A4B22100DFF811
:101AC000A80400F0EFFADFF8A40402210160DFF8B7
:101AD00080040078401CDFF87814087010BD00B551
:101AE00087B0DFF8800440F2FF710180DFF88004E6
:101AF0004FF47A710180DFF87C04DFF874140988F0
:101B00006422514390FBF1F0FFF71AFF102006907A
:101B1000002005900020049008200390DFF8540472
:101B200002900020019000200090002300221E213E
:101B3000DFF8340400F082FA1E20FFF7E1FE0521F1
:101B40001E20FFF7EAFEDFF8040400210170DFF831
:101B5000FC0300214170DFF8F40301218170DFF8FC
:101B6000EC030121C170DFF8E40300210171DFF80B
:101B7000E00300210170DFF8D00300210170012093
:101B8000DFF8F41391F900108840DFF8F0130860D3
:101B9000DFF8CC03B0F9B400DFF8C8130988484374
:101BA00040F2FF7190FBF1F000F2FF71DFF8B80333
:101BB00000F078FADFF8B4030221016007B000BD3D
:101BC00080B50820FFF79CFEDFF8B4030121016017
:101BD00001BDDFF8880300787047DFF880130978CB
:101BE00000291ED0DFF874138978DFF87023891874
:101BF000C9780800DFF864138978491CDFF85C2392
:101C00009170DFF858130978491EDFF850231170DE
:101C1000DFF848138978142903D3DFF84013002232
:101C20008A70C0B27047DFF824130978012282401D
:101C3000114219D0DFF814138978012914D1DFF883
:101C400044130978491CDFF83C231170DFF8FC12BB
:101C50000122CA70DFF8F0120978322941D1DFF889
:101C6000EC1201220A713CE0B84909780122824055
:101C7000114211D0B549897800290DD1DFF804133C
:101C80000978491CDFF8FC221170B0490222CA70A1
:101C9000AE4901228A7024E0AC49097801228240D1
:101CA00011420AD1A9498978012906D1A7490222FE
:101CB000CA70A64900228A7013E0A449097801225B
:101CC000824011420DD1A1498978002909D19F494B
:101CD0000122CA709C490978322902D19B4901220C
:101CE0000A71704710B599484478E4B22000002882
:101CF00020D0012833D002283BD003283DD004282F
:101D00003FD0052800F08A80062800F08080072850
:101D100076D008286DD0092864D00A285BD00B281B
:101D200052D00C2849D00D2800F0F5800F2800F083
:101D3000D680FAE0FFF74DFF00280FD0834801213D
:101D4000417082480221C170804800218170FFF7F4
:101D500044FF7E4908707C4800210170E5E0894815
:101D6000002101700020FFF75EFF78480C214170D0
:101D7000DBE0764803214170D7E0744804214170CC
:101D8000D3E07248007800060DD570480121C1707B
:101D90006E48012181706C480078322809D16B4867
:101DA0000121017105E069480221C17067480021E5
:101DB0008170664805214170B7E00120FFF733FFCD
:101DC00062480B214170B0E00220FFF72CFF5F4812
:101DD0000A214170A9E00320FFF725FF5B48092194
:101DE0004170A2E00420FFF71EFF5848082141700F
:101DF0009BE00520FFF717FF54480721417094E04E
:101E00000620FFF710FF5148062141708DE00720A2
:101E1000FFF709FF4D480521417086E059480078D9
:101E2000022190FBF1F202FB1102002A11D1474876
:101E3000807801280DD145480121C1704348012116
:101E4000817041480078322845D140480121017114
:101E500041E04C480078022190FBF1F202FB1102B4
:101E6000002A0AD139488078002806D13748022153
:101E7000C1703648012181702DE04248007802216E
:101E800090FBF1F202FB1102012A11D12F48807858
:101E900000280DD12D480121C1702C4800218170EE
:101EA00029480078322816D128480121017112E012
:101EB00034480078022190FBF1F202FB1102012A62
:101EC00009D122488078012805D120480221C1701B
:101ED0001E48002181701D480F21417025E01B48DC
:101EE000807801280DD119480121C17017480121BE
:101EF000817015480078322809D1144801210171F8
:101F000005E012480221C1701048002181700F487D
:101F10000D21417009E00D48002141700B4801215D
:101F2000C1700A4801218170FFE710BD00E100E0A7
:101F300018ED00E000E400E014E000E018E000E04C
:101F400010E000E030C003403700002018000020FF
:101F50003800002028C0034014060E400000002076
:101F60009C2C00003200002000C0034024C003402D
:101F7000300000200090D0033900002010C0034042
:101F800008060E403600002070B584B004000D0035
:101F900000A821494CC94CC00C390C381F4E0121F6
:101FA00000A800F0FEF81E484FF480710160AC20DC
:101FB00030604FF400607060B5FBF4F000093062EF
:101FC00040F20220C6F8200150203060154801215F
:101FD00001707FBD38B50400104D1248007800280C
:101FE00004D111495FF4E130FFF7CEFF6869800545
:101FF000FCD5E4B2EC6131BD10B5084C094800785D
:10200000002804D108495FF4E130FFF7BDFF6069A3
:10201000C007FCD5A06910BDB031000000060E401D
:1020200010040E403A0000200090D00310B50400C8
:102030002000C0B2FFF7CEFF200010BD2DE9F04315
:10204000079C089DDDF824800A9E0B9FDDF830C0B8
:10205000DDF834E05FF0010919FA01F1DFF8409092
:10206000C9F8001001210160D2B212F00101DBB207
:102070005A0012F00E021143E4B214F010021143A0
:10208000EDB215F020021143F6B251EA06211CF41C
:10209000801211431EF07C5211434160BDE8F08371
:1020A00010040E404268D20601D5016201E089B2F7
:1020B000016270474164D2B2002A01D0416600E05B
:1020C0000166026F036F8A431A400267426F436FD3
:1020D0008A431A404267416070474164D2B2002A85
:1020E00001D0416600E00166026F0A430267426F59
:1020F000436F8A431A404267416070474164D2B2DD
:10210000002A01D0416600E00166026F036F8A4336
:102110001A400267426F0A43426741607047416458
:10212000D2B2002A01D0416600E00166026F0A4384
:102130000267426F0A4342674160704710B44164CE
:10214000D30701D5416600E001660A231A4201D097
:10215000016200E04162930702D5C0F8801003E0FD
:10216000120701D5C0F884104161016010BC7047AE
:1021700010B4019C4164E4B2002C01D0416600E03F
:102180000166DBB2002B01D0016500E04165D2B2EF
:10219000002A01D0016300E041630161016010BCCD
:1021A000704738B504000D0009E0A07A10F0010274
:1021B00021686068FFF77EFF04F20C046D1E002D9D
:1021C00046D0607A0028F0D002280FD006D3042829
:1021D0001CD013D3062822D021D337E0A07A10F0E8
:1021E000010221686068FFF778FFE5E7A07A10F048
:1021F000010221686068FFF781FFDDE7A07A10F037
:10220000010221686068FFF78AFFD5E7207A00F0B5
:1022100029F8A27A21686068FFF790FFCCE7A07ADE
:1022200010F00100A17AC1F3800111F00103617A7D
:10223000062901D1012200E00022C0B20090DBB2E9
:10224000D2B221686068FFF793FFB5E7002000E095
:10225000012032BD4168006808637047416800682A
:102260004863704710B50400232C06D33B22124963
:10227000124800F02EF800F02BF8202C0DD2104858
:1022800000680121A14008400121A140884212D0EC
:102290000120A0400B4908600DE0203C0A4800687E
:1022A0000121A14008400121A140884203D0012022
:1022B000A0400649086010BD642D0000A431000054
:1022C00018040E4010040E4008050E4000050E4094
:1022D0007047F0B583B00C460A2100238DF80A3010
:1022E00002AB0A25491EC9B292FBF5F6374607EB49
:1022F000870CA2EB4C0230325A703246012A10DBB6
:10230000491EC9B292FBF5F6374607EB870CA2EBE4
:102310004C0230321A703246012AA4BF9B1E01299A
:10232000E0DA0346002200A80918204600F011F860
:1023300008B900F053F803B0F0BD000010B5044632
:1023400003E014F8010BFFF771FE20780028F8D1A4
:1023500010BDF8B504460D4616461F4656B10FF29D
:102360004400FFF7EBFF3046FFF7E8FF0FF24400B1
:10237000FFF7E4FF2046FFF7E1FF0FF24000FFF711
:10238000DDFF2846FFF7DAFF0FF23400FFF7D6FF34
:102390003846FFF7D3FF0FF22C00FFF7CFFF0020E6
:1023A000F2BD0000496E2066756E6374696F6E2021
:1023B00000000000202D2D20000000003A00000049
:1023C00020000000202D2D20617373657274696FE9
:1023D0006E206661696C65640A00000080B50120AA
:1023E00000F002F800BF000001491820ABBEFBE777
:1023F0002600020010B440B24109C44A012310F083
:102400001F04A34042F8213010BC704710B440B202
:102410004109BF4A012310F01F04A34042F82130B4
:1024200010BC704710B440B24109BA4A012310F001
:102430001F04A34042F8213010BC704740B200286E
:1024400008D540B210F00F02B34BD2180B0102F8BE
:10245000043C03E040B2B14A0B018354704710B50D
:102460000400B4F1807F01D3012010E02002000AB3
:10247000401EAB4908600F215FF0FF30FFF7DEFF21
:10248000A84800210160A84807210160002010BD74
:102490002DE9F04383B004000D0000275FF0000831
:1024A0005FF0000900A80021002206C00838FFF7ED
:1024B000A3FD060076B20A2E02D076B20D2E03D10D
:1024C00041A000F067F911E076B2302EEFDB76B272
:1024D0003A2EECDA76B231008AA000F05BF97FB2D6
:1024E00000A83E547F1C7FB2042FE0DB7FB200A81F
:1024F00000213954B94600208046002007007FB2F1
:10250000042F36DA7FB200A8385630282FD04FFA81
:1025100089F97FB2B9EB0700401E002805D00228D8
:1025200013D009D3032819D021E07FB200A8385670
:10253000303810EB08081AE07FB200A8385630385F
:102540000A21484300FA88F811E07FB200A8385603
:1025500030386421484300FA88F808E07FB200A8C8
:10256000385630384FF47A71484300FA88F87F1CA7
:10257000C5E72DB20FFA88F8454504DB0FFA88F855
:1025800024B2A04505DA694800F004F95FF0FF3095
:1025900001E0404600B2BDE8FE8380B5644800F02B
:1025A000F9F8644800F0F6F8634800F0F3F863487F
:1025B00000F0F0F8624800F0EDF8624800F0EAF848
:1025C000614800F0E7F801BD0D0A0000704770B5E2
:1025D0005E4800F0F1F806215D48FFF7E2FD0020BB
:1025E00000F0EEF82023062200215A4800F0D2F82D
:1025F000594A5A495A4800F0CDF85A4800F0CAF8EA
:10260000FFF76DFA00F04DF91820FFF7FFFE1820D4
:10261000FFF708FF00211820FFF710FF1820FFF731
:10262000E9FEFFF7CDFA50480078002804D04E4864
:102630000021017000F0B9F9E4B2200030280ED07A
:1026400031282CD047284CD049283FD04D2845D0A0
:10265000672846D0692839D06D283FD0E3E7434842
:1026600000F098F840F6B831C820FFF711FF0500D8
:1026700025A000F08FF82DB229003D4800F08AF81F
:102680002DB2012D0ADB3B482DB2642101FB05F17F
:1026900090FBF1F0FFF7E3FE37480580C3E73748CA
:1026A00000F078F840F2FF716420FFF7F1FE0600B9
:1026B00015A000F06FF836B23100314800F06AF82A
:1026C00036B2012E01DB2F480680ACE72D48028888
:1026D000294801882C4800F05DF8A4E7FFF75DFF6A
:1026E000A1E7FFF776FA002807D0FFF776FAC0B225
:1026F0000100264800F04EF802E0254800F04AF8B4
:1027000091E70000256300000D0A000000E100E0F1
:1027100080E100E080E200E018ED00E000E400E08D
:1027200014E000E018E000E010E000E030300000CD
:102730001C2F0000442F00006C2F0000BC2E000056
:1027400050300000903000007030000050140E40F7
:102750003C2E0000902F00008031000074310000FA
:10276000C8300000B42F0000340000208C3100007D
:10277000E03000000090D0033000002098310000CD
:10278000F830000032000020D82F0000AC300000EC
:10279000103100000EB400B582B003A9009100AB67
:1027A00002460121034878440A30FDF791FC06BC3B
:1027B0005DF810FB9F0900004FF400414160704735
:1027C00080B524490968884201D3002006E0012130
:1027D0000C22214B02FB0030FFF7E3FC02BD80B569
:1027E0001C490968884201D3002014E00C211A4AD0
:1027F00001FB0021497A052906D10C21164A01FB6B
:102800000020FFF727FD05E00C21134A01FB002003
:10281000FFF724FD012002BD80B50E4909688842FA
:1028200001D3002014E00C210B4A01FB0021497A5E
:10283000052906D10C21084A01FB0020FFF70EFDF7
:1028400005E00C21044A01FB0020FFF703FD0120F5
:1028500002BD0000C8310000FC2F000010B5DFF8F9
:10286000280300680400A0061AD5DFF82003DFF86B
:10287000201309680160DFF81C0301210170A00327
:1028800007D50020FFF7C8FFDFF80C030221017015
:1028900006E00020FFF7A3FFDFF8FC020121017032
:1028A00010BD80B50121DFF8F402FFF77AFC182093
:1028B000FFF7D8FCBA4802210160BA485FF0FF3147
:1028C0000160B14800680090B748B8490160B84855
:1028D00020210160B2480521016001BD10B4010052
:1028E0004FF46160030041F2301004000A0093428B
:1028F00003D2A24201D2012000E0002010BC7047A8
:1029000010B4010041F6B050030042F2D0000400C0
:102910000A00934203D2A24201D2012000E000202B
:1029200010BC704738B504000D00A2480068FFF7DE
:10293000E7FF002820D098480078012807D19E485A
:1029400080780121A14088439B4988700BE09A4818
:1029500080780121A14008439749887096484078C3
:10296000401C95494870954800210160914800211C
:1029700001609148057017E08E480068FFF7AEFFD0
:10298000002808D08D480068002804D18B484FF4F7
:102990007A61016008E088480021017087480021C1
:1029A000016084480021016031BD80B58348006822
:1029B0007649096808187F4908607F480078002830
:1029C00017D0012823D0052868D0062861D0072811
:1029D0005AD0082853D009284CD00A2845D00B28B3
:1029E0003ED00C2837D00D2800F09C800F285AD0FC
:1029F000C9E069480078022808D16F4801210170B8
:102A00006E48002101606B4800210160BBE069480D
:102A10000068FFF775FF002813D05F480078012891
:102A20000FD16648002101606248002101606248C0
:102A3000002181706048002141705F480C210170C5
:102A400008E05E48002101605A48002101605A48B0
:102A50000021017097E00B210020FFF763FF92E057
:102A60000A210120FFF75EFF8DE009210220FFF718
:102A700059FF88E008210320FFF754FF83E0072176
:102A80000420FFF74FFF7EE006210520FFF74AFFF5
:102A900079E005210620FFF745FF74E00F210720AC
:102AA000FFF740FF6FE043480068FFF729FF002869
:102AB0001FD039480078022804D13F484078401C94
:102AC0003D4948703C484078022190FBF1F202FBFE
:102AD0001102012A03D138480D21017002E0364865
:102AE0000021017035480021016032480021016059
:102AF00017E030480068FFF7F1FE002808D02F48A3
:102B00000068002804D12D484FF47A61016008E084
:102B10002948002101702948002101602548002131
:102B2000016030E023480068FFF7EAFE002811D07A
:102B300019480078022803D11F488078FFF74AFA25
:102B40001D48002101701D48002101601948002125
:102B5000016017E017480068FFF7C0FE002808D0A2
:102B600016480068002804D114484FF47A610160C7
:102B700008E01148002101701048002101600D4853
:102B800000210160FFE701BD60000140240000203A
:102B9000540001403400002035000020683100005E
:102BA000400001406800014044000140010703006B
:102BB000640001402C00002020000020280000209C
:102BC00000202E494FF440720A602D490968C9015E
:102BD0000CD42B482B49016000202B490968C907F8
:102BE00004D40100481C11F1010FF6D124482749F3
:102BF0000160002024490968C90304D40100481C6D
:102C000011F1010FF6D1224800688008800050F0D1
:102C100001001F49086000201B490968090704D406
:102C20000100481C11F1010FF6D11A481A49016040
:102C3000002015490968490704D40100481C11F116
:102C4000010FF6D112480121016000200E490968E8
:102C5000090704D40100481C11F1010FF6D10C48FA
:102C600003210160002008490968090704D4010014
:102C7000481C11F1010FF6D1704700BF000A0E4049
:102C800020040E400908370068040E400908370187
:102C900030040E402C040E4003010F0000008000A1
:102CA00000017F01FD017802F1026703DA034904A4
:102CB000B30419057905D40529067806C00602076C
:102CC0003C076F079B07BF07DB07EF07FB07FF0703
:102CD000FB07EF07DB07BF079B076F073C070207F0
:102CE000C00678062906D40579051905B3044904F8
:102CF000DA036703F1027802FD017F010001800021
:102D0000000080FF00FF81FE03FE88FD0FFD99FC9F
:102D100026FCB7FB4DFBE7FA87FA2CFAD7F988F9BE
:102D200040F9FEF8C4F891F865F841F825F811F873
:102D300005F801F805F811F825F841F865F891F85B
:102D4000C4F8FEF840F988F9D7F92CFA87FAE7FABF
:102D50004DFBB7FB26FC99FC0FFD88FD03FE81FEB1
:102D600000FF80FF433A5C446F63756D656E74735A
:102D700020616E642053657474696E67735C6B7256
:102D8000656E5C4D7920446F63756D656E74735C20
:102D900049415220456D62656464656420576F72D5
:102DA0006B62656E63685C61726D5C6578616D70A5
:102DB0006C65735C41746D656C5C73616D34735CE0
:102DC00073616D34732D656B5C6C696272617269DD
:102DD00065735C6C6962636869705F73616D34739D
:102DE0005C736F757263655C706D632E63000000C9
:102DF000FEE7FEE7FEE7FEE7FEE7FEE7FEE7FEE7AB
:102E0000FEE7FEE7FEE7FEE7FEE7FEE7FEE7FEE79A
:102E1000FEE7FEE7FEE7FEE7FEE7FEE7FEE7FEE78A
:102E2000FEE7FEE7FEE7FEE7FEE7FEE7FEE7FEE77A
:102E3000FEE7FEE7FEE7FEE7FEE7FEE70000200014
:102E4000000E0E400B00000000004000000E0E407F
:102E50000B00000000000002000E0E400B000000FE
:102E600000000001000E0E400B000000000080007A
:102E7000000E0E400B05000000000400000E0E4086
:102E80000B01000010B50A4CFFF79AFE09482040DC
:102E900009490860B4F10050B0F5003F05D206487A
:102EA000006850F0005004490860012010BD00BFC8
:102EB0000000000080FFFF1F08ED00E02D2D2069BD
:102EC0003A20446973706C61792070726573656E25
:102ED00074206672657175656E637920616E642019
:102EE000616D706C69747564652E2D2D0D0A00007E
:102EF00010B5084979441C31074C7C441A34A1426E
:102F000006D0081D0A68511888470146A142F8D129
:102F100010BD00BF0C010000180100002D2D204D38
:102F2000656E752043686F6963657320666F7220F4
:102F300074686973206578616D706C652D2D0D0A5C
:102F4000000000002D2D20303A2053657420667259
:102F5000657175656E637928323030487A2D336B30
:102F6000487A292E2D2D0D0A000000002D2D20312C
:102F70003A2053657420616D706C697475646528BE
:102F80003130302D32303437292E2D2D0D0A0000EE
:102F90002D2D2050686F6E652053696D756C6174BE
:102FA0006F72205625642E253032642563202D2D26
:102FB0000D0A00002D2D20506C6174666F726D3A01
:102FC0002073616D34732D78706C61696E65642057
:102FD0002D2D0D0A000000002D492D20467265712F
:102FE00075656E63793A256420487A20416D706C6E
:102FF00069747564653A25640D0A000000000800D4
:10300000000E0E400B06000000001000000E0E40E7
:103010000B0600000000100000120E400D0600001C
:10302000CFDDFFFF3C00000000000020000000009A
:103030000D0A2D462D20496E7075742076616C75D1
:103040006520697320696E76616C6964210A0000ED
:103050002D2D206D3A20446973706C61792074685D
:103060006973206D656E752E2D2D0D0A0000000010
:103070002D2D20633A206F757470757420636F7303
:10308000696E6520776176652E2D2D0D0A00000092
:103090002D2D20733A206F75747075742073696ECE
:1030A0006520776176652E2D2D0D0A002D552D207A
:1030B000427566666572206973206163746976651E
:1030C0002C2025630D0A00002D2D20436F6D7069A3
:1030D0006C65643A202573202573202D2D0D0A0080
:1030E000536574206672657175656E637920746FBF
:1030F0003A2564487A0A000053657420616D706C4B
:10310000697475646520746F202564200A000000CE
:103110002D552D2042756666657220697320656D98
:103120007074792E0D0A0000FFF7ACFE002801D064
:10313000FFF7DEFE0020FFF74AFA00F000F880B546
:1031400000F002F800BF000007463846FFF74CF9D0
:10315000FBE738B504460D462846FEF767FFA84250
:1031600018BF0024204632BD00800000000E0E4033
:103170000B0400004A616E202032203230313300CF
:1031800031313A30333A3131000000004672657116
:1031900075656E63793A0000416D706C6974756491
:1031A000653A000064774964203C20333500000014
:1031B00000060000000E0E400B000000C046C04696
:0C31C000C046C046FFF7B0FF030000004F
:04000005000031BD09
:00000001FF
