:020000040040BA
:100000005020002009194000CF174000D1174000B0
:10001000D3174000D5174000D7174000000000005C
:10002000000000000000000000000000D9174000A0
:10003000DB17400000000000DD174000130C4000FB
:10004000DF174000E1174000E3174000E5174000CC
:10005000E7174000E9174000EB174000CD174000BC
:10006000ED174000EF174000F1174000F317400074
:10007000F5174000F7174000F9174000D30B400078
:10008000FB174000CD174000FD174000FF17400050
:10009000011840000318400005184000B501400059
:1000A00007184000CD094000091840000B18400017
:1000B0000D1840000F1840008D0B40001118400033
:1000C000131840001518400017184000CD174000C5
:1000D0002DE9F04383B080468946002700A800211F
:1000E0000A4606C0A5A400AE00F0D6FA45B20A2D15
:1000F00018BF0D2D03D1A2A000F0F0FA0CE0A5F17D
:1001000030000A28F0D22946204600F0E7FABD5513
:100110007F1C7FB2042FE7DB0020B85500218A57EF
:10012000302A16D07B1A5B1E05D0022B09D005D3CE
:10013000032B09D00DE0303A10180AE0303A0A23B8
:1001400005E0303A642302E0303A4FF47A7303FB5F
:100150000200491C0429E2DB01B2894501DB41456B
:1001600006DA0FF2642000F0B9FA4FF0FF3000E039
:1001700000B2BDE8FE8380B50FF26C2000F0AEFA4D
:100180000FF28C2000F0AAFA0FF2AC2000F0A6FAD1
:100190000FF2C82000F0A2FA0FF2F42000F09EFA4D
:1001A0000FF20C3000F09AFA0FF22030BDE8024056
:1001B00000F094BA70472DE9F04F89B0714800F013
:1001C0009FFA06210FF2184000F015FB002000F006
:1001D00073FB0FF234310FF2143000F07FFA0FF29C
:1001E00054320FF244310FF2283000F077FA40F227
:1001F000FF7A654DA5F806A04FF47A70A880634E8B
:1002000040F27F207060DFF888B100F0D5F8DFF8A9
:100210008481DFF8849110200690002005900490DE
:1002200008200390CDF80880002001900090002362
:1002300002461E21484600F08DFB584C4FF080408E
:100240002060574F5020787100F0D8FB4FF00070BD
:100250005449086054490860002139702060012029
:1002600069568840C9F81000E8885049484390FB17
:10027000FAF000F2FF71484600F0A0FB0220C9F836
:1002800024004B4800210170417001218170C17030
:1002900000210171A970697000F0E0FCFFF76BFFAD
:1002A0000FF2DC09434C05E0EA88A9880FF2D82058
:1002B00000F014FA206818B10020206000F0E6FB7E
:1002C000079830280ED0312830D0472846D049280A
:1002D000EAD04D283FD0672840D06928E4D06D2867
:1002E00039D0E7E70FF2582000F0F8F940F6B831BE
:1002F000C820FFF7EDFE0746484600F0EFF9394603
:100300000FF2482000F0EAF9012FD3DB642010FB44
:1003100007F098FBF0F0B0F1807F05D20002000AF0
:10032000401E706000F048F8AF80C3E70FF2342041
:1003300000F0D4F951466420FFF7CAFE074648464C
:1003400000F0CCF939460FF2282000F0C7F9012F50
:10035000B0DBEF80AEE7FFF70EFFABE700F099FCF4
:1003600038B100F099FC01460FF2402000F0B6F9D8
:10037000A0E70FF2542000F0B1F99BE725630000DD
:100380000D0A000050140E404200002010E000E072
:1003900023ED00E00090D00300C0034000E100E046
:1003A00019E400E080E100E080E200E04DFBFFFFA7
:1003B0003800002010000020F0208BF80000002002
:1003C000B0600720306070470D0A2D462D20496E21
:1003D0007075742076616C756520697320696E761E
:1003E000616C6964210A00002D2D204D656E752019
:1003F00043686F6963657320666F72207468697300
:10040000206578616D706C652D2D0D0A000000006F
:100410002D2D20303A205365742066726571756504
:100420006E637928323030487A2D336B487A292E22
:100430002D2D0D0A000000002D2D20313A2053658E
:100440007420616D706C6974756465283130302D6D
:1004500032303437292E2D2D0D0A00002D2D206924
:100460003A20446973706C61792070726573656EAF
:1004700074206672657175656E637920616E6420A3
:10048000616D706C69747564652E2D2D0D0A000008
:100490002D2D206D3A20446973706C617920746849
:1004A0006973206D656E752E2D2D0D0A00000000FC
:1004B0002D2D20733A206F75747075742073696EDA
:1004C0006520776176652E2D2D0D0A002D2D206378
:1004D0003A206F757470757420636F73696E652050
:1004E000776176652E2D2D0D0A0000002D2D2050F0
:1004F000686F6E652053696D756C61746F722056FC
:100500002573202D2D0D0A00302E303500000000FF
:100510002D2D20436F6D70696C65643A2025732022
:100520002573202D2D0D0A004465632032392032B9
:100530003031320031333A34303A32310000000089
:100540004672657175656E63793A00005365742073
:100550006672657175656E637920746F3A256448BB
:100560007A0A0000416D706C69747564653A000028
:1005700053657420616D706C697475646520746F67
:10058000202564200A0000002D492D204672657147
:1005900075656E63793A256420487A20416D706CE8
:1005A00069747564653A25640D0A00002D552D2087
:1005B0004275666665722069732061637469766549
:1005C0002C2025630D0A00002D552D2042756666EE
:1005D000657220697320656D7074792E0D0A0000B4
:1005E00000002000000E0E400B0000000000400044
:1005F000000E0E400B00000000000002000E0E4036
:100600000B00000000000001000E0E400B00000077
:1006100000008000000E0E400B05000000000400EA
:10062000000E0E400B01000070B584B004000D00F8
:1006300000A821494CC94CC00C390C381F4E01216F
:1006400000A800F0D8F81E484FF480710160AC207B
:1006500030604FF400607060B5FBF4F00009306268
:1006600040F20220C6F820015020306015480121D8
:1006700001707FBD38B50400104D12480078002885
:1006800004D111495FF4E130FFF7CEFF68698005BE
:10069000FCD5E4B2EC6131BD10B5084C09480078D6
:1006A000002804D108495FF4E130FFF7BDFF60691D
:1006B000C007FCD5A06910BDFC18400000060E4024
:1006C00010040E40410000200090D00310B504003B
:1006D0002000C0B2FFF7CEFF200010BD0EB400B561
:1006E00082B003A9009100AB02460121034878447F
:1006F0000A3000F0B3FB06BC5DF810FBDF11000010
:100700004FF40041416070474164D2B2002A01D0E9
:10071000416600E00166026F036F8A431A40026778
:10072000426F436F8A431A40426741607047416499
:10073000D2B2002A01D0416600E00166026F0A438E
:100740000267426F436F8A431A40426741607047B5
:100750004164D2B2002A01D0416600E00166026F16
:10076000036F8A431A400267426F0A43426741603F
:1007700070474164D2B2002A01D0416600E00166B0
:10078000026F0A430267426F0A4342674160704743
:1007900010B44164D30701D5416600E001660A2325
:1007A0001A4201D0016200E04162930702D5C0F80D
:1007B000801003E0120701D5C0F884104161016088
:1007C00010BC704710B4019C4164E4B2002C01D00D
:1007D000416600E00166DBB2002B01D0016500E05C
:1007E0004165D2B2002A01D0016300E0416301619A
:1007F000016010BC704738B504000D0009E0A07A14
:1008000010F0010221686068FFF77EFF04F20C041B
:100810006D1E002D46D0607A0028F0D002280FD03F
:1008200006D304281CD013D3062822D021D337E0C6
:10083000A07A10F0010221686068FFF778FFE5E711
:10084000A07A10F0010221686068FFF781FFDDE700
:10085000A07A10F0010221686068FFF78AFFD5E7EF
:10086000207A00F033FDA27A21686068FFF790FFDC
:10087000CCE7A07A10F00100A17AC1F3800111F059
:100880000103617A062901D1012200E00022C0B2F1
:100890000090DBB2D2B221686068FFF793FFB5E742
:1008A000002000E0012032BD416800680863704705
:1008B000416800684863704780B5244909688842E8
:1008C00001D3002006E001210C22214B02FB003065
:1008D000FFF791FF02BD80B51C490968884201D32A
:1008E000002014E00C211A4A01FB0021497A052955
:1008F00006D10C21164A01FB0020FFF7D5FF05E0C9
:100900000C21134A01FB0020FFF7D2FF012002BD9A
:1009100080B50E490968884201D3002014E00C21FB
:100920000B4A01FB0021497A052906D10C21084A0E
:1009300001FB0020FFF7BCFF05E00C21044A01FB8E
:100940000020FFF7B1FF012002BD00001419400094
:100950007C1840002DE9F043079C089DDDF82480B9
:100960000A9E0B9FDDF830C0DDF834E05FF001092E
:1009700019FA01F1DFF84090C9F800100121016077
:10098000D2B212F00101DBB25A0012F00E02114392
:10099000E4B214F010021143EDB215F0200211433D
:1009A000F6B251EA06211CF4801211431EF07C526B
:1009B00011434160BDE8F08310040E404268D20646
:1009C00001D5016201E089B2016270476848C168DF
:1009D0008A0600D4704710B5664C0068606101203B
:1009E0002061880304D50020FFF792FF022003E076
:1009F0000020FFF770FF0120207310BD80B501219A
:100A00000FF27C10FFF7F7FE192000F05FFC5A4848
:100A1000022101604FF0FF318162016A0091574964
:100A20004160202141620521016001BD4000A0F527
:100A300074704A288041C00F7047F8B506460C46CE
:100A40004C4DEF693846FFF7F1FFA97A70B10120EC
:100A5000B0402A7B012A08BF814303D00143687A52
:100A6000401C68720020E8612C720BE07800A0F551
:100A7000EE704A2803D2A86908B9FA2002E00020E3
:100A80002872E861A972A861F1BD000070B5394C07
:100A9000A56960694019E0614100A1F5EE76217A0F
:100AA0000F2911D8DFE801F008111010103B38357C
:100AB000322F2A272454103E207B022804D1012003
:100AC00020720020A061E06170BDFFF7AFFF002839
:100AD0000AD0207B012807D10020A061E061A0722C
:100AE00060720C20207270BD0020A061E061F9E707
:100AF0000B21002004E00A21012001E0092102204D
:100B0000BDE8704099E708210320F9E70721042098
:100B1000F6E706210520F3E705210620F0E70F217F
:100B20000720EDE7FFF782FF58B1207B022802D1B2
:100B3000607A401C6072607AC00754BF00200D20AC
:100B4000BEE74A2E0DD2002D0BD1FA20A06170BD58
:100B5000FFF76CFF40B1207B022804BFA07AFFF7AB
:100B600089FD00202072ADE74A2EECD3F9E70000A2
:100B700094000140000000208000014003070300B2
:100B800000000004000E0E400B04000070B5A74CDE
:100B9000A06880071CD5A64E3078A64DA6496428CB
:100BA00006D3087908B900F0ADF8002030700CE0E9
:100BB00032280BD1C878022804D00879012805D141
:100BC0000020087100F09EF80020287002202060AC
:100BD00070BD9A484169C90700D4704738B5984C30
:100BE000217814290FD26578691C617000F0DAFB56
:100BF0002919C8702078401C20706078142807D309
:100C00000020607031BD00F0CDFB61780919C8701B
:100C100031BD38B5874C20788749C97890FBF1F20F
:100C200001FB1200B0B982480278864931F91210EE
:100C3000854B1B88594340F2FF7391FBF3F101F29E
:100C4000FF71521C0270814D89B22846FFF7B6FE33
:100C5000022068622078401C207031BD38B54FF406
:100C600000447B480460754D7A4B4FF4E1324FF4F9
:100C70000C61284600F060FB77480460012128469B
:100C800000F07BFB0121284600F080FB0120A860DA
:100C900031BD6B480078704769490A785AB18B7842
:100CA0005818C0785B1C8B70521E0A70DBB2142B74
:100CB00024BF00228A70C0B2704730B55E490A7AFC
:100CC0008B780C78012505FA00F004420AD0501CFC
:100CD000012B08BF02460DD093B902460220C8700E
:100CE0008D700DE0012B04D10220C87000208870A7
:100CF00006E02BB9CD704E480078322808BF0D7140
:100D00000A7230BD38B54A4C4B4D68780F2818D858
:100D1000DFE800F008181E202358534E49443F3A9C
:100D200035868B764648007800280AD00120687006
:100D30000220E8700020A870FFF7AEFF28700020A6
:100D4000207031BD00202872FFF7B7FF0C2002E0B1
:100D5000032000E00420687031BD2878000608D523
:100D60000120E870A8702078322806D1012028716F
:100D700003E00220E8700020A8700520EBE70120C6
:100D8000FFF79BFF0B20E6E70220FFF796FF0A2004
:100D9000E1E70320FFF791FF0920DCE70420FFF7DC
:100DA0008CFF0820D7E70520FFF787FF0720D2E751
:100DB0000620FFF782FF0620CDE70720FFF77DFF23
:100DC0000520C8E7A878297AC9070ED4012806D1DA
:100DD000E8702078322811D1012028710EE0002817
:100DE0000CD10220E870012007E008B90120EFE7EC
:100DF000012803D10220E8700020A8700F20AAE784
:100E0000A878012806D1E8702078322806D1012080
:100E1000287103E00220E8700020A8700D209AE7F6
:100E2000002068700120E870A87031BD28C0034020
:100E300043000020440000203800002000800240D1
:100E400020000020781640004800002000C0034029
:100E500010040E400090D00300E100E02DE9F04FB7
:100E600093B017461C46019001AD69600020E8610F
:100E70000CAE6FF0004802E0E869401CE861387889
:100E800018B9E86913B0BDE8F08F252804D1002017
:100E900028616861A8610CE017F8011B6868019A75
:100EA000904768600028E7D14FF0FF30EAE740F054
:100EB000010017F8011F2029F9D023290DD02B2973
:100EC00004D02D2906D030290AD00CE040F00200D1
:100ED00080B2EEE740F00400FAE740F00800F7E7E0
:100EE00040F01000F4E72A290DD12268111D21607D
:100EF00011686962002904D54942696240F0040022
:100F000080B27F1C12E00021696209E0696A4145F4
:100F100005D001EB810302EB4301303969627F1C8C
:100F20003A78A2F13001C9B20A29EFD339782E29D3
:100F30001CBF4FF0FF3129621DD117F8011F2A296C
:100F400006D12268111D2160116829627F1C12E000
:100F50000021296209E0296A414505D001EB81039E
:100F600002EB4301303929627F1C3A78A2F130014B
:100F7000C9B20A29EFD3288539780FF2483000F03A
:100F800017FA08B117F8010B8DF82E009DF82E0006
:100F9000682806D13878682803D162208DF82E00A1
:100FA0007F1C0CA8E8603A78252A13D0582A38D03C
:100FB000632A00F0A080642A69D0692A67D06F2A6A
:100FC0002FD0702A21D0732A0AD0752A29D0782AE6
:100FD00027D098E02869411C2961252181559CE092
:100FE0002168081D20600868A8602A6A002A02D5C6
:100FF00000F0FAF907E0002100F012FA00281ABF09
:10100000A968401A286A686187E02168081D206085
:10101000086800900CA8A860782100A800F0EBF800
:101020007BE09DF82E306C2B0FD0712B0BD12068FC
:10103000C01D20F007002060014601F1080020607B
:10104000D1E9000105E06A2BF1D02168081D20607C
:1010500008680090682B04BF00A8008803D0622BAA
:1010600002D100A80078009095F8280000073CD530
:101070000098002839D042F02000782835D128691E
:1010800030218155401C411C296182552DE09DF87D
:101090002E00622802D0682806D00BE02168081DC7
:1010A000206091F9000009E02168081D2060B1F975
:1010B000000003E02168081D2060086800900028F7
:1010C00004D52869411C29612D210DE0288D810757
:1010D00004D52869411C29612B2105E0C00704D5EE
:1010E0002869411C29612021815528690CA94018D3
:1010F000A860114691E72869411C29612268111DE9
:10110000216011686AE72869411C29612521815500
:101110001AB12869411C296182557F1C686A2969B6
:10112000401AA969401A6969A0EB010995F82800DD
:10113000400707D42022494600A800F045F80028BF
:101140003FF4B2AED5F810A00DF1300BBAF1000F9C
:101150000ED01BF8011B6868019A90476860002850
:101160003FF4A2AEE869401CE861BAF1010AF0D18F
:101170003022A96900A800F027F800283FF494AEB7
:10118000D5F814A0D5F808B0BAF1000F0ED01BF8AE
:10119000011B6868019A9047686000283FF484AE9C
:1011A000E869401CE861BAF1010AF0D195F828001D
:1011B00040077FF564AE2022494600A800F004F8FD
:1011C00000287FF45CAE6FE6F4B504460D46012DB1
:1011D0000FDB012600AF17F8011BA068626890477B
:1011E000A06038B1206A401C2062761EF3D16D1ECB
:1011F000EFD10120F2BDF0B402696F2908BF0824C5
:1012000005D041F02003782B14BF0A2410241823A2
:1012100005682E46642901D0692902D1002D48BFF6
:1012200076425EB9456A4DB9082C27D190F82C104A
:10123000090723D517233021D1751FE05D1E2B46EA
:10124000B6FBF4F704FB17663036F6B23A2E24BF2D
:10125000A1F1510C6644AE543E0003D0C5689F18FE
:10126000BD42EBD3082C09D190F82C10090705D505
:10127000995C302902D05B1E30219954C3F11801CA
:1012800081619A18C260426A914207DA511AC161BB
:10129000818D4FF6EF721140818510E0002A0ED546
:1012A00090F82C2002F01402102A08D1826A4369B7
:1012B000D21AC369D21A531A012BA8BFC361F0BC5A
:1012C00070470000686C747A4C00000010B5040090
:1012D000232C06D33B221249124800F0CEF800F02E
:1012E000CBF8202C0DD2104800680121A140084005
:1012F0000121A140884212D00120A0400B49086082
:101300000DE0203C0A4800680121A140084001216D
:10131000A140884203D00120A0400649086010BDCA
:1013200040174000F018400018040E4010040E4012
:1013300008050E4000050E4010B4AC240460416066
:10134000174C214203D1B3FBF2F42409046211F0DB
:101350000E040E2C01D0CC050DD511F03004002C5C
:1013600003D1B3FBF2F1016205E0C90603D5B3FB7B
:10137000F2F1C908016210BC7047C9B2002902D05D
:101380004021016001E0802101607047C9B200295D
:1013900002D01021016001E02021016070470000AF
:1013A000000108004169C907FCD58069C0B27047D7
:1013B0000278C9B28A421AB11CBF10F8012FF9E7AE
:1013C00018BF0020704750F8041B61B150F8042B7F
:1013D000D30744BFA9F101039A18002342F8043B44
:1013E000091FFAD1EFE7704700F10103810704D02C
:1013F00010F8011B89B18107FAD10268B2F10131FD
:10140000914311F0803F04BF50F8042FF6E710F825
:10141000011B11B110F8011BFBE7C01A7047000057
:10142000C9B2830706D0521E22D310F8013B99425D
:10143000F7D11FE0083A13D302F1040241EA012177
:1014400041EA014150F8043B121F21BF4B40A3F178
:10145000013C2CEA030C1CF0803FF3D0C9B2001F02
:10146000083210F8013B521E28BF91EA030FF8D84A
:1014700018BF0120401E70477047F0B583B00C467E
:101480000A2100238DF80A3002AB0A25491EC9B291
:1014900092FBF5F6374607EB870CA2EB4C02303295
:1014A0005A703246012A10DB491EC9B292FBF5F68A
:1014B000374607EB870CA2EB4C0230321A703246EB
:1014C000012AA4BF9B1E0129E0DA0346002200A8DE
:1014D0000918204600F011F808B900F053F803B0DD
:1014E000F0BD000010B5044603E014F8010BFFF74F
:1014F000EDF820780028F8D110BDF8B504460D4667
:1015000016461F4656B10FF24400FFF7EBFF304678
:10151000FFF7E8FF0FF24400FFF7E4FF2046FFF774
:10152000E1FF0FF24000FFF7DDFF2846FFF7DAFF8B
:101530000FF23400FFF7D6FF3846FFF7D3FF0FF264
:101540002C00FFF7CFFF0020F2BD0000496E20669F
:10155000756E6374696F6E2000000000202D2D20D1
:10156000000000003A00000020000000202D2D2087
:10157000617373657274696F6E206661696C65640E
:101580000A00000080B5012000F002F800BF000052
:1015900001491820ABBEFBE72600020000202E49BF
:1015A0004FF440720A602D490968C9010CD42B48D8
:1015B0002B49016000202B490968C90704D40100A8
:1015C000481C11F1010FF6D1244827490160002081
:1015D00024490968C90304D40100481C11F1010F12
:1015E000F6D1224800688008800050F001001F49B1
:1015F000086000201B490968090704D40100481C41
:1016000011F1010FF6D11A481A490160002015495D
:101610000968490704D40100481C11F1010FF6D1F3
:1016200012480121016000200E490968090704D40D
:101630000100481C11F1010FF6D10C480321016093
:10164000002008490968090704D40100481C11F169
:10165000010FF6D1704700BF000A0E4020040E4073
:101660000908370068040E400908370130040E40AD
:101670002C040E4003010F000000800000017F01D8
:10168000FD017802F1026703DA034904B304190586
:101690007905D40529067806C00602073C076F07BE
:1016A0009B07BF07DB07EF07FB07FF07FB07EF07FA
:1016B000DB07BF079B076F073C070207C0067806DA
:1016C0002906D40579051905B3044904DA0367032B
:1016D000F1027802FD017F0100018000000080FF1F
:1016E00000FF81FE03FE88FD0FFD99FC26FCB7FB81
:1016F0004DFBE7FA87FA2CFAD7F988F940F9FEF89A
:10170000C4F891F865F841F825F811F805F801F8E2
:1017100005F811F825F841F865F891F8C4F8FEF8D5
:1017200040F988F9D7F92CFA87FAE7FA4DFBB7FBAD
:1017300026FC99FC0FFD88FD03FE81FE00FF80FF63
:10174000433A5C446F63756D656E747320616E64BB
:101750002053657474696E67735C6B72656E5C4D63
:101760007920446F63756D656E74735C49415220D6
:10177000456D62656464656420576F726B62656E67
:1017800063685C61726D5C6578616D706C65735CDB
:1017900041746D656C5C73616D34735C73616D3441
:1017A000732D656B5C6C69627261726965735C6CE8
:1017B0006962636869705F73616D34735C736F75C0
:1017C0007263655C706D632E63000000FEE7FEE7E8
:1017D000FEE7FEE7FEE7FEE7FEE7FEE7FEE7FEE7E1
:1017E000FEE7FEE7FEE7FEE7FEE7FEE7FEE7FEE7D1
:1017F000FEE7FEE7FEE7FEE7FEE7FEE7FEE7FEE7C1
:10180000FEE7FEE7FEE7FEE7FEE7FEE7FEE7FEE7B0
:10181000FEE7FEE7FEE7FEE710B50A4CFFF7BEFE67
:101820000948204009490860B4F10050B0F5003F74
:1018300005D20648006850F00050044908600120B5
:1018400010BD00BF0000400080FFFF1F08ED00E05A
:1018500010B5084979441C31074C7C441A34A14224
:1018600006D0081D0A68511888470146A142F8D1E0
:1018700010BD00BF2C000000380000000000080070
:10188000000E0E400B06000000001000000E0E407F
:101890000B0600000000100000120E400D060000B4
:1018A00027FBFFFF4C0000000000002000000000AC
:1018B000FFF7B2FF002801D0FFF7CAFF0020FEF7B4
:1018C0007AFC00F000F880B500F002F800BF0000DC
:1018D00007463846FFF75CFEFBE738B504460D4681
:1018E0002846FEF7F3FEA84218BF0024204632BD6A
:1018F00064774964203C2033350000000006000076
:10190000000E0E400B000000C046C046C046C04658
:08191000FFF7CEFF0300000009
:040000050040190995
:00000001FF
