:10000000900B0020F915000010B440B24109DFF850
:100010009024012310F01F04A34042F8213010BCAB
:10002000704780B500F05DFA01BD10EB01135A6313
:1000300070474162704781617047C2680A43C2607D
:1000400070470069704772B6DFF85804006810F115
:10005000010F06D0DFF84C040068401CDFF84414A0
:100060000860DFF8400400687047DFF83804006873
:1000700000280FD0DFF82C040068401EDFF824248D
:100080001060DFF8200400680100002900D162B68A
:10009000080000E00020704710B5DFF80C04FFF7FF
:1000A000D0FF04002100DFF80004FFF7C4FFDFF8F1
:1000B000FC030068002806D0DFF8F0030068401E4B
:1000C000DFF8E8130860DFF8E8030068401CDFF899
:1000D000E0130860DFF8DC030068401CDFF8D4138D
:1000E00008600021DFF8C003FFF7A3FF36220021DC
:1000F000DFF8B403FFF799FF00F0E8F810BD3EB554
:10010000040000A8DFF8B0132CC92CC00C390C383F
:10011000E4B2002C03D103208DF8050010E0E4B216
:10012000012C03D102208DF8050009E0E4B2022C75
:1001300003D101208DF8050002E000208DF80500B4
:1001400000AA0021DFF8600300F0B1FA37BD80B5E6
:10015000FFF767FF0121DFF8640300F041FB012195
:10016000DFF85C0300F03CFBDFF85813DFF83803DE
:1001700000F03FFA0220FFF7C2FF36220021DFF82D
:100180002803FFF752FFDFF840030121016000233D
:1001900004220D21022000F04FFC0A20FFF734FF5B
:1001A0001021DFF80403FFF748FF0121DFF8F80210
:1001B00000F016FA01BD38B504000D00DFF8F002BA
:1001C0000078C0071CD4DFF8040300780121A140A7
:1001D00008420ED0DFF8F402022101710120FFF77E
:1001E0008EFFDFF8EC020078401CDFF8E4120870A4
:1001F00013E0B648012101710020FFF780FF0CE0F9
:10020000B2480079022803D10020FFF778FF02E00E
:100210000120FFF774FFAD48457031BDA348006869
:10022000002801D0002001E0AA488068704710B57E
:10023000FFF709FFA7480068A6494018407B040063
:10024000A4480068401CC821B0FBF1F201FB120079
:10025000A0490860FFF709FF9E488068401E9D493D
:1002600088602000C0B210BD2DE9F04104000D00EF
:1002700016000027A846C92E26D2D8F80800301844
:10028000C92804D3D8F808003018C928FAD2FFF7D3
:10029000DAFEB74211D2D8F8040010EB0800395D3D
:1002A0004173D8F80400401CC821B0FBF1F201FBF7
:1002B0001200C8F804007F1CEBE7D8F808003018DB
:1002C000C8F80800FFF7D1FEBDE8F08110B57F48FF
:1002D0004478E4B22000002820D001284AD0022827
:1002E0004DD003285AD0042867D0052800F08D800F
:1002F000062800F0858007287DD0082876D00928B8
:100300006FD00A2868D00B2861D00C285AD00D284D
:1003100000F0B4800F2800F0A280BEE064480078AE
:10032000C00718D4FFF77AFF00280DD0FFF77FFF32
:100330006649087065480121C1700020FFF7DFFEA3
:1003400063480021017014E00120FFF7D8FE5F48E8
:100350000021C1700DE05D48C078002806D0012062
:10036000FFF7CDFE59480121417002E00020FFF760
:10037000C6FE92E00C210020FFF71DFF8DE04C48E7
:100380000078C00703D40020FFF7B9FE05E0012084
:10039000FFF7B5FE4D48032141707EE044480078E8
:1003A000C00703D40120FFF7AAFE05E00020FFF7F5
:1003B000A6FE4648042141706FE005210720FFF7A3
:1003C000FAFE6AE00B210120FFF7F5FE65E00A2145
:1003D0000220FFF7F0FE60E009210320FFF7EBFEAB
:1003E0005BE008210420FFF7E6FE56E00721052028
:1003F000FFF7E1FE51E006210620FFF7DCFE4CE0AE
:1004000005210720FFF7D7FE47E029480078C007FD
:1004100016D42F480078022190FBF1F202FB110262
:10042000002A06D12948022101710120FFF767FE49
:1004300014E02648012101710020FFF760FE0DE065
:1004400022480079022803D10020FFF758FE02E07D
:100450000120FFF754FE1D480F2141701DE0144894
:100460000078C00703D40120FFF749FE05E0002013
:10047000FFF745FE15480D2141700EE00C4800784D
:10048000C00703D40120FFF73AFE05E00020FFF784
:1004900036FE0E4800214170FFE710BD000000004D
:1004A00000E100E07407002000040140780700200C
:1004B0007C07002060070020EC150000108102007E
:1004C00000520200D0150000280401405807002007
:1004D000890700208006002032480068000EC0B264
:1004E000704710B500F00AF804002F48006810F0BB
:1004F0000F00C4402D480460200010BD10B52C48EA
:10050000006810F47050B0F5006F0DD0B0F5805F4A
:1005100006D0B0F5005F0BD12648006804003EE02D
:100520004FF4004004003AE023480068040036E03D
:100530002248006810F4E060002824D0B0F5807FE5
:1005400017D0B0F5007F11D0B0F5407F0BD0B0F5DB
:10055000806F05D0B0F5A06F1FD1194804001EE0D0
:10056000184804001BE01848040018E0174804006D
:1005700015E0FFF7B1FF132802D31548040001E08E
:10058000144804000BE0FFF7A7FF132802D312481A
:10059000040001E01148040001E0002004002000F4
:1005A00010BD0000FC81E00F04800C408407002097
:1005B0002C800C4094040020900400200C800C40FF
:1005C000003FAB01406F4001809FD500C0D8A7001D
:1005D00040B56400C0CF6A00804F120040420F0057
:1005E000C9B2002902D00122426001E00222426029
:1005F00070472DE9F0410A78002A01D102224260B9
:10060000002242624A78002A01D0402200E0002203
:100610004B7A002B01D0802300E000238C7A002C41
:1006200001D0202400E00024CD7A002D01D0102537
:1006300000E000250E79002E02D04FF4005600E0B5
:1006400000264F79002F02D05FF0805700E000278E
:1006500091F80CC0BCF1000F02D05FF0080C01E073
:100660005FF0000C91F802E091F803805FEA08481F
:1006700058EA0E6E91F806805EEA882E91F807809F
:100680005EEA082E91F8088058EA0E0E52EA0E0231
:100690001A4322432A4332433A435CEA020202608D
:1006A0000A78002A01D001224260BDE8F081F0B44E
:1006B000D379002B02D05FF4001300E00023147AFA
:1006C000002C02D05FF4801400E00024557A002D45
:1006D00001D0102500E00025967A002E01D00426D6
:1006E00000E00026177892F801C05FEA0C6C5CEA23
:1006F000876792F802C057EA0C4792F803C057EA9E
:100700000C3792F804C057EA8C2792F805C057EAD4
:100710000C2792F806C05CEA07073B4323432B43B0
:10072000334310EB01142363F0BC70478B0013EBD1
:10073000401313F184431A607047DFF8C012096850
:10074000080010F007010029012903D9891E012999
:1007500005D908E0C008C00050F0010003E0C0085F
:10076000C00050F00300DFF8941208607047DFF813
:100770008C2212681100DFF87C22904211D3DFF83E
:10078000782290420DD211F00702921E012A04D85D
:10079000C908C90051F0030103E0C908C90051F0BC
:1007A0000101DFF8502290420BD211F00702921E95
:1007B000012A04D8C908C90051F0020101E0C908A2
:1007C000C900DFF8382211607047DFF83812096875
:1007D000C90704D4DFF8301209680142FAD1704722
:1007E0002DE9F04104000D005FF00008C4F3032080
:1007F000C0B2012809D024D303280ED009D305287C
:1008000015D00ED3062818D01BE0DFF8040206002E
:1008100018E0DFF80002060014E0DFF8FC01060033
:1008200010E0DFF8F8010600012080460AE0DFF85A
:10083000F00106001020804604E0DFF8E801060021
:1008400000E00EE0C4F304300700B8F1000F02D05E
:100850004046FFF7BAFFEDB22A0039003000FFF73B
:1008600065FFBDE8F0810100012011F00F031A00BF
:10087000012A06D06CD3032A3BD01CD3042A56D0BD
:1008800066E0DFF888311B6813F47053B3F5006F2E
:100890000BD0B3F5805F05D0B3F5005F08D102231C
:1008A000180007E00323180004E00423180001E007
:1008B000052318004EE0DFF848311B6813F00303EE
:1008C000012B04D00CD3032B07D003D308E0032360
:1008D00018000DE0022318000AE00623180007E0C4
:1008E000DFF81C311B68DB0302D509231800FFE782
:1008F00030E0DFF80C311B6813F00C03042B04D03C
:10090000082B05D00C2B06D008E0032318000DE0BF
:10091000022318000AE00623180007E0DFF8E030A1
:100920001B68DB0202D509231800FFE712E0DFF89D
:10093000F8301B6813F08053002B03D0B3F1805FB5
:1009400003D004E00723180001E00823180001E0A9
:1009500000231800C0B27047F8B50400E4B2002CC0
:1009600008D0022C11D00AD3042C19D013D3052C93
:100970001BD020E02E480068C0B205001CE02C48C7
:100980000068C0F30720050016E029480068C0F39E
:100990000740050010E026480068000E05000BE047
:1009A00024480068C0B2050006E022480068C0F391
:1009B0000720050000E01BE00120FFF754FF0700BF
:1009C000FFB2052F01D1FFF7B8FE18480068C00A32
:1009D000C002E4B255EA0421084314490860FFB29A
:1009E000052F05D1FFF77DFD06003000FFF7BFFEA4
:1009F000F1BD00000124F4000148E80104000C40AE
:100A000028800C4054800C4050800C402C800C40BE
:100A100008800C4044800C4040800C4058800C40C2
:100A200060800C4078800C4000800C400C800C40B2
:100A3000DC81E00FE081E00F70B4D2B2002A12D066
:100A4000002B08D0C0B224242F4D04FB00540125F4
:100A50008D40256107E0C0B224242B4D04FB0054D7
:100A600001258D406561082919D2C0B22424264D84
:100A700004FB005464680F250E00F6B2B600B540C2
:100A8000AC43D2B20D00EDB2AD0012FA05F52C4325
:100A9000C0B224251C4E05FB00656C601AE0C0B294
:100AA0002424194D04FB0054A4680F250E00083EB1
:100AB000F6B2B600B540AC43D2B20D00083DEDB27F
:100AC000AD0012FA05F52C43C0B224250E4E05FBED
:100AD0000065AC60D2B2002A12D1002B08D0C0B29F
:100AE0002424094D04FB005401258D40256107E0B5
:100AF000C0B22424044D04FB005401258D406561DF
:100B000070BC70470000000000600040DFF800F09B
:100B100075030020DFF800F0B303002010B440B2EA
:100B20004109DFF8F823012310F01F04A34042F825
:100B3000213010BC7047C0B22422DFF8E43302FB3E
:100B4000003201238B4053617047C0B22422DFF88A
:100B5000D03302FB003201238B401361704710EB4E
:100B60000110406B704781617047C2680A43C260E0
:100B700070470069704772B6DFF8A803006810F18B
:100B8000010F06D0DFF89C030068401CDFF89413C7
:100B90000860DFF8900300687047DFF8880300689A
:100BA00000280FD0DFF87C030068401EDFF87423B4
:100BB0001060DFF8700300680100002900D162B600
:100BC000080000E00020704710B5DFF85C03FFF775
:100BD000D0FF04002100DFF85003FFF7C4FF20001E
:100BE000C0061FD50021DFF84003FFF7B8FFDFF88C
:100BF0003C130860DFF838030068800708D5DFF889
:100C000034030221017005210320FFF79EFF07E056
:100C1000DFF820030121017005210320FFF78BFF7E
:100C200000F0A3F810BD80B500F031F800F008F82E
:100C30001021BD48FFF799FF0220FFF76FFF01BDAC
:100C400010B588B00121BC48FFF7CAFD0121BB489F
:100C5000FFF7C6FD00A8BA491CC91CC00C390C38E6
:100C600000AA0021B048FFF722FD03A8B5491022D1
:100C700000F07CF903A9AC48FFF7BBFC002300227D
:100C80005FF40031052000F0B3F908B010BD00B5E5
:100C900087B00121AC48FFF7A3FD0121AB48FFF766
:100CA0009FFD0023012204210220FFF7C5FE00A8BA
:100CB000A749182200F05AF900A9A64800F0BCF98B
:100CC00004220A21A34800F0ADF9A24800F0A5F9DA
:100CD00007B000BD0100632904D29F4A11600022C1
:100CE000100012E0782909D2632907D39A4A002319
:100CF0001360002211000122100006E0964A002332
:100D000013600022110002221000C0B2704738B5F3
:100D100004000D0091480068FFF7DCFF01281AD19C
:100D200084480078012807D18D4880780121A140AE
:100D300088438B4988700BE0894880780121A14065
:100D400008438749887086484078401C8449487029
:100D50008348057008E081480068FFF7BBFF022860
:100D600002D17F480021017031BD80B57A4800680A
:100D70006E4909680818794908607948007802289E
:100D80000FD36A48006880B2FFF7C0FE6948007858
:100D9000022803D12F2000F09BF902E05C2000F034
:100DA00097F96F480078002817D0012826D0052829
:100DB00062D006285BD0072854D008284DD00928D7
:100DC00046D00A283FD00B2838D00C2831D00D2827
:100DD00000F081800F2854D09EE056480078022809
:100DE0000BD15F48012101705B48002101605B4825
:100DF00000210160002000F0B5F98DE0574800683F
:100E0000FFF768FF012810D14A48007801280CD16B
:100E100053480021817052480021417050480C21F4
:100E20000170002000F08AF902E04D4800210170B5
:100E300072E00B210020FFF76AFF6DE00A2101201C
:100E4000FFF765FF68E009210220FFF760FF63E01C
:100E500008210320FFF75BFF5EE007210420FFF776
:100E600056FF59E006210520FFF751FF54E0052108
:100E70000620FFF74CFF4FE00F210720FFF747FF49
:100E80004AE036480068FFF725FF012819D12948B4
:100E90000078022804D132484078401C304948701C
:100EA0002F484078022190FBF1F202FB1102012A47
:100EB00003D12B480D2101700CE02948002101705D
:100EC00008E026480068FFF705FF022802D1244801
:100ED0000021017020E021480068FFF7FBFE012897
:100EE00010D114480078022808D11D488078FFF7F7
:100EF00011FE01221B491C48FFF7B6F918480021D2
:100F0000017008E015480068FFF7E4FE022802D1EE
:100F1000134800210170FFE701BD000000E100E07F
:100F200000600040740700200000014068070020B6
:100F300008100040880700200042020000820200E2
:100F4000E0150000C015000000020200006202006F
:100F50005C150000001000406C07002070070020A6
:100F600064070020A805002066070020103A07D378
:100F700030B4B1E83810103AA0E83810F9D230BCDB
:100F8000530724BFB1E80810A0E8081044BF51F887
:100F9000043B40F8043BD20724BF31F8022B20F871
:100FA000022B44BF0B7803707047083A07D3B1E8AF
:100FB0000810083A40F8043B40F804CBF7D2530736
:100FC000E4E710B450F8041B81B102681218001D48
:100FD00050F8043BDC0744BFA9F10104E31852F8C0
:100FE000044B43F8044B091FF9D1EBE710BC7047E1
:100FF00030B411F47C1412F007052C431C43024D4D
:1010000045F8204030BC704710C00C408B0013EBFB
:10101000401313F184431A607047016851F00101D5
:1010200001607047436833F0F703C9B253EA011314
:10103000D2B213434360704738B504000D002878DE
:101040006978890751EAC070696850EA0160297AB5
:1010500050EA4140697A50EA0140A97A50EA0120F9
:10106000E97A50EA0110297B50EA81002060687B10
:101070002969090251EA004060602A7D00212000B0
:10108000FFF7C4FF31BD50F8041B61B150F8042BC9
:10109000D30744BFA9F101039A18002342F8043B87
:1010A000091FFAD1EFE77047064908600649032295
:1010B0000A6006494FF440620A60044905220A604A
:1010C0007047000014C0004054C000400CC00040F5
:1010D00010B504002000C0B2FFF71CFD10BD0000D9
:1010E000C0B22422294B02FB003201238B40536102
:1010F0007047C0B22422254B02FB003201238B40F3
:101100001361704710B501212148FFF769FB0121E8
:101110002048FFF765FB00200400012C0CDA0023B7
:1011200004221D4810EBC40041681B4810F834002D
:10113000FFF782FC641CF0E7002010BD10B504002E
:10114000002C0CD4012C0ADA134810EBC4004168BF
:10115000114810F83400FFF7C3FF002001E05FF0F2
:10116000FF3010BD10B50400002C0CD4012C0ADA9D
:10117000094810EBC4004168074810F83400FFF735
:10118000B8FF002001E05FF0FF3010BD00600040BC
:10119000108102000062020004160000DFF800F077
:1011A0003F040020DFF800F0CD030020DFF800F05E
:1011B00039030020DFF800F07104002010B440B2C1
:1011C00041094F4A012310F01F04A34042F8213087
:1011D00010BC704740B2002808D540B210F00F0292
:1011E000484BD2184B0102F8043C03E040B2464A97
:1011F0004B018354704745484FF480610160444877
:101200004FF4A0510160704770475FF000504149B2
:1012100081645FF000504049816640485FF00051B2
:101220000160704738B5FFF7EFFF0120FFF794FB2F
:10123000FFF7EBFF4FF440510020FFF7AFFF3849B5
:10124000088038493848FFF7A9FF05003448344979
:101250000988018035484FF4807101603448642169
:101260000160344802210160FFF7DDFCFEF76FFFEB
:1012700005210220FFF7AEFF0A210A20FFF7AAFF8F
:101280004FF4337004002C482B4909680160FFF7C4
:10129000B2FF2000FFF708FF2848FFF783FF284828
:1012A000FFF780FF00F054F81120FFF787FF254873
:1012B000FFF778FF24480068FFF778FF23480068AD
:1012C000FFF774FF0DA0FFF76DFF00F0A7F8FFF721
:1012D0006DFF0AA0FFF766FF00F084F800F052F8F7
:1012E000FFF710FF0023042205210320FFF7A4FBD2
:1012F000FFF760FF002032BD000000000D0A000073
:1013000080E100E018ED00E000E400E09C600040B7
:1013100098600040C90B00009900000008ED00E053
:10132000BC0000200082E00FB281E00F08800C407A
:1013300044800C4040800C4000C000401415000068
:10134000BC140000AC150000F481E00FF081E00F48
:1013500015480078C0B2472802D0C0B2492804D14D
:1013600012494FF400720A600BE0C0B2482804D161
:101370000E494FF480520A6003E00C494FF40062BA
:101380000A6070470A4841F67131016009480068F7
:1013900050F0010007490860074801210160074833
:1013A0000749016070470000FE81E00F80070020C0
:1013B0003C000C4008000C4004200C4008200C406D
:1013C000000100208B0013EB401313F184431A60DB
:1013D0007047364800210160704734484AF6E851AA
:1013E0000160704710B53248012101602F48006844
:1013F00010F001000400002C01D0FFF7EEFF0122E5
:1014000000212C48FFF7DEFF002200212948FFF7CA
:10141000D9FF002C01D0FFF7DCFF10BD2648006883
:101420000100090601D530F066000100C90702D5A8
:101430000121080038E010F08301022902D10221C5
:10144000080031E010F01F01042902D10421080036
:101450002AE010F01801002902D010F0180023E053
:1014600010F06001002902D010F060001CE081053E
:1014700003D54FF40071080016E0410503D54FF481
:101480008061080010E04FF4C071084203D04FF4AF
:10149000C071084008E010F08801002902D010F067
:1014A000880001E0002108007047000008600C403F
:1014B00008A00C4024600C4004A00C402D2D2042BC
:1014C00075696C64206F6E3A4A756C202038203242
:1014D0003031332031363A31383A3235202D2D0D26
:1014E0000A0D0A0D0A00000010B5084979441C31A4
:1014F000074C7C441A34A14206D0081D0A685118D2
:1015000088470146A142F8D110BD00BF2C00000061
:101510004C0000000D0A0D0A0D0A2D2D2077656C78
:10152000636F6D6520746F20626F6F746C6F6164A0
:101530006572202D2D0D0A004FFBFFFFF402000005
:1015400098040020000000007BFAFFFF88030000E1
:10155000BC0000001001002000000000000100009D
:10156000020000000000060701000000200000004B
:101570000000000000F009F8002801D0FFF7B4FFD8
:101580000020FFF74FFE00F002F80120704700F046
:1015900001B800000746384600F002F8FBE70000FB
:1015A00001491820ABBEFBE7260002000D0A0D0A18
:1015B000302E3032204368697049443A20000000E0
:1015C000000006000000030300000000000000000F
:1015D0000000060000000000000000000000000005
:1015E00000020500000001000100000000000000F2
:1015F0000003020000010000C046C046C046C046CD
:10160000FFF7B8FF0300000007000000DFF800F05C
:10161000690200002DE9F04782B004000D000127A7
:10162000A046A84507D2404600F0A8F83648006812
:1016300010EB0808F5E743208DF80000012233493C
:1016400000A8FFF7E3FF0020814631488145F2D230
:1016500030488068002802D119F10109F5E717F038
:10166000010088212C4A01FB0020060000F0BEF892
:1016700070707078042803D1062000F018F93CE05F
:101680007078012808D015208DF8000001221F492C
:1016900000A8FFF7BBFFE2E702208246BAF1860FFF
:1016A00006D200F0A3F80AF806001AF1010AF5E7DD
:1016B0003900300000F013F9002808D015208DF80B
:1016C00000000122114900A8FFF7A0FFC7E7134857
:1016D000C8210160331D8022781E802101FB00F1AA
:1016E000200000F01FF87F1C06208DF8000001226A
:1016F000064900A8FFF78AFFB1E709480068C0075C
:10170000FBD40020BDE8F68780070020800600207B
:1017100040420F00A8050020980400207807002010
:1017200028200C4030B4254C2468E407FBD40C1866
:10173000234D2C60234C01252560254C224D6560EE
:10174000D418241F224D2C60B2F10804A4002409EF
:10175000240144F06A4454F001041D4DAC601D4C5A
:101760005FF440152560184C1D682560134C012559
:101770002560144C1025256030BC704710B45FF014
:10178000FF310200144B1B681B189A4203D21368E6
:101790001940121DF6E711F1010F0BD0084B18602C
:1017A000084B01241C60074B02241C60074B1B687C
:1017B000DB07FBD410BC70470000000028200C4061
:1017C00010000C400C000C4018000C401C000C4099
:1017D0000001002000310C4080070020DFF800F0FD
:1017E000770B0000DFF800F09B0B000010B51048ED
:1017F00080680028FBD0FFF7F1FF0D4800680C4916
:101800004018407B04000A480068401CC821B0FB17
:10181000F1F201FB12000649086005488068401E8D
:1018200003498860FFF7DEFF2000C0B210BD00BF93
:10183000A8050020F8B5040007200600002E16D4E5
:101840003000C0B2800034FA00F010F00F00070042
:101850000A2F03DA17F13000050002E017F1370014
:1018600005002800C0B200F022F8761EE6E7F1BDC0
:10187000F8B5040003200600002E17D4A4B23000EF
:10188000C0B2800054FA00F010F00F0007000A2FD9
:1018900003DA17F13000050002E017F13700050008
:1018A0002800C0B200F003F8761EE5E7F1BD044958
:1018B00009684906FBD50349C0B20860C0B2704749
:1018C00010C0004034C0004010B50400207800284B
:1018D00004D02078FFF7EBFF641CF7E710BDF8B5E4
:1018E00004000D00A078E178081880B2FF2802D02B
:1018F0005FF0FF3020E0A0784FF4807195FBF1F2AB
:1019000002FB1152904202D05FF0FF3014E014F15C
:101910008401201D00F011F8070094F8840094F869
:10192000851051EA00200600BFB2B6B2B74202D01D
:101930005FF0FF3000E00020F2BD10B40200002094
:1019400013008B420FD280B2040254EA10201C789C
:101950006040C0F30314604090EA0030C4B290EAE3
:1019600044105B1CEDE780B210BC704710B5064810
:10197000006880B28002040021004FF44050FFF75D
:1019800049FEF9E700000000F881E00F0048E80197
:0419900000800000D3
:04000005000015F9E9
:00000001FF
