:020000040040BA
:1000000038310020792440007B2040007D204000D2
:100010007F2040008120400083204000000000003D
:1000200000000000000000000000000085204000EB
:10003000872040000000000089204000EB1B4000AA
:100040008B2040008D2040008F20400091204000F8
:1000500093204000952040009720400079204000E8
:10006000971B4000992040009B204000CB0F400090
:10007000E30F4000EF0F40009D2040009F20400014
:100080007920400079204000A1204000A3204000BA
:10009000A5204000A7204000A9204000511C40009E
:1000A000AB204000D1114000AD204000AF20400007
:1000B000B1204000B3204000251B4000B520400087
:1000C000B7204000B9204000BB204000792040000C
:1000D00010B440B24109DFF85424012310F01F048A
:1000E000A34042F8213010BC704740B2002809D527
:1000F00040B210F00F02DFF83834D2180B0102F8CA
:10010000043C04E040B2DFF82C240B018354704718
:1001100010B50400B4F1807F01D3012013E0200268
:10012000000A401EDFF8101408600F215FF0FF3056
:10013000FFF7DBFFDFF8040400210160DFF80004B3
:1001400007210160002010BD00B587B0DFF8F4037F
:1001500040F266610180DFF8F00340F25A510180FD
:10016000DFF8E803DFF8E01309886422514390FBCD
:10017000F1F0FFF7CDFF1020069000200590002041
:10018000049008200390DFF8C4030290002001903F
:1001900000200090002300221E21DFF8B40300F0AD
:1001A000E9F91E20FFF794FF05211E20FFF79DFFB0
:1001B000DFF8A00300210170DFF8980300214170EF
:1001C000DFF8900301218170DFF888030121C170FD
:1001D000DFF8800300210171DFF87C03002101704A
:1001E000DFF87803002101700120DFF8741391F922
:1001F00000108840DFF86C130860DFF86C03B0F97A
:10020000B400DFF840130988484340F2FF7190FBC7
:10021000F1F000F2FF71DFF8380300F009FADFF8BF
:100220004C030221016007B000BDDFF828130978F4
:1002300001228240114219D0DFF818138978012970
:1002400014D1DFF82C130978491CDFF8242311702E
:10025000DFF800130122CA70DFF800130978322991
:100260003FD1DFF8F01201220A713AE0B94909786A
:100270000122824011420FD0B649897800290BD162
:10028000BB490978491CBA4A1170B2490222CA70A6
:10029000B04901228A7024E0AE49097801228240E7
:1002A00011420AD1AB498978012906D1A949022214
:1002B000CA70A84900228A7013E0A6490978012271
:1002C000824011420DD1A3498978002909D1A14961
:1002D0000122CA70A1490978322902D19D4901221F
:1002E0000A71704710B59B484478E4B2200000289A
:1002F00020D0012833D002283BD003283DD0042849
:100300003FD0052800F08A80062800F0808007286A
:1003100076D008286DD0092864D00A285BD00B2835
:1003200052D00C2849D00D2800F0F5800F2800F09D
:10033000D680FAE000F098F900280FD08548012116
:10034000417084480221C17082480021817000F010
:100350008EF980490870814800210170E5E08448E9
:10036000002101700020FFF760FF7A480C214170E6
:10037000DBE0784803214170D7E0764804214170E2
:10038000D3E07448007800060DD572480121C17091
:1003900070480121817071480078322809D16D4878
:1003A0000121017105E06B480221C17069480021FB
:1003B0008170684805214170B7E00120FFF735FFE3
:1003C00064480B214170B0E00220FFF72EFF614826
:1003D0000A214170A9E00320FFF727FF5D480921AA
:1003E0004170A2E00420FFF720FF5A480821417025
:1003F0009BE00520FFF719FF56480721417094E064
:100400000620FFF712FF5348062141708DE00720B8
:10041000FFF70BFF4F480521417086E054480078F4
:10042000022190FBF1F202FB1102002A0AD1494895
:100430008078012806D147480221C1704548002133
:10044000817048E04A480078022190FBF1F202FBFB
:100450001102002A11D13F48807800280DD13D4873
:100460000121C1703B48002181703C48007832284E
:1004700031D13848012101712DE03D480078022139
:1004800090FBF1F202FB1102012A0AD13148807877
:10049000002806D12F480221C1702E480121817009
:1004A00019E033480078022190FBF1F202FB1102BF
:1004B000012A10D12748807801280CD12548012134
:1004C000C17024480121817024480078322802D16B
:1004D0002048012101711F480F21417025E01D486E
:1004E000807801280DD11B480121C17019480121D4
:1004F00081701A480078322809D11648012101710B
:1005000005E014480221C170124800218170114891
:100510000D21417009E00F48002141700D48012173
:10052000C1700C4801218170FFE710BD00E100E0BF
:1005300018ED00E000E400E014E000E018E000E066
:1005400010E000E026010020240100200090D003EC
:1005500000C00340040100202A0100202E010020D9
:100560002C01002010C00340E81D400024C00340BF
:100570002B0100202DE9F84F06000F009046994608
:100580000C980D9C0E9DDDF83CA0DDF840B0E4B267
:100590005FF47A2101FB04F14008B1FBF0F014286C
:1005A00006D36A221F49204800F087F800F084F83B
:1005B0000120B8401D490860012030605FFA88F8CA
:1005C00018F001005FFA89F95FEA490111F00E01A4
:1005D00008439DF82810C1F30001C9B2090111F0C8
:1005E000100108439DF82C10C1F30001C9B2490164
:1005F00011F020010843E4B250EA0420EDB22904CE
:1006000011F440310843CAF30001090511F48011C7
:1006100008435FEA0B6111F07C5108437060BDE84C
:10062000F18F0000301F4000C822400010040E402F
:100630004268D20601D5016201E089B201627047C9
:1006400010B440B24109194A012310F01F04A3401D
:1006500042F8213010BC704780B50820FFF7F0FF4A
:1006600013480121016001BD12480078704711490B
:100670000978002918D072B60E4989780D4A891870
:10068000C97808000B498978491C0A4A91700949C0
:100690000978491E074A117006498978C82902D38A
:1006A000044900228A7062B6C0B2704700E100E0DF
:1006B00008060E40000000207047B0B584B0034625
:1006C00008460A2100248DF80A400DF10904491E4C
:1006D000C9B20A2592FBF5F505EB8507A2EB4702A7
:1006E000303204F801292A46012AA8BF0129EEDA8E
:1006F000002200AC091900F010F808B900F052F817
:1007000004B0B0BD10B5044603E014F8010B00F0CE
:10071000AFF820780028F8D110BDF8B504460D4692
:1007200016001F460AD00FF24400FFF7EBFF3046D9
:10073000FFF7E8FF0FF24400FFF7E4FF2046FFF762
:10074000E1FF0FF24000FFF7DDFF2846FFF7DAFF79
:100750000FF23400FFF7D6FF3846FFF7D3FF0FF252
:100760002C00FFF7CFFF0020F2BD0000496E20668D
:10077000756E6374696F6E2000000000202D2D20BF
:10078000000000003A00000020000000202D2D2075
:10079000617373657274696F6E206661696C6564FC
:1007A0000A000000012000F06BB850F8041B61B192
:1007B00050F8042BD30744BFA9F101039A18002372
:1007C00042F8043B091FFAD1EFE7704770B584B0D7
:1007D00004000D0000A821494CC94CC00C390C384C
:1007E0001F4E012100A800F0C6F81E484FF480718A
:1007F0000160AC2030604FF400607060B5FBF4F035
:100800000009306240F20220C6F82001502030601A
:100810001548012101707FBD38B50400104D124804
:100820000078002804D111495FF4E130FFF7CEFFD2
:1008300068698005FCD5E4B2EC6131BD10B5084CA7
:1008400009480078002804D108495FF4E130FFF737
:10085000BDFF6069C007FCD5A06910BD6C244000D5
:1008600000060E4010040E40310100200090D0031D
:1008700010B504002000C0B2FFF7CEFF200010BD6D
:1008800001491820ABBEFBE7260002004164D2B24A
:10089000002A01D0416600E00166026F036F8A43BF
:1008A0001A400267426F436F8A431A4042674160B1
:1008B00070474164D2B2002A01D0416600E001666F
:1008C000026F0A430267426F436F8A431A404267CE
:1008D000416070474164D2B2002A01D0416600E015
:1008E0000166026F036F8A431A400267426F0A4330
:1008F0004267416070474164D2B2002A01D041662C
:1009000000E00166026F0A430267426F0A434267D2
:10091000416070474164D30701D5416600E001663C
:100920000A231A4201D0016200E04162930702D516
:10093000C0F8801003E0120701D5C0F884104161AF
:100940000160704710B4019C4164E4B2002C01D0F6
:10095000416600E00166DBB2002B01D0016500E0DA
:100960004165D2B2002A01D0016300E04163016118
:10097000016010BC704738B504000D0009E0A07A92
:1009800010F0010221686068FFF780FF04F20C0498
:100990006D1E002D47D0607A0028F0D002280FD0BD
:1009A00006D304281CD013D3062822D021D338E044
:1009B000A07A10F0010221686068FFF77AFFE5E78E
:1009C000A07A10F0010221686068FFF783FFDDE77D
:1009D000A07A10F0010221686068FFF78CFFD5E76C
:1009E000207A00F039F8A27A21686068FFF792FF58
:1009F000CCE7A07A10F00100A17A490701D50123C4
:100A000000E00023617A062901D1012200E00022E2
:100A1000C0B20090DBB2D2B221686068FFF792FFEB
:100A2000B4E7002000E0012032BD4168006808639F
:100A30007047416800684863704742680068C2F8C0
:100A4000840047F6A6704900B0FBF1F0401E800418
:100A5000800CC2F88C00704710B50400232C06D31C
:100A60003B2212491248FFF728FEFFF725FE202CF3
:100A70000DD2104800680121A14008400121A14089
:100A8000884212D00120A0400B4908600DE0203CB4
:100A90000A4800680121A14008400121A140884284
:100AA00003D00120A0400649086010BDB01E4000E0
:100AB0006024400018040E4010040E4008050E404B
:100AC00000050E4010B440B24109DFF8F8230123BD
:100AD00010F01F04A34042F8213010BC704710B43E
:100AE00040B24109DFF8E023012310F01F04A340C6
:100AF00042F8213010BC704710B440B24109DFF811
:100B0000CC23012310F01F04A34042F8213010BC75
:100B1000704740B2002809D540B210F00F02DFF84C
:100B2000B033D2180B0102F8043C04E040B2DFF805
:100B3000A4230B018354704710B50400B4F1807FE7
:100B400001D3012013E02002000A401EDFF88813C1
:100B500008600F215FF0FF30FFF7DBFFDFF87C0359
:100B600000210160DFF8780307210160002010BD3B
:100B70000168DFF870231268914211D1017ADFF821
:100B80006423127A91420BD1DFF85C1301220A70C0
:100B9000DFF858130978491CDFF85023117003E07F
:100BA000DFF8441300220A7070470168DFF8402321
:100BB000126891420DD1017ACD4A127A914208D140
:100BC000CC4901220A70C9490978491EC74A1170E7
:100BD00002E0C84900220A70704780B50121C1486F
:100BE000FFF7C9FE0121C248FFF7C5FE0A21BD4833
:100BF000FFF723FF0A21BE48FFF71FFFBE49B94890
:100C000000F0FBF9BD49BA4800F0F7F90C20FFF7F6
:100C100059FF0D20FFF756FFB24800F031FAB448F3
:100C200000F02EFA01BD2DE9F04383B004000D0061
:100C300000275FF000085FF0000900A800210022F3
:100C400006C00838FFF7FAFD060076B20A2E02D079
:100C500076B20D2E03D143A000F056FA11E076B221
:100C6000302EEFDB76B23A2EECDA76B231003EA0CF
:100C700000F04AFA7FB200A83E547F1C7FB2042FD6
:100C8000E0DB7FB200A800213954B946002080463D
:100C9000002007007FB2042F39DA7FB200A838564F
:100CA000302832D04FFA89F97FB2B9EB0700401EE5
:100CB000002805D0022814D009D303281BD024E033
:100CC0007FB200A83856303810EB08081DE00FFA44
:100CD00088F87FB200A8385630380A2101FB008816
:100CE00013E00FFA88F87FB200A838563038642134
:100CF00001FB008809E00FFA88F87FB200A8385697
:100D000030384FF47A7101FB00887F1CC2E72DB2A6
:100D10000FFA88F8454504DB0FFA88F824B2A0459D
:100D200005DA774800F0F0F95FF0FF3001E0404667
:100D300000B2BDE8FE8380B5724800F0E5F9724864
:100D400000F0E2F9714800F0DFF9714800F0DCF9D9
:100D5000704800F0D9F9704800F0D6F96F4800F0FB
:100D6000D3F901BD0D0A0000256300006C4800F0B6
:100D7000DDF906216B48FFF7FEFDFFF72EFF00208F
:100D800000F0D8F9012000F0D5F967494FF49660DA
:100D9000FFF71CFD202306220021644800F0B4F96F
:100DA000634A6449644800F0AFF9644800F0ACF964
:100DB000FFF7CAF900F02FFA1920FFF790FE19206B
:100DC000FFF79AFE00211920FFF7A3FE1920FFF775
:100DD00079FEFFF741FC5A48007800280AD000202D
:100DE00000F0B7F956480021017000F09AFA00208F
:100DF00000F0CCF9E4B2200030280ED031282CD0FD
:100E000047284CD049283FD04D2845D0672846D0A8
:100E1000692839D06D283FD0DDE74A4800F074F9E1
:100E200040F6B831C820FFF7FEFE050024A000F010
:100E30006BF92DB22900444800F066F92DB2012D5E
:100E40000ADB39482DB2642101FB05F190FBF1F07A
:100E5000FFF772FE3D480580BDE73D4800F054F9BC
:100E600040F2FF716420FFF7DEFE060014A000F0E0
:100E70004BF936B23100374800F046F936B2012E50
:100E800001DB35480680A6E7334802882F480188F1
:100E9000324800F039F99EE7FFF74DFF9BE7FFF777
:100EA000E3FB002807D0FFF7E2FBC0B201002C48AB
:100EB00000F02AF902E02B4800F026F98BE7000049
:100EC0000D0A000000E100E080E100E080E200E0C7
:100ED00018ED00E000E400E014E000E018E000E0BD
:100EE00010E000E0482440002F0100202D010020E8
:100EF0005424400030010020710B4000AB0B400037
:100F0000682240002821400050214000C8214000B4
:100F1000F420400088224000E8224000A82240003F
:100F200050140E40302040000090D003EC214000CF
:100F300024244000182440003C23400004234000A7
:100F400028010020302440005423400024010020C8
:100F50003C2440006C234000260100201022400069
:100F6000202340008423400070B50400CD6C886CC1
:100F70000540002D28D0002624E05748006886420E
:100F800006D3722255495648FFF797FBFFF794FBAB
:100F9000544850F83600007AA04212D1514850F817
:100FA0003600006805420CD04E4850F836004D49D6
:100FB00011EBC601496888474A4850F83600006876
:100FC0008543761C002DD8D170BD80B54648006899
:100FD000002801D000F0BAFA44490B20FFF7C4FF03
:100FE00001BD80B542490C20FFF7BEFF01BD80B5B1
:100FF00040490D20FFF7B8FF01BD70B504000D009A
:10100000002C06D1E52235493B48FFF756FBFFF798
:1010100053FB666830480068072806D3E7222F494B
:101020003648FFF74AFBFFF747FB2B4800682D497E
:1010300011EBC0000460456027480068401C264949
:101040000860A07AC00617D52068C6F8B000A07A5C
:10105000800603D52068C6F8D40002E02068C6F8F0
:10106000D000A07A400603D52068C6F8C00006E08C
:101070002068C6F8C40002E02068C6F8B40070BD5D
:1010800010B50400002C07D140F2191213491C4876
:10109000FFF713FBFFF710FB0020002106E0114AC9
:1010A00052F83020A24200D10121401C0A4A1268A5
:1010B000904201D20029F2D0002907D140F2271234
:1010C00006491048FFF7F9FAFFF7F6FA6068C06CB6
:1010D000616822680A6410BD1C010020B01F400036
:1010E000D8234000CC000020600F0E40000E0E40C0
:1010F00000100E4000120E40842440007821400071
:10110000EC234000FC2340000EB400B582B003A9DC
:10111000009100AB02460121034878440A3000F0F8
:101120005DFA06BC5DF810FB9B1200004FF4004115
:101130004160704780B524490968884201D3002086
:1011400006E001210C22214B02FB0030FFF713FCCB
:1011500002BD80B51C490968884201D3002014E013
:101160000C211A4A01FB0021497A052906D10C21DC
:10117000164A01FB0020FFF758FC05E00C21134A3A
:1011800001FB0020FFF755FC012002BD80B50E4990
:101190000968884201D3002014E00C210B4A01FBAE
:1011A0000021497A052906D10C21084A01FB0020BB
:1011B000FFF73FFC05E00C21044A01FB0020FFF78C
:1011C00034FC012002BD00008C2440003422400089
:1011D00010B5DFF8400300680400A0061AD5DFF858
:1011E0003803DFF8381309680160DFF834030121A0
:1011F0000170A00307D50020FFF7C8FFDFF8240324
:101200000221017006E00020FFF7A3FFDFF81403BE
:101210000121017010BD80B50121DFF80C03FFF73B
:10122000AAFB1920FFF718FCDFF800030221016078
:10123000DFF8FC025FF0FF310160B6480068009003
:10124000BC48BD490160BD4820210160B748052167
:10125000016001BD10B4010040F63D20030040F6DE
:10126000834004000A00934203D2A24201D201202B
:1012700000E0002010BC704710B4010041F2A550FE
:10128000030041F2EB7004000A00934203D2A24231
:1012900001D2012000E0002010BC704738B50400E6
:1012A0000D00A7480068FFF7E7FF002820D09D4801
:1012B0000078012807D1A34880780121A140884304
:1012C000A04988700BE09F4880780121A140084325
:1012D0009C4988709B484078401C9A4948709A48BD
:1012E000002101609648002101609648057017E0D2
:1012F00093480068FFF7AEFF002808D092480068C6
:10130000002804D190484FF43661016008E08D4810
:10131000002101708C480021016089480021016092
:1013200031BD10B50024884800687B490968081859
:101330008349086083480078002817D0012823D00B
:10134000052868D0062861D007285AD0082853D02D
:1013500009284CD00A2845D00B283ED00C2837D07D
:101360000D2800F0A4800F285AD0D1E06D480078F5
:10137000022808D1734801210170734800210160DF
:101380006F4800210160C3E06D480068FFF774FFFB
:10139000002813D06348007801280FD16A48002143
:1013A000016067480021016066480021817065483E
:1013B0000021417063480C21017008E0624800215F
:1013C00001605F48002101605E48002101709FE0DC
:1013D0000B210020FFF762FF9AE00A210120FFF7AE
:1013E0005DFF95E009210220FFF758FF90E00821FA
:1013F0000320FFF753FF8BE007210420FFF74EFF88
:1014000086E006210520FFF749FF81E0052106203F
:10141000FFF744FF7CE00F210720FFF73FFF77E055
:1014200047480068FFF728FF002827D03D4800788C
:10143000022804D143484078401C42494870414842
:101440004078022190FBF1F202FB110214003D48AA
:101450004078022190FBF1F202FB1102002A03D135
:1014600038480D21017002E03648002101703648ED
:101470000021016032480021016017E03048006817
:10148000FFF7E8FE002808D02F480068002804D1A4
:101490002D484FF43661016008E02A4800210170B0
:1014A00029480021016026480021016030E02448DD
:1014B0000068FFF7E1FE002811D01A4800780228E2
:1014C00003D120488078FFF7A7F91E48002101705A
:1014D0001D48002101601A480021016017E01848EA
:1014E0000068FFF7B7FE002808D0174800680028FA
:1014F00004D115484FF43661016008E0114800211D
:1015000001701148002101600D4800210160FFE7D2
:1015100010BD0000A0000140100100209400014017
:1015200028010020290100200C24400080000140F7
:10153000A80001408400014001070300A40001400D
:10154000180100200C0100201401002080B5204863
:101550000068009000981F490968084000900098B2
:10156000C0070AD51C480068C068002805D01A4882
:10157000006819490968C9688847009880070AD532
:10158000154800680069002805D013480068124912
:10159000096809698847009800070AD50E4800685D
:1015A0008069002805D00C4800680B4909688969E2
:1015B0008847009840070AD5074800684069002816
:1015C00005D005480068044909684969884701BD94
:1015D000600F0E405C0F0E40200100202DE9F04FFF
:1015E00093B0814617461D46029102AE002009E0E5
:1015F00017F8011B0298C8470290002800F0CD811F
:10160000B069401CB061387808B9B069C7E12528D5
:10161000EED10020F0603061706101E040F0010027
:1016200017F8011F2029F9D023290DD02B2904D028
:101630002D2906D030290AD00CE040F0020080B2FB
:10164000EEE740F00400FAE740F00800F7E740F06A
:101650001000F4E72A290DD129680A1D2A600968BB
:101660003162002904D54942316240F0040080B261
:101670007F1C14E0002131620BE0316A6FF00043FF
:10168000994205D001EB810302EB4301303931620D
:101690007F1C3A78A2F13001C9B20A29EDD339781A
:1016A0002E2903D04FF0FF31F1611FE017F8011F21
:1016B0002A2906D129680A1D2A600968F1617F1C60
:1016C00014E00021F1610BE0F1696FF000439942F1
:1016D00005D001EB810302EB43013039F1617F1C3E
:1016E0003A78A2F13001C9B20A29EDD3B084397831
:1016F0000FF2803000F0C2F908B117F8010B8DF835
:101700002E009DF82E00682804BF3878682803D181
:1017100062208DF82E007F1C0CA8B0603A78252A34
:1017200000F0B880582A2FD0632A00F0A280642AE3
:1017300018BF692A63D06F2A26D0702A1BD0732A5B
:1017400004D0752A18BF782A1ED09CE02868011D95
:10175000296000687060F269002A02D500F09AF9E9
:1017600007E0002100F0B2F900281ABF7168401AA2
:10177000F069306193E02868011D296000680190DC
:101780000CA87060782170E09DF82E306C2B08BF9B
:10179000286811D0712B08BF286802D06A2B2868EE
:1017A0000AD1C01D20F007002860014601F10800A1
:1017B0002860D1E9000102E0011D29600068019064
:1017C000682B02D101A8008803E0622B02D101A896
:1017D0000078019096F82400000741D50198002870
:1017E0003ED042F0200078283AD1F0680CA930238E
:1017F0004354401C411CF1600CA9425430E09DF858
:101800002E00622802D0682806D00BE02868011D4F
:10181000296090F9000009E02868011D2960B0F9ED
:10182000000003E02868011D29600068019000287D
:1018300005D5F068411CF1600CA92D230FE0B08C98
:10184000810705D5F068411CF1600CA92B2306E047
:10185000C00705D5F068411CF1600CA92023435452
:10186000F0680CA940187060114601A800F09AF8C1
:1018700015E0F068411CF16029680A1D2A600CAA75
:10188000096881540BE0F068411CF1600CA9252324
:10189000435422B1F068411CF1600CA942547F1CF2
:1018A000306AF168401A7169401A3169A0EB010889
:1018B00096F82400400719D420208DF80000B8F1D4
:1018C000010F13DB44464FF0010A0DF1000B1BF82A
:1018D000011B0298C847029000285ED0B069401CE6
:1018E000B061BAF1010AF2D1641EECD1F4680DF1D5
:1018F000300A5CB11AF8011B0298C8470290002810
:101900004BD0B069401CB061641EF3D130208DF81B
:101910000000D6F814B0BBF1010F10DB01240DF16B
:10192000000A1AF8011B0298C8470290A8B3B069D0
:10193000401CB061641EF4D1BBF1010BEED13469DF
:10194000D6F804A054B11AF8011B0298C8470290B7
:1019500018B3B069401CB061641EF4D196F824003D
:1019600040077FF550AE20208DF80000B8F1010F40
:10197000FFF649AE01240DF1000A1AF8011B029886
:10198000C847029048B1B069401CB061641EF4D1F0
:10199000B8F101083FF437AEECE74FF0FF3013B079
:1019A000BDE8F08FF0B4C2686F2908BF082405D0E5
:1019B00041F02003782B14BF0A2410241823056853
:1019C0002E46642918BF692902D1002D48BF7642EE
:1019D0005EB9056A4DB9082C27D190F8281009077F
:1019E00023D517233021D1751FE05D1E2B46B6FB92
:1019F000F4F704FB17663036F6B23A2E24BFA1F195
:101A0000510C6644AE543E0003D085689F18BD4219
:101A1000EBD3082C09D190F82810090705D5995C5B
:101A2000302902D05B1E30219954C3F11801416165
:101A30009A188260026A914208DA511A8161018D16
:101A40004FF6EF7211400185F0BC7047002A0ED5A9
:101A500090F8282002F01402102A08D1426A036983
:101A6000D21A8369D21A531A012BA8BF8361F0BC22
:101A700070470000686C747A4C0000000278C9B2AC
:101A80008A421AB11CBF10F8012FF9E718BF0020D5
:101A90007047000000F10103810704D010F8011B1A
:101AA00089B18107FAD10268B2F10131914311F095
:101AB000803F04BF50F8042FF6E710F8011B11B166
:101AC00010F8011BFBE7C01A70470000C9B283077A
:101AD00006D0521E22D310F8013B9942F7D11FE0E5
:101AE000083A13D302F1040241EA012141EA01411B
:101AF00050F8043B121F21BF4B40A3F1013C2CEADC
:101B0000030C1CF0803FF3D0C9B2001F083210F85C
:101B1000013B521E28BF91EA030FF8D818BF0120DD
:101B2000401E704710B54C4800680400A00731D52E
:101B30004A48007864280CD349480079002801D12C
:101B4000FEF7D0FB45480021017046480021017096
:101B50001DE042480078322809D14148C078022867
:101B600005D1FEF7BFFB3F48002101700FE03B4865
:101B7000007832280BD13A480079012807D138483B
:101B800000210171FEF7AEFB364800210170364896
:101B90000221016010BD38B5344800680400E00738
:101BA00022D533480078C82817D2314845783048C4
:101BB000691C4170FEF742FEEDB22D496918C870EC
:101BC0002B480078401C2A49087029484078C828CA
:101BD0000AD327480021417006E0FEF72FFE244972
:101BE0004978234A8918C87031BD10B51D4800785E
:101BF0001B49C97890FBF1F201FB1200002821D1AA
:101C0000164800781B4931F910001B4909884843E0
:101C100040F2FF7190FBF1F0184991F90010512248
:101C200002FB010000F2FF7004000C480078401C29
:101C30000A490870A4B221001148FEF7F9FC1148C6
:101C40000221016007480078401C0649087010BD59
:101C50000D4909680800704730C003402E0100207C
:101C6000040100202A01002028C0034014060E4071
:101C700000000020E81D4000260100202D0100206A
:101C800000C0034024C003402000014000204B4915
:101C90004FF4C0620A604A49096831F07001494A4C
:101CA0001143474A1160484800688003FBD5474804
:101CB00000688008800050F00100444908604248F4
:101CC00000680007FBD541480068414908403F498A
:101CD00008603D4800680007FBD53948006830F0CF
:101CE000807050F45C103649086037480068C003C3
:101CF000FBD538485FF00051016033480068800729
:101D0000FBD435485FF0005101602F480068400760
:101D1000FBD42B4800684008400050F45C10284970
:101D2000086029480068C007FBD4244800210160EE
:101D300022484FF4C06101602148006827490843E8
:101D40001F49086020480068C007FBD51C48006890
:101D5000234908431A4908601B480068C003FBD5A3
:101D60001C4820490160184800688007FBD51748C7
:101D7000006830F0700015490860134800680007DB
:101D8000FBD5124800688008800050F002000F491F
:101D900008600D4800680007FBD50948006830F06E
:101DA000080050F45C10064908600748006880038A
:101DB000FBD402484FF4407101607047000A0E40A6
:101DC00020040E402800370068040E4030040E4006
:101DD0008FCFFFFF28040E402C040E400120370057
:101DE0000000370103010F200000800000017F0187
:101DF000FD017802F1026703DA034904B30419050F
:101E00007905D40529067806C00602073C076F0746
:101E10009B07BF07DB07EF07FB07FF07FB07EF0782
:101E2000DB07BF079B076F073C070207C006780662
:101E30002906D40579051905B3044904DA036703B3
:101E4000F1027802FD017F0100018000000080FFA7
:101E500000FF81FE03FE88FD0FFD99FC26FCB7FB09
:101E60004DFBE7FA87FA2CFAD7F988F940F9FEF822
:101E7000C4F891F865F841F825F811F805F801F86B
:101E800005F811F825F841F865F891F8C4F8FEF85E
:101E900040F988F9D7F92CFA87FAE7FA4DFBB7FB36
:101EA00026FC99FC0FFD88FD03FE81FE00FF80FFEC
:101EB000433A5C50726F6772616D2046696C65735E
:101EC0005C4941522053797374656D735C456D6252
:101ED000656464656420576F726B62656E63682029
:101EE000352E345F345C61726D5C6578616D706C49
:101EF00065735C41746D656C5C73616D33735C73A9
:101F0000616D33732D656B5C6C69627261726965BA
:101F1000735C6C6962636869705F73616D33735C75
:101F2000736F757263655C706D632E6300000000F3
:101F3000433A5C50726F6772616D2046696C6573DD
:101F40005C4941522053797374656D735C456D62D1
:101F5000656464656420576F726B62656E636820A8
:101F6000352E345F345C61726D5C6578616D706CC8
:101F700065735C41746D656C5C73616D33735C7328
:101F8000616D33732D656B5C6C696272617269653A
:101F9000735C6C6962636869705F73616D33735CF5
:101FA000736F757263655C646163632E6300000028
:101FB000433A5C50726F6772616D2046696C65735D
:101FC0005C4941522053797374656D735C456D6251
:101FD000656464656420576F726B62656E63682028
:101FE000352E345F345C61726D5C6578616D706C48
:101FF00065735C41746D656C5C73616D33735C73A8
:10200000616D33732D656B5C6C69627261726965B9
:10201000735C6C6962636869705F73616D33735C74
:10202000736F757263655C70696F5F69742E6300AE
:1020300000002000000E0E400B00000000004000D9
:10204000000E0E400B00000000000002000E0E40CB
:102050000B00000000000001000E0E400B0000000D
:1020600000008000000E0E400B0500000000040080
:10207000000E0E400B010000FEE7FEE7FEE7FEE764
:10208000FEE7FEE7FEE7FEE7FEE7FEE7FEE7FEE728
:10209000FEE7FEE7FEE7FEE7FEE7FEE7FEE7FEE718
:1020A000FEE7FEE7FEE7FEE7FEE7FEE7FEE7FEE708
:1020B000FEE7FEE7FEE7FEE7FEE7FEE710B50A4CA7
:1020C000FFF7E4FD0948204009490860B4F10050D9
:1020D000B0F5404F05D20648006850F00050044962
:1020E0000860012010BD00BF0000400080FFFF1FFE
:1020F00008ED00E02D2D20693A20446973706C6171
:10210000792070726573656E74206672657175658D
:102110006E637920616E6420616D706C69747564A2
:10212000652E2D2D0D0A00002D2D204D656E75207C
:1021300043686F6963657320666F722074686973A2
:10214000206578616D706C652D2D0D0A0000000012
:102150002D2D20303A2053657420667265717565A7
:102160006E637928323030487A2D336B487A292EC5
:102170002D2D0D0A000000005F64774E756D536FC2
:102180007572636573203C204D41585F494E54453C
:1021900052525550545F534F55524345530000001F
:1021A00010B5074979441831064C7C44163404E0D4
:1021B000081D0A68511888470146A142F8D110BD90
:1021C00098000000A40000002D2D20313A20536516
:1021D0007420616D706C6974756465283130302DC0
:1021E00032303437292E2D2D0D0A00002D2D205090
:1021F000686F6E652053696D756C61746F722056DF
:1022000025642E253032642563202D2D0D0A000013
:102210002D492D204672657175656E63793A256486
:1022200020487A20416D706C69747564653A256444
:102230000D0A000000000800000E0E400B06000012
:1022400000001000000E0E400B0600000000100001
:1022500000120E400D06000053E5FFFF34010000A0
:1022600000000020000000000D0A2D462D20496EC0
:102270007075742076616C756520697320696E765F
:10228000616C6964210A00002D2D206D3A2044699B
:1022900073706C61792074686973206D656E752E3A
:1022A0002D2D0D0A000000002D2D20633A206F75A2
:1022B0007470757420636F73696E652077617665DD
:1022C0002E2D2D0D0A000000313032342A72656641
:1022D000726573682A313030302F286D636B3E3E53
:1022E0003129203C203230002D2D20733A206F758B
:1022F000747075742073696E6520776176652E2D14
:102300002D0D0A002D2D20506C6174666F726D3A90
:102310002073616D33732D656B202D2D0D0A000028
:102320002D552D20427566666572206973206163A4
:10233000746976652C2025630D0A00002D2D20433D
:102340006F6D70696C65643A202573202573202DAC
:102350002D0D0A00536574206672657175656E6394
:102360007920746F3A2564487A0A00005365742016
:10237000616D706C697475646520746F20256420CC
:102380000A0000002D552D20427566666572206991
:102390007320656D7074792E0D0A0000FFF78EFEB4
:1023A000002801D0FFF7FCFE0020FEF7DFFC00F064
:1023B00000F800F001B8000007463846FEF760FA62
:1023C000FBE738B504460D462846FEF751FAA84209
:1023D00018BF0024204632BD69203C205F64774E40
:1023E000756D536F75726365730000007050696E90
:1023F00020213D204E554C4C000000006477466F74
:10240000756E6420213D20300000000000000004B3
:10241000000E0E400B0400004D617220313120325D
:102420003031340031353A31333A32300000000077
:102430004672657175656E63793A0000416D706C26
:1024400069747564653A00000800000000100E40D1
:102450000C0479000010000000120E400D04590019
:1024600064774964203C20333500000000060000FA
:10247000000E0E400B000000C046C046C046C046DD
:10248000FFF78CFF7050696E000000000300000031
:04000005004024791A
:00000001FF
