:020000040040BA
:100000004030002039204000010C4000030C40002B
:10001000050C4000070C4000090C400000000000E7
:100020000000000000000000000000000B0C400079
:100030000D0C4000000000000F0C40003F0240008B
:10004000110C4000130C4000150C4000170C400030
:10005000190C40001B0C40001D0C4000FF0B400021
:10006000D50140001F0C4000210C4000230C400033
:10007000250C4000270C4000290C40002B0C4000B0
:10008000FF0B4000FF0B40002D0C40002F0C4000E8
:10009000310C4000330C4000350C4000A1134000EF
:1000A000370C400031164000390C40003B0C40003A
:1000B0003D0C40003F0C400049014000410C400015
:1000C000430C4000450C4000470C4000FF0B400033
:1000D00010B440B24109DFF82426012310F01F04B8
:1000E000A34042F8213010BC704740B2002809D527
:1000F00040B210F00F02DFF80836D2180B0102F8F8
:10010000043C04E040B2DFF8FC250B018354704747
:1001100010B50400B4F1807F01D3012013E0200268
:10012000000A401EDFF8E01508600F215FF0FF3085
:10013000FFF7DBFFDFF8D40500210160DFF8D00511
:1001400007210160002010BD10B5DFF8C805006868
:100150000400A0073DD5DFF8C005007864280FD360
:10016000DFF8B8050079002801D100F0A3F9DFF825
:10017000A80500210170DFF8A8050021017024E026
:10018000DFF89405007832280BD1DFF89005C078AD
:10019000022806D100F08EF9DFF8840500210170F5
:1001A00013E0DFF87405007832280ED1DFF86C0513
:1001B0000079012809D1DFF864050021017100F000
:1001C00079F9DFF85C0500210170DFF8580502219C
:1001D000016010BD38B5DFF8500500680400E00785
:1001E0002CD5DFF84805007814281ED2DFF83C052E
:1001F0004578DFF83805691C417000F0E5FAEDB28A
:10020000DFF828156918C870DFF820050078401C51
:10021000DFF818150870DFF81405407814280DD39E
:10022000DFF808050021417008E000F0CDFADFF8A2
:10023000FC144978DFF8F4248918C87031BD10B572
:10024000DFF8DC040078DFF8D414C97890FBF1F211
:1002500001FB1200002822D1DFF8BC040078DFF88F
:10026000D01431F91000DFF8CC140988484340F26B
:10027000FF7190FBF1F000F2FF700400DFF89804CA
:100280000078401CDFF890140870A4B22100DFF859
:10029000A80400F019FBDFF8A40402210160DFF8D4
:1002A00080040078401CDFF87814087010BD00B599
:1002B00087B0DFF8800440F2FF710180DFF880042E
:1002C0004FF47A710180DFF87C04DFF87414098838
:1002D0006422514390FBF1F0FFF71AFF10200690C3
:1002E000002005900020049008200390DFF85404BB
:1002F00002900020019000200090002300221E2187
:10030000DFF8340400F082FA1E20FFF7E1FE052139
:100310001E20FFF7EAFEDFF8040400210170DFF879
:10032000FC0300214170DFF8F40301218170DFF844
:10033000EC030121C170DFF8E40300210171DFF853
:10034000E00300210170DFF8D003002101700120DB
:10035000DFF8F41391F900108840DFF8F01308601B
:10036000DFF8CC03B0F9B400DFF8C81309884843BC
:1003700040F2FF7190FBF1F000F2FF71DFF8B8037B
:1003800000F0A2FADFF8B4030221016007B000BD5B
:1003900080B50820FFF79CFEDFF8B403012101605F
:1003A00001BDDFF8880300787047DFF88013097813
:1003B00000291ED0DFF874138978DFF870238918BC
:1003C000C9780800DFF864138978491CDFF85C23DA
:1003D0009170DFF858130978491EDFF85023117027
:1003E000DFF848138978142903D3DFF8401300227B
:1003F0008A70C0B27047DFF8241309780122824066
:10040000114219D0DFF814138978012914D1DFF8CB
:1004100044130978491CDFF83C231170DFF8FC1203
:100420000122CA70DFF8F0120978322941D1DFF8D1
:10043000EC1201220A713CE0B8490978012282409D
:10044000114211D0B549897800290DD1DFF8041384
:100450000978491CDFF8FC221170B0490222CA70E9
:10046000AE4901228A7024E0AC4909780122824019
:1004700011420AD1A9498978012906D1A749022246
:10048000CA70A64900228A7013E0A44909780122A3
:10049000824011420DD1A1498978002909D19F4993
:1004A0000122CA709C490978322902D19B49012254
:1004B0000A71704710B599484478E4B220000028CA
:1004C00020D0012833D002283BD003283DD0042877
:1004D0003FD0052800F08A80062800F08080072899
:1004E00076D008286DD0092864D00A285BD00B2864
:1004F00052D00C2849D00D2800F0F5800F2800F0CC
:10050000D680FAE0FFF74DFF00280FD08348012185
:10051000417082480221C170804800218170FFF73C
:1005200044FF7E4908707C4800210170E5E089485D
:10053000002101700020FFF75EFF78480C21417018
:10054000DBE0764803214170D7E074480421417014
:10055000D3E07248007800060DD570480121C170C3
:100560006E48012181706C480078322809D16B48AF
:100570000121017105E069480221C170674800212D
:100580008170664805214170B7E00120FFF733FF15
:1005900062480B214170B0E00220FFF72CFF5F485A
:1005A0000A214170A9E00320FFF725FF5B480921DC
:1005B0004170A2E00420FFF71EFF58480821417057
:1005C0009BE00520FFF717FF54480721417094E096
:1005D0000620FFF710FF5148062141708DE00720EB
:1005E000FFF709FF4D480521417086E05948007822
:1005F000022190FBF1F202FB1102002A11D14748BF
:10060000807801280DD145480121C170434801215E
:10061000817041480078322845D14048012101715C
:1006200041E04C480078022190FBF1F202FB1102FC
:10063000002A0AD139488078002806D1374802219B
:10064000C1703648012181702DE0424800780221B6
:1006500090FBF1F202FB1102012A11D12F488078A0
:1006600000280DD12D480121C1702C480021817036
:1006700029480078322816D128480121017112E05A
:1006800034480078022190FBF1F202FB1102012AAA
:1006900009D122488078012805D120480221C17063
:1006A0001E48002181701D480F21417025E01B4824
:1006B000807801280DD119480121C1701748012106
:1006C000817015480078322809D114480121017140
:1006D00005E012480221C1701048002181700F48C6
:1006E0000D21417009E00D48002141700B480121A6
:1006F000C1700A4801218170FFE710BD00E100E0F0
:1007000018ED00E000E400E014E000E018E000E094
:1007100010E000E030C00340370000201800002047
:100720003800002028C0034014060E4000000020BE
:10073000DC1A40003200002000C0034024C0034007
:10074000300000200090D0033900002010C003408A
:1007500008060E403600002070B584B004000D007D
:1007600000A821494CC94CC00C390C381F4E01213E
:1007700000A800F026F91E484FF480710160AC20FB
:1007800030604FF400607060B5FBF4F00009306237
:1007900040F20220C6F820015020306015480121A7
:1007A00001707FBD38B50400104D12480078002854
:1007B00004D111495FF4E130FFF7CEFF686980058D
:1007C000FCD5E4B2EC6131BD10B5084C09480078A5
:1007D000002804D108495FF4E130FFF7BDFF6069EC
:1007E000C007FCD5A06910BD2C20400000060E40BB
:1007F00010040E403A0000200090D00310B5040011
:100800002000C0B2FFF7CEFF200010BD2DE9F84F49
:1008100006000F00904699460C980D9C0E9DDDF841
:100820003CA0DDF840B0E4B25FF47A2101FB04F1B2
:100830004008B1FBF0F0142806D36A221F49204873
:1008400000F022F900F01FF90120B8401D490860AE
:10085000012030605FFA88F818F001005FFA89F92A
:100860005FEA490111F00E0108439DF82810C1F319
:100870000001C9B2090111F0100108439DF82C10C4
:10088000C1F30001C9B2490111F020010843E4B2EB
:1008900050EA0420EDB2290411F440310843CAF3B0
:1008A0000001090511F4801108435FEA0B6111F0A2
:1008B0007C5108437060BDE8F18F0000241C4000AB
:1008C000D41E400010040E404268D20601D50162D9
:1008D00001E089B2016270474164D2B2002A01D0BE
:1008E000416600E00166026F036F8A431A400267A7
:1008F000426F436F8A431A404267416070474164C8
:10090000D2B2002A01D0416600E00166026F0A43BC
:100910000267426F436F8A431A40426741607047E3
:100920004164D2B2002A01D0416600E00166026F44
:10093000036F8A431A400267426F0A43426741606D
:1009400070474164D2B2002A01D0416600E00166DE
:10095000026F0A430267426F0A4342674160704771
:100960004164D30701D5416600E001660A231A42BB
:1009700001D0016200E04162930702D5C0F8801007
:1009800003E0120701D5C0F884104161016070478F
:1009900010B4019C4164E4B2002C01D0416600E037
:1009A0000166DBB2002B01D0016500E04165D2B2E7
:1009B000002A01D0016300E041630161016010BCC5
:1009C000704738B504000D0009E0A07A10F001026C
:1009D00021686068FFF780FF04F20C046D1E002D93
:1009E00047D0607A0028F0D002280FD006D3042820
:1009F0001CD013D3062822D021D338E0A07A10F0DF
:100A0000010221686068FFF77AFFE5E7A07A10F03D
:100A1000010221686068FFF783FFDDE7A07A10F02C
:100A2000010221686068FFF78CFFD5E7207A00F0AB
:100A30005DF8A27A21686068FFF792FFCCE7A07AA0
:100A400010F00100A17A490701D5012300E000233D
:100A5000617A062901D1012200E00022C0B2009093
:100A6000DBB2D2B221686068FFF792FFB4E70020E2
:100A700000E0012032BD41680068086370474168AA
:100A80000068486370477047F0B583B00C460A2190
:100A900000238DF80A3002AB0A25491EC9B292FB29
:100AA000F5F606EB8607A2EB470230325A70324663
:100AB000012A0FDB491EC9B292FBF5F606EB860749
:100AC000A2EB470230321A703246012AA4BF9B1EA5
:100AD0000129E2DA0346002200A80918204600F0A6
:100AE00046F808B900F088F803B0F0BD10B504006E
:100AF000232C06D33B2212491248FFF7C5FFFFF70C
:100B0000C2FF202C0DD2104800680121A1400840EE
:100B10000121A140884212D00120A0400B49086069
:100B20000DE0203C0A4800680121A1400840012155
:100B3000A140884203D00120A0400649086010BDB2
:100B4000A41B40002020400018040E4010040E405A
:100B500008050E4000050E4010B5044603E014F8E9
:100B6000010BFFF74BFE20780028F8D110BDF8B537
:100B700004460D4616461F4656B10FF24400FFF7D5
:100B8000EBFF3046FFF7E8FF0FF24400FFF7E4FF0A
:100B90002046FFF7E1FF0FF24000FFF7DDFF284698
:100BA000FFF7DAFF0FF23400FFF7D6FF3846FFF702
:100BB000D3FF0FF22C00FFF7CFFF0020F2BD0000A3
:100BC000496E2066756E6374696F6E2000000000C8
:100BD000202D2D20000000003A0000002000000021
:100BE000202D2D20617373657274696F6E206661AC
:100BF000696C65640A000000012000F025B8FEE77A
:100C0000FEE7FEE7FEE7FEE7FEE7FEE7FEE7FEE7BC
:100C1000FEE7FEE7FEE7FEE7FEE7FEE7FEE7FEE7AC
:100C2000FEE7FEE7FEE7FEE7FEE7FEE7FEE7FEE79C
:100C3000FEE7FEE7FEE7FEE7FEE7FEE7FEE7FEE78C
:100C4000FEE7FEE7FEE7FEE701491820ABBEFBE743
:100C5000260002002DE9F04F93B0814617461D464D
:100C6000029102AE002009E017F8011B0298C84764
:100C70000290002800F0CF81B069401CB061387844
:100C800008B9B069C9E12528EED10020F0603061D3
:100C9000706101E040F0010017F8011F2029F9D030
:100CA00023290ED02B2904D02D2906D030290CD091
:100CB0000FE040F0020080B2EEE740F0040080B2A6
:100CC000EAE740F0080080B2E6E740F0100080B2AA
:100CD000E2E72A290DD129680A1D2A6009683162D4
:100CE000002904D54942316240F0040080B27F1CE3
:100CF00013E0002131620BE0316A6FF0004399424A
:100D000005D001EB810302EB4301303931627F1CD6
:100D10003A78A2F130010A29EED339782E291CBF86
:100D20004FF0FF31F1611ED117F8011F2A2906D1BA
:100D300029680A1D2A600968F1617F1C13E00021FF
:100D4000F1610BE0F1696FF00043994205D001EBCE
:100D5000810302EB43013039F1617F1C3A78A2F143
:100D600030010A29EED3B08439780FF2843000F0D4
:100D7000C3F908B117F8010B8DF82E009DF82E006D
:100D8000682804BF3878682803D162208DF82E00C7
:100D90007F1C0CA8B0603A78252A00F0B980582A48
:100DA00030D0632A00F0A380642A18BF692A64D077
:100DB0006F2A27D0702A1CD0732A04D0752A18BF36
:100DC000782A1FD09DE02868011D296000687060A6
:100DD000F269002A03D500F0ABF930619DE00021F3
:100DE00000F0C2F900281ABF7168401AF06930613A
:100DF00093E02868011D2960006801900CA87060CC
:100E0000782170E09DF82E306C2B08BF286811D037
:100E1000712B08BF286802D06A2B28680AD1C01D30
:100E200020F007002860014601F108002860D1E9A0
:100E3000000102E0011D296000680190682B04BFD9
:100E400001A8008803D0622B02D101A8007801908C
:100E500096F82400000741D5019800283ED042F0C2
:100E6000200078283AD1F0680CA930234354401C64
:100E7000411CF1600CA9425430E09DF82E0062281C
:100E800002D0682806D00BE02868011D296090F97F
:100E9000000009E02868011D2960B0F9000003E0A6
:100EA0002868011D296000680190002805D5F068B8
:100EB000411CF1600CA92D230FE0B08C810705D5F2
:100EC000F068411CF1600CA92B2306E0C00705D592
:100ED000F068411CF1600CA920234354F0680CA970
:100EE00040187060114601A800F09AF815E0F0680B
:100EF000411CF16029680A1D2A600CAA0968815406
:100F00000BE0F068411CF1600CA92523435422B189
:100F1000F068411CF1600CA942547F1C306AF168F2
:100F2000401A7169401A3169A0EB010896F8240053
:100F3000400719D420208DF80000B8F1010F13DB11
:100F400044464FF0010A0DF1000B1BF8011B0298FB
:100F5000C847029000285ED0B069401CB061BAF169
:100F6000010AF2D1641EECD1F4680DF1300A5CB1D3
:100F70001AF8011B0298C847029000284BD0B069AC
:100F8000401CB061641EF3D130208DF80000D6F80B
:100F900014B0BBF1010F10DB01240DF1000A1AF8A7
:100FA000011B0298C8470290A8B3B069401CB06109
:100FB000641EF4D1BBF1010BEED13469D6F804A064
:100FC00054B11AF8011B0298C847029018B3B069CF
:100FD000401CB061641EF4D196F8240040077FF5F0
:100FE0004EAE20208DF80000B8F1010FFFF647AE9D
:100FF00001240DF1000A1AF8011B0298C84702905B
:1010000048B1B069401CB061641EF4D1B8F1010868
:101010003FF435AEECE74FF0FF3013B0BDE8F08F92
:10102000F0B4C2686F2908BF082405D041F020033E
:10103000782B14BF0A241024182305682E4664292F
:1010400018BF692902D1002D48BF7642002E04BF87
:10105000056A002D09D1082C27D190F8281009071E
:1010600023D517233021D1751FE05D1E2B46B6FB1B
:10107000F4F704FB17663036F6B23A2E24BFA1F11E
:10108000510C6644AE543E0003D085689F18BD42A3
:10109000EBD3082C09D190F82810090705D5995CE5
:1010A000302902D05B1E30219954C3F118014161EF
:1010B0009A188260026A914207DA511A8161018DA1
:1010C0004FF6EF721140018510E0002A0ED590F81E
:1010D000282002F01402102A08D1426A0369D21AA9
:1010E0008369D21A531A012BA8BF8361F0BC7047E1
:1010F000686C747A4C0000000278C9B28A421AB156
:101100001CBF10F8012FF9E718BF0020704750F8F6
:10111000041B61B150F8042BD30744BFA9F10103AC
:101120009A18002342F8043B091FFAD1EFE77047F1
:1011300000F10103810704D010F8011B89B1810778
:10114000FAD10268B2F10131914311F0803F04BF3E
:1011500050F8042FF6E710F8011B11B110F8011B2D
:10116000FBE7C01A70470000C9B2830706D0521EC1
:1011700022D310F8013B9942F7D11FE0083A13D36C
:1011800002F1040241EA012141EA014150F8043B25
:10119000121F21BF4B40A3F1013C2CEA030C1CF0B1
:1011A000803FF3D0C9B2001F083210F8013B521E35
:1011B00028BF91EA030FF8D818BF0120401E7047DE
:1011C00010B440B24109C64A012310F01F04A340E5
:1011D00042F8213010BC704710B440B24109C14AF6
:1011E000012310F01F04A34042F8213010BC7047C7
:1011F00010B440B24109BC4A012310F01F04A340BF
:1012000042F8213010BC704740B2002808D540B2E7
:1012100010F00F02B54BD2180B0102F8043C03E0AA
:1012200040B2B34A0B018354704710B50400B4F1C7
:10123000807F01D3012010E02002000A401EAD494A
:1012400008600F215FF0FF30FFF7DEFFAA480021A2
:101250000160AA4807210160002010BD2DE9F0437C
:1012600083B004000D0000275FF000085FF0000964
:1012700000A80021002206C00838FFF7A5FA0600E2
:1012800076B20A2E02D076B20D2E03D143A000F022
:101290006BF911E076B2302EEFDB76B23A2EECDA53
:1012A00076B231008CA000F05FF97FB200A83E5406
:1012B0007F1C7FB2042FE0DB7FB200A800213954ED
:1012C000B94600208046002007007FB2042F39DA9B
:1012D0007FB200A83856302832D04FFA89F97FB251
:1012E000B9EB0700401E002805D0022814D009D30E
:1012F00003281BD024E07FB200A83856303810EB0A
:1013000008081DE00FFA88F87FB200A83856303878
:101310000A2101FB008813E00FFA88F87FB200A8C9
:1013200038563038642101FB008809E00FFA88F84C
:101330007FB200A8385630384FF47A7101FB00882C
:101340007F1CC2E72DB20FFA88F8454504DB0FFA7F
:1013500088F824B2A04505DA694800F005F95FF085
:10136000FF3001E0404600B2BDE8FE8380B565482D
:1013700000F0FAF8644800F0F7F8644800F0F4F878
:10138000634800F0F1F8634800F0EEF8624800F0BE
:10139000EBF8624800F0E8F801BD00000D0A00001B
:1013A000704770B55E4800F0F1F806215D48FFF720
:1013B00008FB002000F0EEF82023062200215A4806
:1013C00000F0D2F8594A5A495A4800F0CDF85A4824
:1013D00000F0CAF8FEF76BFF00F04CF91920FFF798
:1013E000FBFE1920FFF704FF00211920FFF70CFF77
:1013F0001920FFF7E5FEFEF7CBFF504800780028E4
:1014000004D04E480021017000F0B0F9E4B2200091
:1014100030280ED031282CD047284CD049283FD036
:101420004D2845D0672846D0692839D06D283FD04F
:10143000E3E7434800F098F840F6B831C820FFF7DA
:101440000DFF050025A000F08FF82DB229003D48C2
:1014500000F08AF82DB2012D0ADB3B482DB2642141
:1014600001FB05F190FBF1F0FFF7DFFE3748058047
:10147000C3E7374800F078F840F2FF716420FFF7C7
:10148000EDFE060015A000F06FF836B231003148CD
:1014900000F06AF836B2012E01DB2F480680ACE777
:1014A0002D480288294801882C4800F05DF8A4E7FF
:1014B000FFF75CFFA1E7FEF774FF002807D0FEF7F7
:1014C00074FFC0B20100264800F04EF802E0254843
:1014D00000F04AF891E70000256300000D0A0000C3
:1014E00000E100E080E100E080E200E018ED00E0D3
:1014F00000E400E014E000E018E000E010E000E0AC
:10150000741E4000841D4000AC1D4000D41D4000EE
:10151000241D4000941E4000F41E4000B41E4000F4
:1015200050140E40A41C4000F81D4000FC1F400059
:10153000F01F4000481F4000101F400034000020F2
:1015400008204000601F40000090D00330000020C1
:1015500014204000781F4000320000201C1E400074
:101560002C1F4000901F40000EB400B582B003A9AC
:10157000009100AB02460121034878440A30FFF78E
:1015800069FB06BC5DF810FB470A00004FF4004100
:101590004160704780B524490968884201D3002022
:1015A00006E001210C22214B02FB0030FFF709FA73
:1015B00002BD80B51C490968884201D3002014E0AF
:1015C0000C211A4A01FB0021497A052906D10C2178
:1015D000164A01FB0020FFF74EFA05E00C21134AE2
:1015E00001FB0020FFF74BFA012002BD80B50E4938
:1015F0000968884201D3002014E00C210B4A01FB4A
:101600000021497A052906D10C21084A01FB002056
:10161000FFF735FA05E00C21044A01FB0020FFF733
:101620002AFA012002BD000044204000401E400074
:1016300010B5DFF8140300680400A00619D5DFF820
:101640000C03DFF80C1309680160DFF808030121BF
:101650000170A00307D50020FFF7C8FFDFF8F802EC
:101660000221017005E00020FFF7A3FFBA48012125
:10167000017010BD80B50121B848FFF7A2F919200B
:10168000FFF734FAB64802210160B6485FF0FF3137
:101690000160AD4800680090B348B4490160B448A7
:1016A00020210160AE480521016001BD0100480014
:1016B00002004FF4EE70824205D340F226208242AF
:1016C00001D2012000E00020704701004800020024
:1016D0004FF47470824205D340F21A40824201D224
:1016E000012000E00020704738B504000D00A1483B
:1016F0000068FFF7EAFF002820D09748007801280B
:1017000007D19D4880780121A14088439A4988707B
:101710000BE0994880780121A140084396498870E0
:1017200095484078401C94494870944800210160D5
:101730009048002101609048057016E08D480068CF
:10174000FFF7B4FF002807D08C480068002803D1B9
:101750008A48FA21016008E0874800210170874823
:101760000021016083480021016031BD80B58348BC
:1017700000687649096808187E4908607E48007844
:10178000002817D0012823D0052868D0062861D06A
:1017900007285AD0082853D009284CD00A2845D009
:1017A0000B283ED00C2837D00D2800F09B800F2846
:1017B0005AD0C7E068480078022808D16E48012155
:1017C00001706E48002101606A4800210160B9E0A3
:1017D00068480068FFF779FF002813D05E4800785A
:1017E00001280FD165480021016062480021016095
:1017F0006148002181706048002141705E480C21E1
:10180000017008E05D48002101605A480021016034
:1018100059480021017095E00B210020FFF764FF7B
:1018200090E00A210120FFF75FFF8BE009210220F1
:10183000FFF75AFF86E008210320FFF755FF81E0FC
:1018400007210420FFF750FF7CE006210520FFF769
:101850004BFF77E005210620FFF746FF72E00F21DE
:101860000720FFF741FF6DE042480068FFF72DFFBA
:1018700000281FD038480078022804D13E4840781C
:10188000401C3D4948703C484078022190FBF1F2F1
:1018900002FB1102012A03D137480D21017002E039
:1018A0003548002101703548002101603148002190
:1018B000016016E02F480068FFF7F8FE002807D007
:1018C0002E480068002803D12C48FA21016008E066
:1018D0002948002101702948002101602548002184
:1018E00001602FE023480068FFF7EFFE002811D0C9
:1018F00019480078022803D11F488078FEF752FF6C
:101900001D48002101701D48002101601948002177
:10191000016016E017480068FFF7C8FE002807D0EE
:1019200016480068002803D11448FA21016008E035
:101930001148002101701148002101600D4800216B
:101940000160FFE701BD0000A0000140240000206D
:10195000940001403400002035000020E41F4000C6
:1019600080000140A80001408400014003070300FB
:10197000A40001402C0000202000002028000020AE
:1019800000204B494FF4C0620A604A49096831F0AF
:101990007001494A1143474A116048480068800372
:1019A000FBD5474800688008800050F0010044499A
:1019B0000860424800680007FBD54148006841497B
:1019C00008403F4908603D4800680007FBD539489A
:1019D000006830F0807050F45C1036490860374879
:1019E0000068C003FBD538485FF000510160334800
:1019F00000688007FBD435485FF0005101602F4834
:101A000000684007FBD42B4800684008400050F4B1
:101A10005C102849086029480068C007FBD42448A6
:101A20000021016022484FF4C06101602148006834
:101A3000274908431F49086020480068C007FBD5B4
:101A40001C480068234908431A4908601B4800687D
:101A5000C003FBD51C482049016018480068800776
:101A6000FBD51748006830F070001549086013482E
:101A700000680007FBD5124800688008800050F01D
:101A800002000F4908600D4800680007FBD50948AF
:101A9000006830F0080050F45C1006490860074800
:101AA00000688003FBD402484FF440710160704726
:101AB000000A0E4020040E402800370068040E4043
:101AC00030040E408FCFFFFF28040E402C040E4040
:101AD000012037000000370103010F2000008000C3
:101AE00000017F01FD017802F1026703DA03490476
:101AF000B30419057905D40529067806C00602073E
:101B00003C076F079B07BF07DB07EF07FB07FF07D4
:101B1000FB07EF07DB07BF079B076F073C070207C1
:101B2000C00678062906D40579051905B3044904C9
:101B3000DA036703F1027802FD017F0100018000F2
:101B4000000080FF00FF81FE03FE88FD0FFD99FC71
:101B500026FCB7FB4DFBE7FA87FA2CFAD7F988F990
:101B600040F9FEF8C4F891F865F841F825F811F845
:101B700005F801F805F811F825F841F865F891F82D
:101B8000C4F8FEF840F988F9D7F92CFA87FAE7FA91
:101B90004DFBB7FB26FC99FC0FFD88FD03FE81FE83
:101BA00000FF80FF433A5C50726F6772616D2046A0
:101BB000696C65735C4941522053797374656D7328
:101BC0005C456D62656464656420576F726B626525
:101BD0006E636820352E345F345C61726D5C6578AD
:101BE000616D706C65735C41746D656C5C73616D87
:101BF00033735C73616D33732D656B5C6C696272FA
:101C000061726965735C6C6962636869705F736156
:101C10006D33735C736F757263655C706D632E6397
:101C200000000000433A5C50726F6772616D20469D
:101C3000696C65735C4941522053797374656D73A7
:101C40005C456D62656464656420576F726B6265A4
:101C50006E636820352E345F345C61726D5C65782C
:101C6000616D706C65735C41746D656C5C73616D06
:101C700033735C73616D33732D656B5C6C69627279
:101C800061726965735C6C6962636869705F7361D6
:101C90006D33735C736F757263655C646163632E2F
:101CA0006300000000002000000E0E400B0000004A
:101CB00000004000000E0E400B000000000000027B
:101CC000000E0E400B00000000000001000E0E4050
:101CD0000B00000000008000000E0E400B0500000D
:101CE00000000400000E0E400B01000010B50A4C6D
:101CF000FFF746FE0948204009490860B4F100504A
:101D0000B0F5404F05D20648006850F00050044935
:101D10000860012010BD00BF0000400080FFFF1FD1
:101D200008ED00E02D2D20693A20446973706C6144
:101D3000792070726573656E742066726571756561
:101D40006E637920616E6420616D706C6974756476
:101D5000652E2D2D0D0A000010B5084979441C315F
:101D6000074C7C441A34A14206D0081D0A68511859
:101D700088470146A142F8D110BD00BFE80000002D
:101D8000F40000002D2D204D656E752043686F69AD
:101D900063657320666F722074686973206578616B
:101DA0006D706C652D2D0D0A000000002D2D20306A
:101DB0003A20536574206672657175656E63792883
:101DC000323030487A2D336B487A292E2D2D0D0A6A
:101DD000000000002D2D20313A2053657420616DE4
:101DE000706C6974756465283130302D3230343749
:101DF000292E2D2D0D0A00002D2D2050686F6E65A7
:101E00002053696D756C61746F72205625642E25A0
:101E10003032642563202D2D0D0A00002D492D2020
:101E20004672657175656E63793A256420487A203B
:101E3000416D706C69747564653A25640D0A000023
:101E400000000800000E0E400B060000000010000D
:101E5000000E0E400B0600000000100000120E40A5
:101E60000D060000ABF2FFFF3C0000000000002068
:101E7000000000000D0A2D462D20496E707574205B
:101E800076616C756520697320696E76616C696432
:101E9000210A00002D2D206D3A20446973706C6179
:101EA000792074686973206D656E752E2D2D0D0A6D
:101EB000000000002D2D20633A206F75747075743A
:101EC00020636F73696E6520776176652E2D2D0D09
:101ED0000A000000313032342A7265667265736818
:101EE0002A313030302F286D636B3E3E3129203C43
:101EF000203230002D2D20733A206F757470757468
:101F00002073696E6520776176652E2D2D0D0A0090
:101F10002D2D20506C6174666F726D3A2073616D67
:101F200033732D656B202D2D0D0A00002D552D20AE
:101F300042756666657220697320616374697665AF
:101F40002C2025630D0A00002D2D20436F6D706934
:101F50006C65643A202573202573202D2D0D0A0011
:101F6000536574206672657175656E637920746F50
:101F70003A2564487A0A000053657420616D706CDC
:101F8000697475646520746F202564200A00000060
:101F90002D552D2042756666657220697320656D2A
:101FA0007074792E0D0A0000FFF7A0FE002801D002
:101FB000FFF7D2FE0020FFF7F4F900F000F800F080
:101FC00001B8000007463846FEF73EFEFBE738B58D
:101FD00004460D462846FEF711FCA84218BF00240F
:101FE000204632BD00000004000E0E400B0400002D
:101FF0004A616E20203220323031330031303A35A0
:10200000303A3138000000004672657175656E63C4
:10201000793A0000416D706C69747564653A00002E
:1020200064774964203C203335000000000600003E
:10203000000E0E400B000000C046C046C046C04621
:08204000FFF7B2FF03000000EE
:04000005004020395E
:00000001FF
