:020000040040BA
:1000000000300020491940006F1540007115400074
:100010007315400075154000771540000000000082
:100020000000000000000000000000007915400002
:100030007B154000000000007D154000E9014000F4
:100040007F15400081154000831540008515400054
:1000500087154000891540008B1540006D15400044
:100060008D1540008F1540009115400093154000FC
:100070009515400097154000991540007701400004
:100080006D1540006D1540009B1540009D1540000A
:100090009F154000A1154000A3154000250B40000E
:1000A000A5154000A7154000A9154000AB1540005C
:1000B000AD154000AF154000EB004000B115400009
:1000C000B3154000B5154000B71540006D15400050
:1000D00010B440B24109DFF81C24012310F01F04C2
:1000E000A34042F8213010BC704710B5DFF8080477
:1000F00000680400A0073DD5DFF8000400786428FC
:100100000FD3DFF8FC030079002801D100F045F996
:10011000DFF8E80300210170DFF8E8030021017037
:1001200024E0DFF8D803007832280BD1DFF8D003C1
:10013000C078022806D100F030F9DFF8C8030021AA
:10014000017013E0DFF8B403007832280ED1DFF835
:10015000B0030079012809D1DFF8A403002101715F
:1001600000F01BF9DFF89C0300210170DFF8980311
:100170000221016010BD38B5DFF89003006804006B
:10018000E00730D5DFF888030078142820D2DFF8A4
:1001900080034578DFF87803691C4170DFF8740349
:1001A00001F042F9EDB2DFF868136918C870DFF8A2
:1001B00060030078401CDFF858130870DFF8500324
:1001C000407814280FD3DFF84803002141700AE07B
:1001D000DFF8400301F028F9DFF834134978DFF83D
:1001E00030238918C87031BD10B5DFF818030078C6
:1001F000DFF80C13C97890FBF1F201FB1200002824
:100200003BD1DFF8FC02407800281FD0DFF8EC0279
:100210000078DFF8041331F91000DFF800130988C3
:10022000484340F2FF7190FBF1F000F2FF700400D0
:10023000B2480078401CB1490870A4B22100B84807
:1002400000F076FFB7480221016016E0AB48007865
:10025000401CAA490870B048B0F90000AF490988AD
:10026000484340F2FF7190FBF1F000F2FF71AC489F
:1002700000F05EFFAB4802210160A2480078401CFC
:10028000A049087010BD10B54FF40C600400A648DA
:100290004FF400410160A54B5FF4E13221009D481D
:1002A00001F08CF80F20FFF713FF0121994801F0AE
:1002B000A6F80121974801F0ABF89D4801210160A3
:1002C00010BD93480078704791490978002916D0ED
:1002D0008F4989788E4A8918C97808008C498978AD
:1002E000491C8B4A91708A490978491E884A1170C5
:1002F00087498978142902D3854900228A70C0B2BF
:1003000070477F4909780122824011420ED07C4912
:10031000897801290AD17A490122CA707749097876
:10032000322939D1764901220A7135E074490978B8
:100330000122824011420AD071498978002906D1F0
:100340006F490222CA706E4901228A7024E06C490A
:1003500009780122824011420AD16949897801292C
:1003600006D167490222CA70654900228A7013E0EB
:10037000634909780122824011420DD16049897890
:10038000002909D15E490122CA705C4909783229E5
:1003900002D15B4901220A71704710B55848407874
:1003A0000400E4B2002C15D0022C2AD025D3042C52
:1003B0002FD02AD3062C4FD047D3082C5AD052D353
:1003C0000A2C65D05DD30C2C70D068D30D2C00F0B6
:1003D00086808EE0FFF775FF002800F08A8048488D
:1003E0000121417046480221C170FFF76DFF444969
:1003F00008704248002101707BE0414802214170B1
:1004000077E03F480321417073E03D48042141708B
:100410006FE03B48007800060DD539480121C170D6
:1004200037480121817035480078322809D1344895
:100430000121017105E032480221C17030480021DC
:1004400081702F480521417053E00620FFF759FFC6
:100450002B48062141704CE00520FFF752FF284849
:100460000721417045E00420FFF74BFF2448082195
:1004700041703EE00320FFF744FF2148092141700D
:1004800037E00220FFF73DFF1D480A21417030E0B0
:100490000120FFF736FF1A480B21417029E00020A8
:1004A000FFF72FFF16480C21417022E014480D2160
:1004B00041701348807801280AD111480121C17088
:1004C0000E480078322806D10D480121017102E062
:1004D0000B480221C1700A480121817009E00848D7
:1004E0000021417006480121C17005480121817039
:1004F000FFE710BD00E100E030C0034025300020E0
:10050000183000202630002028C00340148002400C
:1005100000300020008002404011400022300020C6
:1005200000C0034024C0034010040E400090D003DC
:10053000088002402DE9F04F93B017461C46019009
:1005400001AD69600020E8610CAE6FF0004802E088
:10055000E869401CE861387818B9E86913B0BDE86B
:10056000F08F252813D1002028616861A86117F851
:10057000011F202908D023291BD02B2912D02D2977
:1005800014D0302918D01AE040F00100EFE717F836
:10059000011B6868019A904768600028D8D14FF025
:1005A000FF30DBE740F0020080B2E0E740F00400FB
:1005B000FAE740F00800F7E740F01000F4E72A29D6
:1005C0000DD12268111D216011686962002904D5CE
:1005D0004942696240F0040080B27F1C12E00021B1
:1005E000696209E0696A414505D001EB810302EBCC
:1005F0004301303969627F1C3A78A2F13001C9B2F7
:100600000A29EFD339782E291CBF4FF0FF31296218
:100610001DD117F8011F2A2906D12268111D21605A
:10062000116829627F1C12E00021296209E0296A11
:10063000414505D001EB810302EB430130392962CA
:100640007F1C3A78A2F13001C9B20A29EFD328857C
:100650003978874801F084F908B117F8010B8DF853
:100660002E009DF82E00682806D13878682803D11E
:1006700062208DF82E007F1C0CA8E8603A78582A7A
:1006800046D0632A0ED0642A15D0692A13D06F2A67
:100690003ED0702A71D0732A78D0752A38D0782A43
:1006A00036D088E02869411C29612268111D21602B
:1006B0001168815585E02168081D206008689DF853
:1006C0002E10682908BF00B202D0622908BF40B2CC
:1006D000002804D529694B1C2B612D230DE0298DA1
:1006E0008B0704D529694B1C2B612B2305E0C90717
:1006F00004D529694B1C2B6120238B5529690CAB30
:10070000C918A9600090114600A800F0D2F858E07E
:100710009DF82E006C280FD071280BD12068C01DC9
:1007200020F007002060034603F108002060D3E9B1
:10073000000105E06A28F1D02168081D20600868E2
:100740009DF82E10682908BF80B202D0622908BF28
:10075000C0B295F828100907D0D50028CED042F0B5
:1007600020017829CAD129694B1C2B6130238B5574
:1007700029694B1C2B618A55C0E72168081D206040
:1007800008680CA9A96000907821BDE72168081DC0
:1007900020600868A8602A6A002A02D500F06AFF73
:1007A00007E0002100F0B6FE00281ABFA968401A31
:1007B000286A686105E02869411C296102B925227F
:1007C00082557F1C686A2969401AA969401A6969BB
:1007D000A0EB010995F82800400707D420224946DC
:1007E00000A800F047F800283FF4D9AED5F810A0D3
:1007F0000DF1300BBAF1000F0ED01BF8011B686829
:10080000019A9047686000283FF4C9AEE869401C2F
:10081000E861BAF1010AF0D13022A96900A800F01C
:1008200029F800283FF4BBAED5F814A0D5F808B0DD
:10083000BAF1000F0ED01BF8011B6868019A9047AF
:10084000686000283FF4ABAEE869401CE861BAF18B
:10085000010AF0D195F8280040077FF57CAE2022F0
:10086000494600A800F006F800287FF474AE96E62A
:10087000F41940002DE9F64104460D460026012DED
:1008800014DB01270DF1040804E0206A401C2062FB
:100890007F1E08D018F8011BA06862689047A0600E
:1008A0000028F2D103E0761CAE42EADB0120BDE86D
:1008B000F681F0B402696F2908BF082405D041F021
:1008C0002003782B14BF0A241024182305682E4611
:1008D000642901D0692902D1002D48BF76420EB9A2
:1008E000456A9DB15D1E2B46B6FBF4F704FB176607
:1008F0003036F6B23A2E24BFA1F1510C6644AE5404
:100900003E0003D0C5689F18BD42EBD3082C09D127
:1009100090F82C10090705D5995C302902D05B1E90
:1009200030219954C3F1180181619A18C260426A5A
:10093000914206DA511AC161818D21F01001818541
:1009400010E0002A0ED590F82C2002F01402102A94
:1009500008D1826A4369D21AC369D21A531A012B89
:10096000A8BFC361F0BC704710B440B24109DFF8C2
:100970006C23012310F01F04A34042F8213010BC67
:10098000704740B2002809D540B210F00F02DFF8DE
:100990005033D2180B0102F8043C04E040B2DFF8F7
:1009A00044230B018354704710B50400B4F1807FD9
:1009B00001D3012010E02002000A401ECA4908604D
:1009C0000F215FF0FF30FFF7DCFFC8480021016016
:1009D000C74807210160002010BD2DE9F04383B016
:1009E00004000D0000200600002080460020814603
:1009F00000A80021002206C0083800F03DFC0700D6
:100A00007FB20A2F02D07FB20D2F03D143A000F096
:100A100013FF11E07FB2302FEFDB7FB23A2FECDA19
:100A20007FB239003EA000F007FF76B200A837542D
:100A3000761C76B2042EE0DB76B200A80021315499
:100A4000B146002080460020060076B2042E39DA36
:100A500076B200A83056302832D04FFA89F976B2F3
:100A6000B9EB0600401E002805D0022814D009D397
:100A700003281BD024E076B200A83056303810EBA3
:100A800008081DE00FFA88F876B200A83056303812
:100A90000A2101FB008813E00FFA88F876B200A85B
:100AA00030563038642101FB008809E00FFA88F8DD
:100AB00076B200A8305630384FF47A7101FB0088C6
:100AC000761CC2E72DB20FFA88F8454504DB0FFA11
:100AD00088F824B2A04505DA864800F0ADFE5FF044
:100AE000FF3001E0404600B2BDE8FE8380B5824899
:100AF00000F0A2FE814800F09FFE814800F09CFEBD
:100B0000804800F099FE804800F096FE7F4800F093
:100B100093FE7F4800F090FE01BD00000D0A00002A
:100B200025630000704770B588B07A4800F066FF12
:100B30000521794800F095F97849794800F07CFE64
:100B4000784A7949794800F077FE794840F2FF7198
:100B5000018078484FF4FA61018077487549098827
:100B60006422514390FBF1F0FFF71EFF1020069026
:100B70000020059000200490082003906E48029009
:100B80000020019000200090002300221E216B48CD
:100B900000F070FA1E20FFF7E7FE05211E20FFF788
:100BA000F0FE0120664991F900108840654908600F
:100BB0006548B0F900005E490988484340F2FF717A
:100BC00090FBF1F000F2FF715C4800F0B1FA5F4871
:100BD000022101605E48002101705D4800214170E2
:100BE0005B48012181705A480121C1705848002199
:100BF0000171584800210170574800210170FFF72A
:100C000042FBFFF773FF00F037FB0400E4B2200063
:100C100030280ED031282CD047284CD049283FD03E
:100C20004D2845D0672846D0692839D06D283FD057
:100C300050E04A4800F000FE40F6B831C820FFF707
:100C4000CCFE050024A000F0F7FD2DB22900444899
:100C500000F0F2FD2DB2012D3CDB37482DB26421AE
:100C600001FB05F190FBF1F0FFF79EFE3148058096
:100C700030E03C4800F0E0FD40F2FF716420FFF7F7
:100C8000ACFE060014A000F0D7FD36B231003648A5
:100C900000F0D2FD36B2012E1CDB2548068019E09B
:100CA0002348028823480188304800F0C5FD11E040
:100CB000FFF71CFF0EE0FFF704FB002807D0FFF74B
:100CC00003FBC0B201002A4800F0B6FD02E029484B
:100CD00000F0B2FD97E700000D0A000000E100E01F
:100CE00018ED00E000E400E014E000E018E000E0AF
:100CF00010E000E0B817400010174000381740001F
:100D000060174000AC164000D8174000781840002B
:100D1000F817400050140E4000164000EC19400037
:100D200094184000981940008C194000E8184000C1
:100D300022300020203000200090D00300C003406B
:100D40002430002010C003404011400024C0034064
:100D5000183000202630002025300020A419400043
:100D600000194000B01940001819400084174000D5
:100D7000B0184000301940004164D2B2002A01D0BE
:100D8000416600E00166026F036F8A431A40026702
:100D9000426F436F8A431A40426741607047416423
:100DA000D2B2002A01D0416600E00166026F0A4318
:100DB0000267426F436F8A431A404267416070473F
:100DC0004164D2B2002A01D0416600E00166026FA0
:100DD000036F8A431A400267426F0A4342674160C9
:100DE00070474164D2B2002A01D0416600E001663A
:100DF000026F0A430267426F0A43426741607047CD
:100E00004164D30701D5416600E001660A231A4216
:100E100001D0016200E04162930702D5C0F8801062
:100E200003E0120701D5C0F88410416101607047EA
:100E300010B4019C4164E4B2002C01D0416600E092
:100E40000166DBB2002B01D0016500E04165D2B242
:100E5000002A01D0016300E041630161016010BC20
:100E6000704738B504000D0009E0A07A10F00102C7
:100E700021686068FFF780FF04F20C046D1E002DEE
:100E800047D0607A0028F0D002280FD006D304287B
:100E90001CD013D3062822D021D338E0A07A10F03A
:100EA000010221686068FFF77AFFE5E7A07A10F099
:100EB000010221686068FFF783FFDDE7A07A10F088
:100EC000010221686068FFF78CFFD5E7207A00F007
:100ED000EBFAA27A21686068FFF792FFCCE7A07A6C
:100EE00010F00100A17A490701D5012300E0002399
:100EF000617A062901D1012200E00022C0B20090EF
:100F0000DBB2D2B221686068FFF792FFB4E700203D
:100F100000E0012032BD000000204B494FF4C062C8
:100F20000A604A49096831F07001494A1143474A49
:100F30001160484800688003FBD547480068800876
:100F4000800050F0010044490860424800680007F2
:100F5000FBD541480068414908403F4908603D4889
:100F600000680007FBD53948006830F0807050F405
:100F70005C103649086037480068C003FBD5384824
:100F80005FF000510160334800688007FBD43548AA
:100F90005FF0005101602F4800684007FBD42B48E8
:100FA00000684008400050F45C1028490860294857
:100FB0000068C007FBD424480021016022484FF498
:100FC000C061016021480068274908431F49086043
:100FD00020480068C007FBD51C4800682349084327
:100FE0001A4908601B480068C003FBD51C4820490B
:100FF0000160184800688007FBD51748006830F08A
:10100000700015490860134800680007FBD51248B6
:1010100000688008800050F002000F4908600D4809
:1010200000680007FBD50948006830F0080050F45C
:101030005C1006490860074800688003FBD402483A
:101040004FF4407101607047000A0E4020040E40CA
:101050002800370068040E4030040E408FCFFFFF99
:1010600028040E402C040E400120370000003701F8
:1010700003010F202DE9F84F06000F009046994616
:101080000C980D9C0E9DDDF83CA0DDF840B0E4B25C
:101090005FF47A2101FB04F14008B1FBF0F0142861
:1010A00006D36A221F49204800F087FA00F084FA2C
:1010B0000120B8401D490860012030605FFA88F8BF
:1010C00018F001005FFA89F95FEA490111F00E0199
:1010D00008439DF82810C1F30001C9B2090111F0BD
:1010E000100108439DF82C10C1F30001C9B2490159
:1010F00011F020010843E4B250EA0420EDB22904C3
:1011000011F440310843CAF30001090511F48011BC
:1011100008435FEA0B6111F07C5108437060BDE841
:10112000F18F0000BC1240001818400010040E405F
:101130004268D20601D5016201E089B201627047BE
:101140000000800000017F01FD017802F1026703C9
:10115000DA034904B30419057905D405290678068C
:10116000C00602073C076F079B07BF07DB07EF07B7
:10117000FB07FF07FB07EF07DB07BF079B076F07AF
:101180003C070207C00678062906D405790519052B
:10119000B3044904DA036703F1027802FD017F0119
:1011A00000018000000080FF00FF81FE03FE88FD3B
:1011B0000FFD99FC26FCB7FB4DFBE7FA87FA2CFAEA
:1011C000D7F988F940F9FEF8C4F891F865F841F8C4
:1011D00025F811F805F801F805F811F825F841F897
:1011E00065F891F8C4F8FEF840F988F9D7F92CFAB7
:1011F00087FAE7FA4DFBB7FB26FC99FC0FFD88FD4B
:1012000003FE81FE00FF80FF70B584B004000D0076
:1012100000A821494CC94CC00C390C381F4E012183
:1012200000A8FFF71EFE1E484FF480710160AC203D
:1012300030604FF400607060B5FBF4F0000930627C
:1012400040F20220C6F820015020306015480121EC
:1012500001707FBD38B50400104D12480078002899
:1012600004D111495FF4E130FFF7CEFF68698005D2
:10127000FCD5E4B2EC6131BD10B5084C09480078EA
:10128000002804D108495FF4E130FFF7BDFF606931
:10129000C007FCD5A06910BDBC19400000060E4077
:1012A00010040E40273000200090D00310B5040039
:1012B0002000C0B2FFF7CEFF200010BD433A5C50C3
:1012C000726F6772616D2046696C65735C4941524B
:1012D0002053797374656D735C456D6265646465F4
:1012E0006420576F726B62656E636820352E345FC1
:1012F000345C61726D5C6578616D706C65735C41C6
:10130000746D656C5C73616D33735C73616D3373A5
:101310002D656B5C6C69627261726965735C6C6986
:1013200062636869705F73616D33735C736F75724C
:1013300063655C646163632E63000000433A5C5044
:10134000726F6772616D2046696C65735C494152CA
:101350002053797374656D735C456D626564646573
:101360006420576F726B62656E636820352E345F40
:10137000345C61726D5C6578616D706C65735C4145
:10138000746D656C5C73616D33735C73616D337325
:101390002D656B5C6C69627261726965735C6C6906
:1013A00062636869705F73616D33735C736F7572CC
:1013B00063655C706D632E630000000010B4AC24A4
:1013C00004604160174C214203D1B3FBF2F42409BD
:1013D000046211F00E040E2C01D0CC050DD511F0D5
:1013E0003004002C03D1B3FBF2F1016205E0C90621
:1013F00003D5B3FBF2F1C908016210BC7047C9B252
:10140000002902D04021016001E080210160704785
:10141000C9B2002902D01021016001E02021016041
:1014200070470000000108004169C907FCD58069C8
:10143000C0B2704710B5044603E014F8010BFFF783
:1014400035FF20780028F8D110BD2DE9F041044681
:101450000D4616461F46DFF84C804EB14046FFF75A
:10146000E9FF3046FFF7E6FF08F11000FFF7E2FF63
:101470002046FFF7DFFF09A0FFF7DCFF2846FFF754
:10148000D9FF07A0FFF7D6FF3846FFF7D3FF08F1D3
:101490001800FFF7CFFF0020BDE8F0813A00000000
:1014A00020000000E016400010B50400232C06D3F5
:1014B0003B221249124800F080F800F07DF8202C01
:1014C0000DD2104800680121A14008400121A1402F
:1014D000884212D00120A0400B4908600DE0203C5A
:1014E0000A4800680121A14008400121A14088422A
:1014F00003D00120A0400649086010BD3C13400005
:10150000C819400018040E4010040E4008050E4093
:1015100000050E40C9B2830706D0521E22D310F830
:10152000013B9942F7D11FE0083A13D302F10402BC
:1015300041EA012141EA014150F8043B121F21BF59
:101540004B40A3F1013C2CEA030C1CF0803FF3D08C
:10155000C9B2001F083210F8013B521E28BF91EAA1
:10156000030FF8D818BF0120401E7047FEE7FEE7C2
:10157000FEE7FEE7FEE7FEE7FEE7FEE7FEE7FEE743
:10158000FEE7FEE7FEE7FEE7FEE7FEE7FEE7FEE733
:10159000FEE7FEE7FEE7FEE7FEE7FEE7FEE7FEE723
:1015A000FEE7FEE7FEE7FEE7FEE7FEE7FEE7FEE713
:1015B000FEE7FEE7FEE7FEE7704770B584B003463E
:1015C00008460A2100248DF80A400DF109040A2575
:1015D000491EC9B292FBF5F605FB1622303204F81B
:1015E00001293246012AA8BF0129F1DA002200AC04
:1015F0000919FFF72AFF08B900F004BA04B070BD5A
:1016000000002000000E0E400B0000000000400013
:10161000000E0E400B00000000000002000E0E4005
:101620000B00000000000001000E0E400B00000047
:1016300000008000000E0E400B05000010B50A4CA3
:10164000FFF76AFC0948204009490860B4F10050DE
:10165000B0F5404F05D20648006850F000500449EC
:101660000860012010BD00BF0000400080FFFF1F88
:1016700008ED00E000F10103810704D010F8011B20
:1016800089B18107FAD10268B2F10131914311F0B9
:10169000803F04BF50F8042FF6E710F8011B11B18A
:1016A00010F8011BFBE7C01A704700002D2D2069C0
:1016B0003A20446973706C61792070726573656E4D
:1016C00074206672657175656E637920616E642041
:1016D000616D706C69747564652E2D2D0D0A0000A6
:1016E000496E2066756E6374696F6E20000000009D
:1016F000202D2D2000000000202D2D20617373650A
:101700007274696F6E206661696C65640A0000001E
:101710002D2D204D656E752043686F6963657320BC
:10172000666F722074686973206578616D706C658E
:101730002D2D0D0A000000002D2D20303A2053657C
:1017400074206672657175656E6379283230304831
:101750007A2D336B487A292E2D2D0D0A00000000BA
:101760002D2D20313A2053657420616D706C6974A1
:10177000756465283130302D32303437292E2D2DC7
:101780000D0A00002D492D204672657175656E6346
:10179000793A256420487A20416D706C69747564CB
:1017A000653A25640D0A0000CD18400028000000AD
:1017B00000300020000000000D0A2D462D20496E4B
:1017C0007075742076616C756520697320696E761A
:1017D000616C6964210A00002D2D206D3A20446956
:1017E00073706C61792074686973206D656E752EF5
:1017F0002D2D0D0A000000002D2D20633A206F755D
:101800007470757420636F73696E65207761766597
:101810002E2D2D0D0A000000313032342A726566FB
:10182000726573682A313030302F286D636B3E3E0D
:101830003129203C203230000EB400B582B003A91B
:10184000009100AB024601210248FEF773FE06BC80
:101850005DF810FB7719400010B50548054CA04213
:1018600004D050F8041B8847A042FAD110BD00BF35
:10187000A8174000B81740002D2D20733A206F752F
:10188000747075742073696E6520776176652E2D8E
:101890002D0D0A002D2D2050686F6E652053696D47
:1018A000756C61746F7220562573202D2D0D0A0002
:1018B0002D552D204275666665722069732061631F
:1018C000746976652C2025630D0A0000002305E06D
:1018D00050F8041B41F8043B121FFBD150F8042BB5
:1018E000002AF5D1704700002D2D20436F6D7069DF
:1018F0006C65643A202573202573202D2D0D0A0078
:10190000536574206672657175656E637920746FB6
:101910003A2564487A0A000053657420616D706C42
:10192000697475646520746F202564200A000000C6
:101930002D552D2042756666657220697320656D90
:101940007074792E0D0A0000FFF778FE002801D090
:10195000FFF782FF0020FFF7E6F800F057F80000DD
:101960000278C9B28A421AB11CBF10F8012FF9E7F8
:1019700018BF0020704738B504460D462846FFF7CB
:1019800095FCA84218BF0024204632BD4465632060
:10199000203520323031320031303A33313A313172
:1019A000000000004672657175656E63793A00004B
:1019B000416D706C69747564653A00000006000042
:1019C000000E0E400B00000064774964203C203379
:1019D0003500000001491820ABBEFBE726000200DD
:1019E00007463846FFF7F6FFFBE70000302E30329F
:1019F00000000000686C747A4C0000004FF4004155
:101A00004160704780B50120FFF7E4BF80B5FFF764
:021A1000E7BF2E
:040000050040194955
:00000001FF
